{"abi":[{"type":"function","name":"_msgSender","inputs":[],"outputs":[{"name":"sender","type":"address","internalType":"address"}],"stateMutability":"view"},{"type":"function","name":"_msgValue","inputs":[],"outputs":[{"name":"value","type":"uint256","internalType":"uint256"}],"stateMutability":"pure"},{"type":"function","name":"_world","inputs":[],"outputs":[{"name":"","type":"address","internalType":"address"}],"stateMutability":"view"},{"type":"function","name":"supportsInterface","inputs":[{"name":"interfaceId","type":"bytes4","internalType":"bytes4"}],"outputs":[{"name":"","type":"bool","internalType":"bool"}],"stateMutability":"pure"},{"type":"function","name":"withdrawEth","inputs":[{"name":"to","type":"address","internalType":"address"},{"name":"amount","type":"uint256","internalType":"uint256"}],"outputs":[],"stateMutability":"nonpayable"},{"type":"error","name":"World_FunctionSelectorNotFound","inputs":[{"name":"functionSelector","type":"bytes4","internalType":"bytes4"}]},{"type":"error","name":"World_ResourceNotFound","inputs":[{"name":"resourceId","type":"bytes32","internalType":"ResourceId"},{"name":"resourceIdString","type":"string","internalType":"string"}]}],"bytecode":{"object":"0x608060405234801561001057600080fd5b50611755806100206000396000f3fe608060405234801561001057600080fd5b50600436106100675760003560e01c80631b9a91a4116100505780631b9a91a4146100b457806345ec9354146100c9578063e1af802c146100dc57600080fd5b806301ffc9a71461006c578063119df25f14610094575b600080fd5b61007f61007a366004611290565b6100e4565b60405190151581526020015b60405180910390f35b61009c61017d565b6040516001600160a01b03909116815260200161008b565b6100c76100c23660046112d2565b61018c565b005b604051601f19360135815260200161008b565b61009c61025b565b60007fffffffff0000000000000000000000000000000000000000000000000000000082167fb421288000000000000000000000000000000000000000000000000000000000148061017757507fffffffff0000000000000000000000000000000000000000000000000000000082167f01ffc9a700000000000000000000000000000000000000000000000000000000145b92915050565b6000610187610265565b905090565b61019c61019761017d565b610297565b60006101a661025b565b604080517f6e73000000000000000000000000000000000000000000000000000000000000602482018190526001600160a01b038716604483015260648083018790528351808403909101815260849092019092526020810180517bffffffffffffffffffffffffffffffffffffffffffffffffffffffff167f45afd199000000000000000000000000000000000000000000000000000000001790529192509060009061025390610316565b505050505050565b60006101876103af565b7fffffffffffffffffffffffffffffffffffffffffffffffffffffffffffffffcc36013560601c806102945750335b90565b6102a86102a26103ee565b82610486565b610313576040517f08c379a000000000000000000000000000000000000000000000000000000000815260206004820181905260248201527f63616c6c657220646f6573206e6f7420686176652074686520736b79206b657960448201526064015b60405180910390fd5b50565b606060008061032c6103278561130a565b610519565b91509150816000801b03610392576040517ffdde54e20000000000000000000000000000000000000000000000000000000081527fffffffff0000000000000000000000000000000000000000000000000000000060003516600482015260240161030a565b6103a7826103a286600085610641565b610674565b949350505050565b7f629a4c26e296b22a8e0856e9f6ecb2d1008d7e00081111962cd175fa7488e175546000906001600160a01b0316806103e9573391505090565b919050565b604080516000808252602082018352613a3160f11b82840152604282018190527f536b79506f6f6c436f6e6669670000000000000000000000000000000000000060508301528251808303840181526060830190935291829061047c9061045490611370565b8360047e7c0500202014141400000000000000000000000000000000000000000000006107ae565b60601c9392505050565b600080836001600160a01b03166339f898bc6040518163ffffffff1660e01b8152600401602060405180830381865afa1580156104c7573d6000803e3d6000fd5b505050506040513d601f19601f820116820180604052508101906104eb9190611397565b905060006105016104fc8360101b90565b61086b565b9050600061050f828661089d565b1195945050505050565b6040805160018082528183019092526000918291829160208083019080368337019050509050837bffffffffffffffffffffffffffffffffffffffffffffffffffffffff191681600081518110610572576105726113b0565b60209081029190910181019190915260408051613a3160f11b818401527f776f726c6400000000000000000000000000000000000000000000000000000060228201527f46756e6374696f6e53656c6563746f72000000000000000000000000000000006030820152815180820390930183528101905260009081908190610623906105fd90611370565b857e24020020040000000000000000000000000000000000000000000000000000610923565b9250925092506106348383836109f3565b9550955050505050915091565b82820160200180517bffffffffffffffffffffffffffffffffffffffffffffffffffffffff1682179052825b9392505050565b6060600061068061025b565b90506001600160a01b038116300361072057600061069d85610a0b565b5090506001600160a01b0381166106ec57846106b886610b07565b6040517ffbf10ce600000000000000000000000000000000000000000000000000000000815260040161030a929190611416565b60006107066106f9610265565b36601f1901358488610c83565b94509050806107185761071884610cf7565b505050610177565b6040517f3ae7af080000000000000000000000000000000000000000000000000000000081526001600160a01b03821690633ae7af08906107679087908790600401611416565b6000604051808303816000875af1158015610786573d6000803e3d6000fd5b505050506040513d6000823e601f3d908101601f191682016040526103a791908101906114b7565b6000806107b96103af565b9050306001600160a01b038216036107df576107d786868686610cff565b9150506103a7565b6040517f8c364d590000000000000000000000000000000000000000000000000000000081526001600160a01b03821690638c364d599061082a908990899089908990600401611528565b602060405180830381865afa158015610847573d6000803e3d6000fd5b505050506040513d601f19601f820116820180604052508101906107d79190611397565b6000610177613a3160f11b837f42616c616e636573000000000000000000000000000000000000000000000000610d2c565b60408051600180825281830190925260009182919060208083019080368337019050509050826001600160a01b031660001b816000815181106108e2576108e26113b0565b6020908102919091010152600061091a8583837e200100200000000000000000000000000000000000000000000000000000006107ae565b95945050505050565b60606000606060006109336103af565b9050306001600160a01b0382160361095c57610950878787610db3565b935093509350506109ea565b6040517f419b58fd0000000000000000000000000000000000000000000000000000000081526001600160a01b0382169063419b58fd906109a5908a908a908a90600401611557565b600060405180830381865afa1580156109c2573d6000803e3d6000fd5b505050506040513d6000823e601f3d908101601f191682016040526109509190810190611580565b93509350939050565b6000806109ff85610ebb565b90969095509350505050565b60408051600180825281830190925260009182918291602080830190803683370190505090508381600081518110610a4557610a456113b0565b60209081029190910181019190915260408051613a3160f11b818401527f776f726c6400000000000000000000000000000000000000000000000000000060228201527f53797374656d73000000000000000000000000000000000000000000000000006030820152815180820390930183528101905260009081908190610af690610ad090611370565b857e15020014010000000000000000000000000000000000000000000000000000610923565b925092509250610634838383610ed0565b606081601081901b6000610b1a83610edc565b9050827fffffffffffffffffffffffffffff000000000000000000000000000000000000831615610b6d577fffffffffffffffffffffffffffff0000000000000000000000000000000000008316610b8f565b7f524f4f545f4e414d4553504143450000000000000000000000000000000000005b7fffffffffffffffffffffffffffffffff00000000000000000000000000000000831615610bbd5782610bdf565b7f524f4f545f4e414d4500000000000000000000000000000000000000000000005b6040517fffff00000000000000000000000000000000000000000000000000000000000090931660208401527f3a00000000000000000000000000000000000000000000000000000000000000602284018190527fffffffffffffffffffffffffffffffff00000000000000000000000000000000928316602385015260338401521660348201526044016040516020818303038152906040529350505050919050565b60006060836001600160a01b0316610c9c848888610ef3565b604051610ca991906115ed565b600060405180830381855af49150503d8060008114610ce4576040519150601f19603f3d011682016040523d82523d6000602084013e610ce9565b606091505b509097909650945050505050565b805160208201fd5b600061091a610d0e8686610f22565b60ff858116601b0360080285901c16610d278587610f78565b610fb1565b6000610d3a6070601061161f565b7fffff00000000000000000000000000000000000000000000000000000000000085167dffffffffffffffffffffffffffff00000000000000000000000000000000601086901c16177fffffffffffffffffffffffffffffffff00000000000000000000000000000000841690911c1790509392505050565b6060600060606000610dc485611002565b9050610dd1878783611025565b93506000610dde8661105e565b90508015610eb057610df0888861109b565b935066ffffffffffffff841667ffffffffffffffff811115610e1457610e1461135a565b6040519080825280601f01601f191660200182016040528015610e3e576020820181803683370190505b5092506020830160005b828160ff161015610ead576000610e608b8b846110ae565b90506000610e7d888460ff166028026038011c64ffffffffff1690565b9050610e8c828260008761112e565b610e96818561161f565b935050508080610ea590611632565b915050610e48565b50505b505093509350939050565b602081015160408201516000905b9050915091565b6000806109ff856111fb565b6000610eea6070601061161f565b9190911b919050565b6060838383604051602001610f0a93929190611651565b60405160208183030381529060405290509392505050565b60008282604051602001610f379291906116a3565b60408051601f1981840301815291905280516020909101207f86425bff6b57326c7859e89024fe4f238ca327a1ae4a230180dd2f0e88aaa7d9189392505050565b600080805b8360ff16811015610fa957610f9f60ff601b83900360080287901c168361161f565b9150600101610f7d565b509392505050565b600060208210610fd757602082048401935060208281610fd357610fd36116df565b0691505b508254600882021b602082900380841115610fa9576001850154600882021c82179150509392505050565b60006008611012600260206116f5565b61101c9190611708565b9190911c919050565b606081600003611044575060408051602081019091526000815261066d565b60006110508585610f22565b905061091a81846000611217565b60006008600180611071600260206116f5565b61107b91906116f5565b61108591906116f5565b61108f9190611708565b8260ff911c1692915050565b600061066d6110aa848461123a565b5490565b600083836040516020016110c39291906116a3565b604051602081830303815290604052805190602001208260f81b7effffffffffffffffffffffffffffffffffffffffffffffffffffffffffffff19167f3b4102da22e32d82fc925482184f16c09fd4281692720b87d124aef6da48a0f1181860001c90509392505050565b81156111b7576020821061115857602082048401935060208281611154576111546116df565b0691505b81156111b757602082900360008185101561117c5750600019600885021c19611187565b50600019600882021c195b8554600885021b8119845116828216178452508185116111a85750506111f5565b50600194909401939283900392015b5b602083106111d95783548152600190930192601f19909201916020016111b8565b82156111f55780518454600019600886021c9182169119161781525b50505050565b6020810151603482015160609190911c9060009060f81c610ec9565b60405160208101601f19603f8584010116604052838252610fa98585858461112e565b6000828260405160200161124f9291906116a3565b60408051601f1981840301815291905280516020909101207f14e2fcc58e58e68ec7edc30c8d50dccc3ce2714a623ec81f46b6a63922d76569189392505050565b6000602082840312156112a257600080fd5b81357fffffffff000000000000000000000000000000000000000000000000000000008116811461066d57600080fd5b600080604083850312156112e557600080fd5b82356001600160a01b03811681146112fc57600080fd5b946020939093013593505050565b6000815160208301517fffffffff00000000000000000000000000000000000000000000000000000000808216935060048310156113525780818460040360031b1b83161693505b505050919050565b634e487b7160e01b600052604160045260246000fd5b80516020808301519190811015611391576000198160200360031b1b821691505b50919050565b6000602082840312156113a957600080fd5b5051919050565b634e487b7160e01b600052603260045260246000fd5b60005b838110156113e15781810151838201526020016113c9565b50506000910152565b600081518084526114028160208601602086016113c6565b601f01601f19169290920160200192915050565b8281526040602082015260006103a760408301846113ea565b600082601f83011261144057600080fd5b815167ffffffffffffffff8082111561145b5761145b61135a565b604051601f8301601f19908116603f011681019082821181831017156114835761148361135a565b8160405283815286602085880101111561149c57600080fd5b6114ad8460208301602089016113c6565b9695505050505050565b6000602082840312156114c957600080fd5b815167ffffffffffffffff8111156114e057600080fd5b6103a78482850161142f565b60008151808452602080850194506020840160005b8381101561151d57815187529582019590820190600101611501565b509495945050505050565b84815260806020820152600061154160808301866114ec565b60ff949094166040830152506060015292915050565b83815260606020820152600061157060608301856114ec565b9050826040830152949350505050565b60008060006060848603121561159557600080fd5b835167ffffffffffffffff808211156115ad57600080fd5b6115b98783880161142f565b94506020860151935060408601519150808211156115d657600080fd5b506115e38682870161142f565b9150509250925092565b600082516115ff8184602087016113c6565b9190910192915050565b634e487b7160e01b600052601160045260246000fd5b8082018082111561017757610177611609565b600060ff821660ff810361164857611648611609565b60010192915050565b600084516116638184602089016113c6565b60609490941b7fffffffffffffffffffffffffffffffffffffffff0000000000000000000000001691909301908152601481019190915260340192915050565b8281526000602080830184516020860160005b828110156116d2578151845292840192908401906001016116b6565b5091979650505050505050565b634e487b7160e01b600052601260045260246000fd5b8181038181111561017757610177611609565b80820281158282048414176101775761017761160956fea2646970667358221220a0556c3c19d7b71b26832a6e89b9cc0433cb953ba2e4de269d1f9e1d50796bec64736f6c63430008170033","linkReferences":{}},"methodIdentifiers":{"_msgSender()":"119df25f","_msgValue()":"45ec9354","_world()":"e1af802c","supportsInterface(bytes4)":"01ffc9a7","withdrawEth(address,uint256)":"1b9a91a4"},"id":464}