{"abi":[{"type":"function","name":"_msgSender","inputs":[],"outputs":[{"name":"sender","type":"address","internalType":"address"}],"stateMutability":"view"},{"type":"function","name":"_msgValue","inputs":[],"outputs":[{"name":"value","type":"uint256","internalType":"uint256"}],"stateMutability":"pure"},{"type":"function","name":"_world","inputs":[],"outputs":[{"name":"","type":"address","internalType":"address"}],"stateMutability":"view"},{"type":"function","name":"supportsInterface","inputs":[{"name":"interfaceId","type":"bytes4","internalType":"bytes4"}],"outputs":[{"name":"","type":"bool","internalType":"bool"}],"stateMutability":"pure"},{"type":"function","name":"uploadLevel","inputs":[{"name":"levelId","type":"bytes32","internalType":"bytes32"},{"name":"templateIds","type":"bytes32[]","internalType":"bytes32[]"},{"name":"xs","type":"int32[]","internalType":"int32[]"},{"name":"ys","type":"int32[]","internalType":"int32[]"}],"outputs":[],"stateMutability":"nonpayable"},{"type":"event","name":"Store_SetRecord","inputs":[{"name":"tableId","type":"bytes32","indexed":true,"internalType":"ResourceId"},{"name":"keyTuple","type":"bytes32[]","indexed":false,"internalType":"bytes32[]"},{"name":"staticData","type":"bytes","indexed":false,"internalType":"bytes"},{"name":"encodedLengths","type":"bytes32","indexed":false,"internalType":"PackedCounter"},{"name":"dynamicData","type":"bytes","indexed":false,"internalType":"bytes"}],"anonymous":false},{"type":"event","name":"Store_SpliceDynamicData","inputs":[{"name":"tableId","type":"bytes32","indexed":true,"internalType":"ResourceId"},{"name":"keyTuple","type":"bytes32[]","indexed":false,"internalType":"bytes32[]"},{"name":"start","type":"uint48","indexed":false,"internalType":"uint48"},{"name":"deleteCount","type":"uint40","indexed":false,"internalType":"uint40"},{"name":"encodedLengths","type":"bytes32","indexed":false,"internalType":"PackedCounter"},{"name":"data","type":"bytes","indexed":false,"internalType":"bytes"}],"anonymous":false},{"type":"error","name":"PackedCounter_InvalidLength","inputs":[{"name":"length","type":"uint256","internalType":"uint256"}]},{"type":"error","name":"Slice_OutOfBounds","inputs":[{"name":"data","type":"bytes","internalType":"bytes"},{"name":"start","type":"uint256","internalType":"uint256"},{"name":"end","type":"uint256","internalType":"uint256"}]},{"type":"error","name":"Store_IndexOutOfBounds","inputs":[{"name":"length","type":"uint256","internalType":"uint256"},{"name":"accessedIndex","type":"uint256","internalType":"uint256"}]},{"type":"error","name":"Store_InvalidResourceType","inputs":[{"name":"expected","type":"bytes2","internalType":"bytes2"},{"name":"resourceId","type":"bytes32","internalType":"ResourceId"},{"name":"resourceIdString","type":"string","internalType":"string"}]},{"type":"error","name":"Store_InvalidSplice","inputs":[{"name":"startWithinField","type":"uint40","internalType":"uint40"},{"name":"deleteCount","type":"uint40","internalType":"uint40"},{"name":"fieldLength","type":"uint40","internalType":"uint40"}]}],"bytecode":{"object":"0x608060405234801561001057600080fd5b506122d3806100206000396000f3fe608060405234801561001057600080fd5b50600436106100675760003560e01c806345ec93541161005057806345ec9354146100b4578063af0d52db146100c7578063e1af802c146100dc57600080fd5b806301ffc9a71461006c578063119df25f14610094575b600080fd5b61007f61007a366004611c59565b6100e4565b60405190151581526020015b60405180910390f35b61009c61017d565b6040516001600160a01b03909116815260200161008b565b604051601f19360135815260200161008b565b6100da6100d5366004611d85565b61018c565b005b61009c61022c565b60007fffffffff0000000000000000000000000000000000000000000000000000000082167fb421288000000000000000000000000000000000000000000000000000000000148061017757507fffffffff0000000000000000000000000000000000000000000000000000000082167f01ffc9a700000000000000000000000000000000000000000000000000000000145b92915050565b6000610187610236565b905090565b61019c61019761017d565b610268565b60006101a7856102e7565b905060005b84518110156102245760006101c18284611e84565b905061021b87828885815181106101da576101da611e97565b60200260200101518886815181106101f4576101f4611e97565b602002602001015188878151811061020e5761020e611e97565b60200260200101516103a1565b506001016101ac565b505050505050565b60006101876103d5565b7fffffffffffffffffffffffffffffffffffffffffffffffffffffffffffffffcc36013560601c806102655750335b90565b610279610273610414565b826104ac565b6102e4576040517f08c379a000000000000000000000000000000000000000000000000000000000815260206004820181905260248201527f63616c6c657220646f6573206e6f7420686176652074686520736b79206b657960448201526064015b60405180910390fd5b50565b60408051600180825281830190925260009182919060208083019080368337019050509050828160008151811061032057610320611e97565b60209081029190910181019190915260408051613a3160f11b928101929092526000602283018190527f4c6576656c54656d706c61746573000000000000000000000000000000000000603084015291610395910160405160208183030381529060405261038d90611ead565b83600061053f565b60209004949350505050565b6103ab8584610602565b6103b68584866106d2565b6103c285858484610784565b6103ce8583838761087e565b5050505050565b7f629a4c26e296b22a8e0856e9f6ecb2d1008d7e00081111962cd175fa7488e175546000906001600160a01b03168061040f573391505090565b919050565b604080516000808252602082018352613a3160f11b82840152604282018190527f536b79506f6f6c436f6e666967000000000000000000000000000000000000006050830152825180830384018152606083019093529182906104a29061047a90611ead565b8360047e7c050020201414140000000000000000000000000000000000000000000000610958565b60601c9392505050565b600080836001600160a01b03166339f898bc6040518163ffffffff1660e01b8152600401602060405180830381865afa1580156104ed573d6000803e3d6000fd5b505050506040513d601f19601f820116820180604052508101906105119190611eea565b905060006105276105228360101b90565b610a1d565b905060006105358286610a4f565b1195945050505050565b60008061054a6103d5565b9050306001600160a01b0382160361056f57610567858585610ad5565b9150506105fb565b6040517fdbbf0e210000000000000000000000000000000000000000000000000000000081526001600160a01b0382169063dbbf0e21906105b890889088908890600401611f3f565b602060405180830381865afa1580156105d5573d6000803e3d6000fd5b505050506040513d601f19601f820116820180604052508101906105679190611eea565b505b9392505050565b60408051600180825281830190925260009160208083019080368337019050509050828160008151811061063857610638611e97565b60209081029190910181019190915260408051613a3160f11b92810192909252600060228301527f4c6576656c54656d706c6174657300000000000000000000000000000000000060308301526106cd91015b6040516020818303038152906040526106a390611ead565b826000856040516020016106b991815260200190565b604051602081830303815290604052610afa565b505050565b604080516002808252606082018352600092602083019080368337019050509050838160008151811061070757610707611e97565b602002602001018181525050828160018151811061072757610727611e97565b60209081029190910181019190915260408051613a3160f11b92810192909252600060228301527f4c6576656c54656d706c61746573496e00000000000000000000000000000000603083015261077e910161068b565b50505050565b6040805160e084811b602083015283901b6024820152815160088183030181526002602883018181526088840185529193600093606093859390929091604801908036833701905050905087816000815181106107e3576107e3611e97565b6020026020010181815250508660001b8160018151811061080657610806611e97565b60209081029190910181019190915260408051613a3160f11b81840152600060228201527f4c6576656c506f736974696f6e00000000000000000000000000000000000000603082015281518082039093018352810190526108749061086b90611ead565b82868686610bab565b5050505050505050565b604080516003808252608082019092526000916020820160608036833701905050905084816000815181106108b5576108b5611e97565b6020026020010181815250508360030b60001b816001815181106108db576108db611e97565b6020026020010181815250508260030b60001b8160028151811061090157610901611e97565b60209081029190910181019190915260408051613a3160f11b92810192909252600060228301527f4c6576656c506f736974696f6e496e640000000000000000000000000000000060308301526103ce910161068b565b6000806109636103d5565b9050306001600160a01b038216036109895761098186868686610c60565b915050610a15565b6040517f8c364d590000000000000000000000000000000000000000000000000000000081526001600160a01b03821690638c364d59906109d4908990899089908990600401611f6b565b602060405180830381865afa1580156109f1573d6000803e3d6000fd5b505050506040513d601f19601f820116820180604052508101906109819190611eea565b949350505050565b6000610177613a3160f11b837f42616c616e636573000000000000000000000000000000000000000000000000610c8d565b60408051600180825281830190925260009182919060208083019080368337019050509050826001600160a01b031660001b81600081518110610a9457610a94611e97565b60209081029190910101526000610acc8583837e20010020000000000000000000000000000000000000000000000000000000610958565b95945050505050565b6000610a1582610ae58686610d14565b9060ff166028026038011c64ffffffffff1690565b6000610b046103d5565b9050306001600160a01b03821603610b2757610b2285858585610d27565b6103ce565b6040517f150f32620000000000000000000000000000000000000000000000000000000081526001600160a01b0382169063150f326290610b72908890889088908890600401611fe0565b600060405180830381600087803b158015610b8c57600080fd5b505af1158015610ba0573d6000803e3d6000fd5b505050505050505050565b6000610bb56103d5565b9050306001600160a01b03821603610bd957610bd48686868686610d62565b610224565b6040517f298314fb0000000000000000000000000000000000000000000000000000000081526001600160a01b0382169063298314fb90610c26908990899089908990899060040161201f565b600060405180830381600087803b158015610c4057600080fd5b505af1158015610c54573d6000803e3d6000fd5b50505050505050505050565b6000610acc610c6f8686610d78565b60ff858116601b0360080285901c16610c888587610dce565b610dff565b6000610c9b60706010611e84565b7fffff00000000000000000000000000000000000000000000000000000000000085167dffffffffffffffffffffffffffff00000000000000000000000000000000601086901c16177fffffffffffffffffffffffffffffffff00000000000000000000000000000000841690911c1790509392505050565b60006105fb610d238484610e50565b5490565b6000610d338585610d14565b90506000610d50828560ff166028026038011c64ffffffffff1690565b90506102248686868460008888610ea6565b6103ce8585858585610d738b6112a8565b6113d6565b60008282604051602001610d8d929190612070565b60408051601f1981840301815291905280516020909101207f86425bff6b57326c7859e89024fe4f238ca327a1ae4a230180dd2f0e88aaa7d9189392505050565b600080805b8360ff168110156105f957610df560ff601b83900360080287901c1683611e84565b9150600101610dd3565b600060208210610e2557602082048401935060208281610e2157610e21611ed4565b0691505b508254600882021b6020829003808411156105f9576001850154600882021c82179150509392505050565b60008282604051602001610e65929190612070565b60408051601f1981840301815291905280516020909101207f14e2fcc58e58e68ec7edc30c8d50dccc3ce2714a623ec81f46b6a63922d76569189392505050565b613a3160f11b877fffff0000000000000000000000000000000000000000000000000000000000001614610f3057613a3160f11b8788604051602001610eee91815260200190565b60408051601f19818403018152908290527f31b466830000000000000000000000000000000000000000000000000000000082526102db9392916004016120ac565b6000610f4b828760ff166028026038011c64ffffffffff1690565b9050600083518564ffffffffff1683610f6491906120ed565b610f6e9190611e84565b9050808214158015610f90575081610f868688612100565b64ffffffffff1614155b15610fe0576040517fa65010b400000000000000000000000000000000000000000000000000000000815264ffffffffff80881660048301528087166024830152831660448201526064016102db565b818664ffffffffff161115611031576040517f7e8578d30000000000000000000000000000000000000000000000000000000081526004810183905264ffffffffff871660248201526044016102db565b600061103e8489846116b1565b905064ffffffffff871660005b8960ff168160ff16101561107e57611072868260ff166028026038011c64ffffffffff1690565b9091019060010161104b565b508a7faa63765a776145e5e6492f471ae097dfed11cd57a61bc2679dd43180422385b48b838a868b6040516110b7959493929190612125565b60405180910390a25060006110cb8b61177f565b905060005b81518110156111965760008282815181106110ed576110ed611e97565b602002602001015190506111196010826affffffffffffffffffffff191661185f90919063ffffffff16565b1561118d57606081901c6001600160a01b03166355eb5a288e8e8e8e8e8a8f6040518863ffffffff1660e01b815260040161115a979695949392919061216b565b600060405180830381600087803b15801561117457600080fd5b505af1158015611188573d6000803e3d6000fd5b505050505b506001016110d0565b508284146111af5760006111aa8c8c610e50565b839055505b60006111bc8c8c8c61187d565b90506111d0818a64ffffffffff16896118fd565b5060005b815181101561129a5760008282815181106111f1576111f1611e97565b6020026020010151905061121d6020826affffffffffffffffffffff191661185f90919063ffffffff16565b1561129157606081901c6001600160a01b031663635845338e8e8e8e8e8a8f6040518863ffffffff1660e01b815260040161125e979695949392919061216b565b600060405180830381600087803b15801561127857600080fd5b505af115801561128c573d6000803e3d6000fd5b505050505b506001016111d4565b505050505050505050505050565b60408051613a3160f11b60208201527f73746f726500000000000000000000000000000000000000000000000000000060228201527f5461626c6573000000000000000000000000000000000000000000000000000060308201526000910160405160208183030381529060405261131f90611ead565b820361134b57507e60030220202000000000000000000000000000000000000000000000000000919050565b60408051613a3160f11b60208201527f73746f726500000000000000000000000000000000000000000000000000000060228201527f5461626c657300000000000000000000000000000000000000000000000000006030820152610177916113cd91016040516020818303038152906040526113c790611ead565b8461190d565b60206000610dff565b857f8dbb3a9672eebfd3773e72dd9c102393436816d832c7ba9e1e1ac8fcadcac7a98686868660405161140c94939291906121c9565b60405180910390a2613a3160f11b867fffff000000000000000000000000000000000000000000000000000000000000160361022457600061144d8761177f565b905060005b815181101561152657600082828151811061146f5761146f611e97565b6020026020010151905061149b6001826affffffffffffffffffffff191661185f90919063ffffffff16565b1561151d576040517f57066c9c000000000000000000000000000000000000000000000000000000008152606082901c906357066c9c906114ea908c908c908c908c908c908c90600401612208565b600060405180830381600087803b15801561150457600080fd5b505af1158015611518573d6000803e3d6000fd5b505050505b50600101611452565b5060006115338888610d78565b9050600060208701905061154b826000838a51611929565b6000611556856119e9565b11156115da5760006115688a8a610e50565b878155905060208601915060008060005b611582886119e9565b8160ff1610156115d5576115978d8d8361187d565b92506115b28a8260ff166028026038011c64ffffffffff1690565b91506115c18360008785611929565b6115cb8286611e84565b9450600101611579565b505050505b60005b8351811015610c545760008482815181106115fa576115fa611e97565b602002602001015190506116266002826affffffffffffffffffffff191661185f90919063ffffffff16565b156116a8576040517f5b28cdaf000000000000000000000000000000000000000000000000000000008152606082901c90635b28cdaf90611675908e908e908e908e908e908e90600401612208565b600060405180830381600087803b15801561168f57600080fd5b505af11580156116a3573d6000803e3d6000fd5b505050505b506001016115dd565b600064ffffffffff8211156116f5576040517f47670588000000000000000000000000000000000000000000000000000000008152600481018390526024016102db565b8366ffffffffffffff811660ff851660280260380182901c64ffffffffff16808510611727578085038201915061172f565b848103820391505b5064ffffffffff6038602860ff8816020181811b197fffffffffffffffffffffffffffffffffffffffffffffffffff000000000000009490941690921792909216918416901b1790509392505050565b604080516001808252818301909252606091600091906020808301908036833701905050905082816000815181106117b9576117b9611e97565b60209081029190910181019190915260408051613a3160f11b818401527f73746f726500000000000000000000000000000000000000000000000000000060228201527f53746f7265486f6f6b7300000000000000000000000000000000000000000000603082015281518082039093018352810190526000906118489061184090611ead565b836000611a26565b9050610a1561185a8260008451611a4b565b611adb565b60008160ff16826118708560581c90565b1660ff1614905092915050565b60008383604051602001611892929190612070565b604051602081830303815290604052805190602001208260f81b7effffffffffffffffffffffffffffffffffffffffffffffffffffffffffffff19167f3b4102da22e32d82fc925482184f16c09fd4281692720b87d124aef6da48a0f1181860001c90509392505050565b6106cd8383602084018451611929565b6040805160208101849052908101829052600090606001610d8d565b82156119a357602083106119535760208304840193506020838161194f5761194f611ed4565b0692505b82156119a35760208390036000600019600884021c1990506008850281811c91508451811c905081198754168282161787555081831161199457505061077e565b50600194909401939182019190035b5b602081106119c55781518455600190930192602090910190601f19016119a4565b801561077e576000600019600883021c198554845182169119161785555050505050565b600060086001806119fc600260206120ed565b611a0691906120ed565b611a1091906120ed565b611a1a9190612261565b8260ff911c1692915050565b6060610a15611a3685858561187d565b611a4484610ae58888610d14565b6000611aec565b6000818311158015611a5e575083518211155b611a9a578383836040517f23230fa30000000000000000000000000000000000000000000000000000000081526004016102db93929190612278565b60208401611aa88482611e84565b90506000611ab685856120ed565b6fffffffffffffffffffffffffffffffff1660809290921b9190911795945050505050565b606060006105fb8360156000611b0f565b60405160208101601f19603f85840101166040528382526105f985858584611b8a565b60606000611b1d8560801c90565b90506fffffffffffffffffffffffffffffffff85166000858281611b4357611b43611ed4565b04905060405193506020840160208202810160405281855260005b82811015611b7e578451871c825293870193602090910190600101611b5e565b50505050509392505050565b8115611c135760208210611bb457602082048401935060208281611bb057611bb0611ed4565b0691505b8115611c13576020829003600081851015611bd85750600019600885021c19611be3565b50600019600882021c195b8554600885021b811984511682821617845250818511611c0457505061077e565b50600194909401939283900392015b5b60208310611c355783548152600190930192601f1990920191602001611c14565b821561077e576000600019600885021c198251865482169119161782525050505050565b600060208284031215611c6b57600080fd5b81357fffffffff00000000000000000000000000000000000000000000000000000000811681146105fb57600080fd5b634e487b7160e01b600052604160045260246000fd5b604051601f8201601f1916810167ffffffffffffffff81118282101715611cda57611cda611c9b565b604052919050565b600067ffffffffffffffff821115611cfc57611cfc611c9b565b5060051b60200190565b600082601f830112611d1757600080fd5b81356020611d2c611d2783611ce2565b611cb1565b8083825260208201915060208460051b870101935086841115611d4e57600080fd5b602086015b84811015611d7a5780358060030b8114611d6d5760008081fd5b8352918301918301611d53565b509695505050505050565b60008060008060808587031215611d9b57600080fd5b8435935060208086013567ffffffffffffffff80821115611dbb57600080fd5b818801915088601f830112611dcf57600080fd5b8135611ddd611d2782611ce2565b81815260059190911b8301840190848101908b831115611dfc57600080fd5b938501935b82851015611e1a57843582529385019390850190611e01565b975050506040880135925080831115611e3257600080fd5b611e3e89848a01611d06565b94506060880135925080831115611e5457600080fd5b5050611e6287828801611d06565b91505092959194509250565b634e487b7160e01b600052601160045260246000fd5b8082018082111561017757610177611e6e565b634e487b7160e01b600052603260045260246000fd5b80516020808301519190811015611ece576000198160200360031b1b821691505b50919050565b634e487b7160e01b600052601260045260246000fd5b600060208284031215611efc57600080fd5b5051919050565b60008151808452602080850194506020840160005b83811015611f3457815187529582019590820190600101611f18565b509495945050505050565b838152606060208201526000611f586060830185611f03565b905060ff83166040830152949350505050565b848152608060208201526000611f846080830186611f03565b60ff949094166040830152506060015292915050565b6000815180845260005b81811015611fc057602081850181015186830182015201611fa4565b506000602082860101526020601f19601f83011685010191505092915050565b848152608060208201526000611ff96080830186611f03565b60ff8516604084015282810360608401526120148185611f9a565b979650505050505050565b85815260a06020820152600061203860a0830187611f03565b828103604084015261204a8187611f9a565b905084606084015282810360808401526120648185611f9a565b98975050505050505050565b8281526000602080830184516020860160005b8281101561209f57815184529284019290840190600101612083565b5091979650505050505050565b7fffff00000000000000000000000000000000000000000000000000000000000084168152826020820152606060408201526000610acc6060830184611f9a565b8181038181111561017757610177611e6e565b64ffffffffff81811683821601908082111561211e5761211e611e6e565b5092915050565b60a08152600061213860a0830188611f03565b65ffffffffffff8716602084015264ffffffffff8616604084015284606084015282810360808401526120648185611f9a565b87815260e06020820152600061218460e0830189611f03565b60ff8816604084015264ffffffffff87811660608501528616608084015260a0830185905282810360c08401526121bb8185611f9a565b9a9950505050505050505050565b6080815260006121dc6080830187611f03565b82810360208401526121ee8187611f9a565b905084604084015282810360608401526120148185611f9a565b86815260c06020820152600061222160c0830188611f03565b82810360408401526122338188611f9a565b9050856060840152828103608084015261224d8186611f9a565b9150508260a0830152979650505050505050565b808202811582820484141761017757610177611e6e565b60608152600061228b6060830186611f9a565b6020830194909452506040015291905056fea2646970667358221220f8b86ac93fb7715b01f99d83620563dc35acbc5bc39cc58b2a198f53f187aeb164736f6c63430008170033","linkReferences":{}},"methodIdentifiers":{"_msgSender()":"119df25f","_msgValue()":"45ec9354","_world()":"e1af802c","supportsInterface(bytes4)":"01ffc9a7","uploadLevel(bytes32,bytes32[],int32[],int32[])":"af0d52db"},"id":453}