{"abi":[{"type":"function","name":"_msgSender","inputs":[],"outputs":[{"name":"sender","type":"address","internalType":"address"}],"stateMutability":"view"},{"type":"function","name":"_msgValue","inputs":[],"outputs":[{"name":"value","type":"uint256","internalType":"uint256"}],"stateMutability":"pure"},{"type":"function","name":"_world","inputs":[],"outputs":[{"name":"","type":"address","internalType":"address"}],"stateMutability":"view"},{"type":"function","name":"isAllowed","inputs":[{"name":"","type":"bytes32","internalType":"bytes32"},{"name":"account","type":"address","internalType":"address"}],"outputs":[{"name":"","type":"bool","internalType":"bool"}],"stateMutability":"view"},{"type":"function","name":"supportsInterface","inputs":[{"name":"interfaceId","type":"bytes4","internalType":"bytes4"}],"outputs":[{"name":"","type":"bool","internalType":"bool"}],"stateMutability":"pure"}],"bytecode":{"object":"0x608060405234801561001057600080fd5b5061093a806100206000396000f3fe608060405234801561001057600080fd5b50600436106100675760003560e01c806345ec93541161005057806345ec9354146100c157806382027b6d146100d4578063e1af802c146100e757600080fd5b806301ffc9a71461006c578063119df25f14610094575b600080fd5b61007f61007a3660046106ea565b6100ef565b60405190151581526020015b60405180910390f35b61009c610188565b60405173ffffffffffffffffffffffffffffffffffffffff909116815260200161008b565b604051601f19360135815260200161008b565b61007f6100e236600461072c565b610197565b61009c6101a9565b60007fffffffff0000000000000000000000000000000000000000000000000000000082167fb421288000000000000000000000000000000000000000000000000000000000148061018257507fffffffff0000000000000000000000000000000000000000000000000000000082167f01ffc9a700000000000000000000000000000000000000000000000000000000145b92915050565b60006101926101b3565b905090565b60006101a2826101e5565b9392505050565b60006101926101f8565b7fffffffffffffffffffffffffffffffffffffffffffffffffffffffffffffffcc36013560601c806101e25750335b90565b60006101826101f2610244565b836102f7565b7f629a4c26e296b22a8e0856e9f6ecb2d1008d7e00081111962cd175fa7488e1755460009073ffffffffffffffffffffffffffffffffffffffff168061023f573391505090565b919050565b6040805160008082526020820183527f746200000000000000000000000000000000000000000000000000000000000082840152604282018190527f536b79506f6f6c436f6e666967000000000000000000000000000000000000006050830152825180830384018152606083019093529182906102ed906102c590610775565b8360037e7c050020201414140000000000000000000000000000000000000000000000610397565b60601c9392505050565b6000808373ffffffffffffffffffffffffffffffffffffffff166339f898bc6040518163ffffffff1660e01b8152600401602060405180830381865afa158015610345573d6000803e3d6000fd5b505050506040513d601f19601f8201168201806040525081019061036991906107ba565b9050600061037f61037a8360101b90565b610476565b9050600061038d82866104c3565b1195945050505050565b6000806103a26101f8565b90503073ffffffffffffffffffffffffffffffffffffffff8216036103d5576103cd86868686610556565b91505061046e565b6040517f8c364d5900000000000000000000000000000000000000000000000000000000815273ffffffffffffffffffffffffffffffffffffffff821690638c364d599061042d9089908990899089906004016107d3565b602060405180830381865afa15801561044a573d6000803e3d6000fd5b505050506040513d601f19601f820116820180604052508101906103cd91906107ba565b949350505050565b60006101827f7462000000000000000000000000000000000000000000000000000000000000837f42616c616e636573000000000000000000000000000000000000000000000000610583565b604080516001808252818301909252600091829190602080830190803683370190505090508273ffffffffffffffffffffffffffffffffffffffff1660001b8160008151811061051557610515610830565b6020908102919091010152600061054d8583837e20010020000000000000000000000000000000000000000000000000000000610397565b95945050505050565b600061054d610565868661060a565b60ff858116601b0360080285901c1661057e8587610660565b610699565b60006105916070601061085f565b7fffff00000000000000000000000000000000000000000000000000000000000085167dffffffffffffffffffffffffffff00000000000000000000000000000000601086901c16177fffffffffffffffffffffffffffffffff00000000000000000000000000000000841690911c1790509392505050565b6000828260405160200161061f929190610899565b60408051601f1981840301815291905280516020909101207f86425bff6b57326c7859e89024fe4f238ca327a1ae4a230180dd2f0e88aaa7d9189392505050565b600080805b8360ff168110156106915761068760ff601b83900360080287901c168361085f565b9150600101610665565b509392505050565b6000602082106106bf576020820484019350602082816106bb576106bb6108d5565b0691505b508254600882021b602082900380841115610691576001850154600882021c82179150509392505050565b6000602082840312156106fc57600080fd5b81357fffffffff00000000000000000000000000000000000000000000000000000000811681146101a257600080fd5b6000806040838503121561073f57600080fd5b82359150602083013573ffffffffffffffffffffffffffffffffffffffff8116811461076a57600080fd5b809150509250929050565b805160208083015191908110156107b4577fffffffffffffffffffffffffffffffffffffffffffffffffffffffffffffffff8160200360031b1b821691505b50919050565b6000602082840312156107cc57600080fd5b5051919050565b60006080820186835260206080602085015281875180845260a08601915060208901935060005b81811015610816578451835293830193918301916001016107fa565b505060ff9690961660408501525050506060015292915050565b7f4e487b7100000000000000000000000000000000000000000000000000000000600052603260045260246000fd5b80820180821115610182577f4e487b7100000000000000000000000000000000000000000000000000000000600052601160045260246000fd5b8281526000602080830184516020860160005b828110156108c8578151845292840192908401906001016108ac565b5091979650505050505050565b7f4e487b7100000000000000000000000000000000000000000000000000000000600052601260045260246000fdfea264697066735822122060e34767e2a71499b83f57fe2bf9668c4ad3c0ced1e72bffb6d0f410cfb0495164736f6c63430008170033","linkReferences":{}},"methodIdentifiers":{"_msgSender()":"119df25f","_msgValue()":"45ec9354","_world()":"e1af802c","isAllowed(bytes32,address)":"82027b6d","supportsInterface(bytes4)":"01ffc9a7"},"id":461}