{"abi":[{"type":"function","name":"_msgSender","inputs":[],"outputs":[{"name":"sender","type":"address","internalType":"address"}],"stateMutability":"view"},{"type":"function","name":"_msgValue","inputs":[],"outputs":[{"name":"value","type":"uint256","internalType":"uint256"}],"stateMutability":"pure"},{"type":"function","name":"_world","inputs":[],"outputs":[{"name":"","type":"address","internalType":"address"}],"stateMutability":"view"},{"type":"function","name":"fight","inputs":[{"name":"matchEntity","type":"bytes32","internalType":"bytes32"},{"name":"entity","type":"bytes32","internalType":"bytes32"},{"name":"target","type":"bytes32","internalType":"bytes32"}],"outputs":[],"stateMutability":"nonpayable"},{"type":"function","name":"move","inputs":[{"name":"matchEntity","type":"bytes32","internalType":"bytes32"},{"name":"entity","type":"bytes32","internalType":"bytes32"},{"name":"path","type":"tuple[]","internalType":"struct PositionData[]","components":[{"name":"x","type":"int32","internalType":"int32"},{"name":"y","type":"int32","internalType":"int32"}]}],"outputs":[],"stateMutability":"nonpayable"},{"type":"function","name":"moveAndAttack","inputs":[{"name":"matchEntity","type":"bytes32","internalType":"bytes32"},{"name":"entity","type":"bytes32","internalType":"bytes32"},{"name":"path","type":"tuple[]","internalType":"struct PositionData[]","components":[{"name":"x","type":"int32","internalType":"int32"},{"name":"y","type":"int32","internalType":"int32"}]},{"name":"target","type":"bytes32","internalType":"bytes32"}],"outputs":[],"stateMutability":"nonpayable"},{"type":"function","name":"supportsInterface","inputs":[{"name":"interfaceId","type":"bytes4","internalType":"bytes4"}],"outputs":[{"name":"","type":"bool","internalType":"bool"}],"stateMutability":"pure"},{"type":"event","name":"Store_DeleteRecord","inputs":[{"name":"tableId","type":"bytes32","indexed":true,"internalType":"ResourceId"},{"name":"keyTuple","type":"bytes32[]","indexed":false,"internalType":"bytes32[]"}],"anonymous":false},{"type":"event","name":"Store_SetRecord","inputs":[{"name":"tableId","type":"bytes32","indexed":true,"internalType":"ResourceId"},{"name":"keyTuple","type":"bytes32[]","indexed":false,"internalType":"bytes32[]"},{"name":"staticData","type":"bytes","indexed":false,"internalType":"bytes"},{"name":"encodedLengths","type":"bytes32","indexed":false,"internalType":"PackedCounter"},{"name":"dynamicData","type":"bytes","indexed":false,"internalType":"bytes"}],"anonymous":false},{"type":"event","name":"Store_SpliceDynamicData","inputs":[{"name":"tableId","type":"bytes32","indexed":true,"internalType":"ResourceId"},{"name":"keyTuple","type":"bytes32[]","indexed":false,"internalType":"bytes32[]"},{"name":"start","type":"uint48","indexed":false,"internalType":"uint48"},{"name":"deleteCount","type":"uint40","indexed":false,"internalType":"uint40"},{"name":"encodedLengths","type":"bytes32","indexed":false,"internalType":"PackedCounter"},{"name":"data","type":"bytes","indexed":false,"internalType":"bytes"}],"anonymous":false},{"type":"event","name":"Store_SpliceStaticData","inputs":[{"name":"tableId","type":"bytes32","indexed":true,"internalType":"ResourceId"},{"name":"keyTuple","type":"bytes32[]","indexed":false,"internalType":"bytes32[]"},{"name":"start","type":"uint48","indexed":false,"internalType":"uint48"},{"name":"data","type":"bytes","indexed":false,"internalType":"bytes"}],"anonymous":false},{"type":"error","name":"PackedCounter_InvalidLength","inputs":[{"name":"length","type":"uint256","internalType":"uint256"}]},{"type":"error","name":"Slice_OutOfBounds","inputs":[{"name":"data","type":"bytes","internalType":"bytes"},{"name":"start","type":"uint256","internalType":"uint256"},{"name":"end","type":"uint256","internalType":"uint256"}]},{"type":"error","name":"Store_IndexOutOfBounds","inputs":[{"name":"length","type":"uint256","internalType":"uint256"},{"name":"accessedIndex","type":"uint256","internalType":"uint256"}]},{"type":"error","name":"Store_InvalidResourceType","inputs":[{"name":"expected","type":"bytes2","internalType":"bytes2"},{"name":"resourceId","type":"bytes32","internalType":"ResourceId"},{"name":"resourceIdString","type":"string","internalType":"string"}]},{"type":"error","name":"Store_InvalidSplice","inputs":[{"name":"startWithinField","type":"uint40","internalType":"uint40"},{"name":"deleteCount","type":"uint40","internalType":"uint40"},{"name":"fieldLength","type":"uint40","internalType":"uint40"}]},{"type":"error","name":"World_FunctionSelectorNotFound","inputs":[{"name":"functionSelector","type":"bytes4","internalType":"bytes4"}]},{"type":"error","name":"World_ResourceNotFound","inputs":[{"name":"resourceId","type":"bytes32","internalType":"ResourceId"},{"name":"resourceIdString","type":"string","internalType":"string"}]}],"bytecode":{"object":"0x608060405234801561001057600080fd5b506152c7806100206000396000f3fe608060405234801561001057600080fd5b506004361061007d5760003560e01c806345ec93541161005b57806345ec9354146100df578063618652a6146100f2578063e1af802c14610105578063e89f76721461010d57600080fd5b806301ffc9a714610082578063119df25f146100aa578063280f1820146100ca575b600080fd5b610095610090366004614846565b610120565b60405190151581526020015b60405180910390f35b6100b26101b9565b6040516001600160a01b0390911681526020016100a1565b6100dd6100d83660046149bc565b6101c8565b005b604051601f1936013581526020016100a1565b6100dd610100366004614a14565b6101ee565b6100b2610208565b6100dd61011b366004614a64565b610212565b60007fffffffff0000000000000000000000000000000000000000000000000000000082167fb42128800000000000000000000000000000000000000000000000000000000014806101b357507fffffffff0000000000000000000000000000000000000000000000000000000082167f01ffc9a700000000000000000000000000000000000000000000000000000000145b92915050565b60006101c3610227565b905090565b6101d28484610259565b6101dd8484846103c5565b6101e884848361049f565b50505050565b6101f88383610259565b6102038383836103c5565b505050565b60006101c361071e565b61021c8383610259565b61020383838361049f565b7fffffffffffffffffffffffffffffffffffffffffffffffffffffffffffffffcc36013560601c806102565750335b90565b6102628261075d565b6102b35760405162461bcd60e51b815260206004820152601560248201527f6d6174636820686173206e6f742073746172746564000000000000000000000060448201526064015b60405180910390fd5b6102d482826102cf6102c36101b9565b6001600160a01b031690565b610781565b6103205760405162461bcd60e51b815260206004820152601860248201527f796f7520646f206e6f74206f776e207468697320756e6974000000000000000060448201526064016102aa565b600061032c83836107e1565b905061033883826108d9565b60030b61034484610921565b60030b136103ba5760405162461bcd60e51b815260206004820152602c60248201527f6e6f7420656e6f7567682074696d6520686173207061737365642073696e636560448201527f206c61737420616374696f6e000000000000000000000000000000000000000060648201526084016102aa565b61020383834261092d565b60006103d26102c36101b9565b905060006103df85610a32565b905060006103ed8686610b08565b905060006103fb8787610c03565b9050600061040c888587858a610d48565b90508060030b8360030b12156104645760405162461bcd60e51b815260206004820152601560248201527f6e6f7420656e6f756768206d6f7665207370656564000000000000000000000060448201526064016102aa565b61049588888860018a516104789190614aa6565b8151811061048857610488614ab9565b6020026020010151610e66565b5050505050505050565b6104a98382610e8f565b6104b38484610e8f565b036105005760405162461bcd60e51b815260206004820152601860248201527f63616e6e6f742061747461636b206f776e20656e74697479000000000000000060448201526064016102aa565b600061050c8484610ef2565b60030b1361055c5760405162461bcd60e51b815260206004820152601860248201527f61747461636b657220686173206e6f20737472656e677468000000000000000060448201526064016102aa565b60006105688483610fe0565b60030b136105b85760405162461bcd60e51b815260206004820152601660248201527f646566656e64657220686173206e6f206865616c74680000000000000000000060448201526064016102aa565b60006105c484846110ce565b905060006105e46105d58686610c03565b6105df8786610c03565b61119a565b9050816000015160030b8160030b12156106405760405162461bcd60e51b815260206004820152601d60248201527f7461726765742069732062656c6f77206d696e696d756d2072616e676500000060448201526064016102aa565b816020015160030b8160030b131561069a5760405162461bcd60e51b815260206004820152601d60248201527f7461726765742069732061626f7665206d6178696d756d2072616e676500000060448201526064016102aa565b6040516024810186905260448101859052606481018490526107169060840160408051601f198184030181529190526020810180517bffffffffffffffffffffffffffffffffffffffffffffffffffffffff167f48d76bba00000000000000000000000000000000000000000000000000000000179052611225565b505050505050565b7f629a4c26e296b22a8e0856e9f6ecb2d1008d7e00081111962cd175fa7488e175546000906001600160a01b031680610758573391505090565b919050565b600080610769836112d3565b9050801580159061077a5750428111155b9392505050565b600061078c826113a1565b156107995750600161077a565b8183036107a85750600161077a565b6107b2848461147c565b156107d7576107c1848461147c565b92508183036107d25750600161077a565b6107a8565b5060009392505050565b60408051600280825260608201835260009283929190602083019080368337019050509050838160008151811061081a5761081a614ab9565b602002602001018181525050828160018151811061083a5761083a614ab9565b60209081029190910181019190915260408051613a3160f11b928101929092526000602283018190527f4c617374416374696f6e000000000000000000000000000000000000000000006030840152916108d091015b6040516020818303038152906040526108a890614acf565b8360007e2001002000000000000000000000000000000000000000000000000000000061152f565b95945050505050565b6000806108e5846115ec565b905080602001518310156108fd5760009150506101b3565b600081602001518461090f9190614aa6565b90508160400151816108d09190614b0c565b60006101b382426108d9565b604080516002808252606082018352600092602083019080368337019050509050838160008151811061096257610962614ab9565b602002602001018181525050828160018151811061098257610982614ab9565b60209081029190910181019190915260408051613a3160f11b81840152600060228201527f4c617374416374696f6e00000000000000000000000000000000000000000000603082015281518082039093018352810190526101e8906109e790614acf565b826000856040516020016109fd91815260200190565b60408051601f198184030181529190527e20010020000000000000000000000000000000000000000000000000000000611707565b604080516001808252818301909252600091829190602080830190803683370190505090508281600081518110610a6b57610a6b614ab9565b60209081029190910181019190915260408051613a3160f11b928101929092526000602283018190527f4d61746368436f6e666967000000000000000000000000000000000000000000603084015291610b009101604051602081830303815290604052610ad890614acf565b8360037eb406002020202020140000000000000000000000000000000000000000000061152f565b949350505050565b604080516002808252606082018352600092839291906020830190803683370190505090508381600081518110610b4157610b41614ab9565b6020026020010181815250508281600181518110610b6157610b61614ab9565b60209081029190910181019190915260408051613a3160f11b928101929092526000602283018190527f4d6f7661626c6500000000000000000000000000000000000000000000000000603084015291610bf791015b604051602081830303815290604052610bcf90614acf565b8360007e0401000400000000000000000000000000000000000000000000000000000061152f565b60e01c95945050505050565b604080518082018252600080825260208201819052825160028082526060820190945291929091908160200160208202803683370190505090508381600081518110610c5157610c51614ab9565b6020026020010181815250508281600181518110610c7157610c71614ab9565b60209081029190910181019190915260408051613a3160f11b928101929092526000602283018190527f506f736974696f6e00000000000000000000000000000000000000000000000060308401529182918291610d0991015b604051602081830303815290604052610ce390614acf565b857e080200040400000000000000000000000000000000000000000000000000006117bc565b6040805180820190915260008082526020808301918252850151602486015160e090811d909252901d815292955090935091505b979650505050505050565b6000805b8251811015610e5c576000838281518110610d6957610d69614ab9565b602002602001015190506000610d7f868361119a565b905060018160030b1315610dd55760405162461bcd60e51b815260206004820152600c60248201527f696e76616c69642070617468000000000000000000000000000000000000000060448201526064016102aa565b610de18988878661188c565b6000610ded8984611a5a565b905060008160030b13610e425760405162461bcd60e51b815260206004820152600f60248201527f6e6f207465727261696e2068657265000000000000000000000000000000000060448201526064016102aa565b610e4c8186614b2e565b9296509193505050600101610d4c565b5095945050505050565b610e708383611b2d565b610e7b838383611b90565b610203838260000151836020015185611ca0565b6000610e9b8383611db9565b63ffffffff1615610ead5750806101b3565b610eb7838361147c565b15610ee957610ec6838361147c565b9150610ed28383611db9565b63ffffffff1615610ee45750806101b3565b610ead565b50600092915050565b604080516002808252606082018352600092839291906020830190803683370190505090508381600081518110610f2b57610f2b614ab9565b6020026020010181815250508281600181518110610f4b57610f4b614ab9565b60209081029190910181019190915260408051613a3160f11b928101929092526000602283018190527f436f6d6261740000000000000000000000000000000000000000000000000000603084015291610bf79101604051602081830303815290604052610fb890614acf565b8360037e1806000404040404040000000000000000000000000000000000000000000061152f565b60408051600280825260608201835260009283929190602083019080368337019050509050838160008151811061101957611019614ab9565b602002602001018181525050828160018151811061103957611039614ab9565b60209081029190910181019190915260408051613a3160f11b928101929092526000602283018190527f436f6d6261740000000000000000000000000000000000000000000000000000603084015291610bf791016040516020818303038152906040526110a690614acf565b8360007e1806000404040404040000000000000000000000000000000000000000000061152f565b60408051808201825260008082526020820181905282516002808252606082019094529192909190816020016020820280368337019050509050838160008151811061111c5761111c614ab9565b602002602001018181525050828160018151811061113c5761113c614ab9565b60209081029190910181019190915260408051613a3160f11b928101929092526000602283018190527f52616e676500000000000000000000000000000000000000000000000000000060308401529182918291610d099101610ccb565b600080826000015160030b846000015160030b136111c557835183516111c09190614b55565b6111d3565b825184516111d39190614b55565b90506000836020015160030b856020015160030b1361120557846020015184602001516112009190614b55565b611219565b836020015185602001516112199190614b55565b90506108d08183614b2e565b606060008061123b61123685614b7c565b611e6c565b91509150816000801b036112a1576040517ffdde54e20000000000000000000000000000000000000000000000000000000081527fffffffff000000000000000000000000000000000000000000000000000000006000351660048201526024016102aa565b6020840180517bffffffffffffffffffffffffffffffffffffffffffffffffffffffff1682179052610b008285611f94565b60408051600180825281830190925260009182919060208083019080368337019050509050828160008151811061130c5761130c614ab9565b60209081029190910181019190915260408051613a3160f11b928101929092526000602283018190527f4d61746368436f6e666967000000000000000000000000000000000000000000603084015291610b00910160405160208183030381529060405261137990614acf565b8360017eb406002020202020140000000000000000000000000000000000000000000061152f565b6040805160018082528183019092526000918291906020808301908036833701905050905082816000815181106113da576113da614ab9565b60209081029190910181019190915260408051613a3160f11b928101929092526000602283018190527f41646d696e00000000000000000000000000000000000000000000000000000060308401529161147091015b60405160208183030381529060405261144890614acf565b8360007e0101000100000000000000000000000000000000000000000000000000000061152f565b9050610b008160f81c90565b6040805160028082526060820183526000928392919060208301908036833701905050905083816000815181106114b5576114b5614ab9565b60200260200101818152505082816001815181106114d5576114d5614ab9565b60209081029190910181019190915260408051613a3160f11b928101929092526000602283018190527f4f776e65644279000000000000000000000000000000000000000000000000006030840152916108d09101610890565b60008061153a61071e565b9050306001600160a01b0382160361156057611558868686866120ce565b915050610b00565b6040517f8c364d590000000000000000000000000000000000000000000000000000000081526001600160a01b03821690638c364d59906115ab908990899089908990600401614c08565b602060405180830381865afa1580156115c8573d6000803e3d6000fd5b505050506040513d601f19601f820116820180604052508101906115589190614c37565b6040805160c081018252600080825260208201819052818301819052606082018190526080820181905260a08201819052825160018082528185019094529192909190816020016020820280368337019050509050828160008151811061165557611655614ab9565b60209081029190910181019190915260408051613a3160f11b928101929092526000602283018190527f4d61746368436f6e666967000000000000000000000000000000000000000000603084015291829182916116ec91016040516020818303038152906040526116c690614acf565b857eb40600202020202014000000000000000000000000000000000000000000006117bc565b9250925092506116fd8383836120fb565b9695505050505050565b600061171161071e565b9050306001600160a01b03821603611735576117308686868686612161565b610716565b6040517f390baae00000000000000000000000000000000000000000000000000000000081526001600160a01b0382169063390baae0906117829089908990899089908990600401614ca0565b600060405180830381600087803b15801561179c57600080fd5b505af11580156117b0573d6000803e3d6000fd5b50505050505050505050565b60606000606060006117cc61071e565b9050306001600160a01b038216036117f5576117e9878787612176565b93509350935050611883565b6040517f419b58fd0000000000000000000000000000000000000000000000000000000081526001600160a01b0382169063419b58fd9061183e908a908a908a90600401614ce7565b600060405180830381865afa15801561185b573d6000803e3d6000fd5b505050506040513d6000823e601f3d908101601f191682016040526117e99190810190614d74565b93509350939050565b60006118d3858484815181106118a4576118a4614ab9565b6020026020010151600001518585815181106118c2576118c2614ab9565b60200260200101516020015161227e565b905060005b81518110156107165760008282815181106118f5576118f5614ab9565b602002602001015190506119098782612391565b15611a5157611919878288610781565b6119655760405162461bcd60e51b815260206004820152601b60248201527f63616e6e6f74206d6f7665207468726f75676820656e656d696573000000000060448201526064016102aa565b60006119718883612450565b601081111561198257611982614dd7565b146119cf5760405162461bcd60e51b815260206004820152601e60248201527f63616e6e6f74206d6f7665207468726f7567682073747275637475726573000060448201526064016102aa565b600185516119dd9190614aa6565b8403611a515760405162461bcd60e51b815260206004820152603160248201527f63616e6e6f742066696e697368206d6f76656d656e74206f6e20616e20556e7460448201527f72617665727361626c6520656e7469747900000000000000000000000000000060648201526084016102aa565b506001016118d8565b600080611a67848461251b565b905060005b8151811015611b25576000611a9a86848481518110611a8d57611a8d614ab9565b6020026020010151612530565b60408051613a3160f11b60208201526000602282018190527f4d6f7665446966666963756c74790000000000000000000000000000000000006030830152929350611aff91849101604051602081830303815290604052611afa90614acf565b6125f4565b9050611b0f816020015160e01c90565b611b199086614b2e565b94505050600101611a6c565b505092915050565b6000611b398383610c03565b90506000611b5a83611b54868560000151866020015161227e565b906126a7565b805190915015611b7d57611b78848360000151846020015184612775565b6101e8565b6101e8848360000151846020015161286e565b6000611bcb826000015183602001516040805160e093841b60208201529190921b602482015281516008818303018152602890910190915290565b6040805160028082526060808301845293945060009392849291906020830190803683370190505090508681600081518110611c0957611c09614ab9565b6020026020010181815250508581600181518110611c2957611c29614ab9565b60209081029190910181019190915260408051613a3160f11b81840152600060228201527f506f736974696f6e00000000000000000000000000000000000000000000000060308201528151808203909301835281019052611c9790611c8e90614acf565b8286868661295c565b50505050505050565b60408051600380825260808201909252600091602082016060803683370190505090508481600081518110611cd757611cd7614ab9565b6020026020010181815250508360030b60001b81600181518110611cfd57611cfd614ab9565b6020026020010181815250508260030b60001b81600281518110611d2357611d23614ab9565b60209081029190910181019190915260408051613a3160f11b81840152600060228201527f456e7469746965734174506f736974690000000000000000000000000000000060308201528151808203909301835281019052611db290611d8890614acf565b82600085604051602001611d9e91815260200190565b6040516020818303038152906040526129d2565b5050505050565b604080516002808252606082018352600092839291906020830190803683370190505090508381600081518110611df257611df2614ab9565b6020026020010181815250508281600181518110611e1257611e12614ab9565b60209081029190910181019190915260408051613a3160f11b928101929092526000602283018190527f506c617965720000000000000000000000000000000000000000000000000000603084015291610bf79101610bb7565b6040805160018082528183019092526000918291829160208083019080368337019050509050837bffffffffffffffffffffffffffffffffffffffffffffffffffffffff191681600081518110611ec557611ec5614ab9565b60209081029190910181019190915260408051613a3160f11b818401527f776f726c6400000000000000000000000000000000000000000000000000000060228201527f46756e6374696f6e53656c6563746f72000000000000000000000000000000006030820152815180820390930183528101905260009081908190611f7690611f5090614acf565b857e240200200400000000000000000000000000000000000000000000000000006117bc565b925092509250611f87838383612a83565b9550955050505050915091565b60606000611fa0610208565b90506001600160a01b0381163003612040576000611fbd85612a9b565b5090506001600160a01b03811661200c5784611fd886612b97565b6040517ffbf10ce60000000000000000000000000000000000000000000000000000000081526004016102aa929190614ded565b6000612026612019610227565b36601f1901358488612d13565b94509050806120385761203884612d87565b5050506101b3565b6040517f3ae7af080000000000000000000000000000000000000000000000000000000081526001600160a01b03821690633ae7af08906120879087908790600401614ded565b6000604051808303816000875af11580156120a6573d6000803e3d6000fd5b505050506040513d6000823e601f3d908101601f19168201604052610b009190810190614e06565b60006108d06120dd8686612d8f565b60ff858116601b0360080285901c166120f68587612de5565b612e1e565b6040805160c081018252600080825260208201819052918101829052606081018290526080810182905260a081019190915261213684612e6f565b6001600160a01b031660a0870152608086015260608501526040840152602083015281529392505050565b611db285856121708487612de5565b85612eb8565b6060600060606000612187856130fd565b9050612194878783613120565b935060006121a186613159565b90508015612273576121b38888613196565b935066ffffffffffffff841667ffffffffffffffff8111156121d7576121d7614888565b6040519080825280601f01601f191660200182016040528015612201576020820181803683370190505b5092506020830160005b828160ff1610156122705760006122238b8b846131a9565b90506000612240888460ff166028026038011c64ffffffffff1690565b905061224f8282600087613229565b6122598185614e3b565b93505050808061226890614e4e565b91505061220b565b50505b505093509350939050565b604080516003808252608082019092526060916000919060208201848036833701905050905084816000815181106122b8576122b8614ab9565b6020026020010181815250508360030b60001b816001815181106122de576122de614ab9565b6020026020010181815250508260030b60001b8160028151811061230457612304614ab9565b60209081029190910181019190915260408051613a3160f11b928101929092526000602283018190527f456e7469746965734174506f736974690000000000000000000000000000000060308401529161237a91015b60405160208183030381529060405261237290614acf565b8360006132f8565b90506116fd61238c82600084516133b7565b613447565b6040805160028082526060820183526000928392919060208301908036833701905050905083816000815181106123ca576123ca614ab9565b60200260200101818152505082816001815181106123ea576123ea614ab9565b60209081029190910181019190915260408051613a3160f11b928101929092526000602283018190527f556e7472617665727361626c65000000000000000000000000000000000000006030840152916124449101611430565b90506108d08160f81c90565b60408051600280825260608201835260009283929190602083019080368337019050509050838160008151811061248957612489614ab9565b60200260200101818152505082816001815181106124a9576124a9614ab9565b60209081029190910181019190915260408051613a3160f11b928101929092526000602283018190527f53747275637475726554797065000000000000000000000000000000000000006030840152916125039101611430565b905060f881901c60108111156108d0576108d0614dd7565b606061077a8383600001518460200151613458565b60408051600180825281830190925260009182919060208083019080368337019050509050838160008151811061256957612569614ab9565b60209081029190910181019190915260408051613a3160f11b928101929092526000602283018190527f4c6576656c54656d706c617465730000000000000000000000000000000000006030840152916125e991016040516020818303038152906040526125d690614acf565b8360008760200288600101602002613538565b90506108d081614acf565b60408051600280825260608083018452926000929190602083019080368337019050509050838160008151811061262d5761262d614ab9565b602002602001018181525050828160018151811061264d5761264d614ab9565b60209081029190910181019190915260408051613a3160f11b928101929092526000602283018190527f54656d706c617465436f6e74656e7400000000000000000000000000000000006030840152916108d0910161235a565b60606000835167ffffffffffffffff8111156126c5576126c5614888565b6040519080825280602002602001820160405280156126ee578160200160208202803683370190505b5090506000805b855181101561276b578486828151811061271157612711614ab9565b6020026020010151146127635785818151811061273057612730614ab9565b602002602001015183838151811061274a5761274a614ab9565b60209081029190910101528161275f81614e6d565b9250505b6001016126f5565b5081529392505050565b604080516003808252608082019092526000916020820160608036833701905050905084816000815181106127ac576127ac614ab9565b6020026020010181815250508360030b60001b816001815181106127d2576127d2614ab9565b6020026020010181815250508260030b60001b816002815181106127f8576127f8614ab9565b60209081029190910181019190915260408051613a3160f11b81840152600060228201527f456e7469746965734174506f736974690000000000000000000000000000000060308201528151808203909301835281019052611db29061285d90614acf565b826000612869866135fd565b61360d565b604080516003808252608082019092526000916020820160608036833701905050905083816000815181106128a5576128a5614ab9565b6020026020010181815250508260030b60001b816001815181106128cb576128cb614ab9565b6020026020010181815250508160030b60001b816002815181106128f1576128f1614ab9565b60209081029190910181019190915260408051613a3160f11b81840152600060228201527f456e7469746965734174506f7369746900000000000000000000000000000000603082015281518082039093018352810190526101e89061295690614acf565b82613680565b600061296661071e565b9050306001600160a01b0382160361298557611730868686868661371b565b6040517f298314fb0000000000000000000000000000000000000000000000000000000081526001600160a01b0382169063298314fb906117829089908990899089908990600401614e87565b60006129dc61071e565b9050306001600160a01b038216036129ff576129fa85858585613731565b611db2565b6040517f150f32620000000000000000000000000000000000000000000000000000000081526001600160a01b0382169063150f326290612a4a908890889088908890600401614ed8565b600060405180830381600087803b158015612a6457600080fd5b505af1158015612a78573d6000803e3d6000fd5b505050505050505050565b600080612a8f8561376c565b90969095509350505050565b60408051600180825281830190925260009182918291602080830190803683370190505090508381600081518110612ad557612ad5614ab9565b60209081029190910181019190915260408051613a3160f11b818401527f776f726c6400000000000000000000000000000000000000000000000000000060228201527f53797374656d73000000000000000000000000000000000000000000000000006030820152815180820390930183528101905260009081908190612b8690612b6090614acf565b857e150200140100000000000000000000000000000000000000000000000000006117bc565b925092509250611f87838383613781565b606081601081901b6000612baa8361378d565b9050827fffffffffffffffffffffffffffff000000000000000000000000000000000000831615612bfd577fffffffffffffffffffffffffffff0000000000000000000000000000000000008316612c1f565b7f524f4f545f4e414d4553504143450000000000000000000000000000000000005b7fffffffffffffffffffffffffffffffff00000000000000000000000000000000831615612c4d5782612c6f565b7f524f4f545f4e414d4500000000000000000000000000000000000000000000005b6040517fffff00000000000000000000000000000000000000000000000000000000000090931660208401527f3a00000000000000000000000000000000000000000000000000000000000000602284018190527fffffffffffffffffffffffffffffffff00000000000000000000000000000000928316602385015260338401521660348201526044016040516020818303038152906040529350505050919050565b60006060836001600160a01b0316612d2c8488886137a4565b604051612d399190614f0c565b600060405180830381855af49150503d8060008114612d74576040519150601f19603f3d011682016040523d82523d6000602084013e612d79565b606091505b509097909650945050505050565b805160208201fd5b60008282604051602001612da4929190614f28565b60408051601f1981840301815291905280516020909101207f86425bff6b57326c7859e89024fe4f238ca327a1ae4a230180dd2f0e88aaa7d9189392505050565b600080805b8360ff16811015612e1657612e0c60ff601b83900360080287901c1683614e3b565b9150600101612dea565b509392505050565b600060208210612e4457602082048401935060208281612e4057612e40614af6565b0691505b508254600882021b602082900380841115612e16576001850154600882021c82179150509392505050565b600080600080600080612e8787600060209101015190565b60408801516060808a015160808b015160a08c015160c0909c0151949c939b919a50985096509190911c9350915050565b6000612ec48585612d8f565b9050847f8c0b5119d4cec7b284c6b1b39252a03d1e2f2d7451a5895562524c113bb952be858585604051612efa93929190614f64565b60405180910390a2613a3160f11b857fffff0000000000000000000000000000000000000000000000000000000000001614612f3657506101e8565b6000612f41866137d3565b905060005b8151811015613016576000828281518110612f6357612f63614ab9565b60200260200101519050612f8f6004826affffffffffffffffffffff19166138b390919063ffffffff16565b1561300d576040517f964f667d000000000000000000000000000000000000000000000000000000008152606082901c9063964f667d90612fda908b908b908b908b90600401614f97565b600060405180830381600087803b158015612ff457600080fd5b505af1158015613008573d6000803e3d6000fd5b505050505b50600101612f46565b5061302a828565ffffffffffff16856138d1565b60005b8151811015611c9757600082828151811061304a5761304a614ab9565b602002602001015190506130766008826affffffffffffffffffffff19166138b390919063ffffffff16565b156130f4576040517fa8ba8721000000000000000000000000000000000000000000000000000000008152606082901c9063a8ba8721906130c1908b908b908b908b90600401614f97565b600060405180830381600087803b1580156130db57600080fd5b505af11580156130ef573d6000803e3d6000fd5b505050505b5060010161302d565b6000600861310d60026020614aa6565b6131179190614fd0565b9190911c919050565b60608160000361313f575060408051602081019091526000815261077a565b600061314b8585612d8f565b90506108d0818460006138e1565b6000600860018061316c60026020614aa6565b6131769190614aa6565b6131809190614aa6565b61318a9190614fd0565b8260ff911c1692915050565b600061077a6131a58484613904565b5490565b600083836040516020016131be929190614f28565b604051602081830303815290604052805190602001208260f81b7effffffffffffffffffffffffffffffffffffffffffffffffffffffffffffff19167f3b4102da22e32d82fc925482184f16c09fd4281692720b87d124aef6da48a0f1181860001c90509392505050565b81156132b257602082106132535760208204840193506020828161324f5761324f614af6565b0691505b81156132b25760208290036000818510156132775750600019600885021c19613282565b50600019600882021c195b8554600885021b8119845116828216178452508185116132a35750506101e8565b50600194909401939283900392015b5b602083106132d45783548152600190930192601f19909201916020016132b3565b82156101e8576000600019600885021c198251865482169119161782525050505050565b6060600061330461071e565b9050306001600160a01b038216036133295761332185858561395a565b91505061077a565b6040517f1e7889770000000000000000000000000000000000000000000000000000000081526001600160a01b03821690631e7889779061337290889088908890600401614fe7565b600060405180830381865afa15801561338f573d6000803e3d6000fd5b505050506040513d6000823e601f3d908101601f191682016040526133219190810190614e06565b60008183111580156133ca575083518211155b613406578383836040517f23230fa30000000000000000000000000000000000000000000000000000000081526004016102aa93929190615013565b602084016134148482614e3b565b905060006134228585614aa6565b6fffffffffffffffffffffffffffffffff1660809290921b9190911795945050505050565b6060600061077a8360206000613994565b6040805160038082526080820190925260609160009190602082018480368337019050509050848160008151811061349257613492614ab9565b6020026020010181815250508360030b60001b816001815181106134b8576134b8614ab9565b6020026020010181815250508260030b60001b816002815181106134de576134de614ab9565b60209081029190910181019190915260408051613a3160f11b928101929092526000602283018190527f4c6576656c506f736974696f6e496e640000000000000000000000000000000060308401529161237a910161235a565b6060600061354461071e565b9050306001600160a01b0382160361356b576135638787878787613a0f565b9150506108d0565b6040517f4dc77d970000000000000000000000000000000000000000000000000000000081526001600160a01b03821690634dc77d97906135b8908a908a908a908a908a90600401615038565b600060405180830381865afa1580156135d5573d6000803e3d6000fd5b505050506040513d6000823e601f3d908101601f191682016040526135639190810190614e06565b60608161077a8160206000613ad5565b600061361761071e565b9050306001600160a01b03821603613635576129fa85858585613b29565b6040517fef6ea8620000000000000000000000000000000000000000000000000000000081526001600160a01b0382169063ef6ea86290612a4a908890889088908890600401614ed8565b600061368a61071e565b9050306001600160a01b038216036136a6576102038383613b64565b6040517f505a181d0000000000000000000000000000000000000000000000000000000081526001600160a01b0382169063505a181d906136ed9086908690600401615071565b600060405180830381600087803b15801561370757600080fd5b505af1158015611c97573d6000803e3d6000fd5b611db2858585858561372c8b613b7b565b613ca9565b600061373d8585613196565b9050600061375a828560ff166028026038011c64ffffffffff1690565b90506107168686868460008888613f84565b602081015160408201516000905b9050915091565b600080612a8f85614386565b600061379b60706010614e3b565b9190911b919050565b60608383836040516020016137bb9392919061508a565b60405160208183030381529060405290509392505050565b6040805160018082528183019092526060916000919060208083019080368337019050509050828160008151811061380d5761380d614ab9565b60209081029190910181019190915260408051613a3160f11b818401527f73746f726500000000000000000000000000000000000000000000000000000060228201527f53746f7265486f6f6b73000000000000000000000000000000000000000000006030820152815180820390930183528101905260009061389c9061389490614acf565b83600061395a565b9050610b006138ae82600084516133b7565b6143a2565b60008160ff16826138c48560581c90565b1660ff1614905092915050565b61020383836020840184516143b3565b60405160208101601f19603f8584010116604052838252612e1685858584613229565b60008282604051602001613919929190614f28565b60408051601f1981840301815291905280516020909101207f14e2fcc58e58e68ec7edc30c8d50dccc3ce2714a623ec81f46b6a63922d76569189392505050565b6060610b0061396a8585856131a9565b61398d846139788888613196565b9060ff166028026038011c64ffffffffff1690565b60006138e1565b606060006139a28560801c90565b90506fffffffffffffffffffffffffffffffff851660008582816139c8576139c8614af6565b04905060405193506020840160208202810160405281855260005b82811015613a03578451871c8252938701936020909101906001016139e3565b50505050509392505050565b60606000613a1d8787613196565b90506000613a3a828760ff166028026038011c64ffffffffff1690565b90508085101580613a4a57508084115b15613aa5578081861015613a6857613a63600186614aa6565b613a6a565b855b6040517f7e8578d3000000000000000000000000000000000000000000000000000000008152600481019290925260248201526044016102aa565b6000613ab28989896131a9565b9050613ac881613ac28888614aa6565b886138e1565b9998505050505050505050565b82516060906000613ae68583614fd0565b9050604051925060208301601f19603f83860101166040528184526000602088015b84821015613a03578051871b83529187019160019190910190602001613b08565b6000613b358585613196565b90506000613b52828560ff166028026038011c64ffffffffff1690565b90506107168686866000858888613f84565b613b778282613b7285613b7b565b614473565b5050565b60408051613a3160f11b60208201527f73746f726500000000000000000000000000000000000000000000000000000060228201527f5461626c65730000000000000000000000000000000000000000000000000000603082015260009101604051602081830303815290604052613bf290614acf565b8203613c1e57507e60030220202000000000000000000000000000000000000000000000000000919050565b60408051613a3160f11b60208201527f73746f726500000000000000000000000000000000000000000000000000000060228201527f5461626c6573000000000000000000000000000000000000000000000000000060308201526101b391613ca09101604051602081830303815290604052613c9a90614acf565b8461471f565b60206000612e1e565b857f8dbb3a9672eebfd3773e72dd9c102393436816d832c7ba9e1e1ac8fcadcac7a986868686604051613cdf94939291906150dc565b60405180910390a2613a3160f11b867fffff0000000000000000000000000000000000000000000000000000000000001603610716576000613d20876137d3565b905060005b8151811015613df9576000828281518110613d4257613d42614ab9565b60200260200101519050613d6e6001826affffffffffffffffffffff19166138b390919063ffffffff16565b15613df0576040517f57066c9c000000000000000000000000000000000000000000000000000000008152606082901c906357066c9c90613dbd908c908c908c908c908c908c9060040161511b565b600060405180830381600087803b158015613dd757600080fd5b505af1158015613deb573d6000803e3d6000fd5b505050505b50600101613d25565b506000613e068888612d8f565b90506000602087019050613e1e826000838a516143b3565b6000613e2985613159565b1115613ead576000613e3b8a8a613904565b878155905060208601915060008060005b613e5588613159565b8160ff161015613ea857613e6a8d8d836131a9565b9250613e858a8260ff166028026038011c64ffffffffff1690565b9150613e9483600087856143b3565b613e9e8286614e3b565b9450600101613e4c565b505050505b60005b83518110156117b0576000848281518110613ecd57613ecd614ab9565b60200260200101519050613ef96002826affffffffffffffffffffff19166138b390919063ffffffff16565b15613f7b576040517f5b28cdaf000000000000000000000000000000000000000000000000000000008152606082901c90635b28cdaf90613f48908e908e908e908e908e908e9060040161511b565b600060405180830381600087803b158015613f6257600080fd5b505af1158015613f76573d6000803e3d6000fd5b505050505b50600101613eb0565b613a3160f11b877fffff000000000000000000000000000000000000000000000000000000000000161461400e57613a3160f11b8788604051602001613fcc91815260200190565b60408051601f19818403018152908290527f31b466830000000000000000000000000000000000000000000000000000000082526102aa939291600401615174565b6000614029828760ff166028026038011c64ffffffffff1690565b9050600083518564ffffffffff16836140429190614aa6565b61404c9190614e3b565b905080821415801561406e57508161406486886151b5565b64ffffffffff1614155b156140be576040517fa65010b400000000000000000000000000000000000000000000000000000000815264ffffffffff80881660048301528087166024830152831660448201526064016102aa565b818664ffffffffff16111561410f576040517f7e8578d30000000000000000000000000000000000000000000000000000000081526004810183905264ffffffffff871660248201526044016102aa565b600061411c84898461473b565b905064ffffffffff871660005b8960ff168160ff16101561415c57614150868260ff166028026038011c64ffffffffff1690565b90910190600101614129565b508a7faa63765a776145e5e6492f471ae097dfed11cd57a61bc2679dd43180422385b48b838a868b6040516141959594939291906151da565b60405180910390a25060006141a98b6137d3565b905060005b81518110156142745760008282815181106141cb576141cb614ab9565b602002602001015190506141f76010826affffffffffffffffffffff19166138b390919063ffffffff16565b1561426b57606081901c6001600160a01b03166355eb5a288e8e8e8e8e8a8f6040518863ffffffff1660e01b81526004016142389796959493929190615220565b600060405180830381600087803b15801561425257600080fd5b505af1158015614266573d6000803e3d6000fd5b505050505b506001016141ae565b5082841461428d5760006142888c8c613904565b839055505b600061429a8c8c8c6131a9565b90506142ae818a64ffffffffff16896138d1565b5060005b81518110156143785760008282815181106142cf576142cf614ab9565b602002602001015190506142fb6020826affffffffffffffffffffff19166138b390919063ffffffff16565b1561436f57606081901c6001600160a01b031663635845338e8e8e8e8e8a8f6040518863ffffffff1660e01b815260040161433c9796959493929190615220565b600060405180830381600087803b15801561435657600080fd5b505af115801561436a573d6000803e3d6000fd5b505050505b506001016142b2565b505050505050505050505050565b6020810151603482015160609190911c9060009060f81c61377a565b6060600061077a8360156000613994565b821561442d57602083106143dd576020830484019350602083816143d9576143d9614af6565b0692505b821561442d5760208390036000600019600884021c1990506008850281811c91508451811c905081198754168282161787555081831161441e5750506101e8565b50600194909401939182019190035b5b6020811061444f5781518455600190930192602090910190601f190161442e565b80156101e8576000600019600883021c198554845182169119161785555050505050565b827f0e1f72f429eb97e64878619984a91e687ae91610348b9ff4216782cc96e49d07836040516144a3919061527e565b60405180910390a2613a3160f11b837fffff00000000000000000000000000000000000000000000000000000000000016146144de57505050565b60006144e9846137d3565b905060005b81518110156145bc57600082828151811061450b5761450b614ab9565b602002602001015190506145376040826affffffffffffffffffffff19166138b390919063ffffffff16565b156145b3576040517f9faeaf45000000000000000000000000000000000000000000000000000000008152606082901c90639faeaf459061458090899089908990600401614ce7565b600060405180830381600087803b15801561459a57600080fd5b505af11580156145ae573d6000803e3d6000fd5b505050505b506001016144ee565b5060006145c98585612d8f565b90506146228160006145da866130fd565b67ffffffffffffffff8111156145f2576145f2614888565b6040519080825280601f01601f19166020018201604052801561461c576020820181803683370190505b506138d1565b600061462d84613159565b111561464e57600061463f8686613904565b905061464c816020614809565b505b60005b825181101561071657600083828151811061466e5761466e614ab9565b6020026020010151905061469a6080826affffffffffffffffffffff19166138b390919063ffffffff16565b15614716576040517f83b5c95b000000000000000000000000000000000000000000000000000000008152606082901c906383b5c95b906146e3908a908a908a90600401614ce7565b600060405180830381600087803b1580156146fd57600080fd5b505af1158015614711573d6000803e3d6000fd5b505050505b50600101614651565b6040805160208101849052908101829052600090606001612da4565b600064ffffffffff82111561477f576040517f47670588000000000000000000000000000000000000000000000000000000008152600481018390526024016102aa565b8366ffffffffffffff811660ff851660280260380182901c64ffffffffff168085106147b157808503820191506147b9565b848103820391505b5064ffffffffff6038602860ff8816020181811b197fffffffffffffffffffffffffffffffffffffffffffffffffff000000000000009490941690921792909216918416901b1790509392505050565b6000602061481883601f614e3b565b6148229190614b0c565b61482c9084614e3b565b90505b80831015610203576000835560018301925061482f565b60006020828403121561485857600080fd5b81357fffffffff000000000000000000000000000000000000000000000000000000008116811461077a57600080fd5b634e487b7160e01b600052604160045260246000fd5b6040805190810167ffffffffffffffff811182821017156148c1576148c1614888565b60405290565b604051601f8201601f1916810167ffffffffffffffff811182821017156148f0576148f0614888565b604052919050565b8035600381900b811461075857600080fd5b600082601f83011261491b57600080fd5b8135602067ffffffffffffffff82111561493757614937614888565b614945818360051b016148c7565b82815260069290921b8401810191818101908684111561496457600080fd5b8286015b848110156149b157604081890312156149815760008081fd5b61498961489e565b614992826148f8565b815261499f8583016148f8565b81860152835291830191604001614968565b509695505050505050565b600080600080608085870312156149d257600080fd5b8435935060208501359250604085013567ffffffffffffffff8111156149f757600080fd5b614a038782880161490a565b949793965093946060013593505050565b600080600060608486031215614a2957600080fd5b8335925060208401359150604084013567ffffffffffffffff811115614a4e57600080fd5b614a5a8682870161490a565b9150509250925092565b600080600060608486031215614a7957600080fd5b505081359360208301359350604090920135919050565b634e487b7160e01b600052601160045260246000fd5b818103818111156101b3576101b3614a90565b634e487b7160e01b600052603260045260246000fd5b80516020808301519190811015614af0576000198160200360031b1b821691505b50919050565b634e487b7160e01b600052601260045260246000fd5b600082614b2957634e487b7160e01b600052601260045260246000fd5b500490565b600381810b9083900b01637fffffff8113637fffffff19821217156101b3576101b3614a90565b600382810b9082900b03637fffffff198112637fffffff821317156101b3576101b3614a90565b6000815160208301517fffffffff0000000000000000000000000000000000000000000000000000000080821693506004831015614bc45780818460040360031b1b83161693505b505050919050565b60008151808452602080850194506020840160005b83811015614bfd57815187529582019590820190600101614be1565b509495945050505050565b848152608060208201526000614c216080830186614bcc565b60ff949094166040830152506060015292915050565b600060208284031215614c4957600080fd5b5051919050565b60005b83811015614c6b578181015183820152602001614c53565b50506000910152565b60008151808452614c8c816020860160208601614c50565b601f01601f19169290920160200192915050565b85815260a060208201526000614cb960a0830187614bcc565b60ff861660408401528281036060840152614cd48186614c74565b9150508260808301529695505050505050565b838152606060208201526000614d006060830185614bcc565b9050826040830152949350505050565b600082601f830112614d2157600080fd5b815167ffffffffffffffff811115614d3b57614d3b614888565b614d4e6020601f19601f840116016148c7565b818152846020838601011115614d6357600080fd5b610b00826020830160208701614c50565b600080600060608486031215614d8957600080fd5b835167ffffffffffffffff80821115614da157600080fd5b614dad87838801614d10565b9450602086015193506040860151915080821115614dca57600080fd5b50614a5a86828701614d10565b634e487b7160e01b600052602160045260246000fd5b828152604060208201526000610b006040830184614c74565b600060208284031215614e1857600080fd5b815167ffffffffffffffff811115614e2f57600080fd5b610b0084828501614d10565b808201808211156101b3576101b3614a90565b600060ff821660ff8103614e6457614e64614a90565b60010192915050565b60006000198203614e8057614e80614a90565b5060010190565b85815260a060208201526000614ea060a0830187614bcc565b8281036040840152614eb28187614c74565b90508460608401528281036080840152614ecc8185614c74565b98975050505050505050565b848152608060208201526000614ef16080830186614bcc565b60ff851660408401528281036060840152610d3d8185614c74565b60008251614f1e818460208701614c50565b9190910192915050565b8281526000602080830184516020860160005b82811015614f5757815184529284019290840190600101614f3b565b5091979650505050505050565b606081526000614f776060830186614bcc565b65ffffffffffff8516602084015282810360408401526116fd8185614c74565b848152608060208201526000614fb06080830186614bcc565b65ffffffffffff851660408401528281036060840152610d3d8185614c74565b80820281158282048414176101b3576101b3614a90565b8381526060602082015260006150006060830185614bcc565b905060ff83166040830152949350505050565b6060815260006150266060830186614c74565b60208301949094525060400152919050565b85815260a06020820152600061505160a0830187614bcc565b60ff95909516604083015250606081019290925260809091015292915050565b828152604060208201526000610b006040830184614bcc565b6000845161509c818460208901614c50565b60609490941b7fffffffffffffffffffffffffffffffffffffffff0000000000000000000000001691909301908152601481019190915260340192915050565b6080815260006150ef6080830187614bcc565b82810360208401526151018187614c74565b90508460408401528281036060840152610d3d8185614c74565b86815260c06020820152600061513460c0830188614bcc565b82810360408401526151468188614c74565b905085606084015282810360808401526151608186614c74565b9150508260a0830152979650505050505050565b7fffff000000000000000000000000000000000000000000000000000000000000841681528260208201526060604082015260006108d06060830184614c74565b64ffffffffff8181168382160190808211156151d3576151d3614a90565b5092915050565b60a0815260006151ed60a0830188614bcc565b65ffffffffffff8716602084015264ffffffffff861660408401528460608401528281036080840152614ecc8185614c74565b87815260e06020820152600061523960e0830189614bcc565b60ff8816604084015264ffffffffff87811660608501528616608084015260a0830185905282810360c08401526152708185614c74565b9a9950505050505050505050565b60208152600061077a6020830184614bcc56fea26469706673582212208b10498c79e84b7f1ea70ee45b206921f49b83e8cf31a603fbc141be717c3b2064736f6c63430008170033","linkReferences":{}},"methodIdentifiers":{"_msgSender()":"119df25f","_msgValue()":"45ec9354","_world()":"e1af802c","fight(bytes32,bytes32,bytes32)":"e89f7672","move(bytes32,bytes32,(int32,int32)[])":"618652a6","moveAndAttack(bytes32,bytes32,(int32,int32)[],bytes32)":"280f1820","supportsInterface(bytes4)":"01ffc9a7"},"id":456}