{"abi":[{"type":"function","name":"_msgSender","inputs":[],"outputs":[{"name":"sender","type":"address","internalType":"address"}],"stateMutability":"view"},{"type":"function","name":"_msgValue","inputs":[],"outputs":[{"name":"value","type":"uint256","internalType":"uint256"}],"stateMutability":"pure"},{"type":"function","name":"_world","inputs":[],"outputs":[{"name":"","type":"address","internalType":"address"}],"stateMutability":"view"},{"type":"function","name":"supportsInterface","inputs":[{"name":"interfaceId","type":"bytes4","internalType":"bytes4"}],"outputs":[{"name":"","type":"bool","internalType":"bool"}],"stateMutability":"pure"},{"type":"function","name":"toggleReady","inputs":[{"name":"matchEntity","type":"bytes32","internalType":"bytes32"}],"outputs":[],"stateMutability":"nonpayable"},{"type":"event","name":"Store_DeleteRecord","inputs":[{"name":"tableId","type":"bytes32","indexed":true,"internalType":"ResourceId"},{"name":"keyTuple","type":"bytes32[]","indexed":false,"internalType":"bytes32[]"}],"anonymous":false},{"type":"event","name":"Store_SpliceStaticData","inputs":[{"name":"tableId","type":"bytes32","indexed":true,"internalType":"ResourceId"},{"name":"keyTuple","type":"bytes32[]","indexed":false,"internalType":"bytes32[]"},{"name":"start","type":"uint48","indexed":false,"internalType":"uint48"},{"name":"data","type":"bytes","indexed":false,"internalType":"bytes"}],"anonymous":false},{"type":"error","name":"Slice_OutOfBounds","inputs":[{"name":"data","type":"bytes","internalType":"bytes"},{"name":"start","type":"uint256","internalType":"uint256"},{"name":"end","type":"uint256","internalType":"uint256"}]}],"bytecode":{"object":"0x608060405234801561001057600080fd5b50612233806100206000396000f3fe608060405234801561001057600080fd5b50600436106100675760003560e01c8063220ca1f611610050578063220ca1f6146100c157806345ec9354146100d6578063e1af802c146100e957600080fd5b806301ffc9a71461006c578063119df25f14610094575b600080fd5b61007f61007a366004611d8a565b6100f1565b60405190151581526020015b60405180910390f35b61009c61018a565b60405173ffffffffffffffffffffffffffffffffffffffff909116815260200161008b565b6100d46100cf366004611dcc565b610199565b005b604051601f19360135815260200161008b565b61009c61025f565b60007fffffffff0000000000000000000000000000000000000000000000000000000082167fb421288000000000000000000000000000000000000000000000000000000000148061018457507fffffffff0000000000000000000000000000000000000000000000000000000082167f01ffc9a700000000000000000000000000000000000000000000000000000000145b92915050565b6000610194610269565b905090565b60006101ac826101a761018a565b61029b565b905060006101ba83836102ae565b63ffffffff161161022c576040517f08c379a000000000000000000000000000000000000000000000000000000000815260206004820152601660248201527f796f7520617265206e6f7420726567697374657265640000000000000000000060448201526064015b60405180910390fd5b61023682826103a8565b600003610255576102488282426104a0565b610251826105ab565b5050565b6102518282610686565b600061019461074b565b7fffffffffffffffffffffffffffffffffffffffffffffffffffffffffffffffcc36013560601c806102985750335b90565b60006102a78383610797565b9392505050565b6040805160028082526060820183526000928392919060208301908036833701905050905083816000815181106102e7576102e7611dfb565b602002602001018181525050828160018151811061030757610307611dfb565b60209081029190910181019190915260408051613a3160f11b928101929092526000602283018190527f506c61796572000000000000000000000000000000000000000000000000000060308401529161039c910160405160208183030381529060405261037490611e11565b8360007e04010004000000000000000000000000000000000000000000000000000000610863565b60e01c95945050505050565b6040805160028082526060820183526000928392919060208301908036833701905050905083816000815181106103e1576103e1611dfb565b602002602001018181525050828160018151811061040157610401611dfb565b60209081029190910181019190915260408051613a3160f11b928101929092526000602283018190527f506c61796572526561647900000000000000000000000000000000000000000060308401529161049791015b60405160208183030381529060405261046f90611e11565b8360007e20010020000000000000000000000000000000000000000000000000000000610863565b95945050505050565b60408051600280825260608201835260009260208301908036833701905050905083816000815181106104d5576104d5611dfb565b60200260200101818152505082816001815181106104f5576104f5611dfb565b60209081029190910181019190915260408051613a3160f11b81840152600060228201527f506c617965725265616479000000000000000000000000000000000000000000603082015281518082039093018352810190526105a59061055a90611e11565b8260008560405160200161057091815260200190565b60408051601f198184030181529190527e20010020000000000000000000000000000000000000000000000000000000610942565b50505050565b60006105b682610a12565b905080158015906105c75750804210155b156102515760006105d783610aa5565b905060006105e484610b73565b90506000805b825181101561063a57600083828151811061060757610607611dfb565b60200260200101519050600061061d88836103a8565b1115610631578261062d81611e4e565b9350505b506001016105ea565b50610665837f537061776e536574746c656d656e740000000000000000000000000000000000610c39565b810361067f5761067f8561067a600542611e68565b610d14565b5050505050565b60408051600280825260608201835260009260208301908036833701905050905082816000815181106106bb576106bb611dfb565b60200260200101818152505081816001815181106106db576106db611dfb565b60209081029190910181019190915260408051613a3160f11b81840152600060228201527f506c617965725265616479000000000000000000000000000000000000000000603082015281518082039093018352810190526107469061074090611e11565b82610dfa565b505050565b7f629a4c26e296b22a8e0856e9f6ecb2d1008d7e00081111962cd175fa7488e1755460009073ffffffffffffffffffffffffffffffffffffffff1680610792573391505090565b919050565b6040805160028082526060820183526000928392919060208301908036833701905050905083816000815181106107d0576107d0611dfb565b6020026020010181815250508273ffffffffffffffffffffffffffffffffffffffff1660001b8160018151811061080957610809611dfb565b60209081029190910181019190915260408051613a3160f11b928101929092526000602283018190527f4d61746368506c617965720000000000000000000000000000000000000000006030840152916104979101610457565b60008061086e61074b565b90503073ffffffffffffffffffffffffffffffffffffffff8216036108a15761089986868686610eb8565b91505061093a565b6040517f8c364d5900000000000000000000000000000000000000000000000000000000815273ffffffffffffffffffffffffffffffffffffffff821690638c364d59906108f9908990899089908990600401611eb7565b602060405180830381865afa158015610916573d6000803e3d6000fd5b505050506040513d601f19601f820116820180604052508101906108999190611ee6565b949350505050565b600061094c61074b565b90503073ffffffffffffffffffffffffffffffffffffffff82160361097d576109788686868686610ee5565b610a0a565b6040517f390baae000000000000000000000000000000000000000000000000000000000815273ffffffffffffffffffffffffffffffffffffffff82169063390baae0906109d79089908990899089908990600401611f4f565b600060405180830381600087803b1580156109f157600080fd5b505af1158015610a05573d6000803e3d6000fd5b505050505b505050505050565b604080516001808252818301909252600091829190602080830190803683370190505090508281600081518110610a4b57610a4b611dfb565b60209081029190910181019190915260408051613a3160f11b928101929092526000602283018190527f4d6174636852656164790000000000000000000000000000000000000000000060308401529161093a9101610457565b604080516001808252818301909252600091829190602080830190803683370190505090508281600081518110610ade57610ade611dfb565b60209081029190910181019190915260408051613a3160f11b928101929092526000602283018190527f4d61746368436f6e66696700000000000000000000000000000000000000000060308401529161093a9101604051602081830303815290604052610b4b90611e11565b8360037eb4060020202020201400000000000000000000000000000000000000000000610863565b60408051600180825281830190925260609160009190602080830190803683370190505090508281600081518110610bad57610bad611dfb565b60209081029190910181019190915260408051613a3160f11b928101929092526000602283018190527f4d61746368506c61796572730000000000000000000000000000000000000000603084015291610c229101604051602081830303815290604052610c1a90611e11565b836000610efa565b905061093a610c348260008451610fdb565b61106b565b604080516002808252606082018352600092839291906020830190803683370190505090508381600081518110610c7257610c72611dfb565b6020026020010181815250508281600181518110610c9257610c92611dfb565b60209081029190910181019190915260408051613a3160f11b928101929092526000602283018190527f4c6576656c54656d706c61746573496e00000000000000000000000000000000603084015291610d079101604051602081830303815290604052610cff90611e11565b83600061107c565b6020900495945050505050565b604080516001808252818301909252600091602080830190803683370190505090508281600081518110610d4a57610d4a611dfb565b60209081029190910181019190915260408051613a3160f11b81840152600060228201527f4d61746368436f6e6669670000000000000000000000000000000000000000006030820152815180820390930183528101905261074690610daf90611e11565b82600185604051602001610dc591815260200190565b60408051601f198184030181529190527eb4060020202020201400000000000000000000000000000000000000000000610942565b6000610e0461074b565b90503073ffffffffffffffffffffffffffffffffffffffff821603610e2d576107468383611148565b6040517f505a181d00000000000000000000000000000000000000000000000000000000815273ffffffffffffffffffffffffffffffffffffffff82169063505a181d90610e819086908690600401611fac565b600060405180830381600087803b158015610e9b57600080fd5b505af1158015610eaf573d6000803e3d6000fd5b50505050505050565b6000610497610ec7868661115b565b60ff858116601b0360080285901c16610ee085876111b1565b6111e2565b61067f8585610ef484876111b1565b85611233565b60606000610f0661074b565b90503073ffffffffffffffffffffffffffffffffffffffff821603610f3857610f30858585611478565b9150506102a7565b6040517f1e78897700000000000000000000000000000000000000000000000000000000815273ffffffffffffffffffffffffffffffffffffffff821690631e78897790610f8e90889088908890600401611fc5565b600060405180830381865afa158015610fab573d6000803e3d6000fd5b505050506040513d6000823e601f3d908101601f19168201604052610f309190810190611ff1565b509392505050565b6000818311158015610fee575083518211155b61102a578383836040517f23230fa30000000000000000000000000000000000000000000000000000000081526004016102239392919061209e565b602084016110388482611e68565b9050600061104685856120c3565b6fffffffffffffffffffffffffffffffff1660809290921b9190911795945050505050565b606060006102a783602060006114b2565b60008061108761074b565b90503073ffffffffffffffffffffffffffffffffffffffff8216036110b157610f3085858561152d565b6040517fdbbf0e2100000000000000000000000000000000000000000000000000000000815273ffffffffffffffffffffffffffffffffffffffff82169063dbbf0e219061110790889088908890600401611fc5565b602060405180830381865afa158015611124573d6000803e3d6000fd5b505050506040513d601f19601f82011682018060405250810190610f309190611ee6565b61025182826111568561153d565b61166b565b600082826040516020016111709291906120d6565b60408051601f1981840301815291905280516020909101207f86425bff6b57326c7859e89024fe4f238ca327a1ae4a230180dd2f0e88aaa7d9189392505050565b600080805b8360ff16811015610fd3576111d860ff601b83900360080287901c1683611e68565b91506001016111b6565b6000602082106112085760208204840193506020828161120457611204611f96565b0691505b508254600882021b602082900380841115610fd3576001850154600882021c82179150509392505050565b600061123f858561115b565b9050847f8c0b5119d4cec7b284c6b1b39252a03d1e2f2d7451a5895562524c113bb952be85858560405161127593929190612112565b60405180910390a2613a3160f11b857fffff00000000000000000000000000000000000000000000000000000000000016146112b157506105a5565b60006112bc86611917565b905060005b81518110156113915760008282815181106112de576112de611dfb565b6020026020010151905061130a6004826affffffffffffffffffffff19166119f790919063ffffffff16565b15611388576040517f964f667d000000000000000000000000000000000000000000000000000000008152606082901c9063964f667d90611355908b908b908b908b9060040161214f565b600060405180830381600087803b15801561136f57600080fd5b505af1158015611383573d6000803e3d6000fd5b505050505b506001016112c1565b506113a5828565ffffffffffff1685611a15565b60005b8151811015610eaf5760008282815181106113c5576113c5611dfb565b602002602001015190506113f16008826affffffffffffffffffffff19166119f790919063ffffffff16565b1561146f576040517fa8ba8721000000000000000000000000000000000000000000000000000000008152606082901c9063a8ba87219061143c908b908b908b908b9060040161214f565b600060405180830381600087803b15801561145657600080fd5b505af115801561146a573d6000803e3d6000fd5b505050505b506001016113a8565b606061093a611488858585611a25565b6114ab846114968888611aa5565b9060ff166028026038011c64ffffffffff1690565b6000611ab8565b606060006114c08560801c90565b90506fffffffffffffffffffffffffffffffff851660008582816114e6576114e6611f96565b04905060405193506020840160208202810160405281855260005b82811015611521578451871c825293870193602090910190600101611501565b50505050509392505050565b600061093a826114968686611aa5565b60408051613a3160f11b60208201527f73746f726500000000000000000000000000000000000000000000000000000060228201527f5461626c657300000000000000000000000000000000000000000000000000006030820152600091016040516020818303038152906040526115b490611e11565b82036115e057507e60030220202000000000000000000000000000000000000000000000000000919050565b60408051613a3160f11b60208201527f73746f726500000000000000000000000000000000000000000000000000000060228201527f5461626c65730000000000000000000000000000000000000000000000000000603082015261018491611662910160405160208183030381529060405261165c90611e11565b84611adb565b602060006111e2565b827f0e1f72f429eb97e64878619984a91e687ae91610348b9ff4216782cc96e49d078360405161169b9190612188565b60405180910390a2613a3160f11b837fffff00000000000000000000000000000000000000000000000000000000000016146116d657505050565b60006116e184611917565b905060005b81518110156117b457600082828151811061170357611703611dfb565b6020026020010151905061172f6040826affffffffffffffffffffff19166119f790919063ffffffff16565b156117ab576040517f9faeaf45000000000000000000000000000000000000000000000000000000008152606082901c90639faeaf45906117789089908990899060040161219b565b600060405180830381600087803b15801561179257600080fd5b505af11580156117a6573d6000803e3d6000fd5b505050505b506001016116e6565b5060006117c1858561115b565b905061181a8160006117d286611af7565b67ffffffffffffffff8111156117ea576117ea611de5565b6040519080825280601f01601f191660200182016040528015611814576020820181803683370190505b50611a15565b600061182584611b1a565b11156118465760006118378686611b57565b9050611844816020611bad565b505b60005b8251811015610a0a57600083828151811061186657611866611dfb565b602002602001015190506118926080826affffffffffffffffffffff19166119f790919063ffffffff16565b1561190e576040517f83b5c95b000000000000000000000000000000000000000000000000000000008152606082901c906383b5c95b906118db908a908a908a9060040161219b565b600060405180830381600087803b1580156118f557600080fd5b505af1158015611909573d6000803e3d6000fd5b505050505b50600101611849565b6040805160018082528183019092526060916000919060208083019080368337019050509050828160008151811061195157611951611dfb565b60209081029190910181019190915260408051613a3160f11b818401527f73746f726500000000000000000000000000000000000000000000000000000060228201527f53746f7265486f6f6b7300000000000000000000000000000000000000000000603082015281518082039093018352810190526000906119e0906119d890611e11565b836000611478565b905061093a6119f28260008451610fdb565b611bea565b60008160ff1682611a088560581c90565b1660ff1614905092915050565b6107468383602084018451611bfb565b60008383604051602001611a3a9291906120d6565b604051602081830303815290604052805190602001208260f81b7effffffffffffffffffffffffffffffffffffffffffffffffffffffffffffff19167f3b4102da22e32d82fc925482184f16c09fd4281692720b87d124aef6da48a0f1181860001c90509392505050565b60006102a7611ab48484611b57565b5490565b60405160208101601f19603f8584010116604052838252610fd385858584611cbb565b6040805160208101849052908101829052600090606001611170565b60006008611b07600260206120c3565b611b1191906121c4565b9190911c919050565b60006008600180611b2d600260206120c3565b611b3791906120c3565b611b4191906120c3565b611b4b91906121c4565b8260ff911c1692915050565b60008282604051602001611b6c9291906120d6565b60408051601f1981840301815291905280516020909101207f14e2fcc58e58e68ec7edc30c8d50dccc3ce2714a623ec81f46b6a63922d76569189392505050565b60006020611bbc83601f611e68565b611bc691906121db565b611bd09084611e68565b90505b808310156107465760008355600183019250611bd3565b606060006102a783601560006114b2565b8215611c755760208310611c2557602083048401935060208381611c2157611c21611f96565b0692505b8215611c755760208390036000600019600884021c1990506008850281811c91508451811c9050811987541682821617875550818311611c665750506105a5565b50600194909401939182019190035b5b60208110611c975781518455600190930192602090910190601f1901611c76565b80156105a5576000600019600883021c198554845182169119161785555050505050565b8115611d445760208210611ce557602082048401935060208281611ce157611ce1611f96565b0691505b8115611d44576020829003600081851015611d095750600019600885021c19611d14565b50600019600882021c195b8554600885021b811984511682821617845250818511611d355750506105a5565b50600194909401939283900392015b5b60208310611d665783548152600190930192601f1990920191602001611d45565b82156105a5576000600019600885021c198251865482169119161782525050505050565b600060208284031215611d9c57600080fd5b81357fffffffff00000000000000000000000000000000000000000000000000000000811681146102a757600080fd5b600060208284031215611dde57600080fd5b5035919050565b634e487b7160e01b600052604160045260246000fd5b634e487b7160e01b600052603260045260246000fd5b80516020808301519190811015611e32576000198160200360031b1b821691505b50919050565b634e487b7160e01b600052601160045260246000fd5b60006000198203611e6157611e61611e38565b5060010190565b8082018082111561018457610184611e38565b60008151808452602080850194506020840160005b83811015611eac57815187529582019590820190600101611e90565b509495945050505050565b848152608060208201526000611ed06080830186611e7b565b60ff949094166040830152506060015292915050565b600060208284031215611ef857600080fd5b5051919050565b60005b83811015611f1a578181015183820152602001611f02565b50506000910152565b60008151808452611f3b816020860160208601611eff565b601f01601f19169290920160200192915050565b85815260a060208201526000611f6860a0830187611e7b565b60ff861660408401528281036060840152611f838186611f23565b9150508260808301529695505050505050565b634e487b7160e01b600052601260045260246000fd5b82815260406020820152600061093a6040830184611e7b565b838152606060208201526000611fde6060830185611e7b565b905060ff83166040830152949350505050565b60006020828403121561200357600080fd5b815167ffffffffffffffff8082111561201b57600080fd5b818401915084601f83011261202f57600080fd5b81518181111561204157612041611de5565b604051601f8201601f19908116603f0116810190838211818310171561206957612069611de5565b8160405282815287602084870101111561208257600080fd5b612093836020830160208801611eff565b979650505050505050565b6060815260006120b16060830186611f23565b60208301949094525060400152919050565b8181038181111561018457610184611e38565b8281526000602080830184516020860160005b82811015612105578151845292840192908401906001016120e9565b5091979650505050505050565b6060815260006121256060830186611e7b565b65ffffffffffff8516602084015282810360408401526121458185611f23565b9695505050505050565b8481526080602082015260006121686080830186611e7b565b65ffffffffffff8516604084015282810360608401526120938185611f23565b6020815260006102a76020830184611e7b565b8381526060602082015260006121b46060830185611e7b565b9050826040830152949350505050565b808202811582820484141761018457610184611e38565b6000826121f857634e487b7160e01b600052601260045260246000fd5b50049056fea2646970667358221220a4d4771fdf386b87d0574e4c88918889efbd6eb5c7a03b0f692016ea643136f964736f6c63430008170033","linkReferences":{}},"methodIdentifiers":{"_msgSender()":"119df25f","_msgValue()":"45ec9354","_world()":"e1af802c","supportsInterface(bytes4)":"01ffc9a7","toggleReady(bytes32)":"220ca1f6"},"id":454}