{"abi":[{"type":"function","name":"_msgSender","inputs":[],"outputs":[{"name":"sender","type":"address","internalType":"address"}],"stateMutability":"view"},{"type":"function","name":"_msgValue","inputs":[],"outputs":[{"name":"value","type":"uint256","internalType":"uint256"}],"stateMutability":"pure"},{"type":"function","name":"_world","inputs":[],"outputs":[{"name":"","type":"address","internalType":"address"}],"stateMutability":"view"},{"type":"function","name":"setCombatOutcome","inputs":[{"name":"matchEntity","type":"bytes32","internalType":"bytes32"},{"name":"combatOutcomeData","type":"tuple","internalType":"struct CombatOutcomeData","components":[{"name":"attacker","type":"bytes32","internalType":"bytes32"},{"name":"defender","type":"bytes32","internalType":"bytes32"},{"name":"attackerDamageReceived","type":"int32","internalType":"int32"},{"name":"defenderDamageReceived","type":"int32","internalType":"int32"},{"name":"attackerDamage","type":"int32","internalType":"int32"},{"name":"defenderDamage","type":"int32","internalType":"int32"},{"name":"ranged","type":"bool","internalType":"bool"},{"name":"attackerDied","type":"bool","internalType":"bool"},{"name":"defenderDied","type":"bool","internalType":"bool"},{"name":"defenderCaptured","type":"bool","internalType":"bool"},{"name":"blockNumber","type":"uint256","internalType":"uint256"},{"name":"timestamp","type":"uint256","internalType":"uint256"}]}],"outputs":[],"stateMutability":"nonpayable"},{"type":"function","name":"supportsInterface","inputs":[{"name":"interfaceId","type":"bytes4","internalType":"bytes4"}],"outputs":[{"name":"","type":"bool","internalType":"bool"}],"stateMutability":"pure"},{"type":"event","name":"Store_SetRecord","inputs":[{"name":"tableId","type":"bytes32","indexed":true,"internalType":"ResourceId"},{"name":"keyTuple","type":"bytes32[]","indexed":false,"internalType":"bytes32[]"},{"name":"staticData","type":"bytes","indexed":false,"internalType":"bytes"},{"name":"encodedLengths","type":"bytes32","indexed":false,"internalType":"PackedCounter"},{"name":"dynamicData","type":"bytes","indexed":false,"internalType":"bytes"}],"anonymous":false},{"type":"event","name":"Store_SpliceStaticData","inputs":[{"name":"tableId","type":"bytes32","indexed":true,"internalType":"ResourceId"},{"name":"keyTuple","type":"bytes32[]","indexed":false,"internalType":"bytes32[]"},{"name":"start","type":"uint48","indexed":false,"internalType":"uint48"},{"name":"data","type":"bytes","indexed":false,"internalType":"bytes"}],"anonymous":false},{"type":"error","name":"Slice_OutOfBounds","inputs":[{"name":"data","type":"bytes","internalType":"bytes"},{"name":"start","type":"uint256","internalType":"uint256"},{"name":"end","type":"uint256","internalType":"uint256"}]}],"bytecode":{"object":"0x608060405234801561001057600080fd5b50611bf8806100206000396000f3fe608060405234801561001057600080fd5b50600436106100675760003560e01c80633e1f6ffc116100505780633e1f6ffc146100c157806345ec9354146100d6578063e1af802c146100e957600080fd5b806301ffc9a71461006c578063119df25f14610094575b600080fd5b61007f61007a366004611612565b6100f1565b60405190151581526020015b60405180910390f35b61009c61018a565b60405173ffffffffffffffffffffffffffffffffffffffff909116815260200161008b565b6100d46100cf3660046116ae565b610199565b005b604051601f19360135815260200161008b565b61009c6101b0565b60007fffffffff0000000000000000000000000000000000000000000000000000000082167fb421288000000000000000000000000000000000000000000000000000000000148061018457507fffffffff0000000000000000000000000000000000000000000000000000000082167f01ffc9a700000000000000000000000000000000000000000000000000000000145b92915050565b60006101946101ba565b905090565b6101ac826101a6846101ec565b83610229565b5050565b600061019461034e565b7fffffffffffffffffffffffffffffffffffffffffffffffffffffffffffffffcc36013560601c806101e95750335b90565b6000806101f88361039a565b6102039060016117b9565b905061020f8382610473565b63ffffffff8116915061022383838161057f565b50919050565b6000610273826000015183602001518460400151856060015186608001518760a001518860c001518960e001518a61010001518b61012001518c61014001518d610160015161065a565b60408051600280825260608083018452939450600093928492919060208301908036833701905050905086816000815181106102b1576102b16117dd565b60200260200101818152505085816001815181106102d1576102d16117dd565b60209081029190910181019190915260408051613a3160f11b92810192909252600060228301527f436f6d6261744f7574636f6d6500000000000000000000000000000000000000603083015261034591015b60405160208183030381529060405261033c906117f3565b828686866106a4565b50505050505050565b7f629a4c26e296b22a8e0856e9f6ecb2d1008d7e00081111962cd175fa7488e1755460009073ffffffffffffffffffffffffffffffffffffffff1680610395573391505090565b919050565b6040805160018082528183019092526000918291906020808301908036833701905050905082816000815181106103d3576103d36117dd565b60209081029190910181019190915260408051613a3160f11b928101929092526000602283018190527f4d61746368456e74697479436f756e74000000000000000000000000000000006030840152916104689101604051602081830303815290604052610440906117f3565b8360007e04010004000000000000000000000000000000000000000000000000000000610774565b60e01c949350505050565b6040805160018082528183019092526000916020808301908036833701905050905082816000815181106104a9576104a96117dd565b60209081029190910181019190915260408051613a3160f11b81840152600060228201527f4d61746368456e74697479436f756e74000000000000000000000000000000006030820152815180820390930183528101905261057a9061050e906117f3565b6040517fffffffff0000000000000000000000000000000000000000000000000000000060e086901b166020820152839060009060240160408051601f198184030181529190527e04010004000000000000000000000000000000000000000000000000000000610853565b505050565b600061058a826108e3565b60408051600280825260608083018452939450600093928492919060208301908036833701905050905086816000815181106105c8576105c86117dd565b60200260200101818152505085816001815181106105e8576105e86117dd565b602090810291909101810191909152604080517f6f7400000000000000000000000000000000000000000000000000000000000092810192909252600060228301527f4d6174636800000000000000000000000000000000000000000000000000000060308301526103459101610324565b60608c8c8c8c8c8c8c8c8c8c8c8c6040516020016106839c9b9a99989796959493929190611817565b60405160208183030381529060405290509c9b505050505050505050505050565b60006106ae61034e565b90503073ffffffffffffffffffffffffffffffffffffffff8216036106df576106da868686868661090e565b61076c565b6040517f298314fb00000000000000000000000000000000000000000000000000000000815273ffffffffffffffffffffffffffffffffffffffff82169063298314fb906107399089908990899089908990600401611915565b600060405180830381600087803b15801561075357600080fd5b505af1158015610767573d6000803e3d6000fd5b505050505b505050505050565b60008061077f61034e565b90503073ffffffffffffffffffffffffffffffffffffffff8216036107b2576107aa8686868661092b565b91505061084b565b6040517f8c364d5900000000000000000000000000000000000000000000000000000000815273ffffffffffffffffffffffffffffffffffffffff821690638c364d599061080a908990899089908990600401611966565b602060405180830381865afa158015610827573d6000803e3d6000fd5b505050506040513d601f19601f820116820180604052508101906107aa9190611995565b949350505050565b600061085d61034e565b90503073ffffffffffffffffffffffffffffffffffffffff821603610889576106da8686868686610961565b6040517f390baae000000000000000000000000000000000000000000000000000000000815273ffffffffffffffffffffffffffffffffffffffff82169063390baae09061073990899089908990899089906004016119ae565b6060816040516020016108f891815260200190565b6040516020818303038152906040529050919050565b610924858585858561091f8b610976565b610aa4565b5050505050565b600061095861093a8686610d7f565b60ff858116601b0360080285901c166109538587610dd5565b610e0e565b95945050505050565b61092485856109708487610dd5565b85610e5f565b60408051613a3160f11b60208201527f73746f726500000000000000000000000000000000000000000000000000000060228201527f5461626c657300000000000000000000000000000000000000000000000000006030820152600091016040516020818303038152906040526109ed906117f3565b8203610a1957507e60030220202000000000000000000000000000000000000000000000000000919050565b60408051613a3160f11b60208201527f73746f726500000000000000000000000000000000000000000000000000000060228201527f5461626c65730000000000000000000000000000000000000000000000000000603082015261018491610a9b9101604051602081830303815290604052610a95906117f3565b846110aa565b60206000610e0e565b857f8dbb3a9672eebfd3773e72dd9c102393436816d832c7ba9e1e1ac8fcadcac7a986868686604051610ada94939291906119f5565b60405180910390a2613a3160f11b867fffff000000000000000000000000000000000000000000000000000000000000160361076c576000610b1b876110c6565b905060005b8151811015610bf4576000828281518110610b3d57610b3d6117dd565b60200260200101519050610b696001826affffffffffffffffffffff19166111a690919063ffffffff16565b15610beb576040517f57066c9c000000000000000000000000000000000000000000000000000000008152606082901c906357066c9c90610bb8908c908c908c908c908c908c90600401611a3f565b600060405180830381600087803b158015610bd257600080fd5b505af1158015610be6573d6000803e3d6000fd5b505050505b50600101610b20565b506000610c018888610d7f565b90506000602087019050610c19826000838a516111c4565b6000610c2485611284565b1115610ca8576000610c368a8a6112c1565b878155905060208601915060008060005b610c5088611284565b8160ff161015610ca357610c658d8d83611317565b9250610c808a8260ff166028026038011c64ffffffffff1690565b9150610c8f83600087856111c4565b610c998286611a98565b9450600101610c47565b505050505b60005b8351811015610767576000848281518110610cc857610cc86117dd565b60200260200101519050610cf46002826affffffffffffffffffffff19166111a690919063ffffffff16565b15610d76576040517f5b28cdaf000000000000000000000000000000000000000000000000000000008152606082901c90635b28cdaf90610d43908e908e908e908e908e908e90600401611a3f565b600060405180830381600087803b158015610d5d57600080fd5b505af1158015610d71573d6000803e3d6000fd5b505050505b50600101610cab565b60008282604051602001610d94929190611aab565b60408051601f1981840301815291905280516020909101207f86425bff6b57326c7859e89024fe4f238ca327a1ae4a230180dd2f0e88aaa7d9189392505050565b600080805b8360ff16811015610e0657610dfc60ff601b83900360080287901c1683611a98565b9150600101610dda565b509392505050565b600060208210610e3457602082048401935060208281610e3057610e30611ae7565b0691505b508254600882021b602082900380841115610e06576001850154600882021c82179150509392505050565b6000610e6b8585610d7f565b9050847f8c0b5119d4cec7b284c6b1b39252a03d1e2f2d7451a5895562524c113bb952be858585604051610ea193929190611afd565b60405180910390a2613a3160f11b857fffff0000000000000000000000000000000000000000000000000000000000001614610edd57506110a4565b6000610ee8866110c6565b905060005b8151811015610fbd576000828281518110610f0a57610f0a6117dd565b60200260200101519050610f366004826affffffffffffffffffffff19166111a690919063ffffffff16565b15610fb4576040517f964f667d000000000000000000000000000000000000000000000000000000008152606082901c9063964f667d90610f81908b908b908b908b90600401611b3a565b600060405180830381600087803b158015610f9b57600080fd5b505af1158015610faf573d6000803e3d6000fd5b505050505b50600101610eed565b50610fd1828565ffffffffffff1685611397565b60005b8151811015610345576000828281518110610ff157610ff16117dd565b6020026020010151905061101d6008826affffffffffffffffffffff19166111a690919063ffffffff16565b1561109b576040517fa8ba8721000000000000000000000000000000000000000000000000000000008152606082901c9063a8ba872190611068908b908b908b908b90600401611b3a565b600060405180830381600087803b15801561108257600080fd5b505af1158015611096573d6000803e3d6000fd5b505050505b50600101610fd4565b50505050565b6040805160208101849052908101829052600090606001610d94565b60408051600180825281830190925260609160009190602080830190803683370190505090508281600081518110611100576111006117dd565b60209081029190910181019190915260408051613a3160f11b818401527f73746f726500000000000000000000000000000000000000000000000000000060228201527f53746f7265486f6f6b73000000000000000000000000000000000000000000006030820152815180820390930183528101905260009061118f90611187906117f3565b8360006113a7565b905061084b6111a182600084516113e1565b61147a565b60008160ff16826111b78560581c90565b1660ff1614905092915050565b821561123e57602083106111ee576020830484019350602083816111ea576111ea611ae7565b0692505b821561123e5760208390036000600019600884021c1990506008850281811c91508451811c905081198754168282161787555081831161122f5750506110a4565b50600194909401939182019190035b5b602081106112605781518455600190930192602090910190601f190161123f565b80156110a4576000600019600883021c198554845182169119161785555050505050565b6000600860018061129760026020611b73565b6112a19190611b73565b6112ab9190611b73565b6112b59190611b86565b8260ff911c1692915050565b600082826040516020016112d6929190611aab565b60408051601f1981840301815291905280516020909101207f14e2fcc58e58e68ec7edc30c8d50dccc3ce2714a623ec81f46b6a63922d76569189392505050565b6000838360405160200161132c929190611aab565b604051602081830303815290604052805190602001208260f81b7effffffffffffffffffffffffffffffffffffffffffffffffffffffffffffff19167f3b4102da22e32d82fc925482184f16c09fd4281692720b87d124aef6da48a0f1181860001c90509392505050565b61057a83836020840184516111c4565b606061084b6113b7858585611317565b6113da846113c58888611492565b9060ff166028026038011c64ffffffffff1690565b60006114a5565b60008183111580156113f4575083518211155b611439578383836040517f23230fa300000000000000000000000000000000000000000000000000000000815260040161143093929190611b9d565b60405180910390fd5b602084016114478482611a98565b905060006114558585611b73565b6fffffffffffffffffffffffffffffffff1660809290921b9190911795945050505050565b6060600061148b83601560006114c8565b9392505050565b600061148b6114a184846112c1565b5490565b60405160208101601f19603f8584010116604052838252610e0685858584611543565b606060006114d68560801c90565b90506fffffffffffffffffffffffffffffffff851660008582816114fc576114fc611ae7565b04905060405193506020840160208202810160405281855260005b82811015611537578451871c825293870193602090910190600101611517565b50505050509392505050565b81156115cc576020821061156d5760208204840193506020828161156957611569611ae7565b0691505b81156115cc5760208290036000818510156115915750600019600885021c1961159c565b50600019600882021c195b8554600885021b8119845116828216178452508185116115bd5750506110a4565b50600194909401939283900392015b5b602083106115ee5783548152600190930192601f19909201916020016115cd565b82156110a4576000600019600885021c198251865482169119161782525050505050565b60006020828403121561162457600080fd5b81357fffffffff000000000000000000000000000000000000000000000000000000008116811461148b57600080fd5b604051610180810167ffffffffffffffff8111828210171561168657634e487b7160e01b600052604160045260246000fd5b60405290565b8035600381900b811461039557600080fd5b8035801515811461039557600080fd5b6000808284036101a08112156116c357600080fd5b8335925061018080601f19830112156116db57600080fd5b6116e3611654565b915060208501358252604085013560208301526117026060860161168c565b60408301526117136080860161168c565b606083015261172460a0860161168c565b608083015261173560c0860161168c565b60a083015261174660e0860161169e565b60c083015261010061175981870161169e565b60e084015261012061176c81880161169e565b82850152610140915061178082880161169e565b908401526101608681013591840191909152940135938101939093525092909150565b634e487b7160e01b600052601160045260246000fd5b63ffffffff8181168382160190808211156117d6576117d66117a3565b5092915050565b634e487b7160e01b600052603260045260246000fd5b805160208083015191908110156102235760001960209190910360031b1b16919050565b8c81528b60208201528a60e01b60408201528960e01b60448201528860e01b60488201528760e01b604c82015286151560f81b605082015285151560f81b605182015261186b6052820186151560f81b9052565b92151560f81b6053840152605483019190915260748201526094019998505050505050505050565b60008151808452602080850194506020840160005b838110156118c4578151875295820195908201906001016118a8565b509495945050505050565b6000815180845260005b818110156118f5576020818501810151868301820152016118d9565b506000602082860101526020601f19601f83011685010191505092915050565b85815260a06020820152600061192e60a0830187611893565b828103604084015261194081876118cf565b9050846060840152828103608084015261195a81856118cf565b98975050505050505050565b84815260806020820152600061197f6080830186611893565b60ff949094166040830152506060015292915050565b6000602082840312156119a757600080fd5b5051919050565b85815260a0602082015260006119c760a0830187611893565b60ff8616604084015282810360608401526119e281866118cf565b9150508260808301529695505050505050565b608081526000611a086080830187611893565b8281036020840152611a1a81876118cf565b90508460408401528281036060840152611a3481856118cf565b979650505050505050565b86815260c060208201526000611a5860c0830188611893565b8281036040840152611a6a81886118cf565b90508560608401528281036080840152611a8481866118cf565b9150508260a0830152979650505050505050565b80820180821115610184576101846117a3565b8281526000602080830184516020860160005b82811015611ada57815184529284019290840190600101611abe565b5091979650505050505050565b634e487b7160e01b600052601260045260246000fd5b606081526000611b106060830186611893565b65ffffffffffff851660208401528281036040840152611b3081856118cf565b9695505050505050565b848152608060208201526000611b536080830186611893565b65ffffffffffff851660408401528281036060840152611a3481856118cf565b81810381811115610184576101846117a3565b8082028115828204841417610184576101846117a3565b606081526000611bb060608301866118cf565b6020830194909452506040015291905056fea26469706673582212208e21fa4e6f9fb1b0acb3613958605b6cb2358c21854a949808f083eef9772f4764736f6c63430008170033","linkReferences":{}},"methodIdentifiers":{"_msgSender()":"119df25f","_msgValue()":"45ec9354","_world()":"e1af802c","setCombatOutcome(bytes32,(bytes32,bytes32,int32,int32,int32,int32,bool,bool,bool,bool,uint256,uint256))":"3e1f6ffc","supportsInterface(bytes4)":"01ffc9a7"},"id":446}