{"abi":[{"type":"function","name":"_msgSender","inputs":[],"outputs":[{"name":"sender","type":"address","internalType":"address"}],"stateMutability":"view"},{"type":"function","name":"_msgValue","inputs":[],"outputs":[{"name":"value","type":"uint256","internalType":"uint256"}],"stateMutability":"pure"},{"type":"function","name":"_world","inputs":[],"outputs":[{"name":"","type":"address","internalType":"address"}],"stateMutability":"view"},{"type":"function","name":"allowance","inputs":[{"name":"owner","type":"address","internalType":"address"},{"name":"spender","type":"address","internalType":"address"}],"outputs":[{"name":"","type":"uint256","internalType":"uint256"}],"stateMutability":"view"},{"type":"function","name":"approve","inputs":[{"name":"spender","type":"address","internalType":"address"},{"name":"value","type":"uint256","internalType":"uint256"}],"outputs":[{"name":"","type":"bool","internalType":"bool"}],"stateMutability":"nonpayable"},{"type":"function","name":"balanceOf","inputs":[{"name":"account","type":"address","internalType":"address"}],"outputs":[{"name":"","type":"uint256","internalType":"uint256"}],"stateMutability":"view"},{"type":"function","name":"burn","inputs":[{"name":"account","type":"address","internalType":"address"},{"name":"value","type":"uint256","internalType":"uint256"}],"outputs":[],"stateMutability":"nonpayable"},{"type":"function","name":"decimals","inputs":[],"outputs":[{"name":"","type":"uint8","internalType":"uint8"}],"stateMutability":"view"},{"type":"function","name":"mint","inputs":[{"name":"account","type":"address","internalType":"address"},{"name":"value","type":"uint256","internalType":"uint256"}],"outputs":[],"stateMutability":"nonpayable"},{"type":"function","name":"name","inputs":[],"outputs":[{"name":"","type":"string","internalType":"string"}],"stateMutability":"view"},{"type":"function","name":"supportsInterface","inputs":[{"name":"interfaceId","type":"bytes4","internalType":"bytes4"}],"outputs":[{"name":"","type":"bool","internalType":"bool"}],"stateMutability":"pure"},{"type":"function","name":"symbol","inputs":[],"outputs":[{"name":"","type":"string","internalType":"string"}],"stateMutability":"view"},{"type":"function","name":"totalSupply","inputs":[],"outputs":[{"name":"","type":"uint256","internalType":"uint256"}],"stateMutability":"view"},{"type":"function","name":"transfer","inputs":[{"name":"to","type":"address","internalType":"address"},{"name":"value","type":"uint256","internalType":"uint256"}],"outputs":[{"name":"","type":"bool","internalType":"bool"}],"stateMutability":"nonpayable"},{"type":"function","name":"transferFrom","inputs":[{"name":"from","type":"address","internalType":"address"},{"name":"to","type":"address","internalType":"address"},{"name":"value","type":"uint256","internalType":"uint256"}],"outputs":[{"name":"","type":"bool","internalType":"bool"}],"stateMutability":"nonpayable"},{"type":"event","name":"Approval","inputs":[{"name":"owner","type":"address","indexed":true,"internalType":"address"},{"name":"spender","type":"address","indexed":true,"internalType":"address"},{"name":"value","type":"uint256","indexed":false,"internalType":"uint256"}],"anonymous":false},{"type":"event","name":"Store_SpliceStaticData","inputs":[{"name":"tableId","type":"bytes32","indexed":true,"internalType":"ResourceId"},{"name":"keyTuple","type":"bytes32[]","indexed":false,"internalType":"bytes32[]"},{"name":"start","type":"uint48","indexed":false,"internalType":"uint48"},{"name":"data","type":"bytes","indexed":false,"internalType":"bytes"}],"anonymous":false},{"type":"event","name":"Transfer","inputs":[{"name":"from","type":"address","indexed":true,"internalType":"address"},{"name":"to","type":"address","indexed":true,"internalType":"address"},{"name":"value","type":"uint256","indexed":false,"internalType":"uint256"}],"anonymous":false},{"type":"error","name":"ERC20InsufficientAllowance","inputs":[{"name":"spender","type":"address","internalType":"address"},{"name":"allowance","type":"uint256","internalType":"uint256"},{"name":"needed","type":"uint256","internalType":"uint256"}]},{"type":"error","name":"ERC20InsufficientBalance","inputs":[{"name":"sender","type":"address","internalType":"address"},{"name":"balance","type":"uint256","internalType":"uint256"},{"name":"needed","type":"uint256","internalType":"uint256"}]},{"type":"error","name":"ERC20InvalidApprover","inputs":[{"name":"approver","type":"address","internalType":"address"}]},{"type":"error","name":"ERC20InvalidReceiver","inputs":[{"name":"receiver","type":"address","internalType":"address"}]},{"type":"error","name":"ERC20InvalidSender","inputs":[{"name":"sender","type":"address","internalType":"address"}]},{"type":"error","name":"ERC20InvalidSpender","inputs":[{"name":"spender","type":"address","internalType":"address"}]},{"type":"error","name":"PuppetMaster_NoPuppet","inputs":[{"name":"systemAddress","type":"address","internalType":"address"},{"name":"systemId","type":"bytes32","internalType":"ResourceId"}]},{"type":"error","name":"Slice_OutOfBounds","inputs":[{"name":"data","type":"bytes","internalType":"bytes"},{"name":"start","type":"uint256","internalType":"uint256"},{"name":"end","type":"uint256","internalType":"uint256"}]},{"type":"error","name":"World_AccessDenied","inputs":[{"name":"resource","type":"string","internalType":"string"},{"name":"caller","type":"address","internalType":"address"}]}],"bytecode":{"object":"0x608060405234801561001057600080fd5b5061229b806100206000396000f3fe608060405234801561001057600080fd5b50600436106100f55760003560e01c806340c10f19116100975780639dc29fac116100665780639dc29fac146101e8578063a9059cbb146101fb578063dd62ed3e1461020e578063e1af802c1461022157600080fd5b806340c10f19146101ad57806345ec9354146101c257806370a08231146101cd57806395d89b41146101e057600080fd5b8063119df25f116100d3578063119df25f1461014a57806318160ddd1461016a57806323b872dd14610180578063313ce5671461019357600080fd5b806301ffc9a7146100fa57806306fdde0314610122578063095ea7b314610137575b600080fd5b61010d610108366004611d8f565b610229565b60405190151581526020015b60405180910390f35b61012a6102c2565b6040516101199190611e21565b61010d610145366004611e4b565b6102e1565b610152610303565b6040516001600160a01b039091168152602001610119565b61017261030d565b604051908152602001610119565b61010d61018e366004611e75565b610327565b61019b610357565b60405160ff9091168152602001610119565b6101c06101bb366004611e4b565b61036c565b005b36601f190135610172565b6101726101db366004611eb1565b6103cc565b61012a6103e7565b6101c06101f6366004611e4b565b6103fc565b61010d610209366004611e4b565b610453565b61017261021c366004611ecc565b61046b565b610152610487565b60007fffffffff0000000000000000000000000000000000000000000000000000000082167fb42128800000000000000000000000000000000000000000000000000000000014806102bc57507fffffffff0000000000000000000000000000000000000000000000000000000082167f01ffc9a700000000000000000000000000000000000000000000000000000000145b92915050565b60606102dc6102d76102d2610491565b6104af565b6104e1565b905090565b6000806102ec610303565b90506102f9818585610507565b5060019392505050565b60006102dc610665565b60006102dc61032261031d610491565b610697565b6106c9565b600080610332610303565b905061033f8582856106ee565b61034a858585610776565b60019150505b9392505050565b60006102dc6103676102d2610491565b61080c565b610374610854565b6001600160a01b0382166103bc576040517fec442f05000000000000000000000000000000000000000000000000000000008152600060048201526024015b60405180910390fd5b6103c86000838361086f565b5050565b60006102bc6103e16103dc610491565b610a37565b83610a69565b60606102dc6103f76102d2610491565b610ad7565b610404610854565b6001600160a01b038216610447576040517f96c6fd1e000000000000000000000000000000000000000000000000000000008152600060048201526024016103b3565b6103c88260008361086f565b60008061045e610303565b90506102f9818585610776565b600061035061048061047b610491565b610af6565b8484610b28565b60006102dc610bc3565b60008061049d30610c02565b90506104a98160101b90565b91505090565b60006102bc613a3160f11b837f4d65746164617461000000000000000000000000000000000000000000000000610cde565b604080516000808252602082019092526060916104ff848383610d65565b949350505050565b6001600160a01b03831661054a576040517fe602df05000000000000000000000000000000000000000000000000000000008152600060048201526024016103b3565b6001600160a01b03821661058d576040517f94280d62000000000000000000000000000000000000000000000000000000008152600060048201526024016103b3565b6105a361059b61047b610491565b848484610e2c565b6105ab610ee3565b6001600160a01b031663c9a34acd7f8c5be1e5ebec7d5bd14f71427d1e84f3dd0314c0f7b2291e5b200ac8c7c3b9256105ea866001600160a01b031690565b6001600160a01b0386166040805160208101889052016040516020818303038152906040526040518563ffffffff1660e01b815260040161062e9493929190611f15565b600060405180830381600087803b15801561064857600080fd5b505af115801561065c573d6000803e3d6000fd5b50505050505050565b7fffffffffffffffffffffffffffffffffffffffffffffffffffffffffffffffcc36013560601c806106945750335b90565b60006102bc613a3160f11b837f546f74616c537570706c79000000000000000000000000000000000000000000610cde565b6040805160008082526020820190925260006104ff848383630100080160dd1b610fbe565b60006107056106fe61047b610491565b8585610b28565b905060001981146107705781811015610763576040517ffb8f41b20000000000000000000000000000000000000000000000000000000081526001600160a01b038416600482015260248101829052604481018390526064016103b3565b6107708484848403610507565b50505050565b6001600160a01b0383166107b9576040517f96c6fd1e000000000000000000000000000000000000000000000000000000008152600060048201526024016103b3565b6001600160a01b0382166107fc576040517fec442f05000000000000000000000000000000000000000000000000000000008152600060048201526024016103b3565b61080783838361086f565b505050565b6040805160008082526020820190925260006108498483837e01010201000000000000000000000000000000000000000000000000000000610fbe565b60f81c949350505050565b61086d61086030610c02565b610868610303565b61107b565b565b6000610879610491565b9050600061088682610697565b9050600061089383610a37565b90506001600160a01b0386166108c5576108c082856108b1856106c9565b6108bb9190611f50565b61111c565b610935565b60006108d18288610a69565b905084811015610926576040517fe450d38c0000000000000000000000000000000000000000000000000000000081526001600160a01b038816600482015260248101829052604481018690526064016103b3565b6109338288878403611143565b505b6001600160a01b03851661095c576109578285610951856106c9565b0361111c565b610972565b61097281868661096c858a610a69565b01611143565b61097a610ee3565b6001600160a01b031663c9a34acd7fddf252ad1be2c89b69c2b068fc378daa952ba7f163c4a11628f55a4df523b3ef6109b9896001600160a01b031690565b6001600160a01b03891660408051602081018b9052016040516020818303038152906040526040518563ffffffff1660e01b81526004016109fd9493929190611f15565b600060405180830381600087803b158015610a1757600080fd5b505af1158015610a2b573d6000803e3d6000fd5b50505050505050505050565b60006102bc613a3160f11b837f42616c616e636573000000000000000000000000000000000000000000000000610cde565b60408051600180825281830190925260009182919060208083019080368337019050509050826001600160a01b031660001b81600081518110610aae57610aae611f63565b60209081029190910101526000610ace858383630100080160dd1b610fbe565b95945050505050565b604080516000808252602082019092526060916104ff84836001610d65565b60006102bc613a3160f11b837f416c6c6f77616e63657300000000000000000000000000000000000000000000610cde565b60408051600280825260608201835260009283929190602083019080368337019050509050836001600160a01b031660001b81600081518110610b6d57610b6d611f63565b602002602001018181525050826001600160a01b031660001b81600181518110610b9957610b99611f63565b60209081029190910101526000610bb9868383630100080160dd1b610fbe565b9695505050505050565b7f629a4c26e296b22a8e0856e9f6ecb2d1008d7e00081111962cd175fa7488e175546000906001600160a01b031680610bfd573391505090565b919050565b60408051600180825281830190925260009182919060208083019080368337019050509050826001600160a01b031660001b81600081518110610c4757610c47611f63565b60209081029190910181019190915260408051613a3160f11b818401527f776f726c6400000000000000000000000000000000000000000000000000000060228201527f53797374656d5265676973747279000000000000000000000000000000000000603082015281518082039093018352810190526000906104ff90610cce90611f79565b836000630100080160dd1b610fbe565b6000610cec60706010611f50565b7fffff00000000000000000000000000000000000000000000000000000000000085167dffffffffffffffffffffffffffff00000000000000000000000000000000601086901c16177fffffffffffffffffffffffffffffffff00000000000000000000000000000000841690911c1790509392505050565b60606000610d71610bc3565b9050306001600160a01b03821603610d9657610d8e8585856111ab565b915050610350565b6040517f1e7889770000000000000000000000000000000000000000000000000000000081526001600160a01b03821690631e78897790610ddf90889088908890600401611fdc565b600060405180830381865afa158015610dfc573d6000803e3d6000fd5b505050506040513d6000823e601f3d908101601f19168201604052610d8e9190810190612008565b509392505050565b604080516002808252606082018352600092602083019080368337019050509050836001600160a01b031660001b81600081518110610e6d57610e6d611f63565b602002602001018181525050826001600160a01b031660001b81600181518110610e9957610e99611f63565b602002602001018181525050610edc8582600085604051602001610ebf91815260200190565b60408051601f19818403018152919052630100080160dd1b6111e5565b5050505050565b600080610eef30610c02565b60408051613a3160f11b60208201527f707570706574000000000000000000000000000000000000000000000000000060228201527f50757070657452656769737472790000000000000000000000000000000000006030820152919250600091610f739101604051602081830303815290604052610f6d90611f79565b83611268565b90506001600160a01b0381166102bc576040517f9434f7e1000000000000000000000000000000000000000000000000000000008152306004820152602481018390526044016103b3565b600080610fc9610bc3565b9050306001600160a01b03821603610fef57610fe7868686866112e5565b9150506104ff565b6040517f8c364d590000000000000000000000000000000000000000000000000000000081526001600160a01b03821690638c364d599061103a9089908990899089906004016120b5565b602060405180830381865afa158015611057573d6000803e3d6000fd5b505050506040513d601f19601f82011682018060405250810190610fe791906120e4565b6001600160a01b0381166110d07f6e730000000000000000000000000000000000000000000000000000000000007dffffffffffffffffffffffffffff00000000000000000000000000000000851617611312565b6001600160a01b0316146103c8576110e782611405565b816040517fd787b7370000000000000000000000000000000000000000000000000000000081526004016103b39291906120fd565b60408051600080825260208201835291810183905290610807908490839060608201610ebf565b60408051600180825281830190925260009160208083019080368337019050509050826001600160a01b031660001b8160008151811061118557611185611f63565b6020026020010181815250506107708482600085604051602001610ebf91815260200190565b60606104ff6111bb858585611581565b6111de846111c98888611601565b9060ff166028026038011c64ffffffffff1690565b6000611614565b60006111ef610bc3565b9050306001600160a01b038216036112135761120e8686868686611637565b611260565b6040517f390baae00000000000000000000000000000000000000000000000000000000081526001600160a01b0382169063390baae0906109fd9089908990899089908990600401612128565b505050505050565b6040805160018082528183019092526000918291906020808301908036833701905050905082816000815181106112a1576112a1611f63565b602090810291909101015260006112d98583837e14010014000000000000000000000000000000000000000000000000000000610fbe565b60601c95945050505050565b6000610ace6112f4868661164c565b60ff858116601b0360080285901c1661130d85876116a2565b6116d3565b60408051600180825281830190925260009182919060208083019080368337019050509050828160008151811061134b5761134b611f63565b60209081029190910181019190915260408051613a3160f11b818401527f776f726c6400000000000000000000000000000000000000000000000000000060228201527f4e616d6573706163654f776e6572000000000000000000000000000000000000603082015281518082039093018352810190526000906113fa906113d290611f79565b8360007e14010014000000000000000000000000000000000000000000000000000000610fbe565b60601c949350505050565b606081601081901b600061141883611724565b9050827fffffffffffffffffffffffffffff00000000000000000000000000000000000083161561146b577fffffffffffffffffffffffffffff000000000000000000000000000000000000831661148d565b7f524f4f545f4e414d4553504143450000000000000000000000000000000000005b7fffffffffffffffffffffffffffffffff000000000000000000000000000000008316156114bb57826114dd565b7f524f4f545f4e414d4500000000000000000000000000000000000000000000005b6040517fffff00000000000000000000000000000000000000000000000000000000000090931660208401527f3a00000000000000000000000000000000000000000000000000000000000000602284018190527fffffffffffffffffffffffffffffffff00000000000000000000000000000000928316602385015260338401521660348201526044016040516020818303038152906040529350505050919050565b6000838360405160200161159692919061216f565b604051602081830303815290604052805190602001208260f81b7effffffffffffffffffffffffffffffffffffffffffffffffffffffffffffff19167f3b4102da22e32d82fc925482184f16c09fd4281692720b87d124aef6da48a0f1181860001c90509392505050565b6000610350611610848461173b565b5490565b60405160208101601f19603f8584010116604052838252610e2485858584611791565b610edc858561164684876116a2565b85611860565b6000828260405160200161166192919061216f565b60408051601f1981840301815291905280516020909101207f86425bff6b57326c7859e89024fe4f238ca327a1ae4a230180dd2f0e88aaa7d9189392505050565b600080805b8360ff16811015610e24576116c960ff601b83900360080287901c1683611f50565b91506001016116a7565b6000602082106116f9576020820484019350602082816116f5576116f56121ab565b0691505b508254600882021b602082900380841115610e24576001850154600882021c82179150509392505050565b600061173260706010611f50565b9190911b919050565b6000828260405160200161175092919061216f565b60408051601f1981840301815291905280516020909101207f14e2fcc58e58e68ec7edc30c8d50dccc3ce2714a623ec81f46b6a63922d76569189392505050565b811561181a57602082106117bb576020820484019350602082816117b7576117b76121ab565b0691505b811561181a5760208290036000818510156117df5750600019600885021c196117ea565b50600019600882021c195b8554600885021b81198451168282161784525081851161180b575050610770565b50600194909401939283900392015b5b6020831061183c5783548152600190930192601f199092019160200161181b565b8215610770576000600019600885021c198251865482169119161782525050505050565b600061186c858561164c565b9050847f8c0b5119d4cec7b284c6b1b39252a03d1e2f2d7451a5895562524c113bb952be8585856040516118a2939291906121c1565b60405180910390a2613a3160f11b857fffff00000000000000000000000000000000000000000000000000000000000016146118de5750610770565b60006118e986611aa5565b905060005b81518110156119be57600082828151811061190b5761190b611f63565b602002602001015190506119376004826affffffffffffffffffffff1916611b8590919063ffffffff16565b156119b5576040517f964f667d000000000000000000000000000000000000000000000000000000008152606082901c9063964f667d90611982908b908b908b908b906004016121f4565b600060405180830381600087803b15801561199c57600080fd5b505af11580156119b0573d6000803e3d6000fd5b505050505b506001016118ee565b506119d2828565ffffffffffff1685611ba3565b60005b815181101561065c5760008282815181106119f2576119f2611f63565b60200260200101519050611a1e6008826affffffffffffffffffffff1916611b8590919063ffffffff16565b15611a9c576040517fa8ba8721000000000000000000000000000000000000000000000000000000008152606082901c9063a8ba872190611a69908b908b908b908b906004016121f4565b600060405180830381600087803b158015611a8357600080fd5b505af1158015611a97573d6000803e3d6000fd5b505050505b506001016119d5565b60408051600180825281830190925260609160009190602080830190803683370190505090508281600081518110611adf57611adf611f63565b60209081029190910181019190915260408051613a3160f11b818401527f73746f726500000000000000000000000000000000000000000000000000000060228201527f53746f7265486f6f6b730000000000000000000000000000000000000000000060308201528151808203909301835281019052600090611b6e90611b6690611f79565b8360006111ab565b90506104ff611b808260008451611bb3565b611c43565b60008160ff1682611b968560581c90565b1660ff1614905092915050565b6108078383602084018451611c54565b6000818311158015611bc6575083518211155b611c02578383836040517f23230fa30000000000000000000000000000000000000000000000000000000081526004016103b39392919061222d565b60208401611c108482611f50565b90506000611c1e8585612252565b6fffffffffffffffffffffffffffffffff1660809290921b9190911795945050505050565b606060006103508360156000611d14565b8215611cce5760208310611c7e57602083048401935060208381611c7a57611c7a6121ab565b0692505b8215611cce5760208390036000600019600884021c1990506008850281811c91508451811c9050811987541682821617875550818311611cbf575050610770565b50600194909401939182019190035b5b60208110611cf05781518455600190930192602090910190601f1901611ccf565b8015610770576000600019600883021c198554845182169119161785555050505050565b60606000611d228560801c90565b90506fffffffffffffffffffffffffffffffff85166000858281611d4857611d486121ab565b04905060405193506020840160208202810160405281855260005b82811015611d83578451871c825293870193602090910190600101611d63565b50505050509392505050565b600060208284031215611da157600080fd5b81357fffffffff000000000000000000000000000000000000000000000000000000008116811461035057600080fd5b60005b83811015611dec578181015183820152602001611dd4565b50506000910152565b60008151808452611e0d816020860160208601611dd1565b601f01601f19169290920160200192915050565b6020815260006103506020830184611df5565b80356001600160a01b0381168114610bfd57600080fd5b60008060408385031215611e5e57600080fd5b611e6783611e34565b946020939093013593505050565b600080600060608486031215611e8a57600080fd5b611e9384611e34565b9250611ea160208501611e34565b9150604084013590509250925092565b600060208284031215611ec357600080fd5b61035082611e34565b60008060408385031215611edf57600080fd5b611ee883611e34565b9150611ef660208401611e34565b90509250929050565b634e487b7160e01b600052604160045260246000fd5b848152836020820152826040820152608060608201526000610bb96080830184611df5565b634e487b7160e01b600052601160045260246000fd5b808201808211156102bc576102bc611f3a565b634e487b7160e01b600052603260045260246000fd5b80516020808301519190811015611f9a576000198160200360031b1b821691505b50919050565b60008151808452602080850194506020840160005b83811015611fd157815187529582019590820190600101611fb5565b509495945050505050565b838152606060208201526000611ff56060830185611fa0565b905060ff83166040830152949350505050565b60006020828403121561201a57600080fd5b815167ffffffffffffffff8082111561203257600080fd5b818401915084601f83011261204657600080fd5b81518181111561205857612058611eff565b604051601f8201601f19908116603f0116810190838211818310171561208057612080611eff565b8160405282815287602084870101111561209957600080fd5b6120aa836020830160208801611dd1565b979650505050505050565b8481526080602082015260006120ce6080830186611fa0565b60ff949094166040830152506060015292915050565b6000602082840312156120f657600080fd5b5051919050565b6040815260006121106040830185611df5565b90506001600160a01b03831660208301529392505050565b85815260a06020820152600061214160a0830187611fa0565b60ff86166040840152828103606084015261215c8186611df5565b9150508260808301529695505050505050565b8281526000602080830184516020860160005b8281101561219e57815184529284019290840190600101612182565b5091979650505050505050565b634e487b7160e01b600052601260045260246000fd5b6060815260006121d46060830186611fa0565b65ffffffffffff851660208401528281036040840152610bb98185611df5565b84815260806020820152600061220d6080830186611fa0565b65ffffffffffff8516604084015282810360608401526120aa8185611df5565b6060815260006122406060830186611df5565b60208301949094525060400152919050565b818103818111156102bc576102bc611f3a56fea2646970667358221220386749493a1a1c1d880b6471382415b3efb16f6394b712a7d37481aaf0c47e5a64736f6c63430008170033","linkReferences":{}},"methodIdentifiers":{"_msgSender()":"119df25f","_msgValue()":"45ec9354","_world()":"e1af802c","allowance(address,address)":"dd62ed3e","approve(address,uint256)":"095ea7b3","balanceOf(address)":"70a08231","burn(address,uint256)":"9dc29fac","decimals()":"313ce567","mint(address,uint256)":"40c10f19","name()":"06fdde03","supportsInterface(bytes4)":"01ffc9a7","symbol()":"95d89b41","totalSupply()":"18160ddd","transfer(address,uint256)":"a9059cbb","transferFrom(address,address,uint256)":"23b872dd"},"id":45}