{"abi":[{"type":"function","name":"_msgSender","inputs":[],"outputs":[{"name":"sender","type":"address","internalType":"address"}],"stateMutability":"view"},{"type":"function","name":"_msgValue","inputs":[],"outputs":[{"name":"value","type":"uint256","internalType":"uint256"}],"stateMutability":"pure"},{"type":"function","name":"_world","inputs":[],"outputs":[{"name":"","type":"address","internalType":"address"}],"stateMutability":"view"},{"type":"function","name":"register","inputs":[{"name":"matchEntity","type":"bytes32","internalType":"bytes32"},{"name":"spawnIndex","type":"uint256","internalType":"uint256"},{"name":"heroChoice","type":"bytes32","internalType":"bytes32"}],"outputs":[{"name":"","type":"bytes32","internalType":"bytes32"}],"stateMutability":"nonpayable"},{"type":"function","name":"supportsInterface","inputs":[{"name":"interfaceId","type":"bytes4","internalType":"bytes4"}],"outputs":[{"name":"","type":"bool","internalType":"bool"}],"stateMutability":"pure"},{"type":"error","name":"Store_IndexOutOfBounds","inputs":[{"name":"length","type":"uint256","internalType":"uint256"},{"name":"accessedIndex","type":"uint256","internalType":"uint256"}]},{"type":"error","name":"World_FunctionSelectorNotFound","inputs":[{"name":"functionSelector","type":"bytes4","internalType":"bytes4"}]},{"type":"error","name":"World_ResourceNotFound","inputs":[{"name":"resourceId","type":"bytes32","internalType":"ResourceId"},{"name":"resourceIdString","type":"string","internalType":"string"}]}],"bytecode":{"object":"0x608060405234801561001057600080fd5b5061263f806100206000396000f3fe608060405234801561001057600080fd5b50600436106100675760003560e01c806345ec93541161005057806345ec9354146100b4578063e1af802c146100c9578063e8f83f9f146100d157600080fd5b806301ffc9a71461006c578063119df25f14610094575b600080fd5b61007f61007a36600461212b565b6100e4565b60405190151581526020015b60405180910390f35b61009c61017d565b6040516001600160a01b03909116815260200161008b565b36601f1901355b60405190815260200161008b565b61009c61018c565b6100bb6100df36600461216d565b610196565b60007fffffffff0000000000000000000000000000000000000000000000000000000082167fb421288000000000000000000000000000000000000000000000000000000000148061017757507fffffffff0000000000000000000000000000000000000000000000000000000082167f01ffc9a700000000000000000000000000000000000000000000000000000000145b92915050565b60006101876104fc565b905090565b600061018761052e565b60006101a9846101a461017d565b61056d565b6101fa5760405162461bcd60e51b815260206004820152601560248201527f63616c6c6572206973206e6f7420616c6c6f776564000000000000000000000060448201526064015b60405180910390fd5b610204848461062f565b156102515760405162461bcd60e51b815260206004820152601c60248201527f737061776e20706f696e7420616c72656164792072657365727665640000000060448201526064016101f1565b6102628461025d61017d565b610721565b156102d55760405162461bcd60e51b815260206004820152603160248201527f74686973206163636f756e742068617320616c7265616479207265676973746560448201527f72656420666f7220746865206d6174636800000000000000000000000000000060648201526084016101f1565b60006102e0836107e0565b9050808061030957506102f96102f461017d565b6108c3565b80156103095750610309836108d6565b6103555760405162461bcd60e51b815260206004820152601360248201527f696e76616c6964206865726f2063686f6963650000000000000000000000000060448201526064016101f1565b600061036086610969565b90507f537061776e536574746c656d656e74000000000000000000000000000000000061038d8287610a37565b146103da5760405162461bcd60e51b815260206004820152601b60248201527f6c6576656c20656e74697479206973206e6f74206120737061776e000000000060448201526064016101f1565b60006103e587610afb565b9050804210156104375760405162461bcd60e51b815260206004820152601560248201527f726567697374726174696f6e206e6f74206f70656e000000000000000000000060448201526064016101f1565b61045961044261018c565b61044b89610bc9565b6104548a610ca2565b610d70565b6040516024810188905260448101879052606481018690526000906104d89060840160408051601f198184030181529190526020810180517bffffffffffffffffffffffffffffffffffffffffffffffffffffffff167f3a1976fb00000000000000000000000000000000000000000000000000000000179052610f6b565b9050808060200190518101906104ee9190612199565b9450505050505b9392505050565b7fffffffffffffffffffffffffffffffffffffffffffffffffffffffffffffffcc36013560601c8061052b5750335b90565b7f629a4c26e296b22a8e0856e9f6ecb2d1008d7e00081111962cd175fa7488e175546000906001600160a01b031680610568573391505090565b919050565b60008061057984611019565b9050600081900361058e576001915050610177565b604051602481018590526001600160a01b038416604482015260009061061090839060640160408051601f198184030181529190526020810180517bffffffffffffffffffffffffffffffffffffffffffffffffffffffff167f82027b6d000000000000000000000000000000000000000000000000000000001790526110ac565b90508080602001905181019061062691906121b2565b95945050505050565b604080516002808252606082018352600092839291906020830190803683370190505090508381600081518110610668576106686121ea565b6020026020010181815250508260001b8160018151811061068b5761068b6121ea565b60209081029190910181019190915260408051613a3160f11b928101929092526000602283018190527f537061776e52657365727665644279000000000000000000000000000000000060308401529161062691015b6040516020818303038152906040526106f990612200565b8360007e200100200000000000000000000000000000000000000000000000000000006111e6565b60408051600280825260608201835260009283929190602083019080368337019050509050838160008151811061075a5761075a6121ea565b602002602001018181525050826001600160a01b031660001b81600181518110610786576107866121ea565b60209081029190910181019190915260408051613a3160f11b928101929092526000602283018190527f4d61746368506c6179657200000000000000000000000000000000000000000060308401529161062691016106e1565b604080516001808252818301909252600091829190602080830190803683370190505090508281600081518110610819576108196121ea565b60209081029190910181019190915260408051613a3160f11b928101929092526000602283018190527f4865726f496e526f746174696f6e0000000000000000000000000000000000006030840152916108af91015b60405160208183030381529060405261088790612200565b8360007e010100010000000000000000000000000000000000000000000000000000006111e6565b90506108bb8160f81c90565b949350505050565b60006101776108d06112a3565b8361133b565b60408051600180825281830190925260009182919060208083019080368337019050509050828160008151811061090f5761090f6121ea565b60209081029190910181019190915260408051613a3160f11b928101929092526000602283018190527f4865726f496e536561736f6e50617373000000000000000000000000000000006030840152916108af910161086f565b6040805160018082528183019092526000918291906020808301908036833701905050905082816000815181106109a2576109a26121ea565b60209081029190910181019190915260408051613a3160f11b928101929092526000602283018190527f4d61746368436f6e6669670000000000000000000000000000000000000000006030840152916108bb9101604051602081830303815290604052610a0f90612200565b8360037eb40600202020202014000000000000000000000000000000000000000000006111e6565b604080516001808252818301909252600091829190602080830190803683370190505090508381600081518110610a7057610a706121ea565b60209081029190910181019190915260408051613a3160f11b928101929092526000602283018190527f4c6576656c54656d706c61746573000000000000000000000000000000000000603084015291610af09101604051602081830303815290604052610add90612200565b83600087602002886001016020026113ce565b905061062681612200565b604080516001808252818301909252600091829190602080830190803683370190505090508281600081518110610b3457610b346121ea565b60209081029190910181019190915260408051613a3160f11b928101929092526000602283018190527f4d61746368436f6e6669670000000000000000000000000000000000000000006030840152916108bb9101604051602081830303815290604052610ba190612200565b8360007eb40600202020202014000000000000000000000000000000000000000000006111e6565b604080516001808252818301909252600091829190602080830190803683370190505090508281600081518110610c0257610c026121ea565b60209081029190910181019190915260408051613a3160f11b928101929092526000602283018190527f4d61746368436f6e666967000000000000000000000000000000000000000000603084015291610c979101604051602081830303815290604052610c6f90612200565b8360057eb40600202020202014000000000000000000000000000000000000000000006111e6565b60601c949350505050565b604080516001808252818301909252600091829190602080830190803683370190505090508281600081518110610cdb57610cdb6121ea565b60209081029190910181019190915260408051613a3160f11b928101929092526000602283018190527f4d6174636853776565707374616b6500000000000000000000000000000000006030840152916108bb9101604051602081830303815290604052610d4890612200565b8360007e200101200000000000000000000000000000000000000000000000000000006111e6565b6000610d7a611493565b90506000816001600160a01b03166339f898bc6040518163ffffffff1660e01b8152600401602060405180830381865afa158015610dbc573d6000803e3d6000fd5b505050506040513d601f19601f82011682018060405250810190610de09190612199565b6040516001600160a01b03861660248201526044810185905290915060009060640160408051601f198184030181529181526020820180517bffffffffffffffffffffffffffffffffffffffffffffffffffffffff167fa9059cbb00000000000000000000000000000000000000000000000000000000179052519091506000906001600160a01b038816908190633ae7af0890610e849087908790602401612277565b60408051601f198184030181529181526020820180517bffffffffffffffffffffffffffffffffffffffffffffffffffffffff1660e09490941b939093179092529051610ed19250612290565b600060405180830381855af49150503d8060008114610f0c576040519150601f19603f3d011682016040523d82523d6000602084013e610f11565b606091505b5050905080610f625760405162461bcd60e51b815260206004820152601560248201527f746f6b656e207472616e73666572206661696c6564000000000000000000000060448201526064016101f1565b50505050505050565b6060600080610f81610f7c856122ac565b611521565b91509150816000801b03610fe7576040517ffdde54e20000000000000000000000000000000000000000000000000000000081527fffffffff000000000000000000000000000000000000000000000000000000006000351660048201526024016101f1565b6020840180517bffffffffffffffffffffffffffffffffffffffffffffffffffffffff16821790526108bb82856110ac565b604080516001808252818301909252600091829190602080830190803683370190505090508281600081518110611052576110526121ea565b60209081029190910181019190915260408051613a3160f11b928101929092526000602283018190527f4d61746368416363657373436f6e7472000000000000000000000000000000006030840152916108bb91016106e1565b606060006110b861018c565b90506001600160a01b03811630036111585760006110d585611649565b5090506001600160a01b03811661112457846110f086611745565b6040517ffbf10ce60000000000000000000000000000000000000000000000000000000081526004016101f1929190612277565b600061113e6111316104fc565b36601f19013584886118c1565b94509050806111505761115084611935565b505050610177565b6040517f3ae7af080000000000000000000000000000000000000000000000000000000081526001600160a01b03821690633ae7af089061119f9087908790600401612277565b6000604051808303816000875af11580156111be573d6000803e3d6000fd5b505050506040513d6000823e601f3d908101601f191682016040526108bb9190810190612384565b6000806111f161052e565b9050306001600160a01b038216036112175761120f8686868661193d565b9150506108bb565b6040517f8c364d590000000000000000000000000000000000000000000000000000000081526001600160a01b03821690638c364d59906112629089908990899089906004016123f5565b602060405180830381865afa15801561127f573d6000803e3d6000fd5b505050506040513d601f19601f8201168201806040525081019061120f9190612199565b604080516000808252602082018352613a3160f11b82840152604282018190527f536b79506f6f6c436f6e666967000000000000000000000000000000000000006050830152825180830384018152606083019093529182906113319061130990612200565b8360037e7c0500202014141400000000000000000000000000000000000000000000006111e6565b60601c9392505050565b600080836001600160a01b03166339f898bc6040518163ffffffff1660e01b8152600401602060405180830381865afa15801561137c573d6000803e3d6000fd5b505050506040513d601f19601f820116820180604052508101906113a09190612199565b905060006113b66113b18360101b90565b61196a565b905060006113c4828661199c565b1195945050505050565b606060006113da61052e565b9050306001600160a01b03821603611401576113f98787878787611a19565b915050610626565b6040517f4dc77d970000000000000000000000000000000000000000000000000000000081526001600160a01b03821690634dc77d979061144e908a908a908a908a908a90600401612424565b600060405180830381865afa15801561146b573d6000803e3d6000fd5b505050506040513d6000823e601f3d908101601f191682016040526113f99190810190612384565b604080516000808252602082018352613a3160f11b82840152604282018190527f536b79506f6f6c436f6e66696700000000000000000000000000000000000000605083015282518083038401815260608301909352918290611331906114f990612200565b8360027e7c0500202014141400000000000000000000000000000000000000000000006111e6565b6040805160018082528183019092526000918291829160208083019080368337019050509050837bffffffffffffffffffffffffffffffffffffffffffffffffffffffff19168160008151811061157a5761157a6121ea565b60209081029190910181019190915260408051613a3160f11b818401527f776f726c6400000000000000000000000000000000000000000000000000000060228201527f46756e6374696f6e53656c6563746f7200000000000000000000000000000000603082015281518082039093018352810190526000908190819061162b9061160590612200565b857e24020020040000000000000000000000000000000000000000000000000000611adf565b92509250925061163c838383611baf565b9550955050505050915091565b60408051600180825281830190925260009182918291602080830190803683370190505090508381600081518110611683576116836121ea565b60209081029190910181019190915260408051613a3160f11b818401527f776f726c6400000000000000000000000000000000000000000000000000000060228201527f53797374656d730000000000000000000000000000000000000000000000000060308201528151808203909301835281019052600090819081906117349061170e90612200565b857e15020014010000000000000000000000000000000000000000000000000000611adf565b92509250925061163c838383611bc7565b606081601081901b600061175883611bd3565b9050827fffffffffffffffffffffffffffff0000000000000000000000000000000000008316156117ab577fffffffffffffffffffffffffffff00000000000000000000000000000000000083166117cd565b7f524f4f545f4e414d4553504143450000000000000000000000000000000000005b7fffffffffffffffffffffffffffffffff000000000000000000000000000000008316156117fb578261181d565b7f524f4f545f4e414d4500000000000000000000000000000000000000000000005b6040517fffff00000000000000000000000000000000000000000000000000000000000090931660208401527f3a00000000000000000000000000000000000000000000000000000000000000602284018190527fffffffffffffffffffffffffffffffff00000000000000000000000000000000928316602385015260338401521660348201526044016040516020818303038152906040529350505050919050565b60006060836001600160a01b03166118da848888611bea565b6040516118e79190612290565b600060405180830381855af49150503d8060008114611922576040519150601f19603f3d011682016040523d82523d6000602084013e611927565b606091505b509097909650945050505050565b805160208201fd5b600061062661194c8686611c19565b60ff858116601b0360080285901c166119658587611c6f565b611ca8565b6000610177613a3160f11b837f42616c616e636573000000000000000000000000000000000000000000000000611cf9565b60408051600180825281830190925260009182919060208083019080368337019050509050826001600160a01b031660001b816000815181106119e1576119e16121ea565b602090810291909101015260006106268583837e200100200000000000000000000000000000000000000000000000000000006111e6565b60606000611a278787611d80565b90506000611a44828760ff166028026038011c64ffffffffff1690565b90508085101580611a5457508084115b15611aaf578081861015611a7257611a6d600186612473565b611a74565b855b6040517f7e8578d3000000000000000000000000000000000000000000000000000000008152600481019290925260248201526044016101f1565b6000611abc898989611d93565b9050611ad281611acc8888612473565b88611e13565b9998505050505050505050565b6060600060606000611aef61052e565b9050306001600160a01b03821603611b1857611b0c878787611e36565b93509350935050611ba6565b6040517f419b58fd0000000000000000000000000000000000000000000000000000000081526001600160a01b0382169063419b58fd90611b61908a908a908a90600401612486565b600060405180830381865afa158015611b7e573d6000803e3d6000fd5b505050506040513d6000823e601f3d908101601f19168201604052611b0c91908101906124af565b93509350939050565b600080611bbb85611f3e565b90969095509350505050565b600080611bbb85611f53565b6000611be16070601061251c565b9190911b919050565b6060838383604051602001611c019392919061252f565b60405160208183030381529060405290509392505050565b60008282604051602001611c2e929190612581565b60408051601f1981840301815291905280516020909101207f86425bff6b57326c7859e89024fe4f238ca327a1ae4a230180dd2f0e88aaa7d9189392505050565b600080805b8360ff16811015611ca057611c9660ff601b83900360080287901c168361251c565b9150600101611c74565b509392505050565b600060208210611cce57602082048401935060208281611cca57611cca6125bd565b0691505b508254600882021b602082900380841115611ca0576001850154600882021c82179150509392505050565b6000611d076070601061251c565b7fffff00000000000000000000000000000000000000000000000000000000000085167dffffffffffffffffffffffffffff00000000000000000000000000000000601086901c16177fffffffffffffffffffffffffffffffff00000000000000000000000000000000841690911c1790509392505050565b60006104f5611d8f8484611f6f565b5490565b60008383604051602001611da8929190612581565b604051602081830303815290604052805190602001208260f81b7effffffffffffffffffffffffffffffffffffffffffffffffffffffffffffff19167f3b4102da22e32d82fc925482184f16c09fd4281692720b87d124aef6da48a0f1181860001c90509392505050565b60405160208101601f19603f8584010116604052838252611ca085858584611fc5565b6060600060606000611e4785612092565b9050611e548787836120b5565b93506000611e61866120ee565b90508015611f3357611e738888611d80565b935066ffffffffffffff841667ffffffffffffffff811115611e9757611e976121d4565b6040519080825280601f01601f191660200182016040528015611ec1576020820181803683370190505b5092506020830160005b828160ff161015611f30576000611ee38b8b84611d93565b90506000611f00888460ff166028026038011c64ffffffffff1690565b9050611f0f8282600087611fc5565b611f19818561251c565b935050508080611f28906125d3565b915050611ecb565b50505b505093509350939050565b602081015160408201516000905b9050915091565b6020810151603482015160609190911c9060009060f81c611f4c565b60008282604051602001611f84929190612581565b60408051601f1981840301815291905280516020909101207f14e2fcc58e58e68ec7edc30c8d50dccc3ce2714a623ec81f46b6a63922d76569189392505050565b811561204e5760208210611fef57602082048401935060208281611feb57611feb6125bd565b0691505b811561204e5760208290036000818510156120135750600019600885021c1961201e565b50600019600882021c195b8554600885021b81198451168282161784525081851161203f57505061208c565b50600194909401939283900392015b5b602083106120705783548152600190930192601f199092019160200161204f565b821561208c5780518454600019600886021c9182169119161781525b50505050565b600060086120a260026020612473565b6120ac91906125f2565b9190911c919050565b6060816000036120d457506040805160208101909152600081526104f5565b60006120e08585611c19565b905061062681846000611e13565b6000600860018061210160026020612473565b61210b9190612473565b6121159190612473565b61211f91906125f2565b8260ff911c1692915050565b60006020828403121561213d57600080fd5b81357fffffffff00000000000000000000000000000000000000000000000000000000811681146104f557600080fd5b60008060006060848603121561218257600080fd5b505081359360208301359350604090920135919050565b6000602082840312156121ab57600080fd5b5051919050565b6000602082840312156121c457600080fd5b815180151581146104f557600080fd5b634e487b7160e01b600052604160045260246000fd5b634e487b7160e01b600052603260045260246000fd5b80516020808301519190811015612221576000198160200360031b1b821691505b50919050565b60005b8381101561224257818101518382015260200161222a565b50506000910152565b60008151808452612263816020860160208601612227565b601f01601f19169290920160200192915050565b8281526040602082015260006108bb604083018461224b565b600082516122a2818460208701612227565b9190910192915050565b6000815160208301517fffffffff00000000000000000000000000000000000000000000000000000000808216935060048310156122f45780818460040360031b1b83161693505b505050919050565b600082601f83011261230d57600080fd5b815167ffffffffffffffff80821115612328576123286121d4565b604051601f8301601f19908116603f01168101908282118183101715612350576123506121d4565b8160405283815286602085880101111561236957600080fd5b61237a846020830160208901612227565b9695505050505050565b60006020828403121561239657600080fd5b815167ffffffffffffffff8111156123ad57600080fd5b6108bb848285016122fc565b60008151808452602080850194506020840160005b838110156123ea578151875295820195908201906001016123ce565b509495945050505050565b84815260806020820152600061240e60808301866123b9565b60ff949094166040830152506060015292915050565b85815260a06020820152600061243d60a08301876123b9565b60ff95909516604083015250606081019290925260809091015292915050565b634e487b7160e01b600052601160045260246000fd5b818103818111156101775761017761245d565b83815260606020820152600061249f60608301856123b9565b9050826040830152949350505050565b6000806000606084860312156124c457600080fd5b835167ffffffffffffffff808211156124dc57600080fd5b6124e8878388016122fc565b945060208601519350604086015191508082111561250557600080fd5b50612512868287016122fc565b9150509250925092565b808201808211156101775761017761245d565b60008451612541818460208901612227565b60609490941b7fffffffffffffffffffffffffffffffffffffffff0000000000000000000000001691909301908152601481019190915260340192915050565b8281526000602080830184516020860160005b828110156125b057815184529284019290840190600101612594565b5091979650505050505050565b634e487b7160e01b600052601260045260246000fd5b600060ff821660ff81036125e9576125e961245d565b60010192915050565b80820281158282048414176101775761017761245d56fea264697066735822122003686959a3bef9427585d607ebe4814355b9bb41aed83adb58a87275da662b7b64736f6c63430008170033","linkReferences":{}},"methodIdentifiers":{"_msgSender()":"119df25f","_msgValue()":"45ec9354","_world()":"e1af802c","register(bytes32,uint256,bytes32)":"e8f83f9f","supportsInterface(bytes4)":"01ffc9a7"},"id":459}