{"abi":[{"type":"function","name":"_msgSender","inputs":[],"outputs":[{"name":"sender","type":"address","internalType":"address"}],"stateMutability":"view"},{"type":"function","name":"_msgValue","inputs":[],"outputs":[{"name":"value","type":"uint256","internalType":"uint256"}],"stateMutability":"pure"},{"type":"function","name":"_world","inputs":[],"outputs":[{"name":"","type":"address","internalType":"address"}],"stateMutability":"view"},{"type":"function","name":"build","inputs":[{"name":"matchEntity","type":"bytes32","internalType":"bytes32"},{"name":"factoryEntity","type":"bytes32","internalType":"bytes32"},{"name":"templateId","type":"bytes32","internalType":"bytes32"},{"name":"coord","type":"tuple","internalType":"struct PositionData","components":[{"name":"x","type":"int32","internalType":"int32"},{"name":"y","type":"int32","internalType":"int32"}]}],"outputs":[{"name":"","type":"bytes32","internalType":"bytes32"}],"stateMutability":"nonpayable"},{"type":"function","name":"supportsInterface","inputs":[{"name":"interfaceId","type":"bytes4","internalType":"bytes4"}],"outputs":[{"name":"","type":"bool","internalType":"bool"}],"stateMutability":"pure"},{"type":"event","name":"Store_DeleteRecord","inputs":[{"name":"tableId","type":"bytes32","indexed":true,"internalType":"ResourceId"},{"name":"keyTuple","type":"bytes32[]","indexed":false,"internalType":"bytes32[]"}],"anonymous":false},{"type":"event","name":"Store_SetRecord","inputs":[{"name":"tableId","type":"bytes32","indexed":true,"internalType":"ResourceId"},{"name":"keyTuple","type":"bytes32[]","indexed":false,"internalType":"bytes32[]"},{"name":"staticData","type":"bytes","indexed":false,"internalType":"bytes"},{"name":"encodedLengths","type":"bytes32","indexed":false,"internalType":"PackedCounter"},{"name":"dynamicData","type":"bytes","indexed":false,"internalType":"bytes"}],"anonymous":false},{"type":"event","name":"Store_SpliceDynamicData","inputs":[{"name":"tableId","type":"bytes32","indexed":true,"internalType":"ResourceId"},{"name":"keyTuple","type":"bytes32[]","indexed":false,"internalType":"bytes32[]"},{"name":"start","type":"uint48","indexed":false,"internalType":"uint48"},{"name":"deleteCount","type":"uint40","indexed":false,"internalType":"uint40"},{"name":"encodedLengths","type":"bytes32","indexed":false,"internalType":"PackedCounter"},{"name":"data","type":"bytes","indexed":false,"internalType":"bytes"}],"anonymous":false},{"type":"event","name":"Store_SpliceStaticData","inputs":[{"name":"tableId","type":"bytes32","indexed":true,"internalType":"ResourceId"},{"name":"keyTuple","type":"bytes32[]","indexed":false,"internalType":"bytes32[]"},{"name":"start","type":"uint48","indexed":false,"internalType":"uint48"},{"name":"data","type":"bytes","indexed":false,"internalType":"bytes"}],"anonymous":false},{"type":"error","name":"PackedCounter_InvalidLength","inputs":[{"name":"length","type":"uint256","internalType":"uint256"}]},{"type":"error","name":"Slice_OutOfBounds","inputs":[{"name":"data","type":"bytes","internalType":"bytes"},{"name":"start","type":"uint256","internalType":"uint256"},{"name":"end","type":"uint256","internalType":"uint256"}]},{"type":"error","name":"Store_IndexOutOfBounds","inputs":[{"name":"length","type":"uint256","internalType":"uint256"},{"name":"accessedIndex","type":"uint256","internalType":"uint256"}]},{"type":"error","name":"Store_InvalidResourceType","inputs":[{"name":"expected","type":"bytes2","internalType":"bytes2"},{"name":"resourceId","type":"bytes32","internalType":"ResourceId"},{"name":"resourceIdString","type":"string","internalType":"string"}]},{"type":"error","name":"Store_InvalidSplice","inputs":[{"name":"startWithinField","type":"uint40","internalType":"uint40"},{"name":"deleteCount","type":"uint40","internalType":"uint40"},{"name":"fieldLength","type":"uint40","internalType":"uint40"}]}],"bytecode":{"object":"0x608060405234801561001057600080fd5b50614ea6806100206000396000f3fe608060405234801561001057600080fd5b50600436106100675760003560e01c806345ec93541161005057806345ec9354146100b4578063ac21e2ed146100c9578063e1af802c146100dc57600080fd5b806301ffc9a71461006c578063119df25f14610094575b600080fd5b61007f61007a36600461459e565b6100e4565b60405190151581526020015b60405180910390f35b61009c61017d565b6040516001600160a01b03909116815260200161008b565b36601f1901355b60405190815260200161008b565b6100bb6100d7366004614608565b61018c565b61009c610465565b60007fffffffff0000000000000000000000000000000000000000000000000000000082167fb421288000000000000000000000000000000000000000000000000000000000148061017757507fffffffff0000000000000000000000000000000000000000000000000000000082167f01ffc9a700000000000000000000000000000000000000000000000000000000145b92915050565b600061018761046f565b905090565b60008061019986866104a1565b90506101a581846105e6565b60030b6001146101fc5760405162461bcd60e51b815260206004820152601f60248201527f74617267657420706f736974696f6e206973206e6f742061646a6163656e740060448201526064015b60405180910390fd5b61021d868661021861020c61017d565b6001600160a01b031690565b61067a565b6102695760405162461bcd60e51b815260206004820152601b60248201527f796f7520646f206e6f74206f776e207468697320666163746f7279000000000060448201526064016101f3565b610272866106db565b6102be5760405162461bcd60e51b815260206004820152601560248201527f6d6174636820686173206e6f742073746172746564000000000000000000000060448201526064016101f3565b600080806102cc89896106fc565b905060005b815181101561031857878282815181106102ed576102ed6146b2565b60200260200101510361031057600192506103098a8a836107e2565b9350610318565b6001016102d1565b508161038c5760405162461bcd60e51b815260206004820152602860248201527f7468697320666163746f727920646f6573206e6f74206861766520746869732060448201527f74656d706c61746500000000000000000000000000000000000000000000000060648201526084016101f3565b60006103a18a886000015189602001516108d3565b905060005b8151811015610427576103d28b8383815181106103c5576103c56146b2565b60200260200101516109cf565b1561041f5760405162461bcd60e51b815260206004820152601860248201527f656e7469747920626c6f636b696e6720706f736974696f6e000000000000000060448201526064016101f3565b6001016103a6565b50600061043b8b61043661017d565b610aca565b90506104488b8287610ad6565b6104548b8a838b610b5f565b96505050505050505b949350505050565b6000610187610ba0565b7fffffffffffffffffffffffffffffffffffffffffffffffffffffffffffffffcc36013560601c8061049e5750335b90565b6040805180820182526000808252602082018190528251600280825260608201909452919290919081602001602082028036833701905050905083816000815181106104ef576104ef6146b2565b602002602001018181525050828160018151811061050f5761050f6146b2565b60209081029190910181019190915260408051613a3160f11b928101929092526000602283018190527f506f736974696f6e000000000000000000000000000000000000000000000000603084015291829182916105a791015b604051602081830303815290604052610581906146c8565b857e08020004040000000000000000000000000000000000000000000000000000610bdf565b6040805180820190915260008082526020808301918252850151602486015160e090811d909252901d815292955090935091505b979650505050505050565b600080826000015160030b846000015160030b13610611578351835161060c9190614702565b61061f565b8251845161061f9190614702565b90506000836020015160030b856020015160030b13610651578460200151846020015161064c9190614702565b610665565b836020015185602001516106659190614702565b90506106718183614729565b95945050505050565b600061068582610caf565b15610692575060016106d4565b8183036106a1575060016106d4565b6106ab8484610d4e565b156106d0576106ba8484610d4e565b92508183036106cb575060016106d4565b6106a1565b5060005b9392505050565b6000806106e783610e3d565b905080158015906106d4575042101592915050565b604080516002808252606080830184529260009291906020830190803683370190505090508381600081518110610735576107356146b2565b6020026020010181815250508281600181518110610755576107556146b2565b60209081029190910181019190915260408051613a3160f11b928101929092526000602283018190527f466163746f7279000000000000000000000000000000000000000000000000006030840152916107cb91015b6040516020818303038152906040526107c3906146c8565b836000610f0b565b90506106716107dd8260008451610fd2565b611062565b60408051600280825260608201835260009283929190602083019080368337019050509050848160008151811061081b5761081b6146b2565b602002602001018181525050838160018151811061083b5761083b6146b2565b60209081029190910181019190915260408051613a3160f11b928101929092526000602283018190527f466163746f7279000000000000000000000000000000000000000000000000006030840152916108bb91016040516020818303038152906040526108a8906146c8565b8360018760040288600101600402611073565b90506108c681614750565b60e01c9695505050505050565b6040805160038082526080820190925260609160009190602082018480368337019050509050848160008151811061090d5761090d6146b2565b6020026020010181815250508360030b60001b81600181518110610933576109336146b2565b6020026020010181815250508260030b60001b81600281518110610959576109596146b2565b60209081029190910181019190915260408051613a3160f11b928101929092526000602283018190527f456e7469746965734174506f73697469000000000000000000000000000000006030840152916109b391016107ab565b90506109c56107dd8260008451610fd2565b9695505050505050565b604080516002808252606082018352600092839291906020830190803683370190505090508381600081518110610a0857610a086146b2565b6020026020010181815250508281600181518110610a2857610a286146b2565b60209081029190910181019190915260408051613a3160f11b928101929092526000602283018190527f556e7472617665727361626c6500000000000000000000000000000000000000603084015291610abe91015b604051602081830303815290604052610a96906146c8565b8360007e01010001000000000000000000000000000000000000000000000000000000611138565b90506106718160f81c90565b60006106d483836111f5565b6000610ae284846112b4565b90508160030b8160030b1215610b3a5760405162461bcd60e51b815260206004820152601260248201527f6e6f7420656e6f756768207374616d696e61000000000000000000000000000060448201526064016101f3565b610b458484426112d8565b610b598484610b548585614702565b6113e3565b50505050565b6000610b6a856114e8565b9050610b7f84610b7a8784611525565b61158b565b610b8a8582846115f4565b610b958582426112d8565b61045d858285611622565b7f629a4c26e296b22a8e0856e9f6ecb2d1008d7e00081111962cd175fa7488e175546000906001600160a01b031680610bda573391505090565b919050565b6060600060606000610bef610ba0565b9050306001600160a01b03821603610c1857610c0c8787876116ce565b93509350935050610ca6565b6040517f419b58fd0000000000000000000000000000000000000000000000000000000081526001600160a01b0382169063419b58fd90610c61908a908a908a906004016147d8565b600060405180830381865afa158015610c7e573d6000803e3d6000fd5b505050506040513d6000823e601f3d908101601f19168201604052610c0c91908101906148a3565b93509350939050565b604080516001808252818301909252600091829190602080830190803683370190505090508281600081518110610ce857610ce86146b2565b60209081029190910181019190915260408051613a3160f11b928101929092526000602283018190527f41646d696e000000000000000000000000000000000000000000000000000000603084015291610d429101610a7e565b905061045d8160f81c90565b604080516002808252606082018352600092839291906020830190803683370190505090508381600081518110610d8757610d876146b2565b6020026020010181815250508281600181518110610da757610da76146b2565b60209081029190910181019190915260408051613a3160f11b928101929092526000602283018190527f4f776e656442790000000000000000000000000000000000000000000000000060308401529161067191015b604051602081830303815290604052610e15906146c8565b8360007e20010020000000000000000000000000000000000000000000000000000000611138565b604080516001808252818301909252600091829190602080830190803683370190505090508281600081518110610e7657610e766146b2565b60209081029190910181019190915260408051613a3160f11b928101929092526000602283018190527f4d61746368436f6e66696700000000000000000000000000000000000000000060308401529161045d9101604051602081830303815290604052610ee3906146c8565b8360017eb4060020202020201400000000000000000000000000000000000000000000611138565b60606000610f17610ba0565b9050306001600160a01b03821603610f3c57610f348585856117d6565b9150506106d4565b6040517f1e7889770000000000000000000000000000000000000000000000000000000081526001600160a01b03821690631e78897790610f8590889088908890600401614910565b600060405180830381865afa158015610fa2573d6000803e3d6000fd5b505050506040513d6000823e601f3d908101601f19168201604052610f34919081019061493c565b509392505050565b6000818311158015610fe5575083518211155b611021578383836040517f23230fa30000000000000000000000000000000000000000000000000000000081526004016101f39392919061499d565b6020840161102f84826149c2565b9050600061103d85856149d5565b6fffffffffffffffffffffffffffffffff1660809290921b9190911795945050505050565b606060006106d48360206000611810565b6060600061107f610ba0565b9050306001600160a01b038216036110a65761109e878787878761188b565b915050610671565b6040517f4dc77d970000000000000000000000000000000000000000000000000000000081526001600160a01b03821690634dc77d97906110f3908a908a908a908a908a906004016149e8565b600060405180830381865afa158015611110573d6000803e3d6000fd5b505050506040513d6000823e601f3d908101601f1916820160405261109e919081019061493c565b600080611143610ba0565b9050306001600160a01b038216036111695761116186868686611951565b91505061045d565b6040517f8c364d590000000000000000000000000000000000000000000000000000000081526001600160a01b03821690638c364d59906111b4908990899089908990600401614a21565b602060405180830381865afa1580156111d1573d6000803e3d6000fd5b505050506040513d601f19601f820116820180604052508101906111619190614a50565b60408051600280825260608201835260009283929190602083019080368337019050509050838160008151811061122e5761122e6146b2565b602002602001018181525050826001600160a01b031660001b8160018151811061125a5761125a6146b2565b60209081029190910181019190915260408051613a3160f11b928101929092526000602283018190527f4d61746368506c617965720000000000000000000000000000000000000000006030840152916106719101610dfd565b6000806112c1848461197e565b9050806112ce8585611a7d565b61045d9190614729565b604080516002808252606082018352600092602083019080368337019050509050838160008151811061130d5761130d6146b2565b602002602001018181525050828160018151811061132d5761132d6146b2565b60209081029190910181019190915260408051613a3160f11b92810192909252600060228301527f4c617374416374696f6e000000000000000000000000000000000000000000006030830152610b5991015b604051602081830303815290604052611398906146c8565b826000856040516020016113ae91815260200190565b60408051601f198184030181529190527e20010020000000000000000000000000000000000000000000000000000000611b78565b6040805160028082526060820183526000926020830190803683370190505090508381600081518110611418576114186146b2565b6020026020010181815250508281600181518110611438576114386146b2565b60209081029190910181019190915260408051613a3160f11b81840152600060228201527f5374616d696e610000000000000000000000000000000000000000000000000060308201528151808203909301835281019052610b599061149d906146c8565b60405160e085901b602082015283906000906024015b60408051601f198184030181529190527e04010004000000000000000000000000000000000000000000000000000000611b78565b6000806114f483611c2e565b6114ff906001614a69565b905061150b8382611ccc565b63ffffffff8116915061151f838381611da3565b50919050565b60408051600280825260608083018452926020830190803683370190505090508281600081518110611559576115596146b2565b6020026020010181815250508181600181518110611579576115796146b2565b60200260200101818152505092915050565b600061159683611ea4565b905060005b8151811015610b595760008282815181106115b8576115b86146b2565b6020026020010151905060008060006115d18885611f4a565b9250925092506115e4848884868561205f565b50506001909201915061159b9050565b6115fe83836120d5565b611609838383612138565b61161d838260000151836020015185612228565b505050565b6040805160028082526060820183526000926020830190803683370190505090508381600081518110611657576116576146b2565b6020026020010181815250508281600181518110611677576116776146b2565b60209081029190910181019190915260408051613a3160f11b92810192909252600060228301527f4f776e65644279000000000000000000000000000000000000000000000000006030830152610b599101611380565b60606000606060006116df85612341565b90506116ec878783612364565b935060006116f98661239d565b905080156117cb5761170b88886123da565b935066ffffffffffffff841667ffffffffffffffff81111561172f5761172f6145e0565b6040519080825280601f01601f191660200182016040528015611759576020820181803683370190505b5092506020830160005b828160ff1610156117c857600061177b8b8b846123ed565b90506000611798888460ff166028026038011c64ffffffffff1690565b90506117a7828260008761246d565b6117b181856149c2565b9350505080806117c090614a8d565b915050611763565b50505b505093509350939050565b606061045d6117e68585856123ed565b611809846117f488886123da565b9060ff166028026038011c64ffffffffff1690565b600061253c565b6060600061181e8560801c90565b90506fffffffffffffffffffffffffffffffff8516600085828161184457611844614aac565b04905060405193506020840160208202810160405281855260005b8281101561187f578451871c82529387019360209091019060010161185f565b50505050509392505050565b6060600061189987876123da565b905060006118b6828760ff166028026038011c64ffffffffff1690565b905080851015806118c657508084115b156119215780818610156118e4576118df6001866149d5565b6118e6565b855b6040517f7e8578d3000000000000000000000000000000000000000000000000000000008152600481019290925260248201526044016101f3565b600061192e8989896123ed565b90506119448161193e88886149d5565b8861253c565b9998505050505050505050565b6000610671611960868661255f565b60ff858116601b0360080285901c1661197985876125b5565b6125e6565b60008061198b8484612637565b90506000611998856126ea565b905060006119af866119aa88886126f6565b6127a9565b6119b99083614702565b905060005b8351811015611a735760008482815181106119db576119db6146b2565b602002602001015190506000806119f28a846127f1565b90506000611a008b8b6126f6565b8211611a0c5785611a20565b611a168b836127a9565b611a209088614702565b9050611a2c8b856128a4565b611a369082614ac2565b925050506000611a468a84612957565b60030b1315611a5d57611a5a898383612a45565b90505b611a678188614729565b965050506001016119be565b5050505092915050565b604080516002808252606082018352600092839291906020830190803683370190505090508381600081518110611ab657611ab66146b2565b6020026020010181815250508281600181518110611ad657611ad66146b2565b60209081029190910181019190915260408051613a3160f11b928101929092526000602283018190527f5374616d696e6100000000000000000000000000000000000000000000000000603084015291611b6c91015b604051602081830303815290604052611b44906146c8565b8360007e04010004000000000000000000000000000000000000000000000000000000611138565b60e01c95945050505050565b6000611b82610ba0565b9050306001600160a01b03821603611ba657611ba18686868686612aaa565b611c26565b6040517f390baae00000000000000000000000000000000000000000000000000000000081526001600160a01b0382169063390baae090611bf39089908990899089908990600401614ae2565b600060405180830381600087803b158015611c0d57600080fd5b505af1158015611c21573d6000803e3d6000fd5b505050505b505050505050565b604080516001808252818301909252600091829190602080830190803683370190505090508281600081518110611c6757611c676146b2565b60209081029190910181019190915260408051613a3160f11b928101929092526000602283018190527f4d61746368456e74697479436f756e7400000000000000000000000000000000603084015291611cc19101611b2c565b60e01c949350505050565b604080516001808252818301909252600091602080830190803683370190505090508281600081518110611d0257611d026146b2565b60209081029190910181019190915260408051613a3160f11b81840152600060228201527f4d61746368456e74697479436f756e74000000000000000000000000000000006030820152815180820390930183528101905261161d90611d67906146c8565b6040517fffffffff0000000000000000000000000000000000000000000000000000000060e086901b16602082015283906000906024016114b3565b6000611dae82612abf565b6040805160028082526060808301845293945060009392849291906020830190803683370190505090508681600081518110611dec57611dec6146b2565b6020026020010181815250508581600181518110611e0c57611e0c6146b2565b602090810291909101810191909152604080517f6f7400000000000000000000000000000000000000000000000000000000000092810192909252600060228301527f4d617463680000000000000000000000000000000000000000000000000000006030830152611e9b91015b604051602081830303815290604052611e92906146c8565b8286868661205f565b50505050505050565b60408051600180825281830190925260609160009190602080830190803683370190505090508281600081518110611ede57611ede6146b2565b60209081029190910181019190915260408051613a3160f11b928101929092526000602283018190527f54656d706c6174655461626c6573000000000000000000000000000000000000603084015291611f3891016107ab565b905061045d6107dd8260008451610fd2565b604080516002808252606080830184526000939092839285926020830190803683370190505090508581600081518110611f8657611f866146b2565b6020026020010181815250508481600181518110611fa657611fa66146b2565b60209081029190910181019190915260408051613a3160f11b928101929092526000602283018190527f54656d706c617465436f6e74656e7400000000000000000000000000000000006030840152918291829161203d9101604051602081830303815290604052612017906146c8565b857e20010220000000000000000000000000000000000000000000000000000000610bdf565b92509250925061204e838383612aea565b965096509650505050509250925092565b6000612069610ba0565b9050306001600160a01b0382160361208857611ba18686868686612b13565b6040517f298314fb0000000000000000000000000000000000000000000000000000000081526001600160a01b0382169063298314fb90611bf39089908990899089908990600401614b29565b60006120e183836104a1565b90506000612102836120fc86856000015186602001516108d3565b90612b29565b80519091501561212557612120848360000151846020015184612bf7565b610b59565b610b598483600001518460200151612cf0565b6000612173826000015183602001516040805160e093841b60208201529190921b602482015281516008818303018152602890910190915290565b60408051600280825260608083018452939450600093928492919060208301908036833701905050905086816000815181106121b1576121b16146b2565b60200260200101818152505085816001815181106121d1576121d16146b2565b60209081029190910181019190915260408051613a3160f11b92810192909252600060228301527f506f736974696f6e0000000000000000000000000000000000000000000000006030830152611e9b9101611e7a565b6040805160038082526080820190925260009160208201606080368337019050509050848160008151811061225f5761225f6146b2565b6020026020010181815250508360030b60001b81600181518110612285576122856146b2565b6020026020010181815250508260030b60001b816002815181106122ab576122ab6146b2565b60209081029190910181019190915260408051613a3160f11b81840152600060228201527f456e7469746965734174506f73697469000000000000000000000000000000006030820152815180820390930183528101905261233a90612310906146c8565b8260008560405160200161232691815260200190565b604051602081830303815290604052612dde565b5050505050565b60006008612351600260206149d5565b61235b9190614b7a565b9190911c919050565b60608160000361238357506040805160208101909152600081526106d4565b600061238f858561255f565b90506106718184600061253c565b600060086001806123b0600260206149d5565b6123ba91906149d5565b6123c491906149d5565b6123ce9190614b7a565b8260ff911c1692915050565b60006106d46123e98484612e8f565b5490565b60008383604051602001612402929190614b91565b604051602081830303815290604052805190602001208260f81b7effffffffffffffffffffffffffffffffffffffffffffffffffffffffffffff19167f3b4102da22e32d82fc925482184f16c09fd4281692720b87d124aef6da48a0f1181860001c90509392505050565b81156124f657602082106124975760208204840193506020828161249357612493614aac565b0691505b81156124f65760208290036000818510156124bb5750600019600885021c196124c6565b50600019600882021c195b8554600885021b8119845116828216178452508185116124e7575050610b59565b50600194909401939283900392015b5b602083106125185783548152600190930192601f19909201916020016124f7565b8215610b59576000600019600885021c198251865482169119161782525050505050565b60405160208101601f19603f8584010116604052838252610fca8585858461246d565b60008282604051602001612574929190614b91565b60408051601f1981840301815291905280516020909101207f86425bff6b57326c7859e89024fe4f238ca327a1ae4a230180dd2f0e88aaa7d9189392505050565b600080805b8360ff16811015610fca576125dc60ff601b83900360080287901c16836149c2565b91506001016125ba565b60006020821061260c5760208204840193506020828161260857612608614aac565b0691505b508254600882021b602082900380841115610fca576001850154600882021c82179150509392505050565b604080516002808252606080830184529260009291906020830190803683370190505090508381600081518110612670576126706146b2565b6020026020010181815250508281600181518110612690576126906146b2565b60209081029190910181019190915260408051613a3160f11b928101929092526000602283018190527f43686172676572730000000000000000000000000000000000000000000000006030840152916107cb91016107ab565b600061017782426127a9565b60408051600280825260608201835260009283929190602083019080368337019050509050838160008151811061272f5761272f6146b2565b602002602001018181525050828160018151811061274f5761274f6146b2565b60209081029190910181019190915260408051613a3160f11b928101929092526000602283018190527f4c617374416374696f6e000000000000000000000000000000000000000000006030840152916106719101610dfd565b6000806127b584612ee5565b905080602001518310156127cd576000915050610177565b60008160200151846127df91906149d5565b90508160400151816106719190614bcd565b60408051600280825260608201835260009283929190602083019080368337019050509050838160008151811061282a5761282a6146b2565b602002602001018181525050828160018151811061284a5761284a6146b2565b60209081029190910181019190915260408051613a3160f11b928101929092526000602283018190527f43686172676564427953746172740000000000000000000000000000000000006030840152916106719101610dfd565b6040805160028082526060820183526000928392919060208301908036833701905050905083816000815181106128dd576128dd6146b2565b60200260200101818152505082816001815181106128fd576128fd6146b2565b60209081029190910181019190915260408051613a3160f11b928101929092526000602283018190527f4368617267657200000000000000000000000000000000000000000000000000603084015291611b6c9101611b2c565b604080516002808252606082018352600092839291906020830190803683370190505090508381600081518110612990576129906146b2565b60200260200101818152505082816001815181106129b0576129b06146b2565b60209081029190910181019190915260408051613a3160f11b928101929092526000602283018190527f4368617267654361700000000000000000000000000000000000000000000000603084015291611b6c9101604051602081830303815290604052612a1d906146c8565b8360007e08020004040000000000000000000000000000000000000000000000000000611138565b600080612a528585612ff6565b8051602082015191925060030b90612a6a9085614729565b60030b1315612a875760208101518151612a849190614702565b92505b612aa18585858460200151612a9c9190614729565b6130c2565b50909392505050565b61233a8585612ab984876125b5565b856131c6565b606081604051602001612ad491815260200190565b6040516020818303038152906040529050919050565b6000606080612af88661340b565b9250612b048585613418565b93979096509294509192505050565b61233a8585858585612b248b613467565b613595565b60606000835167ffffffffffffffff811115612b4757612b476145e0565b604051908082528060200260200182016040528015612b70578160200160208202803683370190505b5090506000805b8551811015612bed5784868281518110612b9357612b936146b2565b602002602001015114612be557858181518110612bb257612bb26146b2565b6020026020010151838381518110612bcc57612bcc6146b2565b602090810291909101015281612be181614bef565b9250505b600101612b77565b5081529392505050565b60408051600380825260808201909252600091602082016060803683370190505090508481600081518110612c2e57612c2e6146b2565b6020026020010181815250508360030b60001b81600181518110612c5457612c546146b2565b6020026020010181815250508260030b60001b81600281518110612c7a57612c7a6146b2565b60209081029190910181019190915260408051613a3160f11b81840152600060228201527f456e7469746965734174506f73697469000000000000000000000000000000006030820152815180820390930183528101905261233a90612cdf906146c8565b826000612ceb86613870565b613880565b60408051600380825260808201909252600091602082016060803683370190505090508381600081518110612d2757612d276146b2565b6020026020010181815250508260030b60001b81600181518110612d4d57612d4d6146b2565b6020026020010181815250508160030b60001b81600281518110612d7357612d736146b2565b60209081029190910181019190915260408051613a3160f11b81840152600060228201527f456e7469746965734174506f736974690000000000000000000000000000000060308201528151808203909301835281019052610b5990612dd8906146c8565b826138f3565b6000612de8610ba0565b9050306001600160a01b03821603612e0b57612e068585858561398e565b61233a565b6040517f150f32620000000000000000000000000000000000000000000000000000000081526001600160a01b0382169063150f326290612e56908890889088908890600401614c09565b600060405180830381600087803b158015612e7057600080fd5b505af1158015612e84573d6000803e3d6000fd5b505050505050505050565b60008282604051602001612ea4929190614b91565b60408051601f1981840301815291905280516020909101207f14e2fcc58e58e68ec7edc30c8d50dccc3ce2714a623ec81f46b6a63922d76569189392505050565b6040805160c081018252600080825260208201819052818301819052606082018190526080820181905260a082018190528251600180825281850190945291929091908160200160208202803683370190505090508281600081518110612f4e57612f4e6146b2565b60209081029190910181019190915260408051613a3160f11b928101929092526000602283018190527f4d61746368436f6e66696700000000000000000000000000000000000000000060308401529182918291612fe59101604051602081830303815290604052612fbf906146c8565b857eb4060020202020201400000000000000000000000000000000000000000000610bdf565b9250925092506109c58383836139c9565b604080518082018252600080825260208201819052825160028082526060820190945291929091908160200160208202803683370190505090508381600081518110613044576130446146b2565b6020026020010181815250508281600181518110613064576130646146b2565b60209081029190910181019190915260408051613a3160f11b928101929092526000602283018190527f4368617267654361700000000000000000000000000000000000000000000000603084015291829182916105a79101610569565b60408051600280825260608201835260009260208301908036833701905050905083816000815181106130f7576130f76146b2565b6020026020010181815250508281600181518110613117576131176146b2565b60209081029190910181019190915260408051613a3160f11b81840152600060228201527f436861726765436170000000000000000000000000000000000000000000000060308201528151808203909301835281019052610b599061317c906146c8565b60405160e085901b6020820152839060019060240160408051601f198184030181529190527e08020004040000000000000000000000000000000000000000000000000000611b78565b60006131d2858561255f565b9050847f8c0b5119d4cec7b284c6b1b39252a03d1e2f2d7451a5895562524c113bb952be85858560405161320893929190614c3d565b60405180910390a2613a3160f11b857fffff00000000000000000000000000000000000000000000000000000000000016146132445750610b59565b600061324f86613a2f565b905060005b8151811015613324576000828281518110613271576132716146b2565b6020026020010151905061329d6004826affffffffffffffffffffff1916613b0f90919063ffffffff16565b1561331b576040517f964f667d000000000000000000000000000000000000000000000000000000008152606082901c9063964f667d906132e8908b908b908b908b90600401614c70565b600060405180830381600087803b15801561330257600080fd5b505af1158015613316573d6000803e3d6000fd5b505050505b50600101613254565b50613338828565ffffffffffff1685613b2d565b60005b8151811015611e9b576000828281518110613358576133586146b2565b602002602001015190506133846008826affffffffffffffffffffff1916613b0f90919063ffffffff16565b15613402576040517fa8ba8721000000000000000000000000000000000000000000000000000000008152606082901c9063a8ba8721906133cf908b908b908b908b90600401614c70565b600060405180830381600087803b1580156133e957600080fd5b505af11580156133fd573d6000803e3d6000fd5b505050505b5060010161333b565b6020810151600090610177565b6060806000603885901c64ffffffffff1661343c613437868484610fd2565b613b3d565b935090508064ffffffffff606087901c160161345c613437868484610fd2565b925050509250929050565b60408051613a3160f11b60208201527f73746f726500000000000000000000000000000000000000000000000000000060228201527f5461626c657300000000000000000000000000000000000000000000000000006030820152600091016040516020818303038152906040526134de906146c8565b820361350a57507e60030220202000000000000000000000000000000000000000000000000000919050565b60408051613a3160f11b60208201527f73746f726500000000000000000000000000000000000000000000000000000060228201527f5461626c6573000000000000000000000000000000000000000000000000000060308201526101779161358c9101604051602081830303815290604052613586906146c8565b84613bbd565b602060006125e6565b857f8dbb3a9672eebfd3773e72dd9c102393436816d832c7ba9e1e1ac8fcadcac7a9868686866040516135cb9493929190614ca9565b60405180910390a2613a3160f11b867fffff0000000000000000000000000000000000000000000000000000000000001603611c2657600061360c87613a2f565b905060005b81518110156136e557600082828151811061362e5761362e6146b2565b6020026020010151905061365a6001826affffffffffffffffffffff1916613b0f90919063ffffffff16565b156136dc576040517f57066c9c000000000000000000000000000000000000000000000000000000008152606082901c906357066c9c906136a9908c908c908c908c908c908c90600401614ce8565b600060405180830381600087803b1580156136c357600080fd5b505af11580156136d7573d6000803e3d6000fd5b505050505b50600101613611565b5060006136f2888861255f565b9050600060208701905061370a826000838a51613bd9565b60006137158561239d565b11156137995760006137278a8a612e8f565b878155905060208601915060008060005b6137418861239d565b8160ff161015613794576137568d8d836123ed565b92506137718a8260ff166028026038011c64ffffffffff1690565b91506137808360008785613bd9565b61378a82866149c2565b9450600101613738565b505050505b60005b8351811015611c215760008482815181106137b9576137b96146b2565b602002602001015190506137e56002826affffffffffffffffffffff1916613b0f90919063ffffffff16565b15613867576040517f5b28cdaf000000000000000000000000000000000000000000000000000000008152606082901c90635b28cdaf90613834908e908e908e908e908e908e90600401614ce8565b600060405180830381600087803b15801561384e57600080fd5b505af1158015613862573d6000803e3d6000fd5b505050505b5060010161379c565b6060816106d48160206000613c99565b600061388a610ba0565b9050306001600160a01b038216036138a857612e0685858585613ced565b6040517fef6ea8620000000000000000000000000000000000000000000000000000000081526001600160a01b0382169063ef6ea86290612e56908890889088908890600401614c09565b60006138fd610ba0565b9050306001600160a01b038216036139195761161d8383613d28565b6040517f505a181d0000000000000000000000000000000000000000000000000000000081526001600160a01b0382169063505a181d906139609086908690600401614d41565b600060405180830381600087803b15801561397a57600080fd5b505af1158015611e9b573d6000803e3d6000fd5b600061399a85856123da565b905060006139b7828560ff166028026038011c64ffffffffff1690565b9050611c268686868460008888613d3f565b6040805160c081018252600080825260208201819052918101829052606081018290526080810182905260a0810191909152613a0484614141565b6001600160a01b031660a0870152608086015260608501526040840152602083015281529392505050565b60408051600180825281830190925260609160009190602080830190803683370190505090508281600081518110613a6957613a696146b2565b60209081029190910181019190915260408051613a3160f11b818401527f73746f726500000000000000000000000000000000000000000000000000000060228201527f53746f7265486f6f6b730000000000000000000000000000000000000000000060308201528151808203909301835281019052600090613af890613af0906146c8565b8360006117d6565b905061045d613b0a8260008451610fd2565b61418a565b60008160ff1682613b208560581c90565b1660ff1614905092915050565b61161d8383602084018451613bd9565b60606000613b4b8360801c90565b90506fffffffffffffffffffffffffffffffff83168067ffffffffffffffff811115613b7957613b796145e0565b6040519080825280601f01601f191660200182016040528015613ba3576020820181803683370190505b50925060208301613bb583828461419b565b505050919050565b6040805160208101849052908101829052600090606001612574565b8215613c535760208310613c0357602083048401935060208381613bff57613bff614aac565b0692505b8215613c535760208390036000600019600884021c1990506008850281811c91508451811c9050811987541682821617875550818311613c44575050610b59565b50600194909401939182019190035b5b60208110613c755781518455600190930192602090910190601f1901613c54565b8015610b59576000600019600883021c198554845182169119161785555050505050565b82516060906000613caa8583614b7a565b9050604051925060208301601f19603f83860101166040528184526000602088015b8482101561187f578051871b83529187019160019190910190602001613ccc565b6000613cf985856123da565b90506000613d16828560ff166028026038011c64ffffffffff1690565b9050611c268686866000858888613d3f565b613d3b8282613d3685613467565b6141e7565b5050565b613a3160f11b877fffff0000000000000000000000000000000000000000000000000000000000001614613dc957613a3160f11b8788604051602001613d8791815260200190565b60408051601f19818403018152908290527f31b466830000000000000000000000000000000000000000000000000000000082526101f3939291600401614d5a565b6000613de4828760ff166028026038011c64ffffffffff1690565b9050600083518564ffffffffff1683613dfd91906149d5565b613e0791906149c2565b9050808214158015613e29575081613e1f8688614d9b565b64ffffffffff1614155b15613e79576040517fa65010b400000000000000000000000000000000000000000000000000000000815264ffffffffff80881660048301528087166024830152831660448201526064016101f3565b818664ffffffffff161115613eca576040517f7e8578d30000000000000000000000000000000000000000000000000000000081526004810183905264ffffffffff871660248201526044016101f3565b6000613ed7848984614493565b905064ffffffffff871660005b8960ff168160ff161015613f1757613f0b868260ff166028026038011c64ffffffffff1690565b90910190600101613ee4565b508a7faa63765a776145e5e6492f471ae097dfed11cd57a61bc2679dd43180422385b48b838a868b604051613f50959493929190614db9565b60405180910390a2506000613f648b613a2f565b905060005b815181101561402f576000828281518110613f8657613f866146b2565b60200260200101519050613fb26010826affffffffffffffffffffff1916613b0f90919063ffffffff16565b1561402657606081901c6001600160a01b03166355eb5a288e8e8e8e8e8a8f6040518863ffffffff1660e01b8152600401613ff39796959493929190614dff565b600060405180830381600087803b15801561400d57600080fd5b505af1158015614021573d6000803e3d6000fd5b505050505b50600101613f69565b508284146140485760006140438c8c612e8f565b839055505b60006140558c8c8c6123ed565b9050614069818a64ffffffffff1689613b2d565b5060005b815181101561413357600082828151811061408a5761408a6146b2565b602002602001015190506140b66020826affffffffffffffffffffff1916613b0f90919063ffffffff16565b1561412a57606081901c6001600160a01b031663635845338e8e8e8e8e8a8f6040518863ffffffff1660e01b81526004016140f79796959493929190614dff565b600060405180830381600087803b15801561411157600080fd5b505af1158015614125573d6000803e3d6000fd5b505050505b5060010161406d565b505050505050505050505050565b60008060008060008061415987600060209101015190565b60408801516060808a015160808b015160a08c015160c0909c0151949c939b919a50985096509190911c9350915050565b606060006106d48360156000611810565b5b602081106141bb578251825260209283019290910190601f190161419c565b806000036141c857505050565b6000600019600883021c19905080198351168185511617835250505050565b827f0e1f72f429eb97e64878619984a91e687ae91610348b9ff4216782cc96e49d07836040516142179190614e5d565b60405180910390a2613a3160f11b837fffff000000000000000000000000000000000000000000000000000000000000161461425257505050565b600061425d84613a2f565b905060005b815181101561433057600082828151811061427f5761427f6146b2565b602002602001015190506142ab6040826affffffffffffffffffffff1916613b0f90919063ffffffff16565b15614327576040517f9faeaf45000000000000000000000000000000000000000000000000000000008152606082901c90639faeaf45906142f4908990899089906004016147d8565b600060405180830381600087803b15801561430e57600080fd5b505af1158015614322573d6000803e3d6000fd5b505050505b50600101614262565b50600061433d858561255f565b905061439681600061434e86612341565b67ffffffffffffffff811115614366576143666145e0565b6040519080825280601f01601f191660200182016040528015614390576020820181803683370190505b50613b2d565b60006143a18461239d565b11156143c25760006143b38686612e8f565b90506143c0816020614561565b505b60005b8251811015611c265760008382815181106143e2576143e26146b2565b6020026020010151905061440e6080826affffffffffffffffffffff1916613b0f90919063ffffffff16565b1561448a576040517f83b5c95b000000000000000000000000000000000000000000000000000000008152606082901c906383b5c95b90614457908a908a908a906004016147d8565b600060405180830381600087803b15801561447157600080fd5b505af1158015614485573d6000803e3d6000fd5b505050505b506001016143c5565b600064ffffffffff8211156144d7576040517f47670588000000000000000000000000000000000000000000000000000000008152600481018390526024016101f3565b8366ffffffffffffff811660ff851660280260380182901c64ffffffffff168085106145095780850382019150614511565b848103820391505b5064ffffffffff6038602860ff8816020181811b197fffffffffffffffffffffffffffffffffffffffffffffffffff000000000000009490941690921792909216918416901b1790509392505050565b6000602061457083601f6149c2565b61457a9190614bcd565b61458490846149c2565b90505b8083101561161d5760008355600183019250614587565b6000602082840312156145b057600080fd5b81357fffffffff00000000000000000000000000000000000000000000000000000000811681146106d457600080fd5b634e487b7160e01b600052604160045260246000fd5b8035600381900b8114610bda57600080fd5b60008060008084860360a081121561461f57600080fd5b85359450602086013593506040860135925060407fffffffffffffffffffffffffffffffffffffffffffffffffffffffffffffffa08201121561466157600080fd5b506040516040810181811067ffffffffffffffff82111715614685576146856145e0565b604052614694606087016145f6565b81526146a2608087016145f6565b6020820152939692955090935050565b634e487b7160e01b600052603260045260246000fd5b8051602080830151919081101561151f5760001960209190910360031b1b16919050565b634e487b7160e01b600052601160045260246000fd5b600382810b9082900b03637fffffff198112637fffffff82131715610177576101776146ec565b600381810b9083900b01637fffffff8113637fffffff1982121715610177576101776146ec565b6000815160208301517fffffffff0000000000000000000000000000000000000000000000000000000080821693506004831015613bb55760049290920360031b82901b161692915050565b60008151808452602080850194506020840160005b838110156147cd578151875295820195908201906001016147b1565b509495945050505050565b8381526060602082015260006147f1606083018561479c565b9050826040830152949350505050565b60005b8381101561481c578181015183820152602001614804565b50506000910152565b600082601f83011261483657600080fd5b815167ffffffffffffffff80821115614851576148516145e0565b604051601f8301601f19908116603f01168101908282118183101715614879576148796145e0565b8160405283815286602085880101111561489257600080fd5b6109c5846020830160208901614801565b6000806000606084860312156148b857600080fd5b835167ffffffffffffffff808211156148d057600080fd5b6148dc87838801614825565b94506020860151935060408601519150808211156148f957600080fd5b5061490686828701614825565b9150509250925092565b838152606060208201526000614929606083018561479c565b905060ff83166040830152949350505050565b60006020828403121561494e57600080fd5b815167ffffffffffffffff81111561496557600080fd5b61045d84828501614825565b60008151808452614989816020860160208601614801565b601f01601f19169290920160200192915050565b6060815260006149b06060830186614971565b60208301949094525060400152919050565b80820180821115610177576101776146ec565b81810381811115610177576101776146ec565b85815260a060208201526000614a0160a083018761479c565b60ff95909516604083015250606081019290925260809091015292915050565b848152608060208201526000614a3a608083018661479c565b60ff949094166040830152506060015292915050565b600060208284031215614a6257600080fd5b5051919050565b63ffffffff818116838216019080821115614a8657614a866146ec565b5092915050565b600060ff821660ff8103614aa357614aa36146ec565b60010192915050565b634e487b7160e01b600052601260045260246000fd5b60008260030b8260030b028060030b9150808214614a8657614a866146ec565b85815260a060208201526000614afb60a083018761479c565b60ff861660408401528281036060840152614b168186614971565b9150508260808301529695505050505050565b85815260a060208201526000614b4260a083018761479c565b8281036040840152614b548187614971565b90508460608401528281036080840152614b6e8185614971565b98975050505050505050565b8082028115828204841417610177576101776146ec565b8281526000602080830184516020860160005b82811015614bc057815184529284019290840190600101614ba4565b5091979650505050505050565b600082614bea57634e487b7160e01b600052601260045260246000fd5b500490565b60006000198203614c0257614c026146ec565b5060010190565b848152608060208201526000614c22608083018661479c565b60ff8516604084015282810360608401526105db8185614971565b606081526000614c50606083018661479c565b65ffffffffffff8516602084015282810360408401526109c58185614971565b848152608060208201526000614c89608083018661479c565b65ffffffffffff8516604084015282810360608401526105db8185614971565b608081526000614cbc608083018761479c565b8281036020840152614cce8187614971565b905084604084015282810360608401526105db8185614971565b86815260c060208201526000614d0160c083018861479c565b8281036040840152614d138188614971565b90508560608401528281036080840152614d2d8186614971565b9150508260a0830152979650505050505050565b82815260406020820152600061045d604083018461479c565b7fffff000000000000000000000000000000000000000000000000000000000000841681528260208201526060604082015260006106716060830184614971565b64ffffffffff818116838216019080821115614a8657614a866146ec565b60a081526000614dcc60a083018861479c565b65ffffffffffff8716602084015264ffffffffff861660408401528460608401528281036080840152614b6e8185614971565b87815260e060208201526000614e1860e083018961479c565b60ff8816604084015264ffffffffff87811660608501528616608084015260a0830185905282810360c0840152614e4f8185614971565b9a9950505050505050505050565b6020815260006106d4602083018461479c56fea26469706673582212204ee490c8c5e8530d79ce8fb3601b221f1abe50d247333f6e3f95a25fc3c5eea264736f6c63430008170033","linkReferences":{}},"methodIdentifiers":{"_msgSender()":"119df25f","_msgValue()":"45ec9354","_world()":"e1af802c","build(bytes32,bytes32,bytes32,(int32,int32))":"ac21e2ed","supportsInterface(bytes4)":"01ffc9a7"},"id":445}