{"abi":[{"type":"function","name":"_msgSender","inputs":[],"outputs":[{"name":"sender","type":"address","internalType":"address"}],"stateMutability":"view"},{"type":"function","name":"_msgValue","inputs":[],"outputs":[{"name":"value","type":"uint256","internalType":"uint256"}],"stateMutability":"pure"},{"type":"function","name":"_world","inputs":[],"outputs":[{"name":"","type":"address","internalType":"address"}],"stateMutability":"view"},{"type":"function","name":"setName","inputs":[{"name":"name","type":"string","internalType":"string"}],"outputs":[],"stateMutability":"nonpayable"},{"type":"function","name":"supportsInterface","inputs":[{"name":"interfaceId","type":"bytes4","internalType":"bytes4"}],"outputs":[{"name":"","type":"bool","internalType":"bool"}],"stateMutability":"pure"},{"type":"event","name":"Store_SpliceDynamicData","inputs":[{"name":"tableId","type":"bytes32","indexed":true,"internalType":"ResourceId"},{"name":"keyTuple","type":"bytes32[]","indexed":false,"internalType":"bytes32[]"},{"name":"start","type":"uint48","indexed":false,"internalType":"uint48"},{"name":"deleteCount","type":"uint40","indexed":false,"internalType":"uint40"},{"name":"encodedLengths","type":"bytes32","indexed":false,"internalType":"PackedCounter"},{"name":"data","type":"bytes","indexed":false,"internalType":"bytes"}],"anonymous":false},{"type":"error","name":"PackedCounter_InvalidLength","inputs":[{"name":"length","type":"uint256","internalType":"uint256"}]},{"type":"error","name":"Slice_OutOfBounds","inputs":[{"name":"data","type":"bytes","internalType":"bytes"},{"name":"start","type":"uint256","internalType":"uint256"},{"name":"end","type":"uint256","internalType":"uint256"}]},{"type":"error","name":"Store_IndexOutOfBounds","inputs":[{"name":"length","type":"uint256","internalType":"uint256"},{"name":"accessedIndex","type":"uint256","internalType":"uint256"}]},{"type":"error","name":"Store_InvalidResourceType","inputs":[{"name":"expected","type":"bytes2","internalType":"bytes2"},{"name":"resourceId","type":"bytes32","internalType":"ResourceId"},{"name":"resourceIdString","type":"string","internalType":"string"}]},{"type":"error","name":"Store_InvalidSplice","inputs":[{"name":"startWithinField","type":"uint40","internalType":"uint40"},{"name":"deleteCount","type":"uint40","internalType":"uint40"},{"name":"fieldLength","type":"uint40","internalType":"uint40"}]}],"bytecode":{"object":"0x608060405234801561001057600080fd5b5061182c806100206000396000f3fe608060405234801561001057600080fd5b50600436106100675760003560e01c806345ec93541161005057806345ec9354146100c1578063c47f0027146100d4578063e1af802c146100e957600080fd5b806301ffc9a71461006c578063119df25f14610094575b600080fd5b61007f61007a366004611312565b6100f1565b60405190151581526020015b60405180910390f35b61009c61018a565b60405173ffffffffffffffffffffffffffffffffffffffff909116815260200161008b565b604051601f19360135815260200161008b565b6100e76100e23660046113c3565b610199565b005b61009c610259565b60007fffffffff0000000000000000000000000000000000000000000000000000000082167fb421288000000000000000000000000000000000000000000000000000000000148061018457507fffffffff0000000000000000000000000000000000000000000000000000000082167f01ffc9a700000000000000000000000000000000000000000000000000000000145b92915050565b6000610194610263565b905090565b60006101bf6101a661018a565b73ffffffffffffffffffffffffffffffffffffffff1690565b90506101d3826101ce83610295565b61034c565b610255576101e082610376565b61024b576040517f08c379a000000000000000000000000000000000000000000000000000000000815260206004820152601760248201527f6e616d6520616c7265616479207265676973746572656400000000000000000060448201526064015b60405180910390fd5b61025581836103f9565b5050565b60006101946104a2565b7fffffffffffffffffffffffffffffffffffffffffffffffffffffffffffffffcc36013560601c806102925750335b90565b604080516001808252818301909252606091600091906020808301908036833701905050905082816000815181106102cf576102cf611443565b60209081029190910181019190915260408051613a3160f11b928101929092526000602283018190527f4e616d6500000000000000000000000000000000000000000000000000000000603084015291610344910160405160208183030381529060405261033c90611459565b8360006104ee565b949350505050565b6000815183511461035f57506000610184565b508051602091820120825192909101919091201490565b600080600080610385856105d0565b60408051613a3160f11b6020820152600060228201527f4e616d6500000000000000000000000000000000000000000000000000000000603082015293965091945092506103ee91016040516020818303038152906040526103e690611459565b8484846105fd565b511595945050505050565b60408051600180825281830190925260009160208083019080368337019050509050828160008151811061042f5761042f611443565b60209081029190910181019190915260408051613a3160f11b81840152600060228201527f4e616d65000000000000000000000000000000000000000000000000000000006030820152815180820390930183528101905261049d9061049490611459565b82600085610683565b505050565b7f629a4c26e296b22a8e0856e9f6ecb2d1008d7e00081111962cd175fa7488e1755460009073ffffffffffffffffffffffffffffffffffffffff16806104e9573391505090565b919050565b606060006104fa6104a2565b90503073ffffffffffffffffffffffffffffffffffffffff82160361052c5761052485858561074f565b9150506105c9565b6040517f1e78897700000000000000000000000000000000000000000000000000000000815273ffffffffffffffffffffffffffffffffffffffff821690631e78897790610582908890889088906004016114bc565b600060405180830381865afa15801561059f573d6000803e3d6000fd5b505050506040513d6000823e601f3d908101601f19168201604052610524919081019061150c565b505b9392505050565b6060600060608060006105e286610789565b905060006105ef87610799565b929791965091945092505050565b6060600061062b7f6b65797776616c00000000000000000000000000000000000000000000000000876107c2565b905060606000845111156106645785858560405160200161064e9392919061157a565b6040516020818303038152906040529050610667565b50845b610678828280519060200120610886565b979650505050505050565b600061068d6104a2565b90503073ffffffffffffffffffffffffffffffffffffffff8216036106bd576106b8858585856108fa565b610748565b6040517fef6ea86200000000000000000000000000000000000000000000000000000000815273ffffffffffffffffffffffffffffffffffffffff82169063ef6ea862906107159088908890889088906004016115dd565b600060405180830381600087803b15801561072f57600080fd5b505af1158015610743573d6000803e3d6000fd5b505050505b5050505050565b606061034461075f85858561093d565b6107828461076d88886109bd565b9060ff166028026038011c64ffffffffff1690565b60006109d0565b60006101848251603881901b1790565b6060816040516020016107ac9190611611565b6040516020818303038152906040529050919050565b6000806107ce836109f3565b905060006107dc8460101b90565b905060386107eb816010611643565b6107f59190611643565b7fffffffffffffffffffffffffffffffff000000000000000000000000000000008316901c61082660386010611643565b7dffffffffffffff0000000000000000000000000000000000000000000000601088901c167fffffffffffffff00000000000000000000000000000000000000000000000000909316901c9190911717613a3160f11b1791505092915050565b604080516001808252818301909252606091600091906020808301908036833701905050905082816000815181106108c0576108c0611443565b60200260200101818152505060006108da858360006104ee565b90506108f16108ec8260008451610a0a565b610a9a565b95945050505050565b600061090685856109bd565b90506000610923828560ff166028026038011c64ffffffffff1690565b90506109358686866000858888610aab565b505050505050565b60008383604051602001610952929190611656565b604051602081830303815290604052805190602001208260f81b7effffffffffffffffffffffffffffffffffffffffffffffffffffffffffffff19167f3b4102da22e32d82fc925482184f16c09fd4281692720b87d124aef6da48a0f1181860001c90509392505050565b60006105c96109cc8484610ec7565b5490565b60405160208101601f19603f85840101166040528382526105c785858584610f1d565b6000610a0160706010611643565b9190911b919050565b6000818311158015610a1d575083518211155b610a59578383836040517f23230fa300000000000000000000000000000000000000000000000000000000815260040161024293929190611692565b60208401610a678482611643565b90506000610a7585856116b7565b6fffffffffffffffffffffffffffffffff1660809290921b9190911795945050505050565b606060006105c98360206000610fea565b613a3160f11b877fffff0000000000000000000000000000000000000000000000000000000000001614610b3557613a3160f11b8788604051602001610af391815260200190565b60408051601f19818403018152908290527f31b466830000000000000000000000000000000000000000000000000000000082526102429392916004016116ca565b6000610b50828760ff166028026038011c64ffffffffff1690565b9050600083518564ffffffffff1683610b6991906116b7565b610b739190611643565b9050808214158015610b95575081610b8b868861170b565b64ffffffffff1614155b15610be5576040517fa65010b400000000000000000000000000000000000000000000000000000000815264ffffffffff8088166004830152808716602483015283166044820152606401610242565b818664ffffffffff161115610c36576040517f7e8578d30000000000000000000000000000000000000000000000000000000081526004810183905264ffffffffff87166024820152604401610242565b6000610c43848984611065565b905064ffffffffff871660005b8960ff168160ff161015610c8357610c77868260ff166028026038011c64ffffffffff1690565b90910190600101610c50565b508a7faa63765a776145e5e6492f471ae097dfed11cd57a61bc2679dd43180422385b48b838a868b604051610cbc959493929190611730565b60405180910390a2506000610cd08b611133565b905060005b8151811015610da8576000828281518110610cf257610cf2611443565b60200260200101519050610d1e6010826affffffffffffffffffffff191661121390919063ffffffff16565b15610d9f57606081901c73ffffffffffffffffffffffffffffffffffffffff166355eb5a288e8e8e8e8e8a8f6040518863ffffffff1660e01b8152600401610d6c9796959493929190611782565b600060405180830381600087803b158015610d8657600080fd5b505af1158015610d9a573d6000803e3d6000fd5b505050505b50600101610cd5565b50828414610dc1576000610dbc8c8c610ec7565b839055505b6000610dce8c8c8c61093d565b9050610de2818a64ffffffffff1689611231565b5060005b8151811015610eb9576000828281518110610e0357610e03611443565b60200260200101519050610e2f6020826affffffffffffffffffffff191661121390919063ffffffff16565b15610eb057606081901c73ffffffffffffffffffffffffffffffffffffffff1663635845338e8e8e8e8e8a8f6040518863ffffffff1660e01b8152600401610e7d9796959493929190611782565b600060405180830381600087803b158015610e9757600080fd5b505af1158015610eab573d6000803e3d6000fd5b505050505b50600101610de6565b505050505050505050505050565b60008282604051602001610edc929190611656565b60408051601f1981840301815291905280516020909101207f14e2fcc58e58e68ec7edc30c8d50dccc3ce2714a623ec81f46b6a63922d76569189392505050565b8115610fa65760208210610f4757602082048401935060208281610f4357610f436117e0565b0691505b8115610fa6576020829003600081851015610f6b5750600019600885021c19610f76565b50600019600882021c195b8554600885021b811984511682821617845250818511610f97575050610fe4565b50600194909401939283900392015b5b60208310610fc85783548152600190930192601f1990920191602001610fa7565b8215610fe45780518454600019600886021c9182169119161781525b50505050565b60606000610ff88560801c90565b90506fffffffffffffffffffffffffffffffff8516600085828161101e5761101e6117e0565b04905060405193506020840160208202810160405281855260005b82811015611059578451871c825293870193602090910190600101611039565b50505050509392505050565b600064ffffffffff8211156110a9576040517f4767058800000000000000000000000000000000000000000000000000000000815260048101839052602401610242565b8366ffffffffffffff811660ff851660280260380182901c64ffffffffff168085106110db57808503820191506110e3565b848103820391505b5064ffffffffff6038602860ff8816020181811b197fffffffffffffffffffffffffffffffffffffffffffffffffff000000000000009490941690921792909216918416901b1790509392505050565b6040805160018082528183019092526060916000919060208083019080368337019050509050828160008151811061116d5761116d611443565b60209081029190910181019190915260408051613a3160f11b818401527f73746f726500000000000000000000000000000000000000000000000000000060228201527f53746f7265486f6f6b7300000000000000000000000000000000000000000000603082015281518082039093018352810190526000906111fc906111f490611459565b83600061074f565b905061034461120e8260008451610a0a565b611241565b60008160ff16826112248560581c90565b1660ff1614905092915050565b61049d8383602084018451611252565b606060006105c98360156000610fea565b82156112cc576020831061127c57602083048401935060208381611278576112786117e0565b0692505b82156112cc5760208390036000600019600884021c1990506008850281811c91508451811c90508119875416828216178755508183116112bd575050610fe4565b50600194909401939182019190035b5b602081106112ee5781518455600190930192602090910190601f19016112cd565b8015610fe4576000600019600883021c198554845182169119161785555050505050565b60006020828403121561132457600080fd5b81357fffffffff00000000000000000000000000000000000000000000000000000000811681146105c957600080fd5b634e487b7160e01b600052604160045260246000fd5b604051601f8201601f1916810167ffffffffffffffff8111828210171561139357611393611354565b604052919050565b600067ffffffffffffffff8211156113b5576113b5611354565b50601f01601f191660200190565b6000602082840312156113d557600080fd5b813567ffffffffffffffff8111156113ec57600080fd5b8201601f810184136113fd57600080fd5b803561141061140b8261139b565b61136a565b81815285602083850101111561142557600080fd5b81602084016020830137600091810160200191909152949350505050565b634e487b7160e01b600052603260045260246000fd5b8051602080830151919081101561147a576000198160200360031b1b821691505b50919050565b60008151808452602080850194506020840160005b838110156114b157815187529582019590820190600101611495565b509495945050505050565b8381526060602082015260006114d56060830185611480565b905060ff83166040830152949350505050565b60005b838110156115035781810151838201526020016114eb565b50506000910152565b60006020828403121561151e57600080fd5b815167ffffffffffffffff81111561153557600080fd5b8201601f8101841361154657600080fd5b805161155461140b8261139b565b81815285602083850101111561156957600080fd5b6108f18260208301602086016114e8565b6000845161158c8184602089016114e8565b820184815283516115a48160208085019088016114e8565b0160200195945050505050565b600081518084526115c98160208601602086016114e8565b601f01601f19169290920160200192915050565b8481526080602082015260006115f66080830186611480565b60ff85166040840152828103606084015261067881856115b1565b600082516116238184602087016114e8565b9190910192915050565b634e487b7160e01b600052601160045260246000fd5b808201808211156101845761018461162d565b8281526000602080830184516020860160005b8281101561168557815184529284019290840190600101611669565b5091979650505050505050565b6060815260006116a560608301866115b1565b60208301949094525060400152919050565b818103818111156101845761018461162d565b7fffff000000000000000000000000000000000000000000000000000000000000841681528260208201526060604082015260006108f160608301846115b1565b64ffffffffff8181168382160190808211156117295761172961162d565b5092915050565b60a08152600061174360a0830188611480565b65ffffffffffff8716602084015264ffffffffff86166040840152846060840152828103608084015261177681856115b1565b98975050505050505050565b87815260e06020820152600061179b60e0830189611480565b60ff8816604084015264ffffffffff87811660608501528616608084015260a0830185905282810360c08401526117d281856115b1565b9a9950505050505050505050565b634e487b7160e01b600052601260045260246000fdfea26469706673582212201c53a90e9f606409580837035fd566fe55a6d0d2144575f14f75f86e88d8e1e964736f6c63430008170033","linkReferences":{}},"methodIdentifiers":{"_msgSender()":"119df25f","_msgValue()":"45ec9354","_world()":"e1af802c","setName(string)":"c47f0027","supportsInterface(bytes4)":"01ffc9a7"},"id":457}