{"abi":[{"type":"function","name":"_msgSender","inputs":[],"outputs":[{"name":"sender","type":"address","internalType":"address"}],"stateMutability":"view"},{"type":"function","name":"_msgValue","inputs":[],"outputs":[{"name":"value","type":"uint256","internalType":"uint256"}],"stateMutability":"pure"},{"type":"function","name":"_world","inputs":[],"outputs":[{"name":"","type":"address","internalType":"address"}],"stateMutability":"view"},{"type":"function","name":"initDelegation","inputs":[{"name":"delegatee","type":"address","internalType":"address"},{"name":"systemId","type":"bytes32","internalType":"ResourceId"},{"name":"numCalls","type":"uint256","internalType":"uint256"}],"outputs":[],"stateMutability":"nonpayable"},{"type":"function","name":"supportsInterface","inputs":[{"name":"interfaceId","type":"bytes4","internalType":"bytes4"}],"outputs":[{"name":"","type":"bool","internalType":"bool"}],"stateMutability":"pure"},{"type":"function","name":"verify","inputs":[{"name":"delegator","type":"address","internalType":"address"},{"name":"systemId","type":"bytes32","internalType":"ResourceId"},{"name":"","type":"bytes","internalType":"bytes"}],"outputs":[{"name":"","type":"bool","internalType":"bool"}],"stateMutability":"nonpayable"},{"type":"event","name":"Store_DeleteRecord","inputs":[{"name":"tableId","type":"bytes32","indexed":true,"internalType":"ResourceId"},{"name":"keyTuple","type":"bytes32[]","indexed":false,"internalType":"bytes32[]"}],"anonymous":false},{"type":"event","name":"Store_SpliceStaticData","inputs":[{"name":"tableId","type":"bytes32","indexed":true,"internalType":"ResourceId"},{"name":"keyTuple","type":"bytes32[]","indexed":false,"internalType":"bytes32[]"},{"name":"start","type":"uint48","indexed":false,"internalType":"uint48"},{"name":"data","type":"bytes","indexed":false,"internalType":"bytes"}],"anonymous":false},{"type":"error","name":"Slice_OutOfBounds","inputs":[{"name":"data","type":"bytes","internalType":"bytes"},{"name":"start","type":"uint256","internalType":"uint256"},{"name":"end","type":"uint256","internalType":"uint256"}]}],"bytecode":{"object":"0x608060405234801561001057600080fd5b50611a4f806100206000396000f3fe608060405234801561001057600080fd5b50600436106100725760003560e01c806345ec93541161005057806345ec9354146100d257806393b94f61146100e5578063e1af802c146100fa57600080fd5b806301ffc9a714610077578063119df25f1461009f5780631a86b550146100bf575b600080fd5b61008a6100853660046115a6565b610102565b60405190151581526020015b60405180910390f35b6100a76101e7565b6040516001600160a01b039091168152602001610096565b61008a6100cd366004611615565b6101f6565b604051601f193601358152602001610096565b6100f86100f33660046116e0565b61025b565b005b6100a7610273565b60007fffffffff0000000000000000000000000000000000000000000000000000000082167faea79dd000000000000000000000000000000000000000000000000000000000148061019557507fffffffff0000000000000000000000000000000000000000000000000000000082167fb421288000000000000000000000000000000000000000000000000000000000145b806101e157507fffffffff0000000000000000000000000000000000000000000000000000000082167f01ffc9a700000000000000000000000000000000000000000000000000000000145b92915050565b60006101f161027d565b905090565b60008061020b856102056101e7565b866102af565b90508060010361023157610227856102216101e7565b866103e0565b6001915050610254565b801561024e5760001901610227856102476101e7565b86846104e0565b60009150505b9392505050565b61026e6102666101e7565b8484846104e0565b505050565b60006101f1610626565b7fffffffffffffffffffffffffffffffffffffffffffffffffffffffffffffffcc36013560601c806102ac5750335b90565b6040805160038082526080820190925260009182919060208201606080368337019050509050846001600160a01b031660001b816000815181106102f5576102f5611713565b602002602001018181525050836001600160a01b031660001b8160018151811061032157610321611713565b602002602001018181525050828160028151811061034157610341611713565b60209081029190910181019190915260408051613a3160f11b928101929092526000602283018190527f53797374656d626f756e6444656c6567000000000000000000000000000000006030840152916103d691016040516020818303038152906040526103ae90611729565b8360007e20010020000000000000000000000000000000000000000000000000000000610665565b9695505050505050565b6040805160038082526080820190925260009160208201606080368337019050509050836001600160a01b031660001b8160008151811061042357610423611713565b602002602001018181525050826001600160a01b031660001b8160018151811061044f5761044f611713565b602002602001018181525050818160028151811061046f5761046f611713565b60209081029190910181019190915260408051613a3160f11b81840152600060228201527f53797374656d626f756e6444656c656700000000000000000000000000000000603082015281518082039093018352810190526104da906104d490611729565b8261072a565b50505050565b6040805160038082526080820190925260009160208201606080368337019050509050846001600160a01b031660001b8160008151811061052357610523611713565b602002602001018181525050836001600160a01b031660001b8160018151811061054f5761054f611713565b602002602001018181525050828160028151811061056f5761056f611713565b60209081029190910181019190915260408051613a3160f11b81840152600060228201527f53797374656d626f756e6444656c6567000000000000000000000000000000006030820152815180820390930183528101905261061f906105d490611729565b826000856040516020016105ea91815260200190565b60408051601f198184030181529190527e200100200000000000000000000000000000000000000000000000000000006107ce565b5050505050565b7f629a4c26e296b22a8e0856e9f6ecb2d1008d7e00081111962cd175fa7488e175546000906001600160a01b031680610660573391505090565b919050565b600080610670610626565b9050306001600160a01b038216036106965761068e86868686610884565b915050610722565b6040517f8c364d590000000000000000000000000000000000000000000000000000000081526001600160a01b03821690638c364d59906106e190899089908990899060040161178c565b602060405180830381865afa1580156106fe573d6000803e3d6000fd5b505050506040513d601f19601f8201168201806040525081019061068e91906117bb565b949350505050565b6000610734610626565b9050306001600160a01b038216036107505761026e83836108ba565b6040517f505a181d0000000000000000000000000000000000000000000000000000000081526001600160a01b0382169063505a181d9061079790869086906004016117d4565b600060405180830381600087803b1580156107b157600080fd5b505af11580156107c5573d6000803e3d6000fd5b50505050505050565b60006107d8610626565b9050306001600160a01b038216036107fc576107f786868686866108d1565b61087c565b6040517f390baae00000000000000000000000000000000000000000000000000000000081526001600160a01b0382169063390baae0906108499089908990899089908990600401611833565b600060405180830381600087803b15801561086357600080fd5b505af1158015610877573d6000803e3d6000fd5b505050505b505050505050565b60006108b161089386866108e6565b60ff858116601b0360080285901c166108ac858761093c565b610975565b95945050505050565b6108cd82826108c8856109c6565b610af4565b5050565b61061f85856108e0848761093c565b85610da0565b600082826040516020016108fb92919061187a565b60408051601f1981840301815291905280516020909101207f86425bff6b57326c7859e89024fe4f238ca327a1ae4a230180dd2f0e88aaa7d9189392505050565b600080805b8360ff1681101561096d5761096360ff601b83900360080287901c16836118cc565b9150600101610941565b509392505050565b60006020821061099b57602082048401935060208281610997576109976118df565b0691505b508254600882021b60208290038084111561096d576001850154600882021c82179150509392505050565b60408051613a3160f11b60208201527f73746f726500000000000000000000000000000000000000000000000000000060228201527f5461626c65730000000000000000000000000000000000000000000000000000603082015260009101604051602081830303815290604052610a3d90611729565b8203610a6957507e60030220202000000000000000000000000000000000000000000000000000919050565b60408051613a3160f11b60208201527f73746f726500000000000000000000000000000000000000000000000000000060228201527f5461626c6573000000000000000000000000000000000000000000000000000060308201526101e191610aeb9101604051602081830303815290604052610ae590611729565b84610fe5565b60206000610975565b827f0e1f72f429eb97e64878619984a91e687ae91610348b9ff4216782cc96e49d0783604051610b2491906118f5565b60405180910390a2613a3160f11b837fffff0000000000000000000000000000000000000000000000000000000000001614610b5f57505050565b6000610b6a84611001565b905060005b8151811015610c3d576000828281518110610b8c57610b8c611713565b60200260200101519050610bb86040826affffffffffffffffffffff19166110e190919063ffffffff16565b15610c34576040517f9faeaf45000000000000000000000000000000000000000000000000000000008152606082901c90639faeaf4590610c0190899089908990600401611908565b600060405180830381600087803b158015610c1b57600080fd5b505af1158015610c2f573d6000803e3d6000fd5b505050505b50600101610b6f565b506000610c4a85856108e6565b9050610ca3816000610c5b866110ff565b67ffffffffffffffff811115610c7357610c736115ff565b6040519080825280601f01601f191660200182016040528015610c9d576020820181803683370190505b50611122565b6000610cae84611132565b1115610ccf576000610cc0868661116f565b9050610ccd8160206111c5565b505b60005b825181101561087c576000838281518110610cef57610cef611713565b60200260200101519050610d1b6080826affffffffffffffffffffff19166110e190919063ffffffff16565b15610d97576040517f83b5c95b000000000000000000000000000000000000000000000000000000008152606082901c906383b5c95b90610d64908a908a908a90600401611908565b600060405180830381600087803b158015610d7e57600080fd5b505af1158015610d92573d6000803e3d6000fd5b505050505b50600101610cd2565b6000610dac85856108e6565b9050847f8c0b5119d4cec7b284c6b1b39252a03d1e2f2d7451a5895562524c113bb952be858585604051610de293929190611931565b60405180910390a2613a3160f11b857fffff0000000000000000000000000000000000000000000000000000000000001614610e1e57506104da565b6000610e2986611001565b905060005b8151811015610efe576000828281518110610e4b57610e4b611713565b60200260200101519050610e776004826affffffffffffffffffffff19166110e190919063ffffffff16565b15610ef5576040517f964f667d000000000000000000000000000000000000000000000000000000008152606082901c9063964f667d90610ec2908b908b908b908b90600401611964565b600060405180830381600087803b158015610edc57600080fd5b505af1158015610ef0573d6000803e3d6000fd5b505050505b50600101610e2e565b50610f12828565ffffffffffff1685611122565b60005b81518110156107c5576000828281518110610f3257610f32611713565b60200260200101519050610f5e6008826affffffffffffffffffffff19166110e190919063ffffffff16565b15610fdc576040517fa8ba8721000000000000000000000000000000000000000000000000000000008152606082901c9063a8ba872190610fa9908b908b908b908b90600401611964565b600060405180830381600087803b158015610fc357600080fd5b505af1158015610fd7573d6000803e3d6000fd5b505050505b50600101610f15565b60408051602081018490529081018290526000906060016108fb565b6040805160018082528183019092526060916000919060208083019080368337019050509050828160008151811061103b5761103b611713565b60209081029190910181019190915260408051613a3160f11b818401527f73746f726500000000000000000000000000000000000000000000000000000060228201527f53746f7265486f6f6b7300000000000000000000000000000000000000000000603082015281518082039093018352810190526000906110ca906110c290611729565b836000611202565b90506107226110dc826000845161123c565b6112d5565b60008160ff16826110f28560581c90565b1660ff1614905092915050565b6000600861110f600260206119a8565b61111991906119bb565b9190911c919050565b61026e83836020840184516112e6565b60006008600180611145600260206119a8565b61114f91906119a8565b61115991906119a8565b61116391906119bb565b8260ff911c1692915050565b6000828260405160200161118492919061187a565b60408051601f1981840301815291905280516020909101207f14e2fcc58e58e68ec7edc30c8d50dccc3ce2714a623ec81f46b6a63922d76569189392505050565b600060206111d483601f6118cc565b6111de91906119d2565b6111e890846118cc565b90505b8083101561026e57600083556001830192506111eb565b60606107226112128585856113a6565b611235846112208888611426565b9060ff166028026038011c64ffffffffff1690565b6000611439565b600081831115801561124f575083518211155b611294578383836040517f23230fa300000000000000000000000000000000000000000000000000000000815260040161128b939291906119f4565b60405180910390fd5b602084016112a284826118cc565b905060006112b085856119a8565b6fffffffffffffffffffffffffffffffff1660809290921b9190911795945050505050565b60606000610254836015600061145c565b821561136057602083106113105760208304840193506020838161130c5761130c6118df565b0692505b82156113605760208390036000600019600884021c1990506008850281811c91508451811c90508119875416828216178755508183116113515750506104da565b50600194909401939182019190035b5b602081106113825781518455600190930192602090910190601f1901611361565b80156104da576000600019600883021c198554845182169119161785555050505050565b600083836040516020016113bb92919061187a565b604051602081830303815290604052805190602001208260f81b7effffffffffffffffffffffffffffffffffffffffffffffffffffffffffffff19167f3b4102da22e32d82fc925482184f16c09fd4281692720b87d124aef6da48a0f1181860001c90509392505050565b6000610254611435848461116f565b5490565b60405160208101601f19603f858401011660405283825261096d858585846114d7565b6060600061146a8560801c90565b90506fffffffffffffffffffffffffffffffff85166000858281611490576114906118df565b04905060405193506020840160208202810160405281855260005b828110156114cb578451871c8252938701936020909101906001016114ab565b50505050509392505050565b81156115605760208210611501576020820484019350602082816114fd576114fd6118df565b0691505b81156115605760208290036000818510156115255750600019600885021c19611530565b50600019600882021c195b8554600885021b8119845116828216178452508185116115515750506104da565b50600194909401939283900392015b5b602083106115825783548152600190930192601f1990920191602001611561565b82156104da576000600019600885021c198251865482169119161782525050505050565b6000602082840312156115b857600080fd5b81357fffffffff000000000000000000000000000000000000000000000000000000008116811461025457600080fd5b80356001600160a01b038116811461066057600080fd5b634e487b7160e01b600052604160045260246000fd5b60008060006060848603121561162a57600080fd5b611633846115e8565b925060208401359150604084013567ffffffffffffffff8082111561165757600080fd5b818601915086601f83011261166b57600080fd5b81358181111561167d5761167d6115ff565b604051601f8201601f19908116603f011681019083821181831017156116a5576116a56115ff565b816040528281528960208487010111156116be57600080fd5b8260208601602083013760006020848301015280955050505050509250925092565b6000806000606084860312156116f557600080fd5b6116fe846115e8565b95602085013595506040909401359392505050565b634e487b7160e01b600052603260045260246000fd5b8051602080830151919081101561174a576000198160200360031b1b821691505b50919050565b60008151808452602080850194506020840160005b8381101561178157815187529582019590820190600101611765565b509495945050505050565b8481526080602082015260006117a56080830186611750565b60ff949094166040830152506060015292915050565b6000602082840312156117cd57600080fd5b5051919050565b8281526040602082015260006107226040830184611750565b6000815180845260005b81811015611813576020818501810151868301820152016117f7565b506000602082860101526020601f19601f83011685010191505092915050565b85815260a06020820152600061184c60a0830187611750565b60ff86166040840152828103606084015261186781866117ed565b9150508260808301529695505050505050565b8281526000602080830184516020860160005b828110156118a95781518452928401929084019060010161188d565b5091979650505050505050565b634e487b7160e01b600052601160045260246000fd5b808201808211156101e1576101e16118b6565b634e487b7160e01b600052601260045260246000fd5b6020815260006102546020830184611750565b8381526060602082015260006119216060830185611750565b9050826040830152949350505050565b6060815260006119446060830186611750565b65ffffffffffff8516602084015282810360408401526103d681856117ed565b84815260806020820152600061197d6080830186611750565b65ffffffffffff85166040840152828103606084015261199d81856117ed565b979650505050505050565b818103818111156101e1576101e16118b6565b80820281158282048414176101e1576101e16118b6565b6000826119ef57634e487b7160e01b600052601260045260246000fd5b500490565b606081526000611a0760608301866117ed565b6020830194909452506040015291905056fea2646970667358221220febd4861c0af9b1b78f72b12a0881556b9a67c027bc9a6bfca7916813e895e6964736f6c63430008170033","linkReferences":{}},"methodIdentifiers":{"_msgSender()":"119df25f","_msgValue()":"45ec9354","_world()":"e1af802c","initDelegation(address,bytes32,uint256)":"93b94f61","supportsInterface(bytes4)":"01ffc9a7","verify(address,bytes32,bytes)":"1a86b550"},"id":83}