{"abi":[{"type":"function","name":"_msgSender","inputs":[],"outputs":[{"name":"sender","type":"address","internalType":"address"}],"stateMutability":"view"},{"type":"function","name":"_msgValue","inputs":[],"outputs":[{"name":"value","type":"uint256","internalType":"uint256"}],"stateMutability":"pure"},{"type":"function","name":"_world","inputs":[],"outputs":[{"name":"","type":"address","internalType":"address"}],"stateMutability":"view"},{"type":"function","name":"setRotationSeasonPass","inputs":[{"name":"levelId","type":"bytes32","internalType":"bytes32"},{"name":"inRotation","type":"bool","internalType":"bool"}],"outputs":[],"stateMutability":"nonpayable"},{"type":"function","name":"setRotationStandard","inputs":[{"name":"levelId","type":"bytes32","internalType":"bytes32"},{"name":"inRotation","type":"bool","internalType":"bool"}],"outputs":[],"stateMutability":"nonpayable"},{"type":"function","name":"supportsInterface","inputs":[{"name":"interfaceId","type":"bytes4","internalType":"bytes4"}],"outputs":[{"name":"","type":"bool","internalType":"bool"}],"stateMutability":"pure"},{"type":"event","name":"Store_SpliceStaticData","inputs":[{"name":"tableId","type":"bytes32","indexed":true,"internalType":"ResourceId"},{"name":"keyTuple","type":"bytes32[]","indexed":false,"internalType":"bytes32[]"},{"name":"start","type":"uint48","indexed":false,"internalType":"uint48"},{"name":"data","type":"bytes","indexed":false,"internalType":"bytes"}],"anonymous":false},{"type":"error","name":"Slice_OutOfBounds","inputs":[{"name":"data","type":"bytes","internalType":"bytes"},{"name":"start","type":"uint256","internalType":"uint256"},{"name":"end","type":"uint256","internalType":"uint256"}]}],"bytecode":{"object":"0x608060405234801561001057600080fd5b5061149f806100206000396000f3fe608060405234801561001057600080fd5b50600436106100725760003560e01c806364bac6be1161005057806364bac6be146100df57806399b526d6146100f4578063e1af802c1461010757600080fd5b806301ffc9a714610077578063119df25f1461009f57806345ec9354146100cc575b600080fd5b61008a610085366004611125565b61010f565b60405190151581526020015b60405180910390f35b6100a76101a8565b60405173ffffffffffffffffffffffffffffffffffffffff9091168152602001610096565b604051601f193601358152602001610096565b6100f26100ed366004611167565b6101b7565b005b6100f2610102366004611167565b6101d5565b6100a76101ea565b60007fffffffff0000000000000000000000000000000000000000000000000000000082167fb42128800000000000000000000000000000000000000000000000000000000014806101a257507fffffffff0000000000000000000000000000000000000000000000000000000082167f01ffc9a700000000000000000000000000000000000000000000000000000000145b92915050565b60006101b26101f4565b905090565b6101c76101c26101a8565b610226565b6101d182826102a5565b5050565b6101e06101c26101a8565b6101d1828261039b565b60006101b2610428565b7fffffffffffffffffffffffffffffffffffffffffffffffffffffffffffffffcc36013560601c806102235750335b90565b610237610231610474565b8261050c565b6102a2576040517f08c379a000000000000000000000000000000000000000000000000000000000815260206004820181905260248201527f63616c6c657220646f6573206e6f7420686176652074686520736b79206b657960448201526064015b60405180910390fd5b50565b6040805160018082528183019092526000916020808301908036833701905050905082816000815181106102db576102db61119c565b60209081029190910181019190915260408051613a3160f11b92810192909252600060228301527f4c6576656c496e536561736f6e50617300000000000000000000000000000000603083015261039691015b604051602081830303815290604052610346906111cb565b8260008560405160200161036191151560f81b815260010190565b60408051601f198184030181529190527e010100010000000000000000000000000000000000000000000000000000006105ac565b505050565b6040805160018082528183019092526000916020808301908036833701905050905082816000815181106103d1576103d161119c565b60209081029190910181019190915260408051613a3160f11b92810192909252600060228301527f4c6576656c496e5374616e6461726452000000000000000000000000000000006030830152610396910161032e565b7f629a4c26e296b22a8e0856e9f6ecb2d1008d7e00081111962cd175fa7488e1755460009073ffffffffffffffffffffffffffffffffffffffff168061046f573391505090565b919050565b604080516000808252602082018352613a3160f11b82840152604282018190527f536b79506f6f6c436f6e66696700000000000000000000000000000000000000605083015282518083038401815260608301909352918290610502906104da906111cb565b8360047e7c05002020141414000000000000000000000000000000000000000000000061067c565b60601c9392505050565b6000808373ffffffffffffffffffffffffffffffffffffffff166339f898bc6040518163ffffffff1660e01b8152600401602060405180830381865afa15801561055a573d6000803e3d6000fd5b505050506040513d601f19601f8201168201806040525081019061057e91906111f2565b9050600061059461058f8360101b90565b61075b565b905060006105a2828661078d565b1195945050505050565b60006105b6610428565b90503073ffffffffffffffffffffffffffffffffffffffff8216036105e7576105e28686868686610820565b610674565b6040517f390baae000000000000000000000000000000000000000000000000000000000815273ffffffffffffffffffffffffffffffffffffffff82169063390baae090610641908990899089908990899060040161128d565b600060405180830381600087803b15801561065b57600080fd5b505af115801561066f573d6000803e3d6000fd5b505050505b505050505050565b600080610687610428565b90503073ffffffffffffffffffffffffffffffffffffffff8216036106ba576106b28686868661083c565b915050610753565b6040517f8c364d5900000000000000000000000000000000000000000000000000000000815273ffffffffffffffffffffffffffffffffffffffff821690638c364d59906107129089908990899089906004016112d4565b602060405180830381865afa15801561072f573d6000803e3d6000fd5b505050506040513d601f19601f820116820180604052508101906106b291906111f2565b949350505050565b60006101a2613a3160f11b837f42616c616e636573000000000000000000000000000000000000000000000000610869565b604080516001808252818301909252600091829190602080830190803683370190505090508273ffffffffffffffffffffffffffffffffffffffff1660001b816000815181106107df576107df61119c565b602090810291909101015260006108178583837e2001002000000000000000000000000000000000000000000000000000000061067c565b95945050505050565b610835858561082f84876108f0565b85610929565b5050505050565b600061081761084b8686610b78565b60ff858116601b0360080285901c1661086485876108f0565b610bce565b600061087760706010611332565b7fffff00000000000000000000000000000000000000000000000000000000000085167dffffffffffffffffffffffffffff00000000000000000000000000000000601086901c16177fffffffffffffffffffffffffffffffff00000000000000000000000000000000841690911c1790509392505050565b600080805b8360ff168110156109215761091760ff601b83900360080287901c1683611332565b91506001016108f5565b509392505050565b60006109358585610b78565b9050847f8c0b5119d4cec7b284c6b1b39252a03d1e2f2d7451a5895562524c113bb952be85858560405161096b93929190611345565b60405180910390a2613a3160f11b857fffff00000000000000000000000000000000000000000000000000000000000016146109a75750610b72565b60006109b286610c1f565b905060005b8151811015610a875760008282815181106109d4576109d461119c565b60200260200101519050610a006004826affffffffffffffffffffff1916610cff90919063ffffffff16565b15610a7e576040517f964f667d000000000000000000000000000000000000000000000000000000008152606082901c9063964f667d90610a4b908b908b908b908b90600401611382565b600060405180830381600087803b158015610a6557600080fd5b505af1158015610a79573d6000803e3d6000fd5b505050505b506001016109b7565b50610a9b828565ffffffffffff1685610d1d565b60005b8151811015610b6e576000828281518110610abb57610abb61119c565b60200260200101519050610ae76008826affffffffffffffffffffff1916610cff90919063ffffffff16565b15610b65576040517fa8ba8721000000000000000000000000000000000000000000000000000000008152606082901c9063a8ba872190610b32908b908b908b908b90600401611382565b600060405180830381600087803b158015610b4c57600080fd5b505af1158015610b60573d6000803e3d6000fd5b505050505b50600101610a9e565b5050505b50505050565b60008282604051602001610b8d9291906113c6565b60408051601f1981840301815291905280516020909101207f86425bff6b57326c7859e89024fe4f238ca327a1ae4a230180dd2f0e88aaa7d9189392505050565b600060208210610bf457602082048401935060208281610bf057610bf0611402565b0691505b508254600882021b602082900380841115610921576001850154600882021c82179150509392505050565b60408051600180825281830190925260609160009190602080830190803683370190505090508281600081518110610c5957610c5961119c565b60209081029190910181019190915260408051613a3160f11b818401527f73746f726500000000000000000000000000000000000000000000000000000060228201527f53746f7265486f6f6b730000000000000000000000000000000000000000000060308201528151808203909301835281019052600090610ce890610ce0906111cb565b836000610d2d565b9050610753610cfa8260008451610d67565b610df7565b60008160ff1682610d108560581c90565b1660ff1614905092915050565b6103968383602084018451610e0f565b6060610753610d3d858585610ecf565b610d6084610d4b8888610f4f565b9060ff166028026038011c64ffffffffff1690565b6000610f62565b6000818311158015610d7a575083518211155b610db6578383836040517f23230fa300000000000000000000000000000000000000000000000000000000815260040161029993929190611431565b60208401610dc48482611332565b90506000610dd28585611456565b6fffffffffffffffffffffffffffffffff1660809290921b9190911795945050505050565b60606000610e088360156000610f85565b9392505050565b8215610e895760208310610e3957602083048401935060208381610e3557610e35611402565b0692505b8215610e895760208390036000600019600884021c1990506008850281811c91508451811c9050811987541682821617875550818311610e7a575050610b72565b50600194909401939182019190035b5b60208110610eab5781518455600190930192602090910190601f1901610e8a565b8015610b72576000600019600883021c198554845182169119161785555050505050565b60008383604051602001610ee49291906113c6565b604051602081830303815290604052805190602001208260f81b7effffffffffffffffffffffffffffffffffffffffffffffffffffffffffffff19167f3b4102da22e32d82fc925482184f16c09fd4281692720b87d124aef6da48a0f1181860001c90509392505050565b6000610e08610f5e8484611000565b5490565b60405160208101601f19603f858401011660405283825261092185858584611056565b60606000610f938560801c90565b90506fffffffffffffffffffffffffffffffff85166000858281610fb957610fb9611402565b04905060405193506020840160208202810160405281855260005b82811015610ff4578451871c825293870193602090910190600101610fd4565b50505050509392505050565b600082826040516020016110159291906113c6565b60408051601f1981840301815291905280516020909101207f14e2fcc58e58e68ec7edc30c8d50dccc3ce2714a623ec81f46b6a63922d76569189392505050565b81156110df57602082106110805760208204840193506020828161107c5761107c611402565b0691505b81156110df5760208290036000818510156110a45750600019600885021c196110af565b50600019600882021c195b8554600885021b8119845116828216178452508185116110d0575050610b72565b50600194909401939283900392015b5b602083106111015783548152600190930192601f19909201916020016110e0565b8215610b72576000600019600885021c198251865482169119161782525050505050565b60006020828403121561113757600080fd5b81357fffffffff0000000000000000000000000000000000000000000000000000000081168114610e0857600080fd5b6000806040838503121561117a57600080fd5b823591506020830135801515811461119157600080fd5b809150509250929050565b7f4e487b7100000000000000000000000000000000000000000000000000000000600052603260045260246000fd5b805160208083015191908110156111ec576000198160200360031b1b821691505b50919050565b60006020828403121561120457600080fd5b5051919050565b60008151808452602080850194506020840160005b8381101561123c57815187529582019590820190600101611220565b509495945050505050565b6000815180845260005b8181101561126d57602081850181015186830182015201611251565b506000602082860101526020601f19601f83011685010191505092915050565b85815260a0602082015260006112a660a083018761120b565b60ff8616604084015282810360608401526112c18186611247565b9150508260808301529695505050505050565b8481526080602082015260006112ed608083018661120b565b60ff949094166040830152506060015292915050565b7f4e487b7100000000000000000000000000000000000000000000000000000000600052601160045260246000fd5b808201808211156101a2576101a2611303565b606081526000611358606083018661120b565b65ffffffffffff8516602084015282810360408401526113788185611247565b9695505050505050565b84815260806020820152600061139b608083018661120b565b65ffffffffffff8516604084015282810360608401526113bb8185611247565b979650505050505050565b8281526000602080830184516020860160005b828110156113f5578151845292840192908401906001016113d9565b5091979650505050505050565b7f4e487b7100000000000000000000000000000000000000000000000000000000600052601260045260246000fd5b6060815260006114446060830186611247565b60208301949094525060400152919050565b818103818111156101a2576101a261130356fea2646970667358221220d474caa82dc2fba874f95a5b2346e726983baa967f71678556ac2eb0a440c60664736f6c63430008170033","linkReferences":{}},"methodIdentifiers":{"_msgSender()":"119df25f","_msgValue()":"45ec9354","_world()":"e1af802c","setRotationSeasonPass(bytes32,bool)":"64bac6be","setRotationStandard(bytes32,bool)":"99b526d6","supportsInterface(bytes4)":"01ffc9a7"},"id":452}