{"abi":[{"type":"function","name":"_msgSender","inputs":[],"outputs":[{"name":"sender","type":"address","internalType":"address"}],"stateMutability":"view"},{"type":"function","name":"_msgValue","inputs":[],"outputs":[{"name":"value","type":"uint256","internalType":"uint256"}],"stateMutability":"pure"},{"type":"function","name":"_world","inputs":[],"outputs":[{"name":"","type":"address","internalType":"address"}],"stateMutability":"view"},{"type":"function","name":"setup","inputs":[{"name":"matchEntity","type":"bytes32","internalType":"bytes32"},{"name":"spawnIndex","type":"uint256","internalType":"uint256"},{"name":"heroChoice","type":"bytes32","internalType":"bytes32"}],"outputs":[{"name":"player","type":"bytes32","internalType":"bytes32"}],"stateMutability":"nonpayable"},{"type":"function","name":"supportsInterface","inputs":[{"name":"interfaceId","type":"bytes4","internalType":"bytes4"}],"outputs":[{"name":"","type":"bool","internalType":"bool"}],"stateMutability":"pure"},{"type":"event","name":"Store_DeleteRecord","inputs":[{"name":"tableId","type":"bytes32","indexed":true,"internalType":"ResourceId"},{"name":"keyTuple","type":"bytes32[]","indexed":false,"internalType":"bytes32[]"}],"anonymous":false},{"type":"event","name":"Store_SetRecord","inputs":[{"name":"tableId","type":"bytes32","indexed":true,"internalType":"ResourceId"},{"name":"keyTuple","type":"bytes32[]","indexed":false,"internalType":"bytes32[]"},{"name":"staticData","type":"bytes","indexed":false,"internalType":"bytes"},{"name":"encodedLengths","type":"bytes32","indexed":false,"internalType":"PackedCounter"},{"name":"dynamicData","type":"bytes","indexed":false,"internalType":"bytes"}],"anonymous":false},{"type":"event","name":"Store_SpliceDynamicData","inputs":[{"name":"tableId","type":"bytes32","indexed":true,"internalType":"ResourceId"},{"name":"keyTuple","type":"bytes32[]","indexed":false,"internalType":"bytes32[]"},{"name":"start","type":"uint48","indexed":false,"internalType":"uint48"},{"name":"deleteCount","type":"uint40","indexed":false,"internalType":"uint40"},{"name":"encodedLengths","type":"bytes32","indexed":false,"internalType":"PackedCounter"},{"name":"data","type":"bytes","indexed":false,"internalType":"bytes"}],"anonymous":false},{"type":"event","name":"Store_SpliceStaticData","inputs":[{"name":"tableId","type":"bytes32","indexed":true,"internalType":"ResourceId"},{"name":"keyTuple","type":"bytes32[]","indexed":false,"internalType":"bytes32[]"},{"name":"start","type":"uint48","indexed":false,"internalType":"uint48"},{"name":"data","type":"bytes","indexed":false,"internalType":"bytes"}],"anonymous":false},{"type":"error","name":"PackedCounter_InvalidLength","inputs":[{"name":"length","type":"uint256","internalType":"uint256"}]},{"type":"error","name":"Slice_OutOfBounds","inputs":[{"name":"data","type":"bytes","internalType":"bytes"},{"name":"start","type":"uint256","internalType":"uint256"},{"name":"end","type":"uint256","internalType":"uint256"}]},{"type":"error","name":"Store_IndexOutOfBounds","inputs":[{"name":"length","type":"uint256","internalType":"uint256"},{"name":"accessedIndex","type":"uint256","internalType":"uint256"}]},{"type":"error","name":"Store_InvalidResourceType","inputs":[{"name":"expected","type":"bytes2","internalType":"bytes2"},{"name":"resourceId","type":"bytes32","internalType":"ResourceId"},{"name":"resourceIdString","type":"string","internalType":"string"}]},{"type":"error","name":"Store_InvalidSplice","inputs":[{"name":"startWithinField","type":"uint40","internalType":"uint40"},{"name":"deleteCount","type":"uint40","internalType":"uint40"},{"name":"fieldLength","type":"uint40","internalType":"uint40"}]}],"bytecode":{"object":"0x608060405234801561001057600080fd5b50614fc0806100206000396000f3fe608060405234801561001057600080fd5b50600436106100675760003560e01c80633a1976fb116100505780633a1976fb146100b457806345ec9354146100d5578063e1af802c146100e057600080fd5b806301ffc9a71461006c578063119df25f14610094575b600080fd5b61007f61007a3660046147b4565b6100e8565b60405190151581526020015b60405180910390f35b61009c610181565b6040516001600160a01b03909116815260200161008b565b6100c76100c23660046147f6565b610190565b60405190815260200161008b565b36601f1901356100c7565b61009c610219565b60007fffffffff0000000000000000000000000000000000000000000000000000000082167fb421288000000000000000000000000000000000000000000000000000000000148061017b57507fffffffff0000000000000000000000000000000000000000000000000000000082167f01ffc9a700000000000000000000000000000000000000000000000000000000145b92915050565b600061018b610223565b905090565b60008061019c85610255565b905060006101a98661032b565b90506101bf82866101ba8985610368565b6103ce565b6101c98682610439565b6101da866101d5610181565b610509565b92506101e7868685610565565b6101f2868483610679565b6102078685856102028a866107f9565b61093e565b61021086610a33565b50509392505050565b600061018b610a97565b7fffffffffffffffffffffffffffffffffffffffffffffffffffffffffffffffcc36013560601c806102525750335b90565b60408051600180825281830190925260009182919060208083019080368337019050509050828160008151811061028e5761028e614838565b60209081029190910181019190915260408051613a3160f11b928101929092526000602283018190527f4d61746368436f6e66696700000000000000000000000000000000000000000060308401529161032391016040516020818303038152906040526102fb9061484e565b8360037eb4060020202020201400000000000000000000000000000000000000000000610ad6565b949350505050565b60008061033783610b93565b610342906001614888565b905061034e8382610c6d565b63ffffffff81169150610362838381610d7b565b50919050565b6040805160028082526060808301845292602083019080368337019050509050828160008151811061039c5761039c614838565b60200260200101818152505081816001815181106103bc576103bc614838565b60200260200101818152505092915050565b6103e16103db8484610e7c565b82610f49565b6000806103ee8585610fb2565b915091506104328360008151811061040857610408614838565b60200260200101518460018151811061042357610423614838565b6020026020010151848461108f565b5050505050565b60408051600180825281830190925260009160208083019080368337019050509050828160008151811061046f5761046f614838565b60209081029190910181019190915260408051613a3160f11b92810192909252600060228301527f4d61746368537061776e506f696e747300000000000000000000000000000000603083015261050491015b6040516020818303038152906040526104da9061484e565b826000856040516020016104f091815260200190565b604051602081830303815290604052611165565b505050565b60006001600160a01b0382168161051f8561032b565b905061052c858583611216565b61053685826112ce565b61054185828461135b565b61054d85826001611407565b61055a85826103e86114b3565b610323858242611587565b604080516002808252606082018352600092602083019080368337019050509050838160008151811061059a5761059a614838565b6020026020010181815250508260001b816001815181106105bd576105bd614838565b60209081029190910181019190915260408051613a3160f11b92810192909252600060228301527f537061776e526573657276656442790000000000000000000000000000000000603083015261067391015b6040516020818303038152906040526106289061484e565b8260008560405160200161063e91815260200190565b60408051601f198184030181529190527e20010020000000000000000000000000000000000000000000000000000000611633565b50505050565b61068383836116e9565b63ffffffff166000036106f7576040517f08c379a000000000000000000000000000000000000000000000000000000000815260206004820152601260248201527f706c61796572206e6f742063726561746564000000000000000000000000000060448201526064015b60405180910390fd5b61070183826117a8565b610767576040517f08c379a000000000000000000000000000000000000000000000000000000000815260206004820152601760248201527f6e6f7420612076616c696420737061776e20706f696e7400000000000000000060448201526064016106ee565b61077183826118a2565b156107d8576040517f08c379a000000000000000000000000000000000000000000000000000000000815260206004820152600e60248201527f737061776e2069732074616b656e00000000000000000000000000000000000060448201526064016106ee565b6107e383828461135b565b6107ee838242611587565b610504838284611991565b60408051808201825260008082526020820181905282516002808252606082019094529192909190816020016020820280368337019050509050838160008151811061084757610847614838565b602002602001018181525050828160018151811061086757610867614838565b60209081029190910181019190915260408051613a3160f11b928101929092526000602283018190527f506f736974696f6e000000000000000000000000000000000000000000000000603084015291829182916108ff91015b6040516020818303038152906040526108d99061484e565b857e080200040400000000000000000000000000000000000000000000000000006119fa565b6040805180820190915260008082526020808301918252850151602486015160e090811d909252901d815292955090935091505b979650505050505050565b600061094985611aca565b8051835191925060009161095d91906148ac565b905060008260200151846020015161097591906148ac565b90506000846000015160030b131561099f578351610995906001906148ac565b60030b84526109fb565b60008260030b12156109b85783516109959060016148d3565b60008160030b13156109e257600184602001516109d591906148ac565b60030b60208501526109fb565b60208401516109f29060016148d3565b60030b60208501525b610a298787876040518060400160405280896000015160030b8152602001896020015160030b815250611b86565b5050505050505050565b6000610a3e82611bc7565b90508015801590610a4f5750804210155b15610a93576000610a5f83610255565b90506000610a6c84611c5a565b9050610a7782611d21565b518151036106735761067384610a8e6078426148fa565b611d4d565b5050565b7f629a4c26e296b22a8e0856e9f6ecb2d1008d7e00081111962cd175fa7488e175546000906001600160a01b031680610ad1573391505090565b919050565b600080610ae1610a97565b9050306001600160a01b03821603610b0757610aff86868686611e33565b915050610323565b6040517f8c364d590000000000000000000000000000000000000000000000000000000081526001600160a01b03821690638c364d5990610b52908990899089908990600401614949565b602060405180830381865afa158015610b6f573d6000803e3d6000fd5b505050506040513d601f19601f82011682018060405250810190610aff9190614978565b604080516001808252818301909252600091829190602080830190803683370190505090508281600081518110610bcc57610bcc614838565b60209081029190910181019190915260408051613a3160f11b928101929092526000602283018190527f4d61746368456e74697479436f756e7400000000000000000000000000000000603084015291610c6291015b604051602081830303815290604052610c3a9061484e565b8360007e04010004000000000000000000000000000000000000000000000000000000610ad6565b60e01c949350505050565b604080516001808252818301909252600091602080830190803683370190505090508281600081518110610ca357610ca3614838565b60209081029190910181019190915260408051613a3160f11b92810192909252600060228301527f4d61746368456e74697479436f756e7400000000000000000000000000000000603083015261050491015b604051602081830303815290604052610d0e9061484e565b6040517fffffffff0000000000000000000000000000000000000000000000000000000060e086901b16602082015283906000906024015b60408051601f198184030181529190527e04010004000000000000000000000000000000000000000000000000000000611633565b6000610d8682611e60565b6040805160028082526060808301845293945060009392849291906020830190803683370190505090508681600081518110610dc457610dc4614838565b6020026020010181815250508581600181518110610de457610de4614838565b602090810291909101810191909152604080517f6f7400000000000000000000000000000000000000000000000000000000000092810192909252600060228301527f4d617463680000000000000000000000000000000000000000000000000000006030830152610e7391015b604051602081830303815290604052610e6a9061484e565b82868686611e8b565b50505050505050565b604080516001808252818301909252600091829190602080830190803683370190505090508381600081518110610eb557610eb5614838565b60209081029190910181019190915260408051613a3160f11b928101929092526000602283018190527f4c6576656c54656d706c61746573000000000000000000000000000000000000603084015291610f359101604051602081830303815290604052610f229061484e565b8360008760200288600101602002611f01565b9050610f408161484e565b95945050505050565b6000610f5483611fc6565b905060005b8151811015610673576000828281518110610f7657610f76614838565b602002602001015190506000806000610f8f888561205a565b925092509250610fa28488848685611e8b565b505060019092019150610f599050565b6040805160028082526060820183526000928392839290916020830190803683370190505090508481600081518110610fed57610fed614838565b6020026020010181815250508360001b8160018151811061101057611010614838565b60209081029190910181019190915260408051613a3160f11b928101929092526000602283018190527f4c6576656c506f736974696f6e000000000000000000000000000000000000006030840152918291829161106e91016108c1565b5050602081015160249091015160e091821c9a911c98509650505050505050565b6040805160e084811b602083015283901b6024820152815160088183030181526002602883018181526088840185529193600093606093859390929091604801908036833701905050905087816000815181106110ee576110ee614838565b602002602001018181525050868160018151811061110e5761110e614838565b60209081029190910181019190915260408051613a3160f11b92810192909252600060228301527f506f736974696f6e0000000000000000000000000000000000000000000000006030830152610a299101610e52565b600061116f610a97565b9050306001600160a01b038216036111925761118d8585858561216f565b610432565b6040517f150f32620000000000000000000000000000000000000000000000000000000081526001600160a01b0382169063150f3262906111dd9088908890889088906004016149e1565b600060405180830381600087803b1580156111f757600080fd5b505af115801561120b573d6000803e3d6000fd5b505050505050505050565b604080516002808252606082018352600092602083019080368337019050509050838160008151811061124b5761124b614838565b602002602001018181525050826001600160a01b031660001b8160018151811061127757611277614838565b60209081029190910181019190915260408051613a3160f11b92810192909252600060228301527f4d61746368506c6179657200000000000000000000000000000000000000000060308301526106739101610610565b60408051600180825281830190925260009160208083019080368337019050509050828160008151811061130457611304614838565b60209081029190910181019190915260408051613a3160f11b92810192909252600060228301527f4d61746368506c61796572730000000000000000000000000000000000000000603083015261050491016104c2565b604080516002808252606082018352600092602083019080368337019050509050838160008151811061139057611390614838565b60200260200101818152505082816001815181106113b0576113b0614838565b60209081029190910181019190915260408051613a3160f11b92810192909252600060228301527f4f776e656442790000000000000000000000000000000000000000000000000060308301526106739101610610565b604080516002808252606082018352600092602083019080368337019050509050838160008151811061143c5761143c614838565b602002602001018181525050828160018151811061145c5761145c614838565b60209081029190910181019190915260408051613a3160f11b92810192909252600060228301527f506c61796572000000000000000000000000000000000000000000000000000060308301526106739101610cf6565b60408051600280825260608201835260009260208301908036833701905050905083816000815181106114e8576114e8614838565b602002602001018181525050828160018151811061150857611508614838565b60209081029190910181019190915260408051613a3160f11b81840152600060228201527f5374616d696e6100000000000000000000000000000000000000000000000000603082015281518082039093018352810190526106739061156d9061484e565b60405160e085901b60208201528390600090602401610d46565b60408051600280825260608201835260009260208301908036833701905050905083816000815181106115bc576115bc614838565b60200260200101818152505082816001815181106115dc576115dc614838565b60209081029190910181019190915260408051613a3160f11b92810192909252600060228301527f4c617374416374696f6e0000000000000000000000000000000000000000000060308301526106739101610610565b600061163d610a97565b9050306001600160a01b038216036116615761165c86868686866121aa565b6116e1565b6040517f390baae00000000000000000000000000000000000000000000000000000000081526001600160a01b0382169063390baae0906116ae9089908990899089908990600401614a15565b600060405180830381600087803b1580156116c857600080fd5b505af11580156116dc573d6000803e3d6000fd5b505050505b505050505050565b60408051600280825260608201835260009283929190602083019080368337019050509050838160008151811061172257611722614838565b602002602001018181525050828160018151811061174257611742614838565b60209081029190910181019190915260408051613a3160f11b928101929092526000602283018190527f506c61796572000000000000000000000000000000000000000000000000000060308401529161179c9101610c22565b60e01c95945050505050565b6040805160028082526060820183526000928392919060208301908036833701905050905083816000815181106117e1576117e1614838565b602002602001018181525050828160018151811061180157611801614838565b60209081029190910181019190915260408051613a3160f11b928101929092526000602283018190527f537061776e506f696e7400000000000000000000000000000000000000000000603084015291611896910160405160208183030381529060405261186e9061484e565b8360007e01010001000000000000000000000000000000000000000000000000000000610ad6565b9050610f408160f81c90565b6040805160028082526060820183526000928392919060208301908036833701905050905083816000815181106118db576118db614838565b60200260200101818152505082816001815181106118fb576118fb614838565b60209081029190910181019190915260408051613a3160f11b928101929092526000602283018190527f4f776e6564427900000000000000000000000000000000000000000000000000603084015291610f4091015b6040516020818303038152906040526119699061484e565b8360007e20010020000000000000000000000000000000000000000000000000000000610ad6565b600061199d84846121bf565b905060006119b5846119af8785612272565b90612337565b8051909150156119cf576119ca858383612405565b6119d9565b6119d985836124d6565b6119e485848661259c565b6119ef858585612648565b6104328585426126f4565b6060600060606000611a0a610a97565b9050306001600160a01b03821603611a3357611a278787876127a0565b93509350935050611ac1565b6040517f419b58fd0000000000000000000000000000000000000000000000000000000081526001600160a01b0382169063419b58fd90611a7c908a908a908a90600401614a5c565b600060405180830381865afa158015611a99573d6000803e3d6000fd5b505050506040513d6000823e601f3d908101601f19168201604052611a279190810190614b03565b93509350939050565b60408051808201909152600080825260208201526000611ae983610255565b90506000611b17827f4d617043656e7465724d61726b657200000000000000000000000000000000006128a8565b805190915015611b6a57600080611b488484600081518110611b3b57611b3b614838565b6020026020010151610fb2565b60408051808201909152600392830b8152910b60208201529695505050505050565b5050604080518082019091526000808252602082015292915050565b6000611b918561032b565b9050611ba684611ba18784610368565b610f49565b611bb185828461295b565b611bbc858242611587565b61032385828561135b565b604080516001808252818301909252600091829190602080830190803683370190505090508281600081518110611c0057611c00614838565b60209081029190910181019190915260408051613a3160f11b928101929092526000602283018190527f4d617463685265616479000000000000000000000000000000000000000000006030840152916103239101611951565b60408051600180825281830190925260609160009190602080830190803683370190505090508281600081518110611c9457611c94614838565b60209081029190910181019190915260408051613a3160f11b928101929092526000602283018190527f4d61746368506c61796572730000000000000000000000000000000000000000603084015291611d0a91015b604051602081830303815290604052611d029061484e565b836000612984565b9050610323611d1c8260008451612a4c565b612adc565b606061017b827f537061776e536574746c656d656e7400000000000000000000000000000000006128a8565b604080516001808252818301909252600091602080830190803683370190505090508281600081518110611d8357611d83614838565b60209081029190910181019190915260408051613a3160f11b81840152600060228201527f4d61746368436f6e6669670000000000000000000000000000000000000000006030820152815180820390930183528101905261050490611de89061484e565b82600185604051602001611dfe91815260200190565b60408051601f198184030181529190527eb4060020202020201400000000000000000000000000000000000000000000611633565b6000610f40611e428686612aed565b60ff858116601b0360080285901c16611e5b8587612b43565b612b74565b606081604051602001611e7591815260200190565b6040516020818303038152906040529050919050565b6000611e95610a97565b9050306001600160a01b03821603611eb45761165c8686868686612bc5565b6040517f298314fb0000000000000000000000000000000000000000000000000000000081526001600160a01b0382169063298314fb906116ae9089908990899089908990600401614b70565b60606000611f0d610a97565b9050306001600160a01b03821603611f3457611f2c8787878787612bdb565b915050610f40565b6040517f4dc77d970000000000000000000000000000000000000000000000000000000081526001600160a01b03821690634dc77d9790611f81908a908a908a908a908a90600401614bc1565b600060405180830381865afa158015611f9e573d6000803e3d6000fd5b505050506040513d6000823e601f3d908101601f19168201604052611f2c9190810190614bfa565b6040805160018082528183019092526060916000919060208083019080368337019050509050828160008151811061200057612000614838565b60209081029190910181019190915260408051613a3160f11b928101929092526000602283018190527f54656d706c6174655461626c6573000000000000000000000000000000000000603084015291611d0a9101611cea565b60408051600280825260608083018452600093909283928592602083019080368337019050509050858160008151811061209657612096614838565b60200260200101818152505084816001815181106120b6576120b6614838565b60209081029190910181019190915260408051613a3160f11b928101929092526000602283018190527f54656d706c617465436f6e74656e7400000000000000000000000000000000006030840152918291829161214d91016040516020818303038152906040526121279061484e565b857e200102200000000000000000000000000000000000000000000000000000006119fa565b92509250925061215e838383612ca1565b965096509650505050509250925092565b600061217b8585612cca565b90506000612198828560ff166028026038011c64ffffffffff1690565b90506116e18686868460008888612cdd565b61043285856121b98487612b43565b856130df565b6040805160028082526060820183526000928392919060208301908036833701905050905083816000815181106121f8576121f8614838565b602002602001018181525050828160018151811061221857612218614838565b60209081029190910181019190915260408051613a3160f11b928101929092526000602283018190527f4368617267656500000000000000000000000000000000000000000000000000603084015291610f409101611951565b6040805160028082526060808301845292600092919060208301908036833701905050905083816000815181106122ab576122ab614838565b60200260200101818152505082816001815181106122cb576122cb614838565b60209081029190910181019190915260408051613a3160f11b928101929092526000602283018190527f43686172676572730000000000000000000000000000000000000000000000006030840152916123259101611cea565b9050610f40611d1c8260008451612a4c565b60606000835167ffffffffffffffff81111561235557612355614822565b60405190808252806020026020018201604052801561237e578160200160208202803683370190505b5090506000805b85518110156123fb57848682815181106123a1576123a1614838565b6020026020010151146123f3578581815181106123c0576123c0614838565b60200260200101518383815181106123da576123da614838565b6020908102919091010152816123ef81614c2f565b9250505b600101612385565b5081529392505050565b604080516002808252606082018352600092602083019080368337019050509050838160008151811061243a5761243a614838565b602002602001018181525050828160018151811061245a5761245a614838565b60209081029190910181019190915260408051613a3160f11b92810192909252600060228301527f4368617267657273000000000000000000000000000000000000000000000000603083015261067391015b6040516020818303038152906040526124c59061484e565b8260006124d186613324565b613334565b604080516002808252606082018352600092602083019080368337019050509050828160008151811061250b5761250b614838565b602002602001018181525050818160018151811061252b5761252b614838565b60209081029190910181019190915260408051613a3160f11b92810192909252600060228301527f4368617267657273000000000000000000000000000000000000000000000000603083015261050491015b6040516020818303038152906040526125969061484e565b826133a7565b60408051600280825260608201835260009260208301908036833701905050905083816000815181106125d1576125d1614838565b60200260200101818152505082816001815181106125f1576125f1614838565b60209081029190910181019190915260408051613a3160f11b92810192909252600060228301527f4368617267657273000000000000000000000000000000000000000000000000603083015261067391016104c2565b604080516002808252606082018352600092602083019080368337019050509050838160008151811061267d5761267d614838565b602002602001018181525050828160018151811061269d5761269d614838565b60209081029190910181019190915260408051613a3160f11b92810192909252600060228301527f436861726765650000000000000000000000000000000000000000000000000060308301526106739101610610565b604080516002808252606082018352600092602083019080368337019050509050838160008151811061272957612729614838565b602002602001018181525050828160018151811061274957612749614838565b60209081029190910181019190915260408051613a3160f11b92810192909252600060228301527f436861726765644279537461727400000000000000000000000000000000000060308301526106739101610610565b60606000606060006127b185613442565b90506127be878783613465565b935060006127cb8661349e565b9050801561289d576127dd8888612cca565b935066ffffffffffffff841667ffffffffffffffff81111561280157612801614822565b6040519080825280601f01601f19166020018201604052801561282b576020820181803683370190505b5092506020830160005b828160ff16101561289a57600061284d8b8b846134db565b9050600061286a888460ff166028026038011c64ffffffffff1690565b9050612879828260008761355b565b61288381856148fa565b93505050808061289290614c49565b915050612835565b50505b505093509350939050565b6040805160028082526060808301845292600092919060208301908036833701905050905083816000815181106128e1576128e1614838565b602002602001018181525050828160018151811061290157612901614838565b60209081029190910181019190915260408051613a3160f11b928101929092526000602283018190527f4c6576656c54656d706c61746573496e000000000000000000000000000000006030840152916123259101611cea565b612965838361362a565b612970838383613687565b610504838260000151836020015185613777565b60606000612990610a97565b9050306001600160a01b038216036129b5576129ad858585613851565b915050612a45565b6040517f1e7889770000000000000000000000000000000000000000000000000000000081526001600160a01b03821690631e788977906129fe90889088908890600401614c68565b600060405180830381865afa158015612a1b573d6000803e3d6000fd5b505050506040513d6000823e601f3d908101601f191682016040526129ad9190810190614bfa565b505b9392505050565b6000818311158015612a5f575083518211155b612a9b578383836040517f23230fa30000000000000000000000000000000000000000000000000000000081526004016106ee93929190614c94565b60208401612aa984826148fa565b90506000612ab78585614cb9565b6fffffffffffffffffffffffffffffffff1660809290921b9190911795945050505050565b60606000612a45836020600061388b565b60008282604051602001612b02929190614ccc565b60408051601f1981840301815291905280516020909101207f86425bff6b57326c7859e89024fe4f238ca327a1ae4a230180dd2f0e88aaa7d9189392505050565b600080805b8360ff16811015612a4357612b6a60ff601b83900360080287901c16836148fa565b9150600101612b48565b600060208210612b9a57602082048401935060208281612b9657612b96614d08565b0691505b508254600882021b602082900380841115612a43576001850154600882021c82179150509392505050565b6104328585858585612bd68b613906565b613a34565b60606000612be98787612cca565b90506000612c06828760ff166028026038011c64ffffffffff1690565b90508085101580612c1657508084115b15612c71578081861015612c3457612c2f600186614cb9565b612c36565b855b6040517f7e8578d3000000000000000000000000000000000000000000000000000000008152600481019290925260248201526044016106ee565b6000612c7e8989896134db565b9050612c9481612c8e8888614cb9565b88613d0f565b9998505050505050505050565b6000606080612caf86613d32565b9250612cbb8585613d3f565b93979096509294509192505050565b6000612a45612cd98484613d8e565b5490565b613a3160f11b877fffff0000000000000000000000000000000000000000000000000000000000001614612d6757613a3160f11b8788604051602001612d2591815260200190565b60408051601f19818403018152908290527f31b466830000000000000000000000000000000000000000000000000000000082526106ee939291600401614d1e565b6000612d82828760ff166028026038011c64ffffffffff1690565b9050600083518564ffffffffff1683612d9b9190614cb9565b612da591906148fa565b9050808214158015612dc7575081612dbd8688614d5f565b64ffffffffff1614155b15612e17576040517fa65010b400000000000000000000000000000000000000000000000000000000815264ffffffffff80881660048301528087166024830152831660448201526064016106ee565b818664ffffffffff161115612e68576040517f7e8578d30000000000000000000000000000000000000000000000000000000081526004810183905264ffffffffff871660248201526044016106ee565b6000612e75848984613de4565b905064ffffffffff871660005b8960ff168160ff161015612eb557612ea9868260ff166028026038011c64ffffffffff1690565b90910190600101612e82565b508a7faa63765a776145e5e6492f471ae097dfed11cd57a61bc2679dd43180422385b48b838a868b604051612eee959493929190614d7d565b60405180910390a2506000612f028b613eb2565b905060005b8151811015612fcd576000828281518110612f2457612f24614838565b60200260200101519050612f506010826affffffffffffffffffffff1916613f9290919063ffffffff16565b15612fc457606081901c6001600160a01b03166355eb5a288e8e8e8e8e8a8f6040518863ffffffff1660e01b8152600401612f919796959493929190614dc3565b600060405180830381600087803b158015612fab57600080fd5b505af1158015612fbf573d6000803e3d6000fd5b505050505b50600101612f07565b50828414612fe6576000612fe18c8c613d8e565b839055505b6000612ff38c8c8c6134db565b9050613007818a64ffffffffff1689613fb0565b5060005b81518110156130d157600082828151811061302857613028614838565b602002602001015190506130546020826affffffffffffffffffffff1916613f9290919063ffffffff16565b156130c857606081901c6001600160a01b031663635845338e8e8e8e8e8a8f6040518863ffffffff1660e01b81526004016130959796959493929190614dc3565b600060405180830381600087803b1580156130af57600080fd5b505af11580156130c3573d6000803e3d6000fd5b505050505b5060010161300b565b505050505050505050505050565b60006130eb8585612aed565b9050847f8c0b5119d4cec7b284c6b1b39252a03d1e2f2d7451a5895562524c113bb952be85858560405161312193929190614e21565b60405180910390a2613a3160f11b857fffff000000000000000000000000000000000000000000000000000000000000161461315d5750610673565b600061316886613eb2565b905060005b815181101561323d57600082828151811061318a5761318a614838565b602002602001015190506131b66004826affffffffffffffffffffff1916613f9290919063ffffffff16565b15613234576040517f964f667d000000000000000000000000000000000000000000000000000000008152606082901c9063964f667d90613201908b908b908b908b90600401614e54565b600060405180830381600087803b15801561321b57600080fd5b505af115801561322f573d6000803e3d6000fd5b505050505b5060010161316d565b50613251828565ffffffffffff1685613fb0565b60005b8151811015610e7357600082828151811061327157613271614838565b6020026020010151905061329d6008826affffffffffffffffffffff1916613f9290919063ffffffff16565b1561331b576040517fa8ba8721000000000000000000000000000000000000000000000000000000008152606082901c9063a8ba8721906132e8908b908b908b908b90600401614e54565b600060405180830381600087803b15801561330257600080fd5b505af1158015613316573d6000803e3d6000fd5b505050505b50600101613254565b606081612a458160206000613fc0565b600061333e610a97565b9050306001600160a01b0382160361335c5761118d85858585614014565b6040517fef6ea8620000000000000000000000000000000000000000000000000000000081526001600160a01b0382169063ef6ea862906111dd9088908890889088906004016149e1565b60006133b1610a97565b9050306001600160a01b038216036133cd57610504838361404f565b6040517f505a181d0000000000000000000000000000000000000000000000000000000081526001600160a01b0382169063505a181d906134149086908690600401614e8d565b600060405180830381600087803b15801561342e57600080fd5b505af1158015610e73573d6000803e3d6000fd5b6000600861345260026020614cb9565b61345c9190614ea6565b9190911c919050565b6060816000036134845750604080516020810190915260008152612a45565b60006134908585612aed565b9050610f4081846000613d0f565b600060086001806134b160026020614cb9565b6134bb9190614cb9565b6134c59190614cb9565b6134cf9190614ea6565b8260ff911c1692915050565b600083836040516020016134f0929190614ccc565b604051602081830303815290604052805190602001208260f81b7effffffffffffffffffffffffffffffffffffffffffffffffffffffffffffff19167f3b4102da22e32d82fc925482184f16c09fd4281692720b87d124aef6da48a0f1181860001c90509392505050565b81156135e457602082106135855760208204840193506020828161358157613581614d08565b0691505b81156135e45760208290036000818510156135a95750600019600885021c196135b4565b50600019600882021c195b8554600885021b8119845116828216178452508185116135d5575050610673565b50600194909401939283900392015b5b602083106136065783548152600190930192601f19909201916020016135e5565b8215610673576000600019600885021c198251865482169119161782525050505050565b600061363683836107f9565b90506000613651836119af8685600001518660200151614062565b8051909150156136745761366f84836000015184602001518461415e565b610673565b6106738483600001518460200151614238565b60006136c2826000015183602001516040805160e093841b60208201529190921b602482015281516008818303018152602890910190915290565b604080516002808252606080830184529394506000939284929190602083019080368337019050509050868160008151811061370057613700614838565b602002602001018181525050858160018151811061372057613720614838565b60209081029190910181019190915260408051613a3160f11b92810192909252600060228301527f506f736974696f6e0000000000000000000000000000000000000000000000006030830152610e739101610e52565b604080516003808252608082019092526000916020820160608036833701905050905084816000815181106137ae576137ae614838565b6020026020010181815250508360030b60001b816001815181106137d4576137d4614838565b6020026020010181815250508260030b60001b816002815181106137fa576137fa614838565b60209081029190910181019190915260408051613a3160f11b92810192909252600060228301527f456e7469746965734174506f7369746900000000000000000000000000000000603083015261043291016104c2565b60606103236138618585856134db565b6138848461386f8888612cca565b9060ff166028026038011c64ffffffffff1690565b6000613d0f565b606060006138998560801c90565b90506fffffffffffffffffffffffffffffffff851660008582816138bf576138bf614d08565b04905060405193506020840160208202810160405281855260005b828110156138fa578451871c8252938701936020909101906001016138da565b50505050509392505050565b60408051613a3160f11b60208201527f73746f726500000000000000000000000000000000000000000000000000000060228201527f5461626c6573000000000000000000000000000000000000000000000000000060308201526000910160405160208183030381529060405261397d9061484e565b82036139a957507e60030220202000000000000000000000000000000000000000000000000000919050565b60408051613a3160f11b60208201527f73746f726500000000000000000000000000000000000000000000000000000060228201527f5461626c65730000000000000000000000000000000000000000000000000000603082015261017b91613a2b9101604051602081830303815290604052613a259061484e565b84614312565b60206000612b74565b857f8dbb3a9672eebfd3773e72dd9c102393436816d832c7ba9e1e1ac8fcadcac7a986868686604051613a6a9493929190614ebd565b60405180910390a2613a3160f11b867fffff00000000000000000000000000000000000000000000000000000000000016036116e1576000613aab87613eb2565b905060005b8151811015613b84576000828281518110613acd57613acd614838565b60200260200101519050613af96001826affffffffffffffffffffff1916613f9290919063ffffffff16565b15613b7b576040517f57066c9c000000000000000000000000000000000000000000000000000000008152606082901c906357066c9c90613b48908c908c908c908c908c908c90600401614efc565b600060405180830381600087803b158015613b6257600080fd5b505af1158015613b76573d6000803e3d6000fd5b505050505b50600101613ab0565b506000613b918888612aed565b90506000602087019050613ba9826000838a5161432e565b6000613bb48561349e565b1115613c38576000613bc68a8a613d8e565b878155905060208601915060008060005b613be08861349e565b8160ff161015613c3357613bf58d8d836134db565b9250613c108a8260ff166028026038011c64ffffffffff1690565b9150613c1f836000878561432e565b613c2982866148fa565b9450600101613bd7565b505050505b60005b83518110156116dc576000848281518110613c5857613c58614838565b60200260200101519050613c846002826affffffffffffffffffffff1916613f9290919063ffffffff16565b15613d06576040517f5b28cdaf000000000000000000000000000000000000000000000000000000008152606082901c90635b28cdaf90613cd3908e908e908e908e908e908e90600401614efc565b600060405180830381600087803b158015613ced57600080fd5b505af1158015613d01573d6000803e3d6000fd5b505050505b50600101613c3b565b60405160208101601f19603f8584010116604052838252612a438585858461355b565b602081015160009061017b565b6060806000603885901c64ffffffffff16613d63613d5e868484612a4c565b6143ee565b935090508064ffffffffff606087901c1601613d83613d5e868484612a4c565b925050509250929050565b60008282604051602001613da3929190614ccc565b60408051601f1981840301815291905280516020909101207f14e2fcc58e58e68ec7edc30c8d50dccc3ce2714a623ec81f46b6a63922d76569189392505050565b600064ffffffffff821115613e28576040517f47670588000000000000000000000000000000000000000000000000000000008152600481018390526024016106ee565b8366ffffffffffffff811660ff851660280260380182901c64ffffffffff16808510613e5a5780850382019150613e62565b848103820391505b5064ffffffffff6038602860ff8816020181811b197fffffffffffffffffffffffffffffffffffffffffffffffffff000000000000009490941690921792909216918416901b1790509392505050565b60408051600180825281830190925260609160009190602080830190803683370190505090508281600081518110613eec57613eec614838565b60209081029190910181019190915260408051613a3160f11b818401527f73746f726500000000000000000000000000000000000000000000000000000060228201527f53746f7265486f6f6b730000000000000000000000000000000000000000000060308201528151808203909301835281019052600090613f7b90613f739061484e565b836000613851565b9050610323613f8d8260008451612a4c565b61446e565b60008160ff1682613fa38560581c90565b1660ff1614905092915050565b610504838360208401845161432e565b82516060906000613fd18583614ea6565b9050604051925060208301601f19603f83860101166040528184526000602088015b848210156138fa578051871b83529187019160019190910190602001613ff3565b60006140208585612cca565b9050600061403d828560ff166028026038011c64ffffffffff1690565b90506116e18686866000858888612cdd565b610a93828261405d85613906565b61447f565b6040805160038082526080820190925260609160009190602082018480368337019050509050848160008151811061409c5761409c614838565b6020026020010181815250508360030b60001b816001815181106140c2576140c2614838565b6020026020010181815250508260030b60001b816002815181106140e8576140e8614838565b60209081029190910181019190915260408051613a3160f11b928101929092526000602283018190527f456e7469746965734174506f73697469000000000000000000000000000000006030840152916141429101611cea565b9050614154611d1c8260008451612a4c565b9695505050505050565b6040805160038082526080820190925260009160208201606080368337019050509050848160008151811061419557614195614838565b6020026020010181815250508360030b60001b816001815181106141bb576141bb614838565b6020026020010181815250508260030b60001b816002815181106141e1576141e1614838565b60209081029190910181019190915260408051613a3160f11b92810192909252600060228301527f456e7469746965734174506f7369746900000000000000000000000000000000603083015261043291016124ad565b6040805160038082526080820190925260009160208201606080368337019050509050838160008151811061426f5761426f614838565b6020026020010181815250508260030b60001b8160018151811061429557614295614838565b6020026020010181815250508160030b60001b816002815181106142bb576142bb614838565b60209081029190910181019190915260408051613a3160f11b92810192909252600060228301527f456e7469746965734174506f73697469000000000000000000000000000000006030830152610673910161257e565b6040805160208101849052908101829052600090606001612b02565b82156143a857602083106143585760208304840193506020838161435457614354614d08565b0692505b82156143a85760208390036000600019600884021c1990506008850281811c91508451811c9050811987541682821617875550818311614399575050610673565b50600194909401939182019190035b5b602081106143ca5781518455600190930192602090910190601f19016143a9565b8015610673576000600019600883021c198554845182169119161785555050505050565b606060006143fc8360801c90565b90506fffffffffffffffffffffffffffffffff83168067ffffffffffffffff81111561442a5761442a614822565b6040519080825280601f01601f191660200182016040528015614454576020820181803683370190505b5092506020830161446683828461472b565b505050919050565b60606000612a45836015600061388b565b827f0e1f72f429eb97e64878619984a91e687ae91610348b9ff4216782cc96e49d07836040516144af9190614f55565b60405180910390a2613a3160f11b837fffff00000000000000000000000000000000000000000000000000000000000016146144ea57505050565b60006144f584613eb2565b905060005b81518110156145c857600082828151811061451757614517614838565b602002602001015190506145436040826affffffffffffffffffffff1916613f9290919063ffffffff16565b156145bf576040517f9faeaf45000000000000000000000000000000000000000000000000000000008152606082901c90639faeaf459061458c90899089908990600401614a5c565b600060405180830381600087803b1580156145a657600080fd5b505af11580156145ba573d6000803e3d6000fd5b505050505b506001016144fa565b5060006145d58585612aed565b905061462e8160006145e686613442565b67ffffffffffffffff8111156145fe576145fe614822565b6040519080825280601f01601f191660200182016040528015614628576020820181803683370190505b50613fb0565b60006146398461349e565b111561465a57600061464b8686613d8e565b9050614658816020614777565b505b60005b82518110156116e157600083828151811061467a5761467a614838565b602002602001015190506146a66080826affffffffffffffffffffff1916613f9290919063ffffffff16565b15614722576040517f83b5c95b000000000000000000000000000000000000000000000000000000008152606082901c906383b5c95b906146ef908a908a908a90600401614a5c565b600060405180830381600087803b15801561470957600080fd5b505af115801561471d573d6000803e3d6000fd5b505050505b5060010161465d565b5b6020811061474b578251825260209283019290910190601f190161472c565b8060000361475857505050565b6000600019600883021c19905080198351168185511617835250505050565b6000602061478683601f6148fa565b6147909190614f68565b61479a90846148fa565b90505b80831015610504576000835560018301925061479d565b6000602082840312156147c657600080fd5b81357fffffffff0000000000000000000000000000000000000000000000000000000081168114612a4557600080fd5b60008060006060848603121561480b57600080fd5b505081359360208301359350604090920135919050565b634e487b7160e01b600052604160045260246000fd5b634e487b7160e01b600052603260045260246000fd5b805160208083015191908110156103625760001960209190910360031b1b16919050565b634e487b7160e01b600052601160045260246000fd5b63ffffffff8181168382160190808211156148a5576148a5614872565b5092915050565b600382810b9082900b03637fffffff198112637fffffff8213171561017b5761017b614872565b600381810b9083900b01637fffffff8113637fffffff198212171561017b5761017b614872565b8082018082111561017b5761017b614872565b60008151808452602080850194506020840160005b8381101561493e57815187529582019590820190600101614922565b509495945050505050565b848152608060208201526000614962608083018661490d565b60ff949094166040830152506060015292915050565b60006020828403121561498a57600080fd5b5051919050565b60005b838110156149ac578181015183820152602001614994565b50506000910152565b600081518084526149cd816020860160208601614991565b601f01601f19169290920160200192915050565b8481526080602082015260006149fa608083018661490d565b60ff85166040840152828103606084015261093381856149b5565b85815260a060208201526000614a2e60a083018761490d565b60ff861660408401528281036060840152614a4981866149b5565b9150508260808301529695505050505050565b838152606060208201526000614a75606083018561490d565b9050826040830152949350505050565b600082601f830112614a9657600080fd5b815167ffffffffffffffff80821115614ab157614ab1614822565b604051601f8301601f19908116603f01168101908282118183101715614ad957614ad9614822565b81604052838152866020858801011115614af257600080fd5b614154846020830160208901614991565b600080600060608486031215614b1857600080fd5b835167ffffffffffffffff80821115614b3057600080fd5b614b3c87838801614a85565b9450602086015193506040860151915080821115614b5957600080fd5b50614b6686828701614a85565b9150509250925092565b85815260a060208201526000614b8960a083018761490d565b8281036040840152614b9b81876149b5565b90508460608401528281036080840152614bb581856149b5565b98975050505050505050565b85815260a060208201526000614bda60a083018761490d565b60ff95909516604083015250606081019290925260809091015292915050565b600060208284031215614c0c57600080fd5b815167ffffffffffffffff811115614c2357600080fd5b61032384828501614a85565b60006000198203614c4257614c42614872565b5060010190565b600060ff821660ff8103614c5f57614c5f614872565b60010192915050565b838152606060208201526000614c81606083018561490d565b905060ff83166040830152949350505050565b606081526000614ca760608301866149b5565b60208301949094525060400152919050565b8181038181111561017b5761017b614872565b8281526000602080830184516020860160005b82811015614cfb57815184529284019290840190600101614cdf565b5091979650505050505050565b634e487b7160e01b600052601260045260246000fd5b7fffff00000000000000000000000000000000000000000000000000000000000084168152826020820152606060408201526000610f4060608301846149b5565b64ffffffffff8181168382160190808211156148a5576148a5614872565b60a081526000614d9060a083018861490d565b65ffffffffffff8716602084015264ffffffffff861660408401528460608401528281036080840152614bb581856149b5565b87815260e060208201526000614ddc60e083018961490d565b60ff8816604084015264ffffffffff87811660608501528616608084015260a0830185905282810360c0840152614e1381856149b5565b9a9950505050505050505050565b606081526000614e34606083018661490d565b65ffffffffffff85166020840152828103604084015261415481856149b5565b848152608060208201526000614e6d608083018661490d565b65ffffffffffff85166040840152828103606084015261093381856149b5565b828152604060208201526000610323604083018461490d565b808202811582820484141761017b5761017b614872565b608081526000614ed0608083018761490d565b8281036020840152614ee281876149b5565b9050846040840152828103606084015261093381856149b5565b86815260c060208201526000614f1560c083018861490d565b8281036040840152614f2781886149b5565b90508560608401528281036080840152614f4181866149b5565b9150508260a0830152979650505050505050565b602081526000612a45602083018461490d565b600082614f8557634e487b7160e01b600052601260045260246000fd5b50049056fea2646970667358221220571721fcbf0fbb4a3a61f53655e2fcce7696fdffce258a5361b1b099b492480964736f6c63430008170033","linkReferences":{}},"methodIdentifiers":{"_msgSender()":"119df25f","_msgValue()":"45ec9354","_world()":"e1af802c","setup(bytes32,uint256,bytes32)":"3a1976fb","supportsInterface(bytes4)":"01ffc9a7"},"id":460}