{"abi":[{"type":"function","name":"_msgSender","inputs":[],"outputs":[{"name":"sender","type":"address","internalType":"address"}],"stateMutability":"view"},{"type":"function","name":"_msgValue","inputs":[],"outputs":[{"name":"value","type":"uint256","internalType":"uint256"}],"stateMutability":"pure"},{"type":"function","name":"_world","inputs":[],"outputs":[{"name":"","type":"address","internalType":"address"}],"stateMutability":"view"},{"type":"function","name":"copyMap","inputs":[{"name":"matchEntity","type":"bytes32","internalType":"bytes32"}],"outputs":[],"stateMutability":"nonpayable"},{"type":"function","name":"supportsInterface","inputs":[{"name":"interfaceId","type":"bytes4","internalType":"bytes4"}],"outputs":[{"name":"","type":"bool","internalType":"bool"}],"stateMutability":"pure"},{"type":"event","name":"Store_SetRecord","inputs":[{"name":"tableId","type":"bytes32","indexed":true,"internalType":"ResourceId"},{"name":"keyTuple","type":"bytes32[]","indexed":false,"internalType":"bytes32[]"},{"name":"staticData","type":"bytes","indexed":false,"internalType":"bytes"},{"name":"encodedLengths","type":"bytes32","indexed":false,"internalType":"PackedCounter"},{"name":"dynamicData","type":"bytes","indexed":false,"internalType":"bytes"}],"anonymous":false},{"type":"event","name":"Store_SpliceStaticData","inputs":[{"name":"tableId","type":"bytes32","indexed":true,"internalType":"ResourceId"},{"name":"keyTuple","type":"bytes32[]","indexed":false,"internalType":"bytes32[]"},{"name":"start","type":"uint48","indexed":false,"internalType":"uint48"},{"name":"data","type":"bytes","indexed":false,"internalType":"bytes"}],"anonymous":false},{"type":"error","name":"Slice_OutOfBounds","inputs":[{"name":"data","type":"bytes","internalType":"bytes"},{"name":"start","type":"uint256","internalType":"uint256"},{"name":"end","type":"uint256","internalType":"uint256"}]},{"type":"error","name":"Store_IndexOutOfBounds","inputs":[{"name":"length","type":"uint256","internalType":"uint256"},{"name":"accessedIndex","type":"uint256","internalType":"uint256"}]}],"bytecode":{"object":"0x608060405234801561001057600080fd5b50613229806100206000396000f3fe608060405234801561001057600080fd5b50600436106100675760003560e01c806345ec93541161005057806345ec9354146100b4578063e1af802c146100c7578063f29bced0146100cf57600080fd5b806301ffc9a71461006c578063119df25f14610094575b600080fd5b61007f61007a366004612bee565b6100e4565b60405190151581526020015b60405180910390f35b61009c61017d565b6040516001600160a01b03909116815260200161008b565b604051601f19360135815260200161008b565b61009c61018c565b6100e26100dd366004612c30565b610196565b005b60007fffffffff0000000000000000000000000000000000000000000000000000000082167fb421288000000000000000000000000000000000000000000000000000000000148061017757507fffffffff0000000000000000000000000000000000000000000000000000000082167f01ffc9a700000000000000000000000000000000000000000000000000000000145b92915050565b600061018761028e565b905090565b60006101876102c0565b60006101a1826102ff565b905060006101ae836103d6565b905060006101bb826104a4565b90508260006101cc6103e883612c5f565b9050828111156101d95750815b815b818110156102585760006101ef868361055f565b90507f537061776e536574746c656d656e740000000000000000000000000000000000811415801561022757506102258161062c565b155b1561024f57600061023789610706565b905061024d87846102488c85610743565b6107a9565b505b506001016101db565b506102638682610814565b828103610286576102748642610905565b61027d86610992565b610286866109f9565b505050505050565b7fffffffffffffffffffffffffffffffffffffffffffffffffffffffffffffffcc36013560601c806102bd5750335b90565b7f629a4c26e296b22a8e0856e9f6ecb2d1008d7e00081111962cd175fa7488e175546000906001600160a01b0316806102fa573391505090565b919050565b60408051600180825281830190925260009182919060208083019080368337019050509050828160008151811061033857610338612c88565b60209081029190910181019190915260408051613a3160f11b928101929092526000602283018190527f4d617463684d6170436f707950726f67000000000000000000000000000000006030840152916103ce91015b6040516020818303038152906040526103a690612c9e565b8360007e20010020000000000000000000000000000000000000000000000000000000610ac8565b949350505050565b60408051600180825281830190925260009182919060208083019080368337019050509050828160008151811061040f5761040f612c88565b60209081029190910181019190915260408051613a3160f11b928101929092526000602283018190527f4d61746368436f6e6669670000000000000000000000000000000000000000006030840152916103ce910160405160208183030381529060405261047c90612c9e565b8360037eb4060020202020201400000000000000000000000000000000000000000000610ac8565b6040805160018082528183019092526000918291906020808301908036833701905050905082816000815181106104dd576104dd612c88565b60209081029190910181019190915260408051613a3160f11b928101929092526000602283018190527f4c6576656c54656d706c6174657300000000000000000000000000000000000060308401529161055391015b60405160208183030381529060405261054b90612c9e565b836000610b85565b60209004949350505050565b60408051600180825281830190925260009182919060208083019080368337019050509050838160008151811061059857610598612c88565b60209081029190910181019190915260408051613a3160f11b928101929092526000602283018190527f4c6576656c54656d706c61746573000000000000000000000000000000000000603084015291610618910160405160208183030381529060405261060590612c9e565b8360008760200288600101602002610c48565b905061062381612c9e565b95945050505050565b60408051600180825281830190925260009182919060208083019080368337019050509050828160008151811061066557610665612c88565b60209081029190910181019190915260408051613a3160f11b928101929092526000602283018190527f5669727475616c4c6576656c54656d70000000000000000000000000000000006030840152916106fa91016040516020818303038152906040526106d290612c9e565b8360007e01010001000000000000000000000000000000000000000000000000000000610ac8565b90506103ce8160f81c90565b60008061071283610d0d565b61071d906001612cd8565b90506107298382610de6565b63ffffffff8116915061073d838381610eed565b50919050565b6040805160028082526060808301845292602083019080368337019050509050828160008151811061077757610777612c88565b602002602001018181525050818160018151811061079757610797612c88565b60200260200101818152505092915050565b6107bc6107b6848461055f565b82610fee565b6000806107c98585611057565b9150915061080d836000815181106107e3576107e3612c88565b6020026020010151846001815181106107fe576107fe612c88565b6020026020010151848461116d565b5050505050565b60408051600180825281830190925260009160208083019080368337019050509050828160008151811061084a5761084a612c88565b60209081029190910181019190915260408051613a3160f11b92810192909252600060228301527f4d617463684d6170436f707950726f6700000000000000000000000000000000603083015261090091015b6040516020818303038152906040526108b590612c9e565b826000856040516020016108cb91815260200190565b60408051601f198184030181529190527e2001002000000000000000000000000000000000000000000000000000000061124d565b505050565b60408051600180825281830190925260009160208083019080368337019050509050828160008151811061093b5761093b612c88565b60209081029190910181019190915260408051613a3160f11b92810192909252600060228301527f4d617463685265616479000000000000000000000000000000000000000000006030830152610900910161089d565b600061099d82611302565b905080158015906109ae5750804210155b156109f55760006109be836103d6565b905060006109cb84611395565b90506109d68261145c565b518151036109f2576109f2846109ed607842612c5f565b611488565b50505b5050565b6000610a0482611302565b90508015801590610a155750804210155b156109f5576000610a25836103d6565b90506000610a3284611395565b90506000805b8251811015610a88576000838281518110610a5557610a55612c88565b602002602001015190506000610a6b888361156e565b1115610a7f5782610a7b81612cfc565b9350505b50600101610a38565b50610ab3837f537061776e536574746c656d656e740000000000000000000000000000000000611621565b810361080d5761080d856109ed600542612c5f565b600080610ad36102c0565b9050306001600160a01b03821603610af957610af1868686866116e1565b9150506103ce565b6040517f8c364d590000000000000000000000000000000000000000000000000000000081526001600160a01b03821690638c364d5990610b44908990899089908990600401612d52565b602060405180830381865afa158015610b61573d6000803e3d6000fd5b505050506040513d601f19601f82011682018060405250810190610af19190612d81565b600080610b906102c0565b9050306001600160a01b03821603610bb557610bad85858561170e565b915050610c41565b6040517fdbbf0e210000000000000000000000000000000000000000000000000000000081526001600160a01b0382169063dbbf0e2190610bfe90889088908890600401612d9a565b602060405180830381865afa158015610c1b573d6000803e3d6000fd5b505050506040513d601f19601f82011682018060405250810190610bad9190612d81565b505b9392505050565b60606000610c546102c0565b9050306001600160a01b03821603610c7b57610c738787878787611733565b915050610623565b6040517f4dc77d970000000000000000000000000000000000000000000000000000000081526001600160a01b03821690634dc77d9790610cc8908a908a908a908a908a90600401612dc6565b600060405180830381865afa158015610ce5573d6000803e3d6000fd5b505050506040513d6000823e601f3d908101601f19168201604052610c739190810190612eab565b604080516001808252818301909252600091829190602080830190803683370190505090508281600081518110610d4657610d46612c88565b60209081029190910181019190915260408051613a3160f11b928101929092526000602283018190527f4d61746368456e74697479436f756e7400000000000000000000000000000000603084015291610ddb9101604051602081830303815290604052610db390612c9e565b8360007e04010004000000000000000000000000000000000000000000000000000000610ac8565b60e01c949350505050565b604080516001808252818301909252600091602080830190803683370190505090508281600081518110610e1c57610e1c612c88565b60209081029190910181019190915260408051613a3160f11b81840152600060228201527f4d61746368456e74697479436f756e74000000000000000000000000000000006030820152815180820390930183528101905261090090610e8190612c9e565b6040517fffffffff0000000000000000000000000000000000000000000000000000000060e086901b166020820152839060009060240160408051601f198184030181529190527e0401000400000000000000000000000000000000000000000000000000000061124d565b6000610ef8826117fe565b6040805160028082526060808301845293945060009392849291906020830190803683370190505090508681600081518110610f3657610f36612c88565b6020026020010181815250508581600181518110610f5657610f56612c88565b602090810291909101810191909152604080517f6f7400000000000000000000000000000000000000000000000000000000000092810192909252600060228301527f4d617463680000000000000000000000000000000000000000000000000000006030830152610fe591015b604051602081830303815290604052610fdc90612c9e565b82868686611829565b50505050505050565b6000610ff98361189f565b905060005b81518110156109f257600082828151811061101b5761101b612c88565b6020026020010151905060008060006110348885611933565b9250925092506110478488848685611829565b505060019092019150610ffe9050565b604080516002808252606082018352600092839283929091602083019080368337019050509050848160008151811061109257611092612c88565b6020026020010181815250508360001b816001815181106110b5576110b5612c88565b60209081029190910181019190915260408051613a3160f11b928101929092526000602283018190527f4c6576656c506f736974696f6e000000000000000000000000000000000000006030840152918291829161114c910160405160208183030381529060405261112690612c9e565b857e08020004040000000000000000000000000000000000000000000000000000611a48565b5050602081015160249091015160e091821c9a911c98509650505050505050565b6040805160e084811b602083015283901b6024820152815160088183030181526002602883018181526088840185529193600093606093859390929091604801908036833701905050905087816000815181106111cc576111cc612c88565b60200260200101818152505086816001815181106111ec576111ec612c88565b60209081029190910181019190915260408051613a3160f11b92810192909252600060228301527f506f736974696f6e00000000000000000000000000000000000000000000000060308301526112439101610fc4565b5050505050505050565b60006112576102c0565b9050306001600160a01b0382160361127b576112768686868686611b18565b610286565b6040517f390baae00000000000000000000000000000000000000000000000000000000081526001600160a01b0382169063390baae0906112c89089908990899089908990600401612f0c565b600060405180830381600087803b1580156112e257600080fd5b505af11580156112f6573d6000803e3d6000fd5b50505050505050505050565b60408051600180825281830190925260009182919060208083019080368337019050509050828160008151811061133b5761133b612c88565b60209081029190910181019190915260408051613a3160f11b928101929092526000602283018190527f4d617463685265616479000000000000000000000000000000000000000000006030840152916103ce910161038e565b604080516001808252818301909252606091600091906020808301908036833701905050905082816000815181106113cf576113cf612c88565b60209081029190910181019190915260408051613a3160f11b928101929092526000602283018190527f4d61746368506c6179657273000000000000000000000000000000000000000060308401529161144591015b60405160208183030381529060405261143d90612c9e565b836000611b2d565b90506103ce6114578260008451611be4565b611c74565b6060610177827f537061776e536574746c656d656e740000000000000000000000000000000000611c85565b6040805160018082528183019092526000916020808301908036833701905050905082816000815181106114be576114be612c88565b60209081029190910181019190915260408051613a3160f11b81840152600060228201527f4d61746368436f6e666967000000000000000000000000000000000000000000603082015281518082039093018352810190526109009061152390612c9e565b8260018560405160200161153991815260200190565b60408051601f198184030181529190527eb406002020202020140000000000000000000000000000000000000000000061124d565b6040805160028082526060820183526000928392919060208301908036833701905050905083816000815181106115a7576115a7612c88565b60200260200101818152505082816001815181106115c7576115c7612c88565b60209081029190910181019190915260408051613a3160f11b928101929092526000602283018190527f506c617965725265616479000000000000000000000000000000000000000000603084015291610623910161038e565b60408051600280825260608201835260009283929190602083019080368337019050509050838160008151811061165a5761165a612c88565b602002602001018181525050828160018151811061167a5761167a612c88565b60209081029190910181019190915260408051613a3160f11b928101929092526000602283018190527f4c6576656c54656d706c61746573496e000000000000000000000000000000006030840152916116d49101610533565b6020900495945050505050565b60006106236116f08686611d4a565b60ff858116601b0360080285901c166117098587611da0565b611dd1565b60006103ce8261171e8686611e22565b9060ff166028026038011c64ffffffffff1690565b606060006117418787611e22565b9050600061175e828760ff166028026038011c64ffffffffff1690565b9050808510158061176e57508084115b156117ce57808186101561178c57611787600186612f53565b61178e565b855b6040517f7e8578d3000000000000000000000000000000000000000000000000000000008152600481019290925260248201526044015b60405180910390fd5b60006117db898989611e35565b90506117f1816117eb8888612f53565b88611eb5565b9998505050505050505050565b60608160405160200161181391815260200190565b6040516020818303038152906040529050919050565b60006118336102c0565b9050306001600160a01b03821603611852576112768686868686611ed8565b6040517f298314fb0000000000000000000000000000000000000000000000000000000081526001600160a01b0382169063298314fb906112c89089908990899089908990600401612f66565b604080516001808252818301909252606091600091906020808301908036833701905050905082816000815181106118d9576118d9612c88565b60209081029190910181019190915260408051613a3160f11b928101929092526000602283018190527f54656d706c6174655461626c65730000000000000000000000000000000000006030840152916114459101611425565b60408051600280825260608083018452600093909283928592602083019080368337019050509050858160008151811061196f5761196f612c88565b602002602001018181525050848160018151811061198f5761198f612c88565b60209081029190910181019190915260408051613a3160f11b928101929092526000602283018190527f54656d706c617465436f6e74656e74000000000000000000000000000000000060308401529182918291611a269101604051602081830303815290604052611a0090612c9e565b857e20010220000000000000000000000000000000000000000000000000000000611a48565b925092509250611a37838383611eee565b965096509650505050509250925092565b6060600060606000611a586102c0565b9050306001600160a01b03821603611a8157611a75878787611f17565b93509350935050611b0f565b6040517f419b58fd0000000000000000000000000000000000000000000000000000000081526001600160a01b0382169063419b58fd90611aca908a908a908a90600401612fb7565b600060405180830381865afa158015611ae7573d6000803e3d6000fd5b505050506040513d6000823e601f3d908101601f19168201604052611a759190810190612fe0565b93509350939050565b61080d8585611b278487611da0565b8561201f565b60606000611b396102c0565b9050306001600160a01b03821603611b5657610bad858585612264565b6040517f1e7889770000000000000000000000000000000000000000000000000000000081526001600160a01b03821690631e78897790611b9f90889088908890600401612d9a565b600060405180830381865afa158015611bbc573d6000803e3d6000fd5b505050506040513d6000823e601f3d908101601f19168201604052610bad9190810190612eab565b6000818311158015611bf7575083518211155b611c33578383836040517f23230fa30000000000000000000000000000000000000000000000000000000081526004016117c59392919061304d565b60208401611c418482612c5f565b90506000611c4f8585612f53565b6fffffffffffffffffffffffffffffffff1660809290921b9190911795945050505050565b60606000610c418360206000612289565b604080516002808252606080830184529260009291906020830190803683370190505090508381600081518110611cbe57611cbe612c88565b6020026020010181815250508281600181518110611cde57611cde612c88565b60209081029190910181019190915260408051613a3160f11b928101929092526000602283018190527f4c6576656c54656d706c61746573496e00000000000000000000000000000000603084015291611d389101611425565b90506106236114578260008451611be4565b60008282604051602001611d5f929190613072565b60408051601f1981840301815291905280516020909101207f86425bff6b57326c7859e89024fe4f238ca327a1ae4a230180dd2f0e88aaa7d9189392505050565b600080805b8360ff16811015610c3f57611dc760ff601b83900360080287901c1683612c5f565b9150600101611da5565b600060208210611df757602082048401935060208281611df357611df3612cc2565b0691505b508254600882021b602082900380841115610c3f576001850154600882021c82179150509392505050565b6000610c41611e318484612304565b5490565b60008383604051602001611e4a929190613072565b604051602081830303815290604052805190602001208260f81b7effffffffffffffffffffffffffffffffffffffffffffffffffffffffffffff19167f3b4102da22e32d82fc925482184f16c09fd4281692720b87d124aef6da48a0f1181860001c90509392505050565b60405160208101601f19603f8584010116604052838252610c3f8585858461235a565b61080d8585858585611ee98b612429565b612557565b6000606080611efc86612832565b9250611f08858561283f565b93979096509294509192505050565b6060600060606000611f288561288e565b9050611f358787836128b1565b93506000611f42866128ea565b9050801561201457611f548888611e22565b935066ffffffffffffff841667ffffffffffffffff811115611f7857611f78612c72565b6040519080825280601f01601f191660200182016040528015611fa2576020820181803683370190505b5092506020830160005b828160ff161015612011576000611fc48b8b84611e35565b90506000611fe1888460ff166028026038011c64ffffffffff1690565b9050611ff0828260008761235a565b611ffa8185612c5f565b935050508080612009906130ae565b915050611fac565b50505b505093509350939050565b600061202b8585611d4a565b9050847f8c0b5119d4cec7b284c6b1b39252a03d1e2f2d7451a5895562524c113bb952be858585604051612061939291906130cd565b60405180910390a2613a3160f11b857fffff000000000000000000000000000000000000000000000000000000000000161461209d57506109f2565b60006120a886612927565b905060005b815181101561217d5760008282815181106120ca576120ca612c88565b602002602001015190506120f66004826affffffffffffffffffffff1916612a0790919063ffffffff16565b15612174576040517f964f667d000000000000000000000000000000000000000000000000000000008152606082901c9063964f667d90612141908b908b908b908b90600401613100565b600060405180830381600087803b15801561215b57600080fd5b505af115801561216f573d6000803e3d6000fd5b505050505b506001016120ad565b50612191828565ffffffffffff1685612a25565b60005b8151811015610fe55760008282815181106121b1576121b1612c88565b602002602001015190506121dd6008826affffffffffffffffffffff1916612a0790919063ffffffff16565b1561225b576040517fa8ba8721000000000000000000000000000000000000000000000000000000008152606082901c9063a8ba872190612228908b908b908b908b90600401613100565b600060405180830381600087803b15801561224257600080fd5b505af1158015612256573d6000803e3d6000fd5b505050505b50600101612194565b60606103ce612274858585611e35565b6122828461171e8888611e22565b6000611eb5565b606060006122978560801c90565b90506fffffffffffffffffffffffffffffffff851660008582816122bd576122bd612cc2565b04905060405193506020840160208202810160405281855260005b828110156122f8578451871c8252938701936020909101906001016122d8565b50505050509392505050565b60008282604051602001612319929190613072565b60408051601f1981840301815291905280516020909101207f14e2fcc58e58e68ec7edc30c8d50dccc3ce2714a623ec81f46b6a63922d76569189392505050565b81156123e357602082106123845760208204840193506020828161238057612380612cc2565b0691505b81156123e35760208290036000818510156123a85750600019600885021c196123b3565b50600019600882021c195b8554600885021b8119845116828216178452508185116123d45750506109f2565b50600194909401939283900392015b5b602083106124055783548152600190930192601f19909201916020016123e4565b82156109f2576000600019600885021c198251865482169119161782525050505050565b60408051613a3160f11b60208201527f73746f726500000000000000000000000000000000000000000000000000000060228201527f5461626c657300000000000000000000000000000000000000000000000000006030820152600091016040516020818303038152906040526124a090612c9e565b82036124cc57507e60030220202000000000000000000000000000000000000000000000000000919050565b60408051613a3160f11b60208201527f73746f726500000000000000000000000000000000000000000000000000000060228201527f5461626c6573000000000000000000000000000000000000000000000000000060308201526101779161254e910160405160208183030381529060405261254890612c9e565b84612a35565b60206000611dd1565b857f8dbb3a9672eebfd3773e72dd9c102393436816d832c7ba9e1e1ac8fcadcac7a98686868660405161258d9493929190613144565b60405180910390a2613a3160f11b867fffff00000000000000000000000000000000000000000000000000000000000016036102865760006125ce87612927565b905060005b81518110156126a75760008282815181106125f0576125f0612c88565b6020026020010151905061261c6001826affffffffffffffffffffff1916612a0790919063ffffffff16565b1561269e576040517f57066c9c000000000000000000000000000000000000000000000000000000008152606082901c906357066c9c9061266b908c908c908c908c908c908c90600401613183565b600060405180830381600087803b15801561268557600080fd5b505af1158015612699573d6000803e3d6000fd5b505050505b506001016125d3565b5060006126b48888611d4a565b905060006020870190506126cc826000838a51612a51565b60006126d7856128ea565b111561275b5760006126e98a8a612304565b878155905060208601915060008060005b612703886128ea565b8160ff161015612756576127188d8d83611e35565b92506127338a8260ff166028026038011c64ffffffffff1690565b91506127428360008785612a51565b61274c8286612c5f565b94506001016126fa565b505050505b60005b83518110156112f657600084828151811061277b5761277b612c88565b602002602001015190506127a76002826affffffffffffffffffffff1916612a0790919063ffffffff16565b15612829576040517f5b28cdaf000000000000000000000000000000000000000000000000000000008152606082901c90635b28cdaf906127f6908e908e908e908e908e908e90600401613183565b600060405180830381600087803b15801561281057600080fd5b505af1158015612824573d6000803e3d6000fd5b505050505b5060010161275e565b6020810151600090610177565b6060806000603885901c64ffffffffff1661286361285e868484611be4565b612b11565b935090508064ffffffffff606087901c160161288361285e868484611be4565b925050509250929050565b6000600861289e60026020612f53565b6128a891906131dc565b9190911c919050565b6060816000036128d05750604080516020810190915260008152610c41565b60006128dc8585611d4a565b905061062381846000611eb5565b600060086001806128fd60026020612f53565b6129079190612f53565b6129119190612f53565b61291b91906131dc565b8260ff911c1692915050565b6040805160018082528183019092526060916000919060208083019080368337019050509050828160008151811061296157612961612c88565b60209081029190910181019190915260408051613a3160f11b818401527f73746f726500000000000000000000000000000000000000000000000000000060228201527f53746f7265486f6f6b7300000000000000000000000000000000000000000000603082015281518082039093018352810190526000906129f0906129e890612c9e565b836000612264565b90506103ce612a028260008451611be4565b612b91565b60008160ff1682612a188560581c90565b1660ff1614905092915050565b6109008383602084018451612a51565b6040805160208101849052908101829052600090606001611d5f565b8215612acb5760208310612a7b57602083048401935060208381612a7757612a77612cc2565b0692505b8215612acb5760208390036000600019600884021c1990506008850281811c91508451811c9050811987541682821617875550818311612abc5750506109f2565b50600194909401939182019190035b5b60208110612aed5781518455600190930192602090910190601f1901612acc565b80156109f2576000600019600883021c198554845182169119161785555050505050565b60606000612b1f8360801c90565b90506fffffffffffffffffffffffffffffffff83168067ffffffffffffffff811115612b4d57612b4d612c72565b6040519080825280601f01601f191660200182016040528015612b77576020820181803683370190505b50925060208301612b89838284612ba2565b505050919050565b60606000610c418360156000612289565b5b60208110612bc2578251825260209283019290910190601f1901612ba3565b80600003612bcf57505050565b6000600019600883021c19905080198351168185511617835250505050565b600060208284031215612c0057600080fd5b81357fffffffff0000000000000000000000000000000000000000000000000000000081168114610c4157600080fd5b600060208284031215612c4257600080fd5b5035919050565b634e487b7160e01b600052601160045260246000fd5b8082018082111561017757610177612c49565b634e487b7160e01b600052604160045260246000fd5b634e487b7160e01b600052603260045260246000fd5b8051602080830151919081101561073d5760001960209190910360031b1b16919050565b634e487b7160e01b600052601260045260246000fd5b63ffffffff818116838216019080821115612cf557612cf5612c49565b5092915050565b60006000198203612d0f57612d0f612c49565b5060010190565b60008151808452602080850194506020840160005b83811015612d4757815187529582019590820190600101612d2b565b509495945050505050565b848152608060208201526000612d6b6080830186612d16565b60ff949094166040830152506060015292915050565b600060208284031215612d9357600080fd5b5051919050565b838152606060208201526000612db36060830185612d16565b905060ff83166040830152949350505050565b85815260a060208201526000612ddf60a0830187612d16565b60ff95909516604083015250606081019290925260809091015292915050565b60005b83811015612e1a578181015183820152602001612e02565b50506000910152565b600082601f830112612e3457600080fd5b815167ffffffffffffffff80821115612e4f57612e4f612c72565b604051601f8301601f19908116603f01168101908282118183101715612e7757612e77612c72565b81604052838152866020858801011115612e9057600080fd5b612ea1846020830160208901612dff565b9695505050505050565b600060208284031215612ebd57600080fd5b815167ffffffffffffffff811115612ed457600080fd5b6103ce84828501612e23565b60008151808452612ef8816020860160208601612dff565b601f01601f19169290920160200192915050565b85815260a060208201526000612f2560a0830187612d16565b60ff861660408401528281036060840152612f408186612ee0565b9150508260808301529695505050505050565b8181038181111561017757610177612c49565b85815260a060208201526000612f7f60a0830187612d16565b8281036040840152612f918187612ee0565b90508460608401528281036080840152612fab8185612ee0565b98975050505050505050565b838152606060208201526000612fd06060830185612d16565b9050826040830152949350505050565b600080600060608486031215612ff557600080fd5b835167ffffffffffffffff8082111561300d57600080fd5b61301987838801612e23565b945060208601519350604086015191508082111561303657600080fd5b5061304386828701612e23565b9150509250925092565b6060815260006130606060830186612ee0565b60208301949094525060400152919050565b8281526000602080830184516020860160005b828110156130a157815184529284019290840190600101613085565b5091979650505050505050565b600060ff821660ff81036130c4576130c4612c49565b60010192915050565b6060815260006130e06060830186612d16565b65ffffffffffff851660208401528281036040840152612ea18185612ee0565b8481526080602082015260006131196080830186612d16565b65ffffffffffff8516604084015282810360608401526131398185612ee0565b979650505050505050565b6080815260006131576080830187612d16565b82810360208401526131698187612ee0565b905084604084015282810360608401526131398185612ee0565b86815260c06020820152600061319c60c0830188612d16565b82810360408401526131ae8188612ee0565b905085606084015282810360808401526131c88186612ee0565b9150508260a0830152979650505050505050565b808202811582820484141761017757610177612c4956fea264697066735822122075b01311c9879154d356524564010a45084f2358e343c797a2c18cf031b7bcd864736f6c63430008170033","linkReferences":{}},"methodIdentifiers":{"_msgSender()":"119df25f","_msgValue()":"45ec9354","_world()":"e1af802c","copyMap(bytes32)":"f29bced0","supportsInterface(bytes4)":"01ffc9a7"},"id":447}