{"abi":[{"type":"function","name":"_msgSender","inputs":[],"outputs":[{"name":"sender","type":"address","internalType":"address"}],"stateMutability":"view"},{"type":"function","name":"_msgValue","inputs":[],"outputs":[{"name":"value","type":"uint256","internalType":"uint256"}],"stateMutability":"pure"},{"type":"function","name":"_world","inputs":[],"outputs":[{"name":"","type":"address","internalType":"address"}],"stateMutability":"view"},{"type":"function","name":"createNewSeasonPass","inputs":[{"name":"name","type":"bytes14","internalType":"bytes14"},{"name":"seasonStart","type":"uint256","internalType":"uint256"},{"name":"seasonEnd","type":"uint256","internalType":"uint256"},{"name":"mintEnd","type":"uint256","internalType":"uint256"},{"name":"priceDecreaseRate","type":"uint256","internalType":"uint256"},{"name":"startingPrice","type":"uint256","internalType":"uint256"},{"name":"minPrice","type":"uint256","internalType":"uint256"},{"name":"buyMultiplier","type":"uint256","internalType":"uint256"}],"outputs":[],"stateMutability":"nonpayable"},{"type":"function","name":"supportsInterface","inputs":[{"name":"interfaceId","type":"bytes4","internalType":"bytes4"}],"outputs":[{"name":"","type":"bool","internalType":"bool"}],"stateMutability":"pure"},{"type":"event","name":"Store_SpliceDynamicData","inputs":[{"name":"tableId","type":"bytes32","indexed":true,"internalType":"ResourceId"},{"name":"keyTuple","type":"bytes32[]","indexed":false,"internalType":"bytes32[]"},{"name":"start","type":"uint48","indexed":false,"internalType":"uint48"},{"name":"deleteCount","type":"uint40","indexed":false,"internalType":"uint40"},{"name":"encodedLengths","type":"bytes32","indexed":false,"internalType":"PackedCounter"},{"name":"data","type":"bytes","indexed":false,"internalType":"bytes"}],"anonymous":false},{"type":"event","name":"Store_SpliceStaticData","inputs":[{"name":"tableId","type":"bytes32","indexed":true,"internalType":"ResourceId"},{"name":"keyTuple","type":"bytes32[]","indexed":false,"internalType":"bytes32[]"},{"name":"start","type":"uint48","indexed":false,"internalType":"uint48"},{"name":"data","type":"bytes","indexed":false,"internalType":"bytes"}],"anonymous":false},{"type":"error","name":"PackedCounter_InvalidLength","inputs":[{"name":"length","type":"uint256","internalType":"uint256"}]},{"type":"error","name":"Slice_OutOfBounds","inputs":[{"name":"data","type":"bytes","internalType":"bytes"},{"name":"start","type":"uint256","internalType":"uint256"},{"name":"end","type":"uint256","internalType":"uint256"}]},{"type":"error","name":"Store_IndexOutOfBounds","inputs":[{"name":"length","type":"uint256","internalType":"uint256"},{"name":"accessedIndex","type":"uint256","internalType":"uint256"}]},{"type":"error","name":"Store_InvalidResourceType","inputs":[{"name":"expected","type":"bytes2","internalType":"bytes2"},{"name":"resourceId","type":"bytes32","internalType":"ResourceId"},{"name":"resourceIdString","type":"string","internalType":"string"}]},{"type":"error","name":"Store_InvalidSplice","inputs":[{"name":"startWithinField","type":"uint40","internalType":"uint40"},{"name":"deleteCount","type":"uint40","internalType":"uint40"},{"name":"fieldLength","type":"uint40","internalType":"uint40"}]},{"type":"error","name":"World_FunctionSelectorNotFound","inputs":[{"name":"functionSelector","type":"bytes4","internalType":"bytes4"}]},{"type":"error","name":"World_ResourceNotFound","inputs":[{"name":"resourceId","type":"bytes32","internalType":"ResourceId"},{"name":"resourceIdString","type":"string","internalType":"string"}]}],"bytecode":{"object":"0x608060405234801561001057600080fd5b506134ec806100206000396000f3fe608060405234801561001057600080fd5b50600436106100675760003560e01c8063231bb4cd11610050578063231bb4cd146100b457806345ec9354146100c9578063e1af802c146100dc57600080fd5b806301ffc9a71461006c578063119df25f14610094575b600080fd5b61007f61007a36600461290a565b6100e4565b60405190151581526020015b60405180910390f35b61009c61017d565b6040516001600160a01b03909116815260200161008b565b6100c76100c236600461294c565b61018c565b005b604051601f19360135815260200161008b565b61009c6101be565b60007fffffffff0000000000000000000000000000000000000000000000000000000082167fb421288000000000000000000000000000000000000000000000000000000000148061017757507fffffffff0000000000000000000000000000000000000000000000000000000082167f01ffc9a700000000000000000000000000000000000000000000000000000000145b92915050565b60006101876101c8565b905090565b61019c61019761017d565b6101fa565b6101a588610279565b6101b487878787878787610450565b5050505050505050565b60006101876104a1565b7fffffffffffffffffffffffffffffffffffffffffffffffffffffffffffffffcc36013560601c806101f75750335b90565b61020b6102056104e0565b82610578565b610276576040517f08c379a000000000000000000000000000000000000000000000000000000000815260206004820181905260248201527f63616c6c657220646f6573206e6f7420686176652074686520736b79206b657960448201526064015b60405180910390fd5b50565b60006102836101be565b90506000610325828460405180606001604052806040518060400160405280600b81526020017f536561736f6e205061737300000000000000000000000000000000000000000081525081526020016040518060400160405280600481526020017ff09f8eab0000000000000000000000000000000000000000000000000000000081525081526020016040518060200160405280600081525081525061060b565b905061033081610797565b6040517f6e730000000000000000000000000000000000000000000000000000000000007dffffffffffffffffffffffffffff00000000000000000000000000000000601086901c161760248201819052306044830152906103e8906001600160a01b0385169063ef5d6bbb906064015b604051602081830303815290604052915060e01b6020820180517bffffffffffffffffffffffffffffffffffffffffffffffffffffffff8381831617835250505050610856565b5060006040516103f7906128fd565b604051809103906000f080158015610413573d6000803e3d6000fd5b509050610449610422866108ef565b6bffffffffffffffffffffffff19606084901b166b0100000000000000000000001761093c565b5050505050565b61045987610a2a565b61046286610ad7565b61046b87610b4f565b61047485610bfc565b61047d84610ca9565b61048683610d21565b61048f82610d99565b61049881610e11565b50505050505050565b7f629a4c26e296b22a8e0856e9f6ecb2d1008d7e00081111962cd175fa7488e175546000906001600160a01b0316806104db573391505090565b919050565b604080516000808252602082018352613a3160f11b82840152604282018190527f536b79506f6f6c436f6e6669670000000000000000000000000000000000000060508301528251808303840181526060830190935291829061056e90610546906129d8565b8360047e7c050020201414140000000000000000000000000000000000000000000000610e89565b60601c9392505050565b600080836001600160a01b03166339f898bc6040518163ffffffff1660e01b8152600401602060405180830381865afa1580156105b9573d6000803e3d6000fd5b505050506040513d601f19601f820116820180604052508101906105dd91906129ff565b905060006105f36105ee8360101b90565b610f46565b905060006106018286610f78565b1195945050505050565b6040517f6e7300000000000000000000000000000000000000000000000000000000000060208201527f6572633732312d70757070657400000000000000000000000000000000000000602282015260009081906106839060300160405160208183030381529060405261067e906129d8565b610ff5565b90506106c9856001600160a01b0316638da798da8387876040516020016106ab929190612a68565b60408051601f19818403018152908290526103a19291602401612b03565b5060408051613a3160f11b60208201527f6572633732312d7075707065740000000000000000000000000000000000000060228201527f4552433732315265676973747279000000000000000000000000000000000000603082015261078e9101604051602081830303815290604052610742906129d8565b601086901c7dffffffffffffffffffffffffffff00000000000000000000000000000000167f6e73000000000000000000000000000000000000000000000000000000000000176110d0565b95945050505050565b604080516000808252602082018352613a3160f11b8284015260428201527f536b79506f6f6c436f6e6669670000000000000000000000000000000000000060508201528151808203830181526060820190925290610852906107f9906129d8565b6040516bffffffffffffffffffffffff19606086901b166020820152839060039060340160408051601f198184030181529190527e7c05002020141414000000000000000000000000000000000000000000000061114d565b5050565b606060008061086c61086785612b25565b611203565b91509150816000801b036108d2576040517ffdde54e20000000000000000000000000000000000000000000000000000000081527fffffffff0000000000000000000000000000000000000000000000000000000060003516600482015260240161026d565b6108e7826108e286600085611313565b611346565b949350505050565b60006101777f7379000000000000000000000000000000000000000000000000000000000000837f45524337323153797374656d0000000000000000000000000000000000000000611480565b60408051600180825281830190925260009160208083019080368337019050509050828160008151811061097257610972612b75565b60209081029190910181019190915260408051613a3160f11b81840152641ddbdc9b1960da1b60228201527f53797374656d486f6f6b7300000000000000000000000000000000000000000060308201528151808203909301835281019052610a25906109de906129d8565b6040517fffffffffffffffffffffffffffffffffffffffffff0000000000000000000000851660208201528390600090603501604051602081830303815290604052611507565b505050565b604080516000808252602082018352613a3160f11b8284015260428201527f536561736f6e54696d65730000000000000000000000000000000000000000006050820152815180820383018152606082019092529061085290610a8c906129d8565b82600085604051602001610aa291815260200190565b60408051601f198184030181529190527e4002002020000000000000000000000000000000000000000000000000000061114d565b604080516000808252602082018352613a3160f11b8284015260428201527f536561736f6e54696d65730000000000000000000000000000000000000000006050820152815180820383018152606082019092529061085290610b39906129d8565b82600185604051602001610aa291815260200190565b604080516000808252602082018352613a3160f11b8284015260428201527f536561736f6e506173734c6173745361000000000000000000000000000000006050820152815180820383018152606082019092529061085290610bb1906129d8565b82600085604051602001610bc791815260200190565b60408051601f198184030181529190527e2001002000000000000000000000000000000000000000000000000000000061114d565b604080516000808252602082018352613a3160f11b8284015260428201527f536561736f6e50617373436f6e666967000000000000000000000000000000006050820152815180820383018152606082019092529061085290610c5e906129d8565b82600485604051602001610c7491815260200190565b60408051601f198184030181529190527ea005002020202020000000000000000000000000000000000000000000000061114d565b604080516000808252602082018352613a3160f11b8284015260428201527f536561736f6e50617373436f6e666967000000000000000000000000000000006050820152815180820383018152606082019092529061085290610d0b906129d8565b82600285604051602001610c7491815260200190565b604080516000808252602082018352613a3160f11b8284015260428201527f536561736f6e50617373436f6e666967000000000000000000000000000000006050820152815180820383018152606082019092529061085290610d83906129d8565b82600185604051602001610c7491815260200190565b604080516000808252602082018352613a3160f11b8284015260428201527f536561736f6e50617373436f6e666967000000000000000000000000000000006050820152815180820383018152606082019092529061085290610dfb906129d8565b82600085604051602001610c7491815260200190565b604080516000808252602082018352613a3160f11b8284015260428201527f536561736f6e50617373436f6e666967000000000000000000000000000000006050820152815180820383018152606082019092529061085290610e73906129d8565b82600385604051602001610c7491815260200190565b600080610e946104a1565b9050306001600160a01b03821603610eba57610eb2868686866115b8565b9150506108e7565b6040517f8c364d590000000000000000000000000000000000000000000000000000000081526001600160a01b03821690638c364d5990610f05908990899089908990600401612bc7565b602060405180830381865afa158015610f22573d6000803e3d6000fd5b505050506040513d601f19601f82011682018060405250810190610eb291906129ff565b6000610177613a3160f11b837f42616c616e636573000000000000000000000000000000000000000000000000611480565b60408051600180825281830190925260009182919060208083019080368337019050509050826001600160a01b031660001b81600081518110610fbd57610fbd612b75565b6020908102919091010152600061078e8583837e20010020000000000000000000000000000000000000000000000000000000610e89565b60408051600180825281830190925260009182919060208083019080368337019050509050828160008151811061102e5761102e612b75565b60209081029190910181019190915260408051613a3160f11b81840152641ddbdc9b1960da1b60228201527f4e616d6573706163654f776e6572000000000000000000000000000000000000603082015281518082039093018352810190526000906110c59061109d906129d8565b8360007e14010014000000000000000000000000000000000000000000000000000000610e89565b60601c949350505050565b60408051600180825281830190925260009182919060208083019080368337019050509050828160008151811061110957611109612b75565b602090810291909101015260006111418583837e14010014000000000000000000000000000000000000000000000000000000610e89565b60601c95945050505050565b60006111576104a1565b9050306001600160a01b0382160361117b5761117686868686866115e5565b6111fb565b6040517f390baae00000000000000000000000000000000000000000000000000000000081526001600160a01b0382169063390baae0906111c89089908990899089908990600401612bf6565b600060405180830381600087803b1580156111e257600080fd5b505af11580156111f6573d6000803e3d6000fd5b505050505b505050505050565b6040805160018082528183019092526000918291829160208083019080368337019050509050837bffffffffffffffffffffffffffffffffffffffffffffffffffffffff19168160008151811061125c5761125c612b75565b60209081029190910181019190915260408051613a3160f11b81840152641ddbdc9b1960da1b60228201527f46756e6374696f6e53656c6563746f720000000000000000000000000000000060308201528151808203909301835281019052600090819081906112f5906112cf906129d8565b857e240200200400000000000000000000000000000000000000000000000000006115fa565b9250925092506113068383836116ca565b9550955050505050915091565b82820160200180517bffffffffffffffffffffffffffffffffffffffffffffffffffffffff1682179052825b9392505050565b606060006113526101be565b90506001600160a01b03811630036113f257600061136f856116e2565b5090506001600160a01b0381166113be578461138a866117c6565b6040517ffbf10ce600000000000000000000000000000000000000000000000000000000815260040161026d929190612c3d565b60006113d86113cb6101c8565b36601f1901358488611928565b94509050806113ea576113ea8461199c565b505050610177565b6040517f3ae7af080000000000000000000000000000000000000000000000000000000081526001600160a01b03821690633ae7af08906114399087908790600401612c3d565b6000604051808303816000875af1158015611458573d6000803e3d6000fd5b505050506040513d6000823e601f3d908101601f191682016040526108e79190810190612cd4565b600061148e60706010612d1f565b7fffff00000000000000000000000000000000000000000000000000000000000085167dffffffffffffffffffffffffffff00000000000000000000000000000000601086901c16177fffffffffffffffffffffffffffffffff00000000000000000000000000000000841690911c1790509392505050565b60006115116104a1565b9050306001600160a01b038216036115345761152f858585856119a4565b610449565b6040517f150f32620000000000000000000000000000000000000000000000000000000081526001600160a01b0382169063150f32629061157f908890889088908890600401612d32565b600060405180830381600087803b15801561159957600080fd5b505af11580156115ad573d6000803e3d6000fd5b505050505050505050565b600061078e6115c786866119df565b60ff858116601b0360080285901c166115e08587611a35565b611a6e565b61044985856115f48487611a35565b85611abf565b606060006060600061160a6104a1565b9050306001600160a01b0382160361163357611627878787611d0a565b935093509350506116c1565b6040517f419b58fd0000000000000000000000000000000000000000000000000000000081526001600160a01b0382169063419b58fd9061167c908a908a908a90600401612d71565b600060405180830381865afa158015611699573d6000803e3d6000fd5b505050506040513d6000823e601f3d908101601f191682016040526116279190810190612d9a565b93509350939050565b6000806116d685611e12565b90969095509350505050565b6040805160018082528183019092526000918291829160208083019080368337019050509050838160008151811061171c5761171c612b75565b60209081029190910181019190915260408051613a3160f11b81840152641ddbdc9b1960da1b60228201527f53797374656d730000000000000000000000000000000000000000000000000060308201528151808203909301835281019052600090819081906117b59061178f906129d8565b857e150200140100000000000000000000000000000000000000000000000000006115fa565b925092509250611306838383611e27565b606081601081901b60006117d983611e33565b90508271ffffffffffffffffffffffffffffffffffff198316156118125771ffffffffffffffffffffffffffffffffffff198316611834565b7f524f4f545f4e414d4553504143450000000000000000000000000000000000005b7fffffffffffffffffffffffffffffffff000000000000000000000000000000008316156118625782611884565b7f524f4f545f4e414d4500000000000000000000000000000000000000000000005b6040517fffff00000000000000000000000000000000000000000000000000000000000090931660208401527f3a00000000000000000000000000000000000000000000000000000000000000602284018190527fffffffffffffffffffffffffffffffff00000000000000000000000000000000928316602385015260338401521660348201526044016040516020818303038152906040529350505050919050565b60006060836001600160a01b0316611941848888611e4a565b60405161194e9190612e07565b600060405180830381855af49150503d8060008114611989576040519150601f19603f3d011682016040523d82523d6000602084013e61198e565b606091505b509097909650945050505050565b805160208201fd5b60006119b08585611e79565b905060006119cd828560ff166028026038011c64ffffffffff1690565b90506111fb8686868460008888611e8c565b600082826040516020016119f4929190612e23565b60408051601f1981840301815291905280516020909101207f86425bff6b57326c7859e89024fe4f238ca327a1ae4a230180dd2f0e88aaa7d9189392505050565b600080805b8360ff16811015611a6657611a5c60ff601b83900360080287901c1683612d1f565b9150600101611a3a565b509392505050565b600060208210611a9457602082048401935060208281611a9057611a90612e5f565b0691505b508254600882021b602082900380841115611a66576001850154600882021c82179150509392505050565b6000611acb85856119df565b9050847f8c0b5119d4cec7b284c6b1b39252a03d1e2f2d7451a5895562524c113bb952be858585604051611b0193929190612e75565b60405180910390a2613a3160f11b857fffff0000000000000000000000000000000000000000000000000000000000001614611b3d5750611d04565b6000611b488661228e565b905060005b8151811015611c1d576000828281518110611b6a57611b6a612b75565b60200260200101519050611b966004826affffffffffffffffffffff191661236e90919063ffffffff16565b15611c14576040517f964f667d000000000000000000000000000000000000000000000000000000008152606082901c9063964f667d90611be1908b908b908b908b90600401612ea8565b600060405180830381600087803b158015611bfb57600080fd5b505af1158015611c0f573d6000803e3d6000fd5b505050505b50600101611b4d565b50611c31828565ffffffffffff168561238c565b60005b8151811015610498576000828281518110611c5157611c51612b75565b60200260200101519050611c7d6008826affffffffffffffffffffff191661236e90919063ffffffff16565b15611cfb576040517fa8ba8721000000000000000000000000000000000000000000000000000000008152606082901c9063a8ba872190611cc8908b908b908b908b90600401612ea8565b600060405180830381600087803b158015611ce257600080fd5b505af1158015611cf6573d6000803e3d6000fd5b505050505b50600101611c34565b50505050565b6060600060606000611d1b8561239c565b9050611d288787836123bf565b93506000611d35866123f8565b90508015611e0757611d478888611e79565b935066ffffffffffffff841667ffffffffffffffff811115611d6b57611d6b6129c2565b6040519080825280601f01601f191660200182016040528015611d95576020820181803683370190505b5092506020830160005b828160ff161015611e04576000611db78b8b84612435565b90506000611dd4888460ff166028026038011c64ffffffffff1690565b9050611de382826000876124b5565b611ded8185612d1f565b935050508080611dfc90612ee1565b915050611d9f565b50505b505093509350939050565b602081015160408201516000905b9050915091565b6000806116d685612584565b6000611e4160706010612d1f565b9190911b919050565b6060838383604051602001611e6193929190612f00565b60405160208183030381529060405290509392505050565b600061133f611e8884846125a0565b5490565b613a3160f11b877fffff0000000000000000000000000000000000000000000000000000000000001614611f1657613a3160f11b8788604051602001611ed491815260200190565b60408051601f19818403018152908290527f31b4668300000000000000000000000000000000000000000000000000000000825261026d939291600401612f3f565b6000611f31828760ff166028026038011c64ffffffffff1690565b9050600083518564ffffffffff1683611f4a9190612f80565b611f549190612d1f565b9050808214158015611f76575081611f6c8688612f93565b64ffffffffff1614155b15611fc6576040517fa65010b400000000000000000000000000000000000000000000000000000000815264ffffffffff808816600483015280871660248301528316604482015260640161026d565b818664ffffffffff161115612017576040517f7e8578d30000000000000000000000000000000000000000000000000000000081526004810183905264ffffffffff8716602482015260440161026d565b60006120248489846125f6565b905064ffffffffff871660005b8960ff168160ff16101561206457612058868260ff166028026038011c64ffffffffff1690565b90910190600101612031565b508a7faa63765a776145e5e6492f471ae097dfed11cd57a61bc2679dd43180422385b48b838a868b60405161209d959493929190612fb8565b60405180910390a25060006120b18b61228e565b905060005b815181101561217c5760008282815181106120d3576120d3612b75565b602002602001015190506120ff6010826affffffffffffffffffffff191661236e90919063ffffffff16565b1561217357606081901c6001600160a01b03166355eb5a288e8e8e8e8e8a8f6040518863ffffffff1660e01b8152600401612140979695949392919061300a565b600060405180830381600087803b15801561215a57600080fd5b505af115801561216e573d6000803e3d6000fd5b505050505b506001016120b6565b508284146121955760006121908c8c6125a0565b839055505b60006121a28c8c8c612435565b90506121b6818a64ffffffffff168961238c565b5060005b81518110156122805760008282815181106121d7576121d7612b75565b602002602001015190506122036020826affffffffffffffffffffff191661236e90919063ffffffff16565b1561227757606081901c6001600160a01b031663635845338e8e8e8e8e8a8f6040518863ffffffff1660e01b8152600401612244979695949392919061300a565b600060405180830381600087803b15801561225e57600080fd5b505af1158015612272573d6000803e3d6000fd5b505050505b506001016121ba565b505050505050505050505050565b604080516001808252818301909252606091600091906020808301908036833701905050905082816000815181106122c8576122c8612b75565b60209081029190910181019190915260408051613a3160f11b818401527f73746f726500000000000000000000000000000000000000000000000000000060228201527f53746f7265486f6f6b7300000000000000000000000000000000000000000000603082015281518082039093018352810190526000906123579061234f906129d8565b8360006126c4565b90506108e761236982600084516126fe565b61278e565b60008160ff168261237f8560581c90565b1660ff1614905092915050565b610a25838360208401845161279f565b600060086123ac60026020612f80565b6123b69190613068565b9190911c919050565b6060816000036123de575060408051602081019091526000815261133f565b60006123ea85856119df565b905061078e8184600061285f565b6000600860018061240b60026020612f80565b6124159190612f80565b61241f9190612f80565b6124299190613068565b8260ff911c1692915050565b6000838360405160200161244a929190612e23565b604051602081830303815290604052805190602001208260f81b7effffffffffffffffffffffffffffffffffffffffffffffffffffffffffffff19167f3b4102da22e32d82fc925482184f16c09fd4281692720b87d124aef6da48a0f1181860001c90509392505050565b811561253e57602082106124df576020820484019350602082816124db576124db612e5f565b0691505b811561253e5760208290036000818510156125035750600019600885021c1961250e565b50600019600882021c195b8554600885021b81198451168282161784525081851161252f575050611d04565b50600194909401939283900392015b5b602083106125605783548152600190930192601f199092019160200161253f565b8215611d04576000600019600885021c198251865482169119161782525050505050565b6020810151603482015160609190911c9060009060f81c611e20565b600082826040516020016125b5929190612e23565b60408051601f1981840301815291905280516020909101207f14e2fcc58e58e68ec7edc30c8d50dccc3ce2714a623ec81f46b6a63922d76569189392505050565b600064ffffffffff82111561263a576040517f476705880000000000000000000000000000000000000000000000000000000081526004810183905260240161026d565b8366ffffffffffffff811660ff851660280260380182901c64ffffffffff1680851061266c5780850382019150612674565b848103820391505b5064ffffffffff6038602860ff8816020181811b197fffffffffffffffffffffffffffffffffffffffffffffffffff000000000000009490941690921792909216918416901b1790509392505050565b60606108e76126d4858585612435565b6126f7846126e28888611e79565b9060ff166028026038011c64ffffffffff1690565b600061285f565b6000818311158015612711575083518211155b61274d578383836040517f23230fa300000000000000000000000000000000000000000000000000000000815260040161026d9392919061307f565b6020840161275b8482612d1f565b905060006127698585612f80565b6fffffffffffffffffffffffffffffffff1660809290921b9190911795945050505050565b6060600061133f8360156000612882565b821561281957602083106127c9576020830484019350602083816127c5576127c5612e5f565b0692505b82156128195760208390036000600019600884021c1990506008850281811c91508451811c905081198754168282161787555081831161280a575050611d04565b50600194909401939182019190035b5b6020811061283b5781518455600190930192602090910190601f190161281a565b8015611d04576000600019600883021c198554845182169119161785555050505050565b60405160208101601f19603f8584010116604052838252611a66858585846124b5565b606060006128908560801c90565b90506fffffffffffffffffffffffffffffffff851660008582816128b6576128b6612e5f565b04905060405193506020840160208202810160405281855260005b828110156128f1578451871c8252938701936020909101906001016128d1565b50505050509392505050565b610412806130a583390190565b60006020828403121561291c57600080fd5b81357fffffffff000000000000000000000000000000000000000000000000000000008116811461133f57600080fd5b600080600080600080600080610100898b03121561296957600080fd5b883571ffffffffffffffffffffffffffffffffffff198116811461298c57600080fd5b9a60208a01359a5060408a013599606081013599506080810135985060a0810135975060c0810135965060e00135945092505050565b634e487b7160e01b600052604160045260246000fd5b805160208083015191908110156129f9576000198160200360031b1b821691505b50919050565b600060208284031215612a1157600080fd5b5051919050565b60005b83811015612a33578181015183820152602001612a1b565b50506000910152565b60008151808452612a54816020860160208601612a18565b601f01601f19169290920160200192915050565b71ffffffffffffffffffffffffffffffffffff1983168152604060208201526000825160606040840152612a9f60a0840182612a3c565b905060208401517fffffffffffffffffffffffffffffffffffffffffffffffffffffffffffffffc080858403016060860152612adb8383612a3c565b9250604086015191508085840301608086015250612af98282612a3c565b9695505050505050565b6001600160a01b03831681526040602082015260006108e76040830184612a3c565b6000815160208301517fffffffff0000000000000000000000000000000000000000000000000000000080821693506004831015612b6d5780818460040360031b1b83161693505b505050919050565b634e487b7160e01b600052603260045260246000fd5b60008151808452602080850194506020840160005b83811015612bbc57815187529582019590820190600101612ba0565b509495945050505050565b848152608060208201526000612be06080830186612b8b565b60ff949094166040830152506060015292915050565b85815260a060208201526000612c0f60a0830187612b8b565b60ff861660408401528281036060840152612c2a8186612a3c565b9150508260808301529695505050505050565b8281526040602082015260006108e76040830184612a3c565b600082601f830112612c6757600080fd5b815167ffffffffffffffff80821115612c8257612c826129c2565b604051601f8301601f19908116603f01168101908282118183101715612caa57612caa6129c2565b81604052838152866020858801011115612cc357600080fd5b612af9846020830160208901612a18565b600060208284031215612ce657600080fd5b815167ffffffffffffffff811115612cfd57600080fd5b6108e784828501612c56565b634e487b7160e01b600052601160045260246000fd5b8082018082111561017757610177612d09565b848152608060208201526000612d4b6080830186612b8b565b60ff851660408401528281036060840152612d668185612a3c565b979650505050505050565b838152606060208201526000612d8a6060830185612b8b565b9050826040830152949350505050565b600080600060608486031215612daf57600080fd5b835167ffffffffffffffff80821115612dc757600080fd5b612dd387838801612c56565b9450602086015193506040860151915080821115612df057600080fd5b50612dfd86828701612c56565b9150509250925092565b60008251612e19818460208701612a18565b9190910192915050565b8281526000602080830184516020860160005b82811015612e5257815184529284019290840190600101612e36565b5091979650505050505050565b634e487b7160e01b600052601260045260246000fd5b606081526000612e886060830186612b8b565b65ffffffffffff851660208401528281036040840152612af98185612a3c565b848152608060208201526000612ec16080830186612b8b565b65ffffffffffff851660408401528281036060840152612d668185612a3c565b600060ff821660ff8103612ef757612ef7612d09565b60010192915050565b60008451612f12818460208901612a18565b60609490941b6bffffffffffffffffffffffff191691909301908152601481019190915260340192915050565b7fffff0000000000000000000000000000000000000000000000000000000000008416815282602082015260606040820152600061078e6060830184612a3c565b8181038181111561017757610177612d09565b64ffffffffff818116838216019080821115612fb157612fb1612d09565b5092915050565b60a081526000612fcb60a0830188612b8b565b65ffffffffffff8716602084015264ffffffffff861660408401528460608401528281036080840152612ffe8185612a3c565b98975050505050505050565b87815260e06020820152600061302360e0830189612b8b565b60ff8816604084015264ffffffffff87811660608501528616608084015260a0830185905282810360c084015261305a8185612a3c565b9a9950505050505050505050565b808202811582820484141761017757610177612d09565b6060815260006130926060830186612a3c565b6020830194909452506040015291905056fe608060405234801561001057600080fd5b506103f2806100206000396000f3fe608060405234801561001057600080fd5b50600436106100415760003560e01c806301ffc9a714610046578063973d8f991461006d578063c332303114610082575b600080fd5b6100596100543660046101f0565b610095565b604051901515815260200160405180910390f35b61008061007b366004610268565b505050565b005b610080610090366004610268565b61012e565b60007fffffffff0000000000000000000000000000000000000000000000000000000082167f55f0760f00000000000000000000000000000000000000000000000000000000148061012857507fffffffff0000000000000000000000000000000000000000000000000000000082167f01ffc9a700000000000000000000000000000000000000000000000000000000145b92915050565b60006101398261036c565b90507fdc478d23000000000000000000000000000000000000000000000000000000007fffffffff000000000000000000000000000000000000000000000000000000008216016101ea576040517f08c379a000000000000000000000000000000000000000000000000000000000815260206004820152601f60248201527f7468697320746f6b656e206973206e6f6e2d7472616e736665727261626c6500604482015260640160405180910390fd5b50505050565b60006020828403121561020257600080fd5b81357fffffffff000000000000000000000000000000000000000000000000000000008116811461023257600080fd5b9392505050565b7f4e487b7100000000000000000000000000000000000000000000000000000000600052604160045260246000fd5b60008060006060848603121561027d57600080fd5b833573ffffffffffffffffffffffffffffffffffffffff811681146102a157600080fd5b925060208401359150604084013567ffffffffffffffff808211156102c557600080fd5b818601915086601f8301126102d957600080fd5b8135818111156102eb576102eb610239565b604051601f82017fffffffffffffffffffffffffffffffffffffffffffffffffffffffffffffffe0908116603f0116810190838211818310171561033157610331610239565b8160405282815289602084870101111561034a57600080fd5b8260208601602083013760006020848301015280955050505050509250925092565b6000815160208301517fffffffff00000000000000000000000000000000000000000000000000000000808216935060048310156103b45780818460040360031b1b83161693505b50505091905056fea264697066735822122092697003b7a03f7ba9e3f8c49975a05dc37d3d90cc2dfa477254e868d507415364736f6c63430008170033a2646970667358221220b70498dcb4c3be229b76efdd95baa793da247d16a650688742c770d563035d0964736f6c63430008170033","linkReferences":{}},"methodIdentifiers":{"_msgSender()":"119df25f","_msgValue()":"45ec9354","_world()":"e1af802c","createNewSeasonPass(bytes14,uint256,uint256,uint256,uint256,uint256,uint256,uint256)":"231bb4cd","supportsInterface(bytes4)":"01ffc9a7"},"id":448}