{"abi":[{"type":"constructor","inputs":[{"name":"_owner","type":"address","internalType":"address"}],"stateMutability":"nonpayable"},{"type":"function","name":"CALL","inputs":[{"name":"_target","type":"address","internalType":"address"},{"name":"_data","type":"bytes","internalType":"bytes"},{"name":"_value","type":"uint256","internalType":"uint256"}],"outputs":[{"name":"success_","type":"bool","internalType":"bool"},{"name":"data_","type":"bytes","internalType":"bytes"}],"stateMutability":"payable"},{"type":"function","name":"DELEGATECALL","inputs":[{"name":"_target","type":"address","internalType":"address"},{"name":"_data","type":"bytes","internalType":"bytes"}],"outputs":[{"name":"success_","type":"bool","internalType":"bool"},{"name":"data_","type":"bytes","internalType":"bytes"}],"stateMutability":"payable"},{"type":"function","name":"owner","inputs":[],"outputs":[{"name":"","type":"address","internalType":"address"}],"stateMutability":"view"},{"type":"function","name":"transferOwnership","inputs":[{"name":"newOwner","type":"address","internalType":"address"}],"outputs":[],"stateMutability":"nonpayable"},{"type":"event","name":"OwnershipTransferred","inputs":[{"name":"user","type":"address","indexed":true,"internalType":"address"},{"name":"newOwner","type":"address","indexed":true,"internalType":"address"}],"anonymous":false}],"bytecode":{"object":"0x608060405234801561001057600080fd5b506040516106f63803806106f683398101604081905261002f9161007e565b600080546001600160a01b0319166001600160a01b03831690811782556040518392907f8be0079c531659141344cd1fd0a4f28419497f9722a3daafe3b4186f6b6457e0908290a350506100ae565b60006020828403121561009057600080fd5b81516001600160a01b03811681146100a757600080fd5b9392505050565b610639806100bd6000396000f3fe60806040526004361061003f5760003560e01c80636e2d44ae146100445780638da5cb5b1461006e578063edee6239146100c0578063f2fde38b146100d3575b600080fd5b6100576100523660046104c0565b6100f5565b60405161006592919061053b565b60405180910390f35b34801561007a57600080fd5b5060005461009b9073ffffffffffffffffffffffffffffffffffffffff1681565b60405173ffffffffffffffffffffffffffffffffffffffff9091168152602001610065565b6100576100ce366004610577565b6101f4565b3480156100df57600080fd5b506100f36100ee3660046105c5565b6102ea565b005b6000805460609073ffffffffffffffffffffffffffffffffffffffff16331461017f576040517f08c379a000000000000000000000000000000000000000000000000000000000815260206004820152600c60248201527f554e415554484f52495a4544000000000000000000000000000000000000000060448201526064015b60405180910390fd5b8473ffffffffffffffffffffffffffffffffffffffff1683856040516101a591906105e7565b60006040518083038185875af1925050503d80600081146101e2576040519150601f19603f3d011682016040523d82523d6000602084013e6101e7565b606091505b5090969095509350505050565b6000805460609073ffffffffffffffffffffffffffffffffffffffff163314610279576040517f08c379a000000000000000000000000000000000000000000000000000000000815260206004820152600c60248201527f554e415554484f52495a454400000000000000000000000000000000000000006044820152606401610176565b8373ffffffffffffffffffffffffffffffffffffffff168360405161029e91906105e7565b600060405180830381855af49150503d80600081146102d9576040519150601f19603f3d011682016040523d82523d6000602084013e6102de565b606091505b50909590945092505050565b60005473ffffffffffffffffffffffffffffffffffffffff16331461036b576040517f08c379a000000000000000000000000000000000000000000000000000000000815260206004820152600c60248201527f554e415554484f52495a454400000000000000000000000000000000000000006044820152606401610176565b600080547fffffffffffffffffffffffff00000000000000000000000000000000000000001673ffffffffffffffffffffffffffffffffffffffff83169081178255604051909133917f8be0079c531659141344cd1fd0a4f28419497f9722a3daafe3b4186f6b6457e09190a350565b803573ffffffffffffffffffffffffffffffffffffffff811681146103ff57600080fd5b919050565b7f4e487b7100000000000000000000000000000000000000000000000000000000600052604160045260246000fd5b600082601f83011261044457600080fd5b813567ffffffffffffffff8082111561045f5761045f610404565b604051601f8301601f19908116603f0116810190828211818310171561048757610487610404565b816040528381528660208588010111156104a057600080fd5b836020870160208301376000602085830101528094505050505092915050565b6000806000606084860312156104d557600080fd5b6104de846103db565b9250602084013567ffffffffffffffff8111156104fa57600080fd5b61050686828701610433565b925050604084013590509250925092565b60005b8381101561053257818101518382015260200161051a565b50506000910152565b82151581526040602082015260008251806040840152610562816060850160208701610517565b601f01601f1916919091016060019392505050565b6000806040838503121561058a57600080fd5b610593836103db565b9150602083013567ffffffffffffffff8111156105af57600080fd5b6105bb85828601610433565b9150509250929050565b6000602082840312156105d757600080fd5b6105e0826103db565b9392505050565b600082516105f9818460208701610517565b919091019291505056fea26469706673582212202bd4acd092ef860203cea202f9cc0542290634be565527a7ab81b6ebac4de26164736f6c63430008170033","linkReferences":{}},"methodIdentifiers":{"CALL(address,bytes,uint256)":"6e2d44ae","DELEGATECALL(address,bytes)":"edee6239","owner()":"8da5cb5b","transferOwnership(address)":"f2fde38b"},"id":438}