{"abi":[{"type":"function","name":"_msgSender","inputs":[],"outputs":[{"name":"sender","type":"address","internalType":"address"}],"stateMutability":"view"},{"type":"function","name":"_msgValue","inputs":[],"outputs":[{"name":"value","type":"uint256","internalType":"uint256"}],"stateMutability":"pure"},{"type":"function","name":"_world","inputs":[],"outputs":[{"name":"","type":"address","internalType":"address"}],"stateMutability":"view"},{"type":"function","name":"initDelegation","inputs":[{"name":"delegatee","type":"address","internalType":"address"},{"name":"maxTimestamp","type":"uint256","internalType":"uint256"}],"outputs":[],"stateMutability":"nonpayable"},{"type":"function","name":"supportsInterface","inputs":[{"name":"interfaceId","type":"bytes4","internalType":"bytes4"}],"outputs":[{"name":"","type":"bool","internalType":"bool"}],"stateMutability":"pure"},{"type":"function","name":"verify","inputs":[{"name":"delegator","type":"address","internalType":"address"},{"name":"","type":"bytes32","internalType":"ResourceId"},{"name":"","type":"bytes","internalType":"bytes"}],"outputs":[{"name":"","type":"bool","internalType":"bool"}],"stateMutability":"view"},{"type":"event","name":"Store_SpliceStaticData","inputs":[{"name":"tableId","type":"bytes32","indexed":true,"internalType":"ResourceId"},{"name":"keyTuple","type":"bytes32[]","indexed":false,"internalType":"bytes32[]"},{"name":"start","type":"uint48","indexed":false,"internalType":"uint48"},{"name":"data","type":"bytes","indexed":false,"internalType":"bytes"}],"anonymous":false},{"type":"error","name":"Slice_OutOfBounds","inputs":[{"name":"data","type":"bytes","internalType":"bytes"},{"name":"start","type":"uint256","internalType":"uint256"},{"name":"end","type":"uint256","internalType":"uint256"}]}],"bytecode":{"object":"0x608060405234801561001057600080fd5b5061138a806100206000396000f3fe608060405234801561001057600080fd5b50600436106100725760003560e01c806345ec93541161005057806345ec9354146100df578063d043756a146100f2578063e1af802c1461010757600080fd5b806301ffc9a714610077578063119df25f1461009f5780631a86b550146100cc575b600080fd5b61008a610085366004610f61565b61010f565b60405190151581526020015b60405180910390f35b6100a76101f4565b60405173ffffffffffffffffffffffffffffffffffffffff9091168152602001610096565b61008a6100da366004610fdd565b610203565b604051601f193601358152602001610096565b6101056101003660046110a8565b610223565b005b6100a7610239565b60007fffffffff0000000000000000000000000000000000000000000000000000000082167faea79dd00000000000000000000000000000000000000000000000000000000014806101a257507fffffffff0000000000000000000000000000000000000000000000000000000082167fb421288000000000000000000000000000000000000000000000000000000000145b806101ee57507fffffffff0000000000000000000000000000000000000000000000000000000082167f01ffc9a700000000000000000000000000000000000000000000000000000000145b92915050565b60006101fe610243565b905090565b600080610217856102126101f4565b610275565b42111595945050505050565b61023561022e6101f4565b838361039e565b5050565b60006101fe6104db565b7fffffffffffffffffffffffffffffffffffffffffffffffffffffffffffffffcc36013560601c806102725750335b90565b604080516002808252606082018352600092839291906020830190803683370190505090508373ffffffffffffffffffffffffffffffffffffffff1660001b816000815181106102c7576102c76110d2565b6020026020010181815250508273ffffffffffffffffffffffffffffffffffffffff1660001b81600181518110610300576103006110d2565b60209081029190910181019190915260408051613a3160f11b928101929092526000602283018190527f54696d65626f756e6444656c6567617400000000000000000000000000000000603084015291610395910160405160208183030381529060405261036d906110e8565b8360007e20010020000000000000000000000000000000000000000000000000000000610527565b95945050505050565b6040805160028082526060820183526000926020830190803683370190505090508373ffffffffffffffffffffffffffffffffffffffff1660001b816000815181106103ec576103ec6110d2565b6020026020010181815250508273ffffffffffffffffffffffffffffffffffffffff1660001b81600181518110610425576104256110d2565b60209081029190910181019190915260408051613a3160f11b81840152600060228201527f54696d65626f756e6444656c6567617400000000000000000000000000000000603082015281518082039093018352810190526104d59061048a906110e8565b826000856040516020016104a091815260200190565b60408051601f198184030181529190527e20010020000000000000000000000000000000000000000000000000000000610606565b50505050565b7f629a4c26e296b22a8e0856e9f6ecb2d1008d7e00081111962cd175fa7488e1755460009073ffffffffffffffffffffffffffffffffffffffff1680610522573391505090565b919050565b6000806105326104db565b90503073ffffffffffffffffffffffffffffffffffffffff8216036105655761055d868686866106d6565b9150506105fe565b6040517f8c364d5900000000000000000000000000000000000000000000000000000000815273ffffffffffffffffffffffffffffffffffffffff821690638c364d59906105bd90899089908990899060040161114b565b602060405180830381865afa1580156105da573d6000803e3d6000fd5b505050506040513d601f19601f8201168201806040525081019061055d919061117a565b949350505050565b60006106106104db565b90503073ffffffffffffffffffffffffffffffffffffffff8216036106415761063c8686868686610703565b6106ce565b6040517f390baae000000000000000000000000000000000000000000000000000000000815273ffffffffffffffffffffffffffffffffffffffff82169063390baae09061069b90899089908990899089906004016111d9565b600060405180830381600087803b1580156106b557600080fd5b505af11580156106c9573d6000803e3d6000fd5b505050505b505050505050565b60006103956106e5868661071f565b60ff858116601b0360080285901c166106fe8587610775565b6107ae565b61071885856107128487610775565b856107ff565b5050505050565b60008282604051602001610734929190611220565b60408051601f1981840301815291905280516020909101207f86425bff6b57326c7859e89024fe4f238ca327a1ae4a230180dd2f0e88aaa7d9189392505050565b600080805b8360ff168110156107a65761079c60ff601b83900360080287901c1683611272565b915060010161077a565b509392505050565b6000602082106107d4576020820484019350602082816107d0576107d0611285565b0691505b508254600882021b6020829003808411156107a6576001850154600882021c82179150509392505050565b600061080b858561071f565b9050847f8c0b5119d4cec7b284c6b1b39252a03d1e2f2d7451a5895562524c113bb952be8585856040516108419392919061129b565b60405180910390a2613a3160f11b857fffff000000000000000000000000000000000000000000000000000000000000161461087d57506104d5565b600061088886610a4d565b905060005b815181101561095d5760008282815181106108aa576108aa6110d2565b602002602001015190506108d66004826affffffffffffffffffffff1916610b2d90919063ffffffff16565b15610954576040517f964f667d000000000000000000000000000000000000000000000000000000008152606082901c9063964f667d90610921908b908b908b908b906004016112d8565b600060405180830381600087803b15801561093b57600080fd5b505af115801561094f573d6000803e3d6000fd5b505050505b5060010161088d565b50610971828565ffffffffffff1685610b4b565b60005b8151811015610a44576000828281518110610991576109916110d2565b602002602001015190506109bd6008826affffffffffffffffffffff1916610b2d90919063ffffffff16565b15610a3b576040517fa8ba8721000000000000000000000000000000000000000000000000000000008152606082901c9063a8ba872190610a08908b908b908b908b906004016112d8565b600060405180830381600087803b158015610a2257600080fd5b505af1158015610a36573d6000803e3d6000fd5b505050505b50600101610974565b50505050505050565b60408051600180825281830190925260609160009190602080830190803683370190505090508281600081518110610a8757610a876110d2565b60209081029190910181019190915260408051613a3160f11b818401527f73746f726500000000000000000000000000000000000000000000000000000060228201527f53746f7265486f6f6b730000000000000000000000000000000000000000000060308201528151808203909301835281019052600090610b1690610b0e906110e8565b836000610b60565b90506105fe610b288260008451610b9a565b610c33565b60008160ff1682610b3e8560581c90565b1660ff1614905092915050565b610b5b8383602084018451610c4b565b505050565b60606105fe610b70858585610d0b565b610b9384610b7e8888610d8b565b9060ff166028026038011c64ffffffffff1690565b6000610d9e565b6000818311158015610bad575083518211155b610bf2578383836040517f23230fa3000000000000000000000000000000000000000000000000000000008152600401610be99392919061131c565b60405180910390fd5b60208401610c008482611272565b90506000610c0e8585611341565b6fffffffffffffffffffffffffffffffff1660809290921b9190911795945050505050565b60606000610c448360156000610dc1565b9392505050565b8215610cc55760208310610c7557602083048401935060208381610c7157610c71611285565b0692505b8215610cc55760208390036000600019600884021c1990506008850281811c91508451811c9050811987541682821617875550818311610cb65750506104d5565b50600194909401939182019190035b5b60208110610ce75781518455600190930192602090910190601f1901610cc6565b80156104d5576000600019600883021c198554845182169119161785555050505050565b60008383604051602001610d20929190611220565b604051602081830303815290604052805190602001208260f81b7effffffffffffffffffffffffffffffffffffffffffffffffffffffffffffff19167f3b4102da22e32d82fc925482184f16c09fd4281692720b87d124aef6da48a0f1181860001c90509392505050565b6000610c44610d9a8484610e3c565b5490565b60405160208101601f19603f85840101166040528382526107a685858584610e92565b60606000610dcf8560801c90565b90506fffffffffffffffffffffffffffffffff85166000858281610df557610df5611285565b04905060405193506020840160208202810160405281855260005b82811015610e30578451871c825293870193602090910190600101610e10565b50505050509392505050565b60008282604051602001610e51929190611220565b60408051601f1981840301815291905280516020909101207f14e2fcc58e58e68ec7edc30c8d50dccc3ce2714a623ec81f46b6a63922d76569189392505050565b8115610f1b5760208210610ebc57602082048401935060208281610eb857610eb8611285565b0691505b8115610f1b576020829003600081851015610ee05750600019600885021c19610eeb565b50600019600882021c195b8554600885021b811984511682821617845250818511610f0c5750506104d5565b50600194909401939283900392015b5b60208310610f3d5783548152600190930192601f1990920191602001610f1c565b82156104d5576000600019600885021c198251865482169119161782525050505050565b600060208284031215610f7357600080fd5b81357fffffffff0000000000000000000000000000000000000000000000000000000081168114610c4457600080fd5b803573ffffffffffffffffffffffffffffffffffffffff8116811461052257600080fd5b634e487b7160e01b600052604160045260246000fd5b600080600060608486031215610ff257600080fd5b610ffb84610fa3565b925060208401359150604084013567ffffffffffffffff8082111561101f57600080fd5b818601915086601f83011261103357600080fd5b81358181111561104557611045610fc7565b604051601f8201601f19908116603f0116810190838211818310171561106d5761106d610fc7565b8160405282815289602084870101111561108657600080fd5b8260208601602083013760006020848301015280955050505050509250925092565b600080604083850312156110bb57600080fd5b6110c483610fa3565b946020939093013593505050565b634e487b7160e01b600052603260045260246000fd5b80516020808301519190811015611109576000198160200360031b1b821691505b50919050565b60008151808452602080850194506020840160005b8381101561114057815187529582019590820190600101611124565b509495945050505050565b848152608060208201526000611164608083018661110f565b60ff949094166040830152506060015292915050565b60006020828403121561118c57600080fd5b5051919050565b6000815180845260005b818110156111b95760208185018101518683018201520161119d565b506000602082860101526020601f19601f83011685010191505092915050565b85815260a0602082015260006111f260a083018761110f565b60ff86166040840152828103606084015261120d8186611193565b9150508260808301529695505050505050565b8281526000602080830184516020860160005b8281101561124f57815184529284019290840190600101611233565b5091979650505050505050565b634e487b7160e01b600052601160045260246000fd5b808201808211156101ee576101ee61125c565b634e487b7160e01b600052601260045260246000fd5b6060815260006112ae606083018661110f565b65ffffffffffff8516602084015282810360408401526112ce8185611193565b9695505050505050565b8481526080602082015260006112f1608083018661110f565b65ffffffffffff8516604084015282810360608401526113118185611193565b979650505050505050565b60608152600061132f6060830186611193565b60208301949094525060400152919050565b818103818111156101ee576101ee61125c56fea2646970667358221220de137a88c2b7fce8ac5eeca7477a030c556b52ea8ac568bbcc2b113b0e44f52964736f6c63430008170033","linkReferences":{}},"methodIdentifiers":{"_msgSender()":"119df25f","_msgValue()":"45ec9354","_world()":"e1af802c","initDelegation(address,uint256)":"d043756a","supportsInterface(bytes4)":"01ffc9a7","verify(address,bytes32,bytes)":"1a86b550"},"id":228}