{"abi":[{"type":"function","name":"_msgSender","inputs":[],"outputs":[{"name":"sender","type":"address","internalType":"address"}],"stateMutability":"view"},{"type":"function","name":"_msgValue","inputs":[],"outputs":[{"name":"value","type":"uint256","internalType":"uint256"}],"stateMutability":"pure"},{"type":"function","name":"_world","inputs":[],"outputs":[{"name":"","type":"address","internalType":"address"}],"stateMutability":"view"},{"type":"function","name":"adminDestroyMatch","inputs":[{"name":"matchEntity","type":"bytes32","internalType":"bytes32"}],"outputs":[],"stateMutability":"nonpayable"},{"type":"function","name":"createMatch","inputs":[{"name":"name","type":"string","internalType":"string"},{"name":"claimedFirstMatchInWindow","type":"bytes32","internalType":"bytes32"},{"name":"matchEntity","type":"bytes32","internalType":"bytes32"},{"name":"levelId","type":"bytes32","internalType":"bytes32"}],"outputs":[],"stateMutability":"nonpayable"},{"type":"function","name":"createMatchSeasonPass","inputs":[{"name":"name","type":"string","internalType":"string"},{"name":"claimedFirstMatchInWindow","type":"bytes32","internalType":"bytes32"},{"name":"matchEntity","type":"bytes32","internalType":"bytes32"},{"name":"levelId","type":"bytes32","internalType":"bytes32"},{"name":"systemId","type":"bytes32","internalType":"ResourceId"},{"name":"entranceFee","type":"uint256","internalType":"uint256"},{"name":"rewardPercentages","type":"uint256[]","internalType":"uint256[]"}],"outputs":[],"stateMutability":"nonpayable"},{"type":"function","name":"createMatchSkyKey","inputs":[{"name":"name","type":"string","internalType":"string"},{"name":"claimedFirstMatchInWindow","type":"bytes32","internalType":"bytes32"},{"name":"matchEntity","type":"bytes32","internalType":"bytes32"},{"name":"levelId","type":"bytes32","internalType":"bytes32"},{"name":"systemId","type":"bytes32","internalType":"ResourceId"},{"name":"entranceFee","type":"uint256","internalType":"uint256"},{"name":"rewardPercentages","type":"uint256[]","internalType":"uint256[]"},{"name":"registrationTime","type":"uint256","internalType":"uint256"}],"outputs":[],"stateMutability":"nonpayable"},{"type":"function","name":"supportsInterface","inputs":[{"name":"interfaceId","type":"bytes4","internalType":"bytes4"}],"outputs":[{"name":"","type":"bool","internalType":"bool"}],"stateMutability":"pure"},{"type":"event","name":"Store_DeleteRecord","inputs":[{"name":"tableId","type":"bytes32","indexed":true,"internalType":"ResourceId"},{"name":"keyTuple","type":"bytes32[]","indexed":false,"internalType":"bytes32[]"}],"anonymous":false},{"type":"event","name":"Store_SetRecord","inputs":[{"name":"tableId","type":"bytes32","indexed":true,"internalType":"ResourceId"},{"name":"keyTuple","type":"bytes32[]","indexed":false,"internalType":"bytes32[]"},{"name":"staticData","type":"bytes","indexed":false,"internalType":"bytes"},{"name":"encodedLengths","type":"bytes32","indexed":false,"internalType":"PackedCounter"},{"name":"dynamicData","type":"bytes","indexed":false,"internalType":"bytes"}],"anonymous":false},{"type":"event","name":"Store_SpliceDynamicData","inputs":[{"name":"tableId","type":"bytes32","indexed":true,"internalType":"ResourceId"},{"name":"keyTuple","type":"bytes32[]","indexed":false,"internalType":"bytes32[]"},{"name":"start","type":"uint48","indexed":false,"internalType":"uint48"},{"name":"deleteCount","type":"uint40","indexed":false,"internalType":"uint40"},{"name":"encodedLengths","type":"bytes32","indexed":false,"internalType":"PackedCounter"},{"name":"data","type":"bytes","indexed":false,"internalType":"bytes"}],"anonymous":false},{"type":"event","name":"Store_SpliceStaticData","inputs":[{"name":"tableId","type":"bytes32","indexed":true,"internalType":"ResourceId"},{"name":"keyTuple","type":"bytes32[]","indexed":false,"internalType":"bytes32[]"},{"name":"start","type":"uint48","indexed":false,"internalType":"uint48"},{"name":"data","type":"bytes","indexed":false,"internalType":"bytes"}],"anonymous":false},{"type":"error","name":"PackedCounter_InvalidLength","inputs":[{"name":"length","type":"uint256","internalType":"uint256"}]},{"type":"error","name":"PackedPtrLen__LenOverflow","inputs":[]},{"type":"error","name":"PackedPtrLen__PtrOverflow","inputs":[]},{"type":"error","name":"Slice_OutOfBounds","inputs":[{"name":"data","type":"bytes","internalType":"bytes"},{"name":"start","type":"uint256","internalType":"uint256"},{"name":"end","type":"uint256","internalType":"uint256"}]},{"type":"error","name":"Store_IndexOutOfBounds","inputs":[{"name":"length","type":"uint256","internalType":"uint256"},{"name":"accessedIndex","type":"uint256","internalType":"uint256"}]},{"type":"error","name":"Store_InvalidResourceType","inputs":[{"name":"expected","type":"bytes2","internalType":"bytes2"},{"name":"resourceId","type":"bytes32","internalType":"ResourceId"},{"name":"resourceIdString","type":"string","internalType":"string"}]},{"type":"error","name":"Store_InvalidSplice","inputs":[{"name":"startWithinField","type":"uint40","internalType":"uint40"},{"name":"deleteCount","type":"uint40","internalType":"uint40"},{"name":"fieldLength","type":"uint40","internalType":"uint40"}]},{"type":"error","name":"StrChar__InvalidUTF8","inputs":[]}],"bytecode":{"object":"0x608060405234801561001057600080fd5b50615d8180620000216000396000f3fe60806040523480156200001157600080fd5b5060043610620000935760003560e01c80634ba6de6311620000625780634ba6de63146200011457806368599d38146200012b578063e1af802c1462000142578063f9059113146200014c57600080fd5b806301ffc9a71462000098578063119df25f14620000c4578063127de47a14620000e757806345ec93541462000100575b600080fd5b620000af620000a936600462004bb2565b62000163565b60405190151581526020015b60405180910390f35b620000ce620001fd565b6040516001600160a01b039091168152602001620000bb565b620000fe620000f836600462004cc7565b6200020e565b005b604051601f193601358152602001620000bb565b620000fe6200012536600462004da8565b620002af565b620000fe6200013c36600462004e43565b620003b7565b620000ce62000496565b620000fe6200015d36600462004e5d565b620004a2565b60007fffffffff0000000000000000000000000000000000000000000000000000000082167fb4212880000000000000000000000000000000000000000000000000000000001480620001f757507fffffffff0000000000000000000000000000000000000000000000000000000082167f01ffc9a700000000000000000000000000000000000000000000000000000000145b92915050565b600062000209620004d2565b905090565b620002198162000505565b80620002475750620002346200022e620001fd565b620005f0565b8015620002475750620002478162000607565b620002995760405162461bcd60e51b815260206004820152601d60248201527f74686973206c6576656c206973206e6f7420696e20726f746174696f6e00000060448201526064015b60405180910390fd5b620002a98484848460006200069f565b50505050565b620002bd6200022e620001fd565b620003305760405162461bcd60e51b8152602060048201526024808201527f63616c6c657220646f6573206e6f7420686176652074686520736561736f6e2060448201527f7061737300000000000000000000000000000000000000000000000000000000606482015260840162000290565b6200033b8462000505565b806200034d57506200034d8462000607565b6200039b5760405162461bcd60e51b815260206004820152601d60248201527f74686973206c6576656c206973206e6f7420696e20726f746174696f6e000000604482015260640162000290565b620003ae8787878787878760006200086d565b50505050505050565b6000620003d3620003c7620001fd565b6001600160a01b031690565b9050620003e081620009b5565b6200042e5760405162461bcd60e51b815260206004820152601360248201527f63616c6c6572206973206e6f742061646d696e00000000000000000000000000604482015260640162000290565b60006200043b8362000a4d565b905060006200044a8462000b10565b9050816200046382826200045d62000bde565b62000c63565b6200046e8562000df6565b620004798562000ea8565b620004848562000f3a565b6200048f8562000fba565b5050505050565b6000620002096200104c565b620004b6620004b0620001fd565b6200108c565b620004c888888888888888886200086d565b5050505050505050565b7fffffffffffffffffffffffffffffffffffffffffffffffffffffffffffffffcc36013560601c80620005025750335b90565b60408051600180825281830190925260009182919060208083019080368337019050509050828160008151811062000541576200054162004f02565b60209081029190910181019190915260408051613a3160f11b928101929092526000602283018190527f4c6576656c496e5374616e646172645200000000000000000000000000000000603084015291620005db91015b604051602081830303815290604052620005b29062004f18565b8360007e01010001000000000000000000000000000000000000000000000000000000620010f2565b9050620005e88160f81c90565b949350505050565b6000620001f762000600620011ba565b8362001242565b60408051600180825281830190925260009182919060208083019080368337019050509050828160008151811062000643576200064362004f02565b60209081029190910181019190915260408051613a3160f11b928101929092526000602283018190527f4c6576656c496e536561736f6e50617300000000000000000000000000000000603084015291620005db910162000598565b6018620006ac86620012dd565b1115620006fc5760405162461bcd60e51b815260206004820152600d60248201527f6e616d6520746f6f206c6f6e6700000000000000000000000000000000000000604482015260640162000290565b620007078362001302565b15620007565760405162461bcd60e51b815260206004820152601960248201527f74686973206d6174636820616c72656164792065786973747300000000000000604482015260640162000290565b600062000766620003c7620001fd565b90506200078662000776620013c5565b62000780620001fd565b62001242565b620007b357620007b36200079962000496565b620007a362000496565b620007ad62000bde565b62001443565b6000620007bf62000496565b604051620007cd9062004ba4565b6001600160a01b039091168152602001604051809103906000f080158015620007fa573d6000803e3d6000fd5b509050600081905060006040518060c0016040528086815260200160008152602001600f8152602001878152602001858152602001836001600160a01b031681525090506200084a878262001642565b62000856878a62001774565b62000862878962001824565b505050505050505050565b8215806200088557506064620008838362001aa2565b145b620008d35760405162461bcd60e51b815260206004820152601e60248201527f70657263656e7461676573206d7573742061646420757020746f203130300000604482015260640162000290565b82158062000919575062000908857f537061776e536574746c656d656e74000000000000000000000000000000000062001aeb565b6200091590600162004f53565b8251145b6200098d5760405162461bcd60e51b815260206004820152602960248201527f7468657265206d7573742062652070657263656e746167657320666f7220656160448201527f636820656e746974790000000000000000000000000000000000000000000000606482015260840162000290565b6200099c88888888856200069f565b620009a8868562001bd0565b620004c886848462001cc4565b604080516001808252818301909252600091829190602080830190803683370190505090508281600081518110620009f157620009f162004f02565b60209081029190910181019190915260408051613a3160f11b928101929092526000602283018190527f41646d696e000000000000000000000000000000000000000000000000000000603084015291620005db910162000598565b60408051600180825281830190925260009182919060208083019080368337019050509050828160008151811062000a895762000a8962004f02565b60209081029190910181019190915260408051613a3160f11b928101929092526000602283018190526a4d61746368436f6e66696760a81b603084015291620005e8910160405160208183030381529060405262000ae79062004f18565b8360047eb4060020202020201400000000000000000000000000000000000000000000620010f2565b60408051600180825281830190925260009182919060208083019080368337019050509050828160008151811062000b4c5762000b4c62004f02565b60209081029190910181019190915260408051613a3160f11b928101929092526000602283018190526a4d61746368436f6e66696760a81b60308401529162000bd3910160405160208183030381529060405262000baa9062004f18565b8360057eb4060020202020201400000000000000000000000000000000000000000000620010f2565b60601c949350505050565b604080516000808252602082018352613a3160f11b82840152604282018190527f536b79506f6f6c436f6e6669670000000000000000000000000000000000000060508301528251808303840181526060830190935291829062000c5c9062000c479062004f18565b836000671f0140080805050560ba1b620010f2565b9392505050565b600062000c6f62001d85565b604080516001600160a01b038681166024830152604480830187905283518084039091018152606490920183526020820180517bffffffffffffffffffffffffffffffffffffffffffffffffffffffff167fa9059cbb0000000000000000000000000000000000000000000000000000000017905291517f6e2d44ae0000000000000000000000000000000000000000000000000000000081529293508692600092841691636e2d44ae9162000d2c918791869060040162004fbd565b6000604051808303816000875af115801562000d4c573d6000803e3d6000fd5b505050506040513d6000823e601f3d908101601f1916820160405262000d7691908101906200504e565b5090508062000dee5760405162461bcd60e51b815260206004820152602160248201527f746f6b656e207472616e736665722066726f6d20657363726f77206661696c6560448201527f6400000000000000000000000000000000000000000000000000000000000000606482015260840162000290565b505050505050565b60408051600180825281830190925260009160208083019080368337019050509050818160008151811062000e2f5762000e2f62004f02565b60209081029190910181019190915260408051613a3160f11b92810192909252600060228301527f4d617463684e616d650000000000000000000000000000000000000000000000603083015262000ea491015b60405160208183030381529060405262000e9d9062004f18565b8262001e03565b5050565b60408051600180825281830190925260009160208083019080368337019050509050818160008151811062000ee15762000ee162004f02565b60209081029190910181019190915260408051613a3160f11b92810192909252600060228301527f4d61746368496e64657800000000000000000000000000000000000000000000603083015262000ea4910162000e83565b60408051600180825281830190925260009160208083019080368337019050509050818160008151811062000f735762000f7362004f02565b60209081029190910181019190915260408051613a3160f11b92810192909252600060228301526a4d61746368436f6e66696760a81b603083015262000ea4910162000e83565b60408051600180825281830190925260009160208083019080368337019050509050818160008151811062000ff35762000ff362004f02565b60209081029190910181019190915260408051613a3160f11b92810192909252600060228301527f4d61746368536b79000000000000000000000000000000000000000000000000603083015262000ea4910162000e83565b7f629a4c26e296b22a8e0856e9f6ecb2d1008d7e00081111962cd175fa7488e175546000906001600160a01b03168062001087573391505090565b919050565b620010a16200109a620013c5565b8262001242565b620010ef5760405162461bcd60e51b815260206004820181905260248201527f63616c6c657220646f6573206e6f7420686176652074686520736b79206b6579604482015260640162000290565b50565b600080620010ff6200104c565b9050306001600160a01b038216036200112957620011208686868662001ea7565b915050620005e8565b6040517f8c364d590000000000000000000000000000000000000000000000000000000081526001600160a01b03821690638c364d599062001176908990899089908990600401620050e0565b602060405180830381865afa15801562001194573d6000803e3d6000fd5b505050506040513d601f19601f8201168201806040525081019062001120919062005111565b604080516000808252602082018352613a3160f11b82840152604282018190527f536b79506f6f6c436f6e666967000000000000000000000000000000000000006050830152825180830384018152606083019093529182906200123890620012239062004f18565b836003671f0140080805050560ba1b620010f2565b60601c9392505050565b600080836001600160a01b03166339f898bc6040518163ffffffff1660e01b8152600401602060405180830381865afa15801562001284573d6000803e3d6000fd5b505050506040513d601f19601f82011682018060405250810190620012aa919062005111565b90506000620012c3620012bd8360101b90565b62001ee3565b90506000620012d3828662001f17565b1195945050505050565b600080620012f5620012ef8462001f99565b62001fa6565b905062000c5c8162001ff0565b6040805160018082528183019092526000918291906020808301908036833701905050905082816000815181106200133e576200133e62004f02565b60209081029190910181019190915260408051613a3160f11b928101929092526000602283018190526a4d61746368436f6e66696760a81b603084015291620005e891016040516020818303038152906040526200139c9062004f18565b8360027eb4060020202020201400000000000000000000000000000000000000000000620010f2565b604080516000808252602082018352613a3160f11b82840152604282018190527f536b79506f6f6c436f6e6669670000000000000000000000000000000000000060508301528251808303840181526060830190935291829062001238906200142e9062004f18565b836004671f0140080805050560ba1b620010f2565b60006200144f62001d85565b90506000816001600160a01b03166339f898bc6040518163ffffffff1660e01b8152600401602060405180830381865afa15801562001492573d6000803e3d6000fd5b505050506040513d601f19601f82011682018060405250810190620014b8919062005111565b6040516001600160a01b03861660248201526044810185905290915060009060640160408051601f198184030181529181526020820180517bffffffffffffffffffffffffffffffffffffffffffffffffffffffff167fa9059cbb00000000000000000000000000000000000000000000000000000000179052519091506000906001600160a01b038816908190633ae7af08906200155e90879087906024016200512b565b60408051601f198184030181529181526020820180517bffffffffffffffffffffffffffffffffffffffffffffffffffffffff1660e09490941b939093179092529051620015ad925062005146565b600060405180830381855af49150503d8060008114620015ea576040519150601f19603f3d011682016040523d82523d6000602084013e620015ef565b606091505b5050905080620003ae5760405162461bcd60e51b815260206004820152601560248201527f746f6b656e207472616e73666572206661696c65640000000000000000000000604482015260640162000290565b6000620016cc826000015183602001518460400151856060015186608001518760a0015160408051602081019790975286810195909552606080870194909452608086019290925260a0850152901b7fffffffffffffffffffffffffffffffffffffffff0000000000000000000000001660c0830152805160b481840301815260d4909201905290565b6040805160018082528183019092529192506000916060918391906020808301908036833701905050905085816000815181106200170e576200170e62004f02565b60209081029190910181019190915260408051613a3160f11b92810192909252600060228301526a4d61746368436f6e66696760a81b603083015262000dee91015b6040516020818303038152906040526200176a9062004f18565b8286868662002030565b604080516001808252818301909252600091602080830190803683370190505090508281600081518110620017ad57620017ad62004f02565b60209081029190910181019190915260408051613a3160f11b81840152600060228201527f4d617463684e616d650000000000000000000000000000000000000000000000603082015281518082039093018352810190526200181f90620018159062004f18565b82600085620020ef565b505050565b6000620018306200219f565b6200183d90600162005164565b90506200184b83826200223f565b620018568162002353565b60006200186384620023ab565b9050600062001872826200246e565b519050600062001882826200249c565b905060008463ffffffff166001036200189d57508562001927565b600080620018ab8862002571565b9150915081620019235760405162461bcd60e51b8152602060048201526024808201527f636f756c64206e6f742066696e64206669727374206d6174636820696e20776960448201527f6e646f7700000000000000000000000000000000000000000000000000000000606482015260840162000290565b9150505b6000620019348262002673565b905060006200194482886200518b565b63ffffffff1690506000620019598262002716565b905060006200196762001d85565b9050806001600160a01b031663a9059cbb620019838d62000b10565b6040517fffffffff0000000000000000000000000000000000000000000000000000000060e084901b1681526001600160a01b039091166004820152602481018590526044016020604051808303816000875af1158015620019e9573d6000803e3d6000fd5b505050506040513d601f19601f8201168201806040525081019062001a0f9190620051ab565b5062001a1d8b42846200282c565b60005b865181101562001a7d57600060648489848151811062001a445762001a4462004f02565b602002602001015162001a589190620051c9565b62001a649190620051f9565b905062001a738d8383620028e2565b5060010162001a20565b5062001a898962002353565b62001a95898c62002999565b5050505050505050505050565b6000805b825181101562001ae55782818151811062001ac55762001ac562004f02565b60200260200101518262001ada919062004f53565b915060010162001aa6565b50919050565b60408051600280825260608201835260009283929190602083019080368337019050509050838160008151811062001b275762001b2762004f02565b602002602001018181525050828160018151811062001b4a5762001b4a62004f02565b60209081029190910181019190915260408051613a3160f11b928101929092526000602283018190527f4c6576656c54656d706c61746573496e0000000000000000000000000000000060308401529162001bc3910160405160208183030381529060405262001bba9062004f18565b83600062002a34565b6020900495945050505050565b60408051600180825281830190925260009160208083019080368337019050509050828160008151811062001c095762001c0962004f02565b60209081029190910181019190915260408051613a3160f11b92810192909252600060228301527f4d61746368416363657373436f6e74720000000000000000000000000000000060308301526200181f91015b60405160208183030381529060405262001c779062004f18565b8260008560405160200162001c8e91815260200190565b60408051601f198184030181529190527e2001002000000000000000000000000000000000000000000000000000000062002b01565b600062001cd18362002b7e565b9050600062001ce08362002baa565b9050600062001cef8462002bbe565b6040805160018082528183019092529192506000919060208083019080368337019050509050868160008151811062001d2c5762001d2c62004f02565b60209081029190910181019190915260408051613a3160f11b92810192909252600060228301527f4d6174636853776565707374616b6500000000000000000000000000000000006030830152620003ae910162001750565b604080516000808252602082018352613a3160f11b82840152604282018190527f536b79506f6f6c436f6e66696700000000000000000000000000000000000000605083015282518083038401815260608301909352918290620012389062001dee9062004f18565b836002671f0140080805050560ba1b620010f2565b600062001e0f6200104c565b9050306001600160a01b0382160362001e2e576200181f838362002bdd565b6040517f505a181d0000000000000000000000000000000000000000000000000000000081526001600160a01b0382169063505a181d9062001e7790869086906004016200521c565b600060405180830381600087803b15801562001e9257600080fd5b505af1158015620003ae573d6000803e3d6000fd5b600062001eda62001eb9868662002bf4565b60ff858116601b0360080285901c1662001ed4858762002c4c565b62002c81565b95945050505050565b6000620001f7613a3160f11b837f42616c616e63657300000000000000000000000000000000000000000000000062002cd7565b60408051600180825281830190925260009182919060208083019080368337019050509050826001600160a01b031660001b8160008151811062001f5f5762001f5f62004f02565b6020908102919091010152600062001eda8583837e20010020000000000000000000000000000000000000000000000000000000620010f2565b6000620001f78262002d60565b6040805180820190915260008082526020820152604051806040016040528062001fd08460801c90565b81526020016fffffffffffffffffffffffffffffffff8416905292915050565b60208101518151600091015b825181111562002021576200201383600162002d76565b505060018201915062001ffc565b50600060209092019190915290565b60006200203c6200104c565b9050306001600160a01b0382160362002064576200205e868686868662002e2e565b62000dee565b6040517f298314fb0000000000000000000000000000000000000000000000000000000081526001600160a01b0382169063298314fb90620020b3908990899089908990899060040162005237565b600060405180830381600087803b158015620020ce57600080fd5b505af1158015620020e3573d6000803e3d6000fd5b50505050505050505050565b6000620020fb6200104c565b9050306001600160a01b0382160362002122576200211c8585858562002e48565b6200048f565b6040517fef6ea8620000000000000000000000000000000000000000000000000000000081526001600160a01b0382169063ef6ea862906200216f9088908890889088906004016200528e565b600060405180830381600087803b1580156200218a57600080fd5b505af115801562000862573d6000803e3d6000fd5b604080516000808252602082018352613a3160f11b92820192909252604281018290527f4c6173744d61746368496e64657800000000000000000000000000000000000060508201528162002235606083015b6040516020818303038152906040526200220c9062004f18565b8360007e04010004000000000000000000000000000000000000000000000000000000620010f2565b60e01c9392505050565b60408051600180825281830190925260009160208083019080368337019050509050828160008151811062002278576200227862004f02565b60209081029190910181019190915260408051613a3160f11b92810192909252600060228301527f4d61746368496e6465780000000000000000000000000000000000000000000060308301526200181f91015b604051602081830303815290604052620022e69062004f18565b6040517fffffffff0000000000000000000000000000000000000000000000000000000060e086901b166020820152839060009060240160408051601f198184030181529190527e0401000400000000000000000000000000000000000000000000000000000062002b01565b604080516000808252602082018352613a3160f11b9282019290925260428101919091527f4c6173744d61746368496e646578000000000000000000000000000000000000605082015262000ea460608201620022cc565b604080516001808252818301909252600091829190602080830190803683370190505090508281600081518110620023e757620023e762004f02565b60209081029190910181019190915260408051613a3160f11b928101929092526000602283018190526a4d61746368436f6e66696760a81b603084015291620005e89101604051602081830303815290604052620024459062004f18565b8360037eb4060020202020201400000000000000000000000000000000000000000000620010f2565b6060620001f7827f537061776e536574746c656d656e74000000000000000000000000000000000062002e88565b60408051600180825281830190925260609160009190602080830190803683370190505090508260001b81600081518110620024dc57620024dc62004f02565b60209081029190910181019190915260408051613a3160f11b928101929092526000602283018190527f4d617463685265776172645065726365000000000000000000000000000000006030840152916200255691015b6040516020818303038152906040526200254d9062004f18565b83600062002f58565b9050620005e86200256b826000845162003019565b620030b1565b60008060006200258a62002584620030c4565b62003142565b90506000620025998562003162565b90506000620025a88662002673565b9050856000620025b9838662003237565b90506000841580620025cb5750858510155b9050808015620025d85750815b15620025ec57506001989650505050505050565b81158015620025f85750805b156200260c57506000989650505050505050565b60015b60048163ffffffff1610156200266757620026356200262f828762005164565b6200328b565b9350620026428462003162565b95508686106200265e5750600199929850919650505050505050565b6001016200260f565b50505050505050915091565b604080516001808252818301909252600091829190602080830190803683370190505090508281600081518110620026af57620026af62004f02565b60209081029190910181019190915260408051613a3160f11b928101929092526000602283018190527f4d61746368496e646578000000000000000000000000000000000000000000006030840152916200270b9101620021f2565b60e01c949350505050565b6000806200272362000bde565b905060c88310156200273c5762000c5c816005620051c9565b610190831015620027545762000c5c816004620051c9565b6102588310156200276c5762000c5c816003620051c9565b610320831015620027845762000c5c816002620051c9565b6103e8831015620027955792915050565b6104b0831015620027bb576005620027af826004620051c9565b62000c5c9190620051f9565b610578831015620027d5576005620027af826003620051c9565b610640831015620027ef576005620027af826002620051c9565b61070883101562002809576005620027af826001620051c9565b6107d08310156200282357600a620027af826001620051c9565b50600092915050565b6040805160208082018590528183018490528251808303840181526001606080850182815260a086019096529194600094929385939192916080019080368337019050509050868160008151811062002889576200288962004f02565b60209081029190910181019190915260408051613a3160f11b92810192909252600060228301527f4d61746368536b790000000000000000000000000000000000000000000000006030830152620003ae910162001750565b60408051600280825260608201835260009260208301908036833701905050905083816000815181106200291a576200291a62004f02565b6020026020010181815250508260001b8160018151811062002940576200294062004f02565b60209081029190910181019190915260408051613a3160f11b92810192909252600060228301527f4d617463685265776172640000000000000000000000000000000000000000006030830152620002a9910162001c5d565b604080516001808252818301909252600091602080830190803683370190505090508263ffffffff1660001b81600081518110620029db57620029db62004f02565b60209081029190910181019190915260408051613a3160f11b92810192909252600060228301527f4d61746368496e646578546f456e74690000000000000000000000000000000060308301526200181f910162001c5d565b60008062002a416200104c565b9050306001600160a01b0382160362002a6a5762002a6185858562003298565b91505062000c5c565b6040517fdbbf0e210000000000000000000000000000000000000000000000000000000081526001600160a01b0382169063dbbf0e219062002ab590889088908890600401620052c6565b602060405180830381865afa15801562002ad3573d6000803e3d6000fd5b505050506040513d601f19601f8201168201806040525081019062002a61919062005111565b509392505050565b600062002b0d6200104c565b9050306001600160a01b0382160362002b2f576200205e8686868686620032c0565b6040517f390baae00000000000000000000000000000000000000000000000000000000081526001600160a01b0382169063390baae090620020b39089908990899089908990600401620052f4565b60608160405160200162002b9491815260200190565b6040516020818303038152906040529050919050565b6000620001f78251602002603881901b1790565b606062002bcb82620032d9565b60405160200162002b94919062005146565b62000ea4828262002bee85620032eb565b62003422565b6000828260405160200162002c0b9291906200533f565b60408051601f1981840301815291905280516020909101207f86425bff6b57326c7859e89024fe4f238ca327a1ae4a230180dd2f0e88aaa7d9189392505050565b600080805b8360ff1681101562002af95762002c7660ff601b83900360080287901c168362004f53565b915060010162002c51565b60006020821062002cab5760208204840193506020828162002ca75762002ca7620051e3565b0691505b508254600882021b60208290038084111562002af9576001850154600882021c82179150509392505050565b600062002ce76070601062004f53565b7fffff00000000000000000000000000000000000000000000000000000000000085167dffffffffffffffffffffffffffff00000000000000000000000000000000601086901c16177fffffffffffffffffffffffffffffffff00000000000000000000000000000000841690911c1790509392505050565b60008060208301905062000c5c818451620036fc565b815151600062002d86826200370a565b9050836020015181111562002dde57821562002dce576040517fc0c0a5c700000000000000000000000000000000000000000000000000000000815260040160405180910390fd5b5082516001018352600062002e27565b8060000362002e2057821562002dce576040517fc0c0a5c700000000000000000000000000000000000000000000000000000000815260040160405180910390fd5b8351810184525b9250929050565b6200048f858585858562002e428b620032eb565b62003962565b600062002e56858562003c6e565b9050600062002e74828560ff166028026038011c64ffffffffff1690565b905062000dee868686600085888862003c84565b60408051600280825260608083018452926000929190602083019080368337019050509050838160008151811062002ec45762002ec462004f02565b602002602001018181525050828160018151811062002ee75762002ee762004f02565b60209081029190910181019190915260408051613a3160f11b928101929092526000602283018190527f4c6576656c54656d706c61746573496e0000000000000000000000000000000060308401529162002f43910162002533565b905062001eda6200256b826000845162003019565b6060600062002f666200104c565b9050306001600160a01b0382160362002f865762002a61858585620040be565b6040517f1e7889770000000000000000000000000000000000000000000000000000000081526001600160a01b03821690631e7889779062002fd190889088908890600401620052c6565b600060405180830381865afa15801562002fef573d6000803e3d6000fd5b505050506040513d6000823e601f3d908101601f1916820160405262002a6191908101906200537d565b60008183111580156200302d575083518211155b6200306c578383836040517f23230fa30000000000000000000000000000000000000000000000000000000081526004016200029093929190620053b6565b602084016200307c848262004f53565b905060006200308c8585620053dd565b6fffffffffffffffffffffffffffffffff1660809290921b9190911795945050505050565b6060600062000c5c8360206000620040ea565b604080516000808252602082018352613a3160f11b82840152604282018190527f536b79506f6f6c436f6e6669670000000000000000000000000000000000000060508301528251808303840181526060830190935291829062000c5c906200312d9062004f18565b836001671f0140080805050560ba1b620010f2565b6000428183821162003156576000620005e8565b620005e88483620053dd565b6040805160018082528183019092526000918291906020808301908036833701905050905082816000815181106200319e576200319e62004f02565b60209081029190910181019190915260408051613a3160f11b928101929092526000602283018190527f4d61746368536b79000000000000000000000000000000000000000000000000603084015291620005e891016040516020818303038152906040526200320e9062004f18565b8360007e40020020200000000000000000000000000000000000000000000000000000620010f2565b600080620032476001856200518b565b90508063ffffffff1660000362003263576001915050620001f7565b600062003270826200328b565b905060006200327f8262003162565b90941195945050505050565b6000620001f7826200416b565b6000620005e882620032ab868662003c6e565b9060ff166028026038011c64ffffffffff1690565b6200048f8585620032d2848762002c4c565b8562004249565b60608162000c5c8160206000620044b0565b60408051613a3160f11b60208201527f73746f726500000000000000000000000000000000000000000000000000000060228201527f5461626c65730000000000000000000000000000000000000000000000000000603082015260009101604051602081830303815290604052620033649062004f18565b82036200339157507e60030220202000000000000000000000000000000000000000000000000000919050565b60408051613a3160f11b60208201527f73746f726500000000000000000000000000000000000000000000000000000060228201527f5461626c657300000000000000000000000000000000000000000000000000006030820152620001f791620034189101604051602081830303815290604052620034119062004f18565b8462004508565b6020600062002c81565b827f0e1f72f429eb97e64878619984a91e687ae91610348b9ff4216782cc96e49d0783604051620034549190620053f3565b60405180910390a2613a3160f11b837fffff00000000000000000000000000000000000000000000000000000000000016146200349057505050565b60006200349d8462004525565b905060005b81518110156200357c576000828281518110620034c357620034c362004f02565b60200260200101519050620034f16040826affffffffffffffffffffff19166200461090919063ffffffff16565b1562003572576040517f9faeaf45000000000000000000000000000000000000000000000000000000008152606082901c90639faeaf45906200353d9089908990899060040162005408565b600060405180830381600087803b1580156200355857600080fd5b505af11580156200356d573d6000803e3d6000fd5b505050505b50600101620034a2565b5060006200358b858562002bf4565b9050620035ec8160006200359f866200462f565b67ffffffffffffffff811115620035ba57620035ba62004bf6565b6040519080825280601f01601f191660200182016040528015620035e5576020820181803683370190505b5062004656565b6000620035f98462004668565b11156200361f5760006200360e8686620046ad565b90506200361d81602062004705565b505b60005b825181101562000dee57600083828151811062003643576200364362004f02565b60200260200101519050620036716080826affffffffffffffffffffff19166200461090919063ffffffff16565b15620036f2576040517f83b5c95b000000000000000000000000000000000000000000000000000000008152606082901c906383b5c95b90620036bd908a908a908a9060040162005408565b600060405180830381600087803b158015620036d857600080fd5b505af1158015620036ed573d6000803e3d6000fd5b505050505b5060010162003622565b600062000c5c83836200474a565b600081811a607f8111620037215750600192915050565b6000620037318260ff1662004758565b9050806002036200378b578160ff1660c21115801562003755575060df8260ff1611155b8015620037715750620037718460015b1a608060c09091161490565b1562003781575060029392505050565b5060009392505050565b806003036200388a57600184901a600060ff841660e0148015620037b357508160ff1660a011155b8015620037c4575060bf8260ff1611155b80620037f457508360ff1660e111158015620037e4575060ec8460ff1611155b8015620037f4575060c082166080145b806200382457508360ff1660ed1480156200381357508160ff16608011155b8015620038245750609f8260ff1611155b806200385457508360ff1660ee1115801562003844575060ef8460ff1611155b801562003854575060c082166080145b90508080156200386c57506200386c86600262003765565b156200387e5750600395945050505050565b50600095945050505050565b806004036200378157600184901a600060ff841660f0148015620038b257508160ff16609011155b8015620038c3575060bf8260ff1611155b80620038f357508360ff1660f111158015620038e3575060f38460ff1611155b8015620038f3575060c082166080145b806200392357508360ff1660f41480156200391257508160ff16608011155b8015620039235750608f8260ff1611155b90508080156200393b57506200393b86600262003765565b80156200395057506200395086600362003765565b156200387e5750600495945050505050565b857f8dbb3a9672eebfd3773e72dd9c102393436816d832c7ba9e1e1ac8fcadcac7a9868686866040516200399a949392919062005423565b60405180910390a2613a3160f11b867fffff000000000000000000000000000000000000000000000000000000000000160362000dee576000620039de8762004525565b905060005b815181101562003ac357600082828151811062003a045762003a0462004f02565b6020026020010151905062003a326001826affffffffffffffffffffff19166200461090919063ffffffff16565b1562003ab9576040517f57066c9c000000000000000000000000000000000000000000000000000000008152606082901c906357066c9c9062003a84908c908c908c908c908c908c9060040162005468565b600060405180830381600087803b15801562003a9f57600080fd5b505af115801562003ab4573d6000803e3d6000fd5b505050505b50600101620039e3565b50600062003ad2888862002bf4565b9050600060208701905062003aec826000838a51620047bc565b600062003af98562004668565b111562003b8b57600062003b0e8a8a620046ad565b878155905060208601915060008060005b62003b2a8862004668565b8160ff16101562003b865762003b428d8d8362004887565b925062003b5e8a8260ff166028026038011c64ffffffffff1690565b915062003b6f8360008785620047bc565b62003b7b828662004f53565b945060010162003b1f565b505050505b60005b8351811015620020e357600084828151811062003baf5762003baf62004f02565b6020026020010151905062003bdd6002826affffffffffffffffffffff19166200461090919063ffffffff16565b1562003c64576040517f5b28cdaf000000000000000000000000000000000000000000000000000000008152606082901c90635b28cdaf9062003c2f908e908e908e908e908e908e9060040162005468565b600060405180830381600087803b15801562003c4a57600080fd5b505af115801562003c5f573d6000803e3d6000fd5b505050505b5060010162003b8e565b600062000c5c62003c808484620046ad565b5490565b613a3160f11b877fffff000000000000000000000000000000000000000000000000000000000000161462003d1257613a3160f11b878860405160200162003cce91815260200190565b60408051601f19818403018152908290527f31b4668300000000000000000000000000000000000000000000000000000000825262000290939291600401620054c7565b600062003d2e828760ff166028026038011c64ffffffffff1690565b9050600083518564ffffffffff168362003d499190620053dd565b62003d55919062004f53565b905080821415801562003d7a57508162003d7086886200550a565b64ffffffffff1614155b1562003dcc576040517fa65010b400000000000000000000000000000000000000000000000000000000815264ffffffffff808816600483015280871660248301528316604482015260640162000290565b818664ffffffffff16111562003e1f576040517f7e8578d30000000000000000000000000000000000000000000000000000000081526004810183905264ffffffffff8716602482015260440162000290565b600062003e2e84898462004909565b905064ffffffffff871660005b8960ff168160ff16101562003e715762003e64868260ff166028026038011c64ffffffffff1690565b9091019060010162003e3b565b508a7faa63765a776145e5e6492f471ae097dfed11cd57a61bc2679dd43180422385b48b838a868b60405162003eac9594939291906200552b565b60405180910390a250600062003ec28b62004525565b905060005b815181101562003f9957600082828151811062003ee85762003ee862004f02565b6020026020010151905062003f166010826affffffffffffffffffffff19166200461090919063ffffffff16565b1562003f8f57606081901c6001600160a01b03166355eb5a288e8e8e8e8e8a8f6040518863ffffffff1660e01b815260040162003f5a979695949392919062005575565b600060405180830381600087803b15801562003f7557600080fd5b505af115801562003f8a573d6000803e3d6000fd5b505050505b5060010162003ec7565b5082841462003fb557600062003fb08c8c620046ad565b839055505b600062003fc48c8c8c62004887565b905062003fda818a64ffffffffff168962004656565b5060005b8151811015620040b057600082828151811062003fff5762003fff62004f02565b602002602001015190506200402d6020826affffffffffffffffffffff19166200461090919063ffffffff16565b15620040a657606081901c6001600160a01b031663635845338e8e8e8e8e8a8f6040518863ffffffff1660e01b815260040162004071979695949392919062005575565b600060405180830381600087803b1580156200408c57600080fd5b505af1158015620040a1573d6000803e3d6000fd5b505050505b5060010162003fde565b505050505050505050505050565b6060620005e8620040d185858562004887565b620040e284620032ab888862003c6e565b6000620049db565b60606000620040f98560801c90565b90506fffffffffffffffffffffffffffffffff85166000858281620041225762004122620051e3565b04905060405193506020840160208202810160405281855260005b828110156200415f578451871c8252938701936020909101906001016200413d565b50505050509392505050565b604080516001808252818301909252600091829190602080830190803683370190505090508263ffffffff1660001b81600081518110620041b057620041b062004f02565b60209081029190910181019190915260408051613a3160f11b928101929092526000602283018190527f4d61746368496e646578546f456e746900000000000000000000000000000000603084015291620005e89101604051602081830303815290604052620042209062004f18565b8360007e20010020000000000000000000000000000000000000000000000000000000620010f2565b600062004257858562002bf4565b9050847f8c0b5119d4cec7b284c6b1b39252a03d1e2f2d7451a5895562524c113bb952be8585856040516200428f93929190620055d7565b60405180910390a2613a3160f11b857fffff0000000000000000000000000000000000000000000000000000000000001614620042cd5750620002a9565b6000620042da8662004525565b905060005b8151811015620043bb57600082828151811062004300576200430062004f02565b602002602001015190506200432e6004826affffffffffffffffffffff19166200461090919063ffffffff16565b15620043b1576040517f964f667d000000000000000000000000000000000000000000000000000000008152606082901c9063964f667d906200437c908b908b908b908b9060040162005618565b600060405180830381600087803b1580156200439757600080fd5b505af1158015620043ac573d6000803e3d6000fd5b505050505b50600101620042df565b50620043d1828565ffffffffffff168562004656565b60005b8151811015620003ae576000828281518110620043f557620043f562004f02565b60200260200101519050620044236008826affffffffffffffffffffff19166200461090919063ffffffff16565b15620044a6576040517fa8ba8721000000000000000000000000000000000000000000000000000000008152606082901c9063a8ba87219062004471908b908b908b908b9060040162005618565b600060405180830381600087803b1580156200448c57600080fd5b505af1158015620044a1573d6000803e3d6000fd5b505050505b50600101620043d4565b82516060906000620044c38583620051c9565b9050604051925060208301601f19603f83860101166040528184526000602088015b848210156200415f578051871b83529187019160019190910190602001620044e5565b604080516020810184905290810182905260009060600162002c0b565b6040805160018082528183019092526060916000919060208083019080368337019050509050828160008151811062004562576200456262004f02565b60209081029190910181019190915260408051613a3160f11b818401527f73746f726500000000000000000000000000000000000000000000000000000060228201527f53746f7265486f6f6b730000000000000000000000000000000000000000000060308201528151808203909301835281019052600090620045f590620045ec9062004f18565b836000620040be565b9050620005e86200460a826000845162003019565b62004a00565b60008160ff1682620046228560581c90565b1660ff1614905092915050565b600060086200464160026020620053dd565b6200464d9190620051c9565b9190911c919050565b6200181f8383602084018451620047bc565b600060086001806200467d60026020620053dd565b620046899190620053dd565b620046959190620053dd565b620046a19190620051c9565b8260ff911c1692915050565b60008282604051602001620046c49291906200533f565b60408051601f1981840301815291905280516020909101207f14e2fcc58e58e68ec7edc30c8d50dccc3ce2714a623ec81f46b6a63922d76569189392505050565b600060206200471683601f62004f53565b620047229190620051f9565b6200472e908462004f53565b90505b808310156200181f576000835560018301925062004731565b600062000c5c838362004a13565b600060808210156200476c57506001919050565b60c28210156200477e57506000919050565b60e08210156200479057506002919050565b60f0821015620047a257506003919050565b60f5821015620047b457506004919050565b506000919050565b82156200483e5760208310620047eb57602083048401935060208381620047e757620047e7620051e3565b0692505b82156200483e5760208390036000600019600884021c1990506008850281811c91508451811c90508119875416828216178755508183116200482f575050620002a9565b50600194909401939182019190035b5b60208110620048625781518455600190930192602090910190601f19016200483f565b8015620002a9576000600019600883021c198554845182169119161785555050505050565b600083836040516020016200489e9291906200533f565b604051602081830303815290604052805190602001208260f81b7effffffffffffffffffffffffffffffffffffffffffffffffffffffffffffff19167f3b4102da22e32d82fc925482184f16c09fd4281692720b87d124aef6da48a0f1181860001c90509392505050565b600064ffffffffff8211156200494f576040517f476705880000000000000000000000000000000000000000000000000000000081526004810183905260240162000290565b8366ffffffffffffff811660ff851660280260380182901c64ffffffffff168085106200498357808503820191506200498b565b848103820391505b5064ffffffffff6038602860ff8816020181811b197fffffffffffffffffffffffffffffffffffffffffffffffffff000000000000009490941690921792909216918416901b1790509392505050565b60405160208101601f19603f858401011660405283825262002af98585858462004ac8565b6060600062000c5c8360156000620040ea565b60006fffffffffffffffffffffffffffffffff83111562004a60576040517ffee7506f00000000000000000000000000000000000000000000000000000000815260040160405180910390fd5b6fffffffffffffffffffffffffffffffff82111562004aab576040517f3b6b098d00000000000000000000000000000000000000000000000000000000815260040160405180910390fd5b506fffffffffffffffffffffffffffffffff1660809190911b1790565b811562004b5b576020821062004af75760208204840193506020828162004af35762004af3620051e3565b0691505b811562004b5b57602082900360008185101562004b1e5750600019600885021c1962004b29565b50600019600882021c195b8554600885021b81198451168282161784525081851162004b4c575050620002a9565b50600194909401939283900392015b5b6020831062004b7f5783548152600190930192601f199092019160200162004b5c565b8215620002a9576000600019600885021c198251865482169119161782525050505050565b6106f6806200565683390190565b60006020828403121562004bc557600080fd5b81357fffffffff000000000000000000000000000000000000000000000000000000008116811462000c5c57600080fd5b634e487b7160e01b600052604160045260246000fd5b604051601f8201601f1916810167ffffffffffffffff8111828210171562004c385762004c3862004bf6565b604052919050565b600067ffffffffffffffff82111562004c5d5762004c5d62004bf6565b50601f01601f191660200190565b600082601f83011262004c7d57600080fd5b813562004c9462004c8e8262004c40565b62004c0c565b81815284602083860101111562004caa57600080fd5b816020850160208301376000918101602001919091529392505050565b6000806000806080858703121562004cde57600080fd5b843567ffffffffffffffff81111562004cf657600080fd5b62004d048782880162004c6b565b97602087013597506040870135966060013595509350505050565b600082601f83011262004d3157600080fd5b8135602067ffffffffffffffff82111562004d505762004d5062004bf6565b8160051b62004d6182820162004c0c565b928352848101820192828101908785111562004d7c57600080fd5b83870192505b8483101562004d9d5782358252918301919083019062004d82565b979650505050505050565b600080600080600080600060e0888a03121562004dc457600080fd5b873567ffffffffffffffff8082111562004ddd57600080fd5b62004deb8b838c0162004c6b565b985060208a0135975060408a0135965060608a0135955060808a0135945060a08a0135935060c08a013591508082111562004e2557600080fd5b5062004e348a828b0162004d1f565b91505092959891949750929550565b60006020828403121562004e5657600080fd5b5035919050565b600080600080600080600080610100898b03121562004e7b57600080fd5b883567ffffffffffffffff8082111562004e9457600080fd5b62004ea28c838d0162004c6b565b995060208b0135985060408b0135975060608b0135965060808b0135955060a08b0135945060c08b013591508082111562004edc57600080fd5b5062004eeb8b828c0162004d1f565b92505060e089013590509295985092959890939650565b634e487b7160e01b600052603260045260246000fd5b8051602080830151919081101562001ae55760001960209190910360031b1b16919050565b634e487b7160e01b600052601160045260246000fd5b80820180821115620001f757620001f762004f3d565b60005b8381101562004f8657818101518382015260200162004f6c565b50506000910152565b6000815180845262004fa981602086016020860162004f69565b601f01601f19169290920160200192915050565b6001600160a01b038416815260606020820152600062004fe1606083018562004f8f565b9050826040830152949350505050565b805180151581146200108757600080fd5b600082601f8301126200501457600080fd5b81516200502562004c8e8262004c40565b8181528460208386010111156200503b57600080fd5b620005e882602083016020870162004f69565b600080604083850312156200506257600080fd5b6200506d8362004ff1565b9150602083015167ffffffffffffffff8111156200508a57600080fd5b620050988582860162005002565b9150509250929050565b60008151808452602080850194506020840160005b83811015620050d557815187529582019590820190600101620050b7565b509495945050505050565b848152608060208201526000620050fb6080830186620050a2565b60ff949094166040830152506060015292915050565b6000602082840312156200512457600080fd5b5051919050565b828152604060208201526000620005e8604083018462004f8f565b600082516200515a81846020870162004f69565b9190910192915050565b63ffffffff81811683821601908082111562005184576200518462004f3d565b5092915050565b63ffffffff82811682821603908082111562005184576200518462004f3d565b600060208284031215620051be57600080fd5b62000c5c8262004ff1565b8082028115828204841417620001f757620001f762004f3d565b634e487b7160e01b600052601260045260246000fd5b6000826200521757634e487b7160e01b600052601260045260246000fd5b500490565b828152604060208201526000620005e86040830184620050a2565b85815260a0602082015260006200525260a0830187620050a2565b828103604084015262005266818762004f8f565b9050846060840152828103608084015262005282818562004f8f565b98975050505050505050565b848152608060208201526000620052a96080830186620050a2565b60ff85166040840152828103606084015262004d9d818562004f8f565b838152606060208201526000620052e16060830185620050a2565b905060ff83166040830152949350505050565b85815260a0602082015260006200530f60a0830187620050a2565b60ff8616604084015282810360608401526200532c818662004f8f565b9150508260808301529695505050505050565b8281526000602080830184516020860160005b82811015620053705781518452928401929084019060010162005352565b5091979650505050505050565b6000602082840312156200539057600080fd5b815167ffffffffffffffff811115620053a857600080fd5b620005e88482850162005002565b606081526000620053cb606083018662004f8f565b60208301949094525060400152919050565b81810381811115620001f757620001f762004f3d565b60208152600062000c5c6020830184620050a2565b83815260606020820152600062004fe16060830185620050a2565b608081526000620054386080830187620050a2565b82810360208401526200544c818762004f8f565b9050846040840152828103606084015262004d9d818562004f8f565b86815260c0602082015260006200548360c0830188620050a2565b828103604084015262005497818862004f8f565b90508560608401528281036080840152620054b3818662004f8f565b9150508260a0830152979650505050505050565b7fffff0000000000000000000000000000000000000000000000000000000000008416815282602082015260606040820152600062001eda606083018462004f8f565b64ffffffffff81811683821601908082111562005184576200518462004f3d565b60a0815260006200554060a0830188620050a2565b65ffffffffffff8716602084015264ffffffffff86166040840152846060840152828103608084015262005282818562004f8f565b87815260e0602082015260006200559060e0830189620050a2565b60ff8816604084015264ffffffffff87811660608501528616608084015260a0830185905282810360c0840152620055c9818562004f8f565b9a9950505050505050505050565b606081526000620055ec6060830186620050a2565b65ffffffffffff8516602084015282810360408401526200560e818562004f8f565b9695505050505050565b848152608060208201526000620056336080830186620050a2565b65ffffffffffff85166040840152828103606084015262004d9d818562004f8f56fe608060405234801561001057600080fd5b506040516106f63803806106f683398101604081905261002f9161007e565b600080546001600160a01b0319166001600160a01b03831690811782556040518392907f8be0079c531659141344cd1fd0a4f28419497f9722a3daafe3b4186f6b6457e0908290a350506100ae565b60006020828403121561009057600080fd5b81516001600160a01b03811681146100a757600080fd5b9392505050565b610639806100bd6000396000f3fe60806040526004361061003f5760003560e01c80636e2d44ae146100445780638da5cb5b1461006e578063edee6239146100c0578063f2fde38b146100d3575b600080fd5b6100576100523660046104c0565b6100f5565b60405161006592919061053b565b60405180910390f35b34801561007a57600080fd5b5060005461009b9073ffffffffffffffffffffffffffffffffffffffff1681565b60405173ffffffffffffffffffffffffffffffffffffffff9091168152602001610065565b6100576100ce366004610577565b6101f4565b3480156100df57600080fd5b506100f36100ee3660046105c5565b6102ea565b005b6000805460609073ffffffffffffffffffffffffffffffffffffffff16331461017f576040517f08c379a000000000000000000000000000000000000000000000000000000000815260206004820152600c60248201527f554e415554484f52495a4544000000000000000000000000000000000000000060448201526064015b60405180910390fd5b8473ffffffffffffffffffffffffffffffffffffffff1683856040516101a591906105e7565b60006040518083038185875af1925050503d80600081146101e2576040519150601f19603f3d011682016040523d82523d6000602084013e6101e7565b606091505b5090969095509350505050565b6000805460609073ffffffffffffffffffffffffffffffffffffffff163314610279576040517f08c379a000000000000000000000000000000000000000000000000000000000815260206004820152600c60248201527f554e415554484f52495a454400000000000000000000000000000000000000006044820152606401610176565b8373ffffffffffffffffffffffffffffffffffffffff168360405161029e91906105e7565b600060405180830381855af49150503d80600081146102d9576040519150601f19603f3d011682016040523d82523d6000602084013e6102de565b606091505b50909590945092505050565b60005473ffffffffffffffffffffffffffffffffffffffff16331461036b576040517f08c379a000000000000000000000000000000000000000000000000000000000815260206004820152600c60248201527f554e415554484f52495a454400000000000000000000000000000000000000006044820152606401610176565b600080547fffffffffffffffffffffffff00000000000000000000000000000000000000001673ffffffffffffffffffffffffffffffffffffffff83169081178255604051909133917f8be0079c531659141344cd1fd0a4f28419497f9722a3daafe3b4186f6b6457e09190a350565b803573ffffffffffffffffffffffffffffffffffffffff811681146103ff57600080fd5b919050565b7f4e487b7100000000000000000000000000000000000000000000000000000000600052604160045260246000fd5b600082601f83011261044457600080fd5b813567ffffffffffffffff8082111561045f5761045f610404565b604051601f8301601f19908116603f0116810190828211818310171561048757610487610404565b816040528381528660208588010111156104a057600080fd5b836020870160208301376000602085830101528094505050505092915050565b6000806000606084860312156104d557600080fd5b6104de846103db565b9250602084013567ffffffffffffffff8111156104fa57600080fd5b61050686828701610433565b925050604084013590509250925092565b60005b8381101561053257818101518382015260200161051a565b50506000910152565b82151581526040602082015260008251806040840152610562816060850160208701610517565b601f01601f1916919091016060019392505050565b6000806040838503121561058a57600080fd5b610593836103db565b9150602083013567ffffffffffffffff8111156105af57600080fd5b6105bb85828601610433565b9150509250929050565b6000602082840312156105d757600080fd5b6105e0826103db565b9392505050565b600082516105f9818460208701610517565b919091019291505056fea26469706673582212202bd4acd092ef860203cea202f9cc0542290634be565527a7ab81b6ebac4de26164736f6c63430008170033a2646970667358221220b43787745453f9628e75f69b6d08fb9b69a28b0c200e6426d4a660693217415464736f6c63430008170033","linkReferences":{}},"methodIdentifiers":{"_msgSender()":"119df25f","_msgValue()":"45ec9354","_world()":"e1af802c","adminDestroyMatch(bytes32)":"68599d38","createMatch(string,bytes32,bytes32,bytes32)":"127de47a","createMatchSeasonPass(string,bytes32,bytes32,bytes32,bytes32,uint256,uint256[])":"4ba6de63","createMatchSkyKey(string,bytes32,bytes32,bytes32,bytes32,uint256,uint256[],uint256)":"f9059113","supportsInterface(bytes4)":"01ffc9a7"},"id":455}