{"abi":[{"type":"function","name":"_msgSender","inputs":[],"outputs":[{"name":"sender","type":"address","internalType":"address"}],"stateMutability":"view"},{"type":"function","name":"_msgValue","inputs":[],"outputs":[{"name":"value","type":"uint256","internalType":"uint256"}],"stateMutability":"pure"},{"type":"function","name":"_world","inputs":[],"outputs":[{"name":"","type":"address","internalType":"address"}],"stateMutability":"view"},{"type":"function","name":"getName","inputs":[],"outputs":[{"name":"","type":"bytes16","internalType":"bytes16"}],"stateMutability":"pure"},{"type":"function","name":"install","inputs":[{"name":"args","type":"bytes","internalType":"bytes"}],"outputs":[],"stateMutability":"nonpayable"},{"type":"function","name":"installRoot","inputs":[{"name":"","type":"bytes","internalType":"bytes"}],"outputs":[],"stateMutability":"pure"},{"type":"function","name":"supportsInterface","inputs":[{"name":"interfaceId","type":"bytes4","internalType":"bytes4"}],"outputs":[{"name":"","type":"bool","internalType":"bool"}],"stateMutability":"pure"},{"type":"event","name":"Store_SetRecord","inputs":[{"name":"tableId","type":"bytes32","indexed":true,"internalType":"ResourceId"},{"name":"keyTuple","type":"bytes32[]","indexed":false,"internalType":"bytes32[]"},{"name":"staticData","type":"bytes","indexed":false,"internalType":"bytes"},{"name":"encodedLengths","type":"bytes32","indexed":false,"internalType":"PackedCounter"},{"name":"dynamicData","type":"bytes","indexed":false,"internalType":"bytes"}],"anonymous":false},{"type":"event","name":"Store_SpliceStaticData","inputs":[{"name":"tableId","type":"bytes32","indexed":true,"internalType":"ResourceId"},{"name":"keyTuple","type":"bytes32[]","indexed":false,"internalType":"bytes32[]"},{"name":"start","type":"uint48","indexed":false,"internalType":"uint48"},{"name":"data","type":"bytes","indexed":false,"internalType":"bytes"}],"anonymous":false},{"type":"error","name":"ERC20Module_InvalidNamespace","inputs":[{"name":"namespace","type":"bytes14","internalType":"bytes14"}]},{"type":"error","name":"FieldLayoutLib_InvalidLength","inputs":[{"name":"length","type":"uint256","internalType":"uint256"}]},{"type":"error","name":"FieldLayoutLib_StaticLengthDoesNotFitInAWord","inputs":[]},{"type":"error","name":"FieldLayoutLib_StaticLengthIsZero","inputs":[]},{"type":"error","name":"Module_AlreadyInstalled","inputs":[]},{"type":"error","name":"Module_MissingDependency","inputs":[{"name":"dependency","type":"string","internalType":"string"}]},{"type":"error","name":"Module_NonRootInstallNotSupported","inputs":[]},{"type":"error","name":"Module_RootInstallNotSupported","inputs":[]},{"type":"error","name":"SchemaLib_InvalidLength","inputs":[{"name":"length","type":"uint256","internalType":"uint256"}]},{"type":"error","name":"SchemaLib_StaticTypeAfterDynamicType","inputs":[]},{"type":"error","name":"Slice_OutOfBounds","inputs":[{"name":"data","type":"bytes","internalType":"bytes"},{"name":"start","type":"uint256","internalType":"uint256"},{"name":"end","type":"uint256","internalType":"uint256"}]},{"type":"error","name":"Store_InvalidFieldNamesLength","inputs":[{"name":"expected","type":"uint256","internalType":"uint256"},{"name":"received","type":"uint256","internalType":"uint256"}]},{"type":"error","name":"Store_InvalidKeyNamesLength","inputs":[{"name":"expected","type":"uint256","internalType":"uint256"},{"name":"received","type":"uint256","internalType":"uint256"}]},{"type":"error","name":"Store_InvalidResourceType","inputs":[{"name":"expected","type":"bytes2","internalType":"bytes2"},{"name":"resourceId","type":"bytes32","internalType":"ResourceId"},{"name":"resourceIdString","type":"string","internalType":"string"}]},{"type":"error","name":"Store_InvalidValueSchemaLength","inputs":[{"name":"expected","type":"uint256","internalType":"uint256"},{"name":"received","type":"uint256","internalType":"uint256"}]},{"type":"error","name":"Store_TableAlreadyExists","inputs":[{"name":"tableId","type":"bytes32","internalType":"ResourceId"},{"name":"tableIdString","type":"string","internalType":"string"}]}],"bytecode":{"object":"0x60a0604052604051620000129062000050565b604051809103906000f0801580156200002f573d6000803e3d6000fd5b506001600160a01b03166080523480156200004957600080fd5b506200005e565b61489580620034ba83390190565b6080516134406200007a600039600061034a01526134406000f3fe608060405234801561001057600080fd5b506004361061007d5760003560e01c806317d7de7c1161005b57806317d7de7c146100df57806345ec93541461010d5780637c5b033514610120578063e1af802c1461013357600080fd5b806301ffc9a714610082578063119df25f146100aa57806313861fb5146100ca575b600080fd5b610095610090366004612be9565b61013b565b60405190151581526020015b60405180910390f35b6100b26101d4565b6040516001600160a01b0390911681526020016100a1565b6100dd6100d8366004612cc3565b6101e3565b005b6040517f65726332302d707570706574000000000000000000000000000000000000000081526020016100a1565b604051601f1936013581526020016100a1565b6100dd61012e366004612cc3565b6106a0565b6100b26106d2565b60007fffffffff0000000000000000000000000000000000000000000000000000000082167f79f50b5b0000000000000000000000000000000000000000000000000000000014806101ce57507fffffffff0000000000000000000000000000000000000000000000000000000082167f01ffc9a700000000000000000000000000000000000000000000000000000000145b92915050565b60006101de6106dc565b905090565b60006001600160a01b031661021f7f65726332302d7075707065740000000000000000000000000000000000000000838051906020012061070e565b6001600160a01b03161461025f576040517f1401206800000000000000000000000000000000000000000000000000000000815260040160405180910390fd5b600080828060200190518101906102769190612db7565b90925090507f9a8d9ccdcfd28f8a8f8f9a8c000000000000000000000000000000000000000071ffffffffffffffffffffffffffffffffffff19831601610305576040517f0f31c63c00000000000000000000000000000000000000000000000000000000815271ffffffffffffffffffffffffffffffffffff19831660048201526024015b60405180910390fd5b61030d610835565b60006103176106d2565b6040516001600160a01b03828116602483015271ffffffffffffffffffffffffffffffffffff19861660448301529192507f00000000000000000000000000000000000000000000000000000000000000009091169060640160408051601f198184030181529181526020820180517bffffffffffffffffffffffffffffffffffffffffffffffffffffffff167f472466c200000000000000000000000000000000000000000000000000000000179052516103d39190612e8f565b600060405180830381855af49150503d806000811461040e576040519150601f19603f3d011682016040523d82523d6000602084013e610413565b606091505b505050610428610422846108c5565b836108f7565b600061043384610999565b9050600061044183836109e6565b90507f6e730000000000000000000000000000000000000000000000000000000000007dffffffffffffffffffffffffffff00000000000000000000000000000000601087901c16176001600160a01b03841663ef5d6bbb826104a26101d4565b6040517fffffffff0000000000000000000000000000000000000000000000000000000060e085901b16815260048101929092526001600160a01b03166024820152604401600060405180830381600087803b15801561050157600080fd5b505af1158015610515573d6000803e3d6000fd5b505060408051613a3160f11b60208201527f65726332302d707570706574000000000000000000000000000000000000000060228201527f45524332305265676973747279000000000000000000000000000000000000006030820152610597935001905060405160208183030381529060405261059290612eab565b610cb6565b6106185760408051613a3160f11b60208201527f65726332302d707570706574000000000000000000000000000000000000000060228201527f45524332305265676973747279000000000000000000000000000000000000006030820152610618910160405160208183030381529060405261061390612eab565b610d9a565b60408051613a3160f11b60208201527f65726332302d707570706574000000000000000000000000000000000000000060228201527f45524332305265676973747279000000000000000000000000000000000000006030820152610697910160405160208183030381529060405261069090612eab565b8284610de6565b50505050505050565b6040517fb6622fc000000000000000000000000000000000000000000000000000000000815260040160405180910390fd5b60006101de610ea6565b7fffffffffffffffffffffffffffffffffffffffffffffffffffffffffffffffcc36013560601c8061070b5750335b90565b60408051600280825260608201835260009283929190602083019080368337019050509050836fffffffffffffffffffffffffffffffff19168160008151811061075a5761075a612ecf565b602002602001018181525050828160018151811061077a5761077a612ecf565b60209081029190910181019190915260408051613a3160f11b818401527f776f726c6400000000000000000000000000000000000000000000000000000060228201527f496e7374616c6c65644d6f64756c657300000000000000000000000000000000603082015281518082039093018352810190526000906108299061080190612eab565b8360007e14010014000000000000000000000000000000000000000000000000000000610ee5565b60601c95945050505050565b6040805160008082526020820190925261086090651c1d5c1c195d60d21b908051906020012061070e565b6001600160a01b0316036108c357604051651c1d5c1c195d60d21b602082015260300160408051601f19818403018152908290527f217ef9250000000000000000000000000000000000000000000000000000000082526102fc91600401612f11565b565b60006101ce613a3160f11b837f4d65746164617461000000000000000000000000000000000000000000000000610fa2565b600061094682600001516040805160f89290921b7fff00000000000000000000000000000000000000000000000000000000000000166020830152805160018184030181526021909201905290565b9050600061095c83602001518460400151611029565b9050600061097284602001518560400151611046565b6040805160008152602081019091529091506109918682868686611072565b505050505050565b60006101ce7f7379000000000000000000000000000000000000000000000000000000000000837f455243323053797374656d000000000000000000000000000000000000000000610fa2565b604080517f73790000000000000000000000000000000000000000000000000000000000006020820152651c1d5c1c195d60d21b60228201527f466163746f72790000000000000000000000000000000000000000000000000060308201526000916001600160a01b03851691633ae7af089101604051602081830303815290604052610a7290612eab565b6040516024810186905260440160408051601f198184030181529181526020820180517bffffffffffffffffffffffffffffffffffffffffffffffffffffffff167fb9eb8bfb00000000000000000000000000000000000000000000000000000000179052517fffffffff0000000000000000000000000000000000000000000000000000000060e085901b168152610b0f929190600401612f24565b6000604051808303816000875af1158015610b2e573d6000803e3d6000fd5b505050506040513d6000823e601f3d908101601f19168201604052610b569190810190612f3d565b806020019051810190610b699190612f86565b90506001600160a01b03831663bfdfaff77f6e730000000000000000000000000000000000000000000000000000000000007dffffffffffffffffffffffffffff00000000000000000000000000000000851617604080517f73790000000000000000000000000000000000000000000000000000000000006020820152651c1d5c1c195d60d21b60228201527f44656c65676174696f6e00000000000000000000000000000000000000000000603082015201604051602081830303815290604052610c3590612eab565b604080516000815260208101918290527fffffffff0000000000000000000000000000000000000000000000000000000060e086901b16909152610c7e92919060248101612faf565b600060405180830381600087803b158015610c9857600080fd5b505af1158015610cac573d6000803e3d6000fd5b5050505092915050565b604080516001808252818301909252600091829190602080830190803683370190505090508281600081518110610cef57610cef612ecf565b60209081029190910181019190915260408051613a3160f11b818401526473746f726560d81b60228201527f5265736f7572636549647300000000000000000000000000000000000000000060308201528151808203909301835281019052600090610d8690610d5e90612eab565b8360007e01010001000000000000000000000000000000000000000000000000000000610ee5565b9050610d928160f81c90565b949350505050565b610de3817e14010014000000000000000000000000000000000000000000000000000000610dc6611127565b610dce61119f565b610dd66111d9565b610dde61125e565b6112d5565b50565b604080516001808252818301909252600091602080830190803683370190505090508281600081518110610e1c57610e1c612ecf565b602002602001018181525050610ea08482600085604051602001610e6b919060609190911b7fffffffffffffffffffffffffffffffffffffffff00000000000000000000000016815260140190565b60408051601f198184030181529190527e1401001400000000000000000000000000000000000000000000000000000061138e565b50505050565b7f629a4c26e296b22a8e0856e9f6ecb2d1008d7e00081111962cd175fa7488e175546000906001600160a01b031680610ee0573391505090565b919050565b600080610ef0610ea6565b9050306001600160a01b03821603610f1657610f0e86868686611404565b915050610d92565b6040517f8c364d590000000000000000000000000000000000000000000000000000000081526001600160a01b03821690638c364d5990610f6190899089908990899060040161300a565b602060405180830381865afa158015610f7e573d6000803e3d6000fd5b505050506040513d601f19601f82011682018060405250810190610f0e9190613039565b6000610fb060706010613068565b7fffffffffffffffffffffffffffffffff000000000000000000000000000000008316901c601084901c7dffffffffffffffffffffffffffff00000000000000000000000000000000167fffff0000000000000000000000000000000000000000000000000000000000008616171790505b9392505050565b8151815160009181810160389190911b1760609190911b17611022565b6060828260405160200161105b92919061307b565b604051602081830303815290604052905092915050565b600061107c610ea6565b9050306001600160a01b038216036110a05761109b868686868661143a565b610991565b6040517f298314fb0000000000000000000000000000000000000000000000000000000081526001600160a01b0382169063298314fb906110ed90899089908990899089906004016130aa565b600060405180830381600087803b15801561110757600080fd5b505af115801561111b573d6000803e3d6000fd5b50505050505050505050565b60408051600180825281830190925260009182919060208083019080368337019050509050605f8160008151811061116157611161612ecf565b602002602001019060c581111561117a5761117a6130fb565b908160c581111561118d5761118d6130fb565b90525061119981611457565b91505090565b6040805160018082528183019092526000918291906020808301908036833701905050905060618160008151811061116157611161612ecf565b604080516001808252818301909252606091816020015b60608152602001906001900390816111f05790505090506040518060400160405280600b81526020017f6e616d65737061636549640000000000000000000000000000000000000000008152508160008151811061125057611250612ecf565b602002602001018190525090565b604080516001808252818301909252606091816020015b60608152602001906001900390816112755790505090506040518060400160405280600c81526020017f746f6b656e4164647265737300000000000000000000000000000000000000008152508160008151811061125057611250612ecf565b60006112df610ea6565b9050306001600160a01b03821603611304576112ff878787878787611612565b610697565b6040517f0ba51f490000000000000000000000000000000000000000000000000000000081526001600160a01b03821690630ba51f4990611353908a908a908a908a908a908a9060040161316b565b600060405180830381600087803b15801561136d57600080fd5b505af1158015611381573d6000803e3d6000fd5b5050505050505050505050565b6000611398610ea6565b9050306001600160a01b038216036113b75761109b86868686866118ff565b6040517f390baae00000000000000000000000000000000000000000000000000000000081526001600160a01b0382169063390baae0906110ed90899089908990899089906004016131b5565b60006114316114138686611914565b60ff858116601b0360080285901c1661142c858761196a565b6119a3565b95945050505050565b611450858585858561144b8b6119f4565b611af2565b5050505050565b6000601c82511115611481578151604051635318beb960e01b81526004016102fc91815260200190565b60008080805b855181101561155c5760006114c58783815181106114a7576114a7612ecf565b602002602001015160c58111156114c0576114c06130fb565b611dcd565b9050806000036114da57600190920191611512565b8215611512576040517ff1e56be400000000000000000000000000000000000000000000000000000000815260040160405180910390fd5b80840193506008826004601f03030287838151811061153357611533612ecf565b602002602001015160c581111561154c5761154c6130fb565b901b949094179350600101611487565b50600581111561158257604051635318beb960e01b8152600481018290526024016102fc565b84518190036008611595600260206131fc565b61159f919061320f565b83901b9390931792600860016115b7600260206131fc565b6115c191906131fc565b6115cb919061320f565b81901b939093179260086001806115e4600260206131fc565b6115ee91906131fc565b6115f891906131fc565b611602919061320f565b9190911b92909217949350505050565b613a3160f11b867fffff000000000000000000000000000000000000000000000000000000000000161480159061168b57507f6f74000000000000000000000000000000000000000000000000000000000000867fffff0000000000000000000000000000000000000000000000000000000000001614155b156116ec57613a3160f11b86876040516020016116aa91815260200190565b60408051601f19818403018152908290527f31b466830000000000000000000000000000000000000000000000000000000082526102fc939291600401613226565b6116f7856000611e2d565b611702846001611faf565b61170d836000611faf565b60e084901c60e885901c0160ff1682511461176d5760e084901c60e885901c0160ff1682516040517f0f72cb98000000000000000000000000000000000000000000000000000000008152600481019290925260248201526044016102fc565b60e085901c60e886901c0160ff168151146117cd5760e085901c60e886901c0160ff1681516040517f7dec4c00000000000000000000000000000000000000000000000000000000008152600481019290925260248201526044016102fc565b60e085901c60e886901c0160ff1660e084901c60e885901c0160ff16146118455760e085901c60e886901c0160ff1660e084901c60e885901c0160ff166040517ff29d4d88000000000000000000000000000000000000000000000000000000008152600481019290925260248201526044016102fc565b61184e86612156565b156118a857858660405160200161186791815260200190565b60408051601f19818403018152908290527fdfaaf9cf0000000000000000000000000000000000000000000000000000000082526102fc9291600401612f24565b6118f486868686866040516020016118c09190613267565b604051602081830303815290604052866040516020016118e09190613267565b604051602081830303815290604052612226565b61099186600161233a565b611450858561190e848761196a565b85612431565b6000828260405160200161192992919061327a565b60408051601f1981840301815291905280516020909101207f86425bff6b57326c7859e89024fe4f238ca327a1ae4a230180dd2f0e88aaa7d9189392505050565b600080805b8360ff1681101561199b5761199160ff601b83900360080287901c1683613068565b915060010161196f565b509392505050565b6000602082106119c9576020820484019350602082816119c5576119c56132b6565b0691505b508254600882021b60208290038084111561199b576001850154600882021c82179150509392505050565b60408051613a3160f11b60208201526473746f726560d81b60228201527f5461626c65730000000000000000000000000000000000000000000000000000603082015260009101604051602081830303815290604052611a5390612eab565b8203611a7f57507e60030220202000000000000000000000000000000000000000000000000000919050565b60408051613a3160f11b60208201526473746f726560d81b60228201527f5461626c6573000000000000000000000000000000000000000000000000000060308201526101ce91611ae99101604051602081830303815290604052611ae390612eab565b84612676565b602060006119a3565b857f8dbb3a9672eebfd3773e72dd9c102393436816d832c7ba9e1e1ac8fcadcac7a986868686604051611b2894939291906132cc565b60405180910390a2613a3160f11b867fffff0000000000000000000000000000000000000000000000000000000000001603610991576000611b6987612692565b905060005b8151811015611c42576000828281518110611b8b57611b8b612ecf565b60200260200101519050611bb76001826affffffffffffffffffffff191661275a90919063ffffffff16565b15611c39576040517f57066c9c000000000000000000000000000000000000000000000000000000008152606082901c906357066c9c90611c06908c908c908c908c908c908c90600401613316565b600060405180830381600087803b158015611c2057600080fd5b505af1158015611c34573d6000803e3d6000fd5b505050505b50600101611b6e565b506000611c4f8888611914565b90506000602087019050611c67826000838a51612778565b6000611c7285612838565b1115611cf6576000611c848a8a612875565b878155905060208601915060008060005b611c9e88612838565b8160ff161015611cf157611cb38d8d836128cb565b9250611cce8a8260ff166028026038011c64ffffffffff1690565b9150611cdd8360008785612778565b611ce78286613068565b9450600101611c95565b505050505b60005b835181101561111b576000848281518110611d1657611d16612ecf565b60200260200101519050611d426002826affffffffffffffffffffff191661275a90919063ffffffff16565b15611dc4576040517f5b28cdaf000000000000000000000000000000000000000000000000000000008152606082901c90635b28cdaf90611d91908e908e908e908e908e908e90600401613316565b600060405180830381600087803b158015611dab57600080fd5b505af1158015611dbf573d6000803e3d6000fd5b505050505b50600101611cf9565b6000808260c5811115611de257611de26130fb565b60ff1690506061811015611dfc57601f1660010192915050565b60618360c5811115611e1057611e106130fb565b03611e1e5750601492915050565b50600092915050565b50919050565b80158015611e39575081155b15611e73576040517f97e36a0a000000000000000000000000000000000000000000000000000000008152600060048201526024016102fc565b6000611e7e83612838565b90506005811115611ebe576040517f97e36a0a000000000000000000000000000000000000000000000000000000008152600481018290526024016102fc565b6000611ec98461294b565b90506000611ed78383613068565b9050601c811115611f17576040517f97e36a0a000000000000000000000000000000000000000000000000000000008152600481018290526024016102fc565b60005b828110156109915760ff601b82900360080287901c166000819003611f6b576040517fbf1ac38300000000000000000000000000000000000000000000000000000000815260040160405180910390fd5b6020811115611fa6576040517f2392baa400000000000000000000000000000000000000000000000000000000815260040160405180910390fd5b50600101611f1a565b80158015611fbb575081155b15611fdc57604051635318beb960e01b8152600060048201526024016102fc565b6000611fe783612838565b9050600581111561200e57604051635318beb960e01b8152600481018290526024016102fc565b60006120198461294b565b905060006120278383613068565b9050601c81111561204e57604051635318beb960e01b8152600481018290526024016102fc565b60008060005b8381101561210f57600061207c61206b8a8461295d565b60c58111156114c0576114c06130fb565b11156120c6578481106120bb576040517ff1e56be400000000000000000000000000000000000000000000000000000000815260040160405180910390fd5b600190920191612107565b84811015612100576040517ff1e56be400000000000000000000000000000000000000000000000000000000815260040160405180910390fd5b6001909101905b600101612054565b5083821461213357604051635318beb960e01b8152600481018390526024016102fc565b84811461069757604051635318beb960e01b8152600481018290526024016102fc565b60408051600180825281830190925260009182919060208083019080368337019050509050828160008151811061218f5761218f612ecf565b60209081029190910181019190915260408051613a3160f11b818401526473746f726560d81b60228201527f5265736f7572636549647300000000000000000000000000000000000000000060308201528151808203909301835281019052600090610d86906121fe90612eab565b8360007e01010001000000000000000000000000000000000000000000000000000000611404565b60408051602081018790528082018690526060808201869052825180830390910181526080909101909152600061225d8484611029565b9050600061226b8585611046565b604080516001808252818301909252919250600091906020808301908036833701905050905089816000815181106122a5576122a5612ecf565b60209081029190910181019190915260408051613a3160f11b818401526473746f726560d81b60228201527f5461626c657300000000000000000000000000000000000000000000000000006030820152815180820390930183528101905261111b9061231190612eab565b828686867e60030220202000000000000000000000000000000000000000000000000000611af2565b60408051600180825281830190925260009160208083019080368337019050509050828160008151811061237057612370612ecf565b60209081029190910181019190915260408051613a3160f11b818401526473746f726560d81b60228201527f5265736f757263654964730000000000000000000000000000000000000000006030820152815180820390930183528101905261242c906123dc90612eab565b826000856040516020016123f791151560f81b815260010190565b60408051601f198184030181529190527e010100010000000000000000000000000000000000000000000000000000006118ff565b505050565b600061243d8585611914565b9050847f8c0b5119d4cec7b284c6b1b39252a03d1e2f2d7451a5895562524c113bb952be8585856040516124739392919061336f565b60405180910390a2613a3160f11b857fffff00000000000000000000000000000000000000000000000000000000000016146124af5750610ea0565b60006124ba86612692565b905060005b815181101561258f5760008282815181106124dc576124dc612ecf565b602002602001015190506125086004826affffffffffffffffffffff191661275a90919063ffffffff16565b15612586576040517f964f667d000000000000000000000000000000000000000000000000000000008152606082901c9063964f667d90612553908b908b908b908b906004016133ac565b600060405180830381600087803b15801561256d57600080fd5b505af1158015612581573d6000803e3d6000fd5b505050505b506001016124bf565b506125a3828565ffffffffffff168561297e565b60005b81518110156106975760008282815181106125c3576125c3612ecf565b602002602001015190506125ef6008826affffffffffffffffffffff191661275a90919063ffffffff16565b1561266d576040517fa8ba8721000000000000000000000000000000000000000000000000000000008152606082901c9063a8ba87219061263a908b908b908b908b906004016133ac565b600060405180830381600087803b15801561265457600080fd5b505af1158015612668573d6000803e3d6000fd5b505050505b506001016125a6565b6040805160208101849052908101829052600090606001611929565b604080516001808252818301909252606091600091906020808301908036833701905050905082816000815181106126cc576126cc612ecf565b60209081029190910181019190915260408051613a3160f11b818401526473746f726560d81b60228201527f53746f7265486f6f6b7300000000000000000000000000000000000000000000603082015281518082039093018352810190526000906127439061273b90612eab565b83600061298e565b9050610d9261275582600084516129c8565b612a58565b60008160ff168261276b8560581c90565b1660ff1614905092915050565b82156127f257602083106127a25760208304840193506020838161279e5761279e6132b6565b0692505b82156127f25760208390036000600019600884021c1990506008850281811c91508451811c90508119875416828216178755508183116127e3575050610ea0565b50600194909401939182019190035b5b602081106128145781518455600190930192602090910190601f19016127f3565b8015610ea0576000600019600883021c198554845182169119161785555050505050565b6000600860018061284b600260206131fc565b61285591906131fc565b61285f91906131fc565b612869919061320f565b8260ff911c1692915050565b6000828260405160200161288a92919061327a565b60408051601f1981840301815291905280516020909101207f14e2fcc58e58e68ec7edc30c8d50dccc3ce2714a623ec81f46b6a63922d76569189392505050565b600083836040516020016128e092919061327a565b604051602081830303815290604052805190602001208260f81b7effffffffffffffffffffffffffffffffffffffffffffffffffffffffffffff19167f3b4102da22e32d82fc925482184f16c09fd4281692720b87d124aef6da48a0f1181860001c90509392505050565b600060086001612855600260206131fc565b6000601b8290036008028360ff911c1660c5811115611022576110226130fb565b61242c8383602084018451612778565b6060610d9261299e8585856128cb565b6129c1846129ac8888612a69565b9060ff166028026038011c64ffffffffff1690565b6000612a7c565b60008183111580156129db575083518211155b612a17578383836040517f23230fa30000000000000000000000000000000000000000000000000000000081526004016102fc939291906133e5565b60208401612a258482613068565b90506000612a3385856131fc565b6fffffffffffffffffffffffffffffffff1660809290921b9190911795945050505050565b606060006110228360156000612a9f565b6000611022612a788484612875565b5490565b60405160208101601f19603f858401011660405283825261199b85858584612b1a565b60606000612aad8560801c90565b90506fffffffffffffffffffffffffffffffff85166000858281612ad357612ad36132b6565b04905060405193506020840160208202810160405281855260005b82811015612b0e578451871c825293870193602090910190600101612aee565b50505050509392505050565b8115612ba35760208210612b4457602082048401935060208281612b4057612b406132b6565b0691505b8115612ba3576020829003600081851015612b685750600019600885021c19612b73565b50600019600882021c195b8554600885021b811984511682821617845250818511612b94575050610ea0565b50600194909401939283900392015b5b60208310612bc55783548152600190930192601f1990920191602001612ba4565b8215610ea0576000600019600885021c198251865482169119161782525050505050565b600060208284031215612bfb57600080fd5b81357fffffffff000000000000000000000000000000000000000000000000000000008116811461102257600080fd5b634e487b7160e01b600052604160045260246000fd5b6040516060810167ffffffffffffffff81118282101715612c6457612c64612c2b565b60405290565b604051601f8201601f1916810167ffffffffffffffff81118282101715612c9357612c93612c2b565b604052919050565b600067ffffffffffffffff821115612cb557612cb5612c2b565b50601f01601f191660200190565b600060208284031215612cd557600080fd5b813567ffffffffffffffff811115612cec57600080fd5b8201601f81018413612cfd57600080fd5b8035612d10612d0b82612c9b565b612c6a565b818152856020838501011115612d2557600080fd5b81602084016020830137600091810160200191909152949350505050565b60005b83811015612d5e578181015183820152602001612d46565b50506000910152565b6000612d75612d0b84612c9b565b9050828152838383011115612d8957600080fd5b611022836020830184612d43565b600082601f830112612da857600080fd5b61102283835160208501612d67565b60008060408385031215612dca57600080fd5b825171ffffffffffffffffffffffffffffffffffff1981168114612ded57600080fd5b602084015190925067ffffffffffffffff80821115612e0b57600080fd5b9084019060608287031215612e1f57600080fd5b612e27612c41565b825160ff81168114612e3857600080fd5b8152602083015182811115612e4c57600080fd5b612e5888828601612d97565b602083015250604083015182811115612e7057600080fd5b612e7c88828601612d97565b6040830152508093505050509250929050565b60008251612ea1818460208701612d43565b9190910192915050565b80516020808301519190811015611e275760001960209190910360031b1b16919050565b634e487b7160e01b600052603260045260246000fd5b60008151808452612efd816020860160208601612d43565b601f01601f19169290920160200192915050565b6020815260006110226020830184612ee5565b828152604060208201526000610d926040830184612ee5565b600060208284031215612f4f57600080fd5b815167ffffffffffffffff811115612f6657600080fd5b8201601f81018413612f7757600080fd5b610d9284825160208401612d67565b600060208284031215612f9857600080fd5b81516001600160a01b038116811461102257600080fd5b8381528260208201526060604082015260006114316060830184612ee5565b60008151808452602080850194506020840160005b83811015612fff57815187529582019590820190600101612fe3565b509495945050505050565b8481526080602082015260006130236080830186612fce565b60ff949094166040830152506060015292915050565b60006020828403121561304b57600080fd5b5051919050565b634e487b7160e01b600052601160045260246000fd5b808201808211156101ce576101ce613052565b6000835161308d818460208801612d43565b8351908301906130a1818360208801612d43565b01949350505050565b85815260a0602082015260006130c360a0830187612fce565b82810360408401526130d58187612ee5565b905084606084015282810360808401526130ef8185612ee5565b98975050505050505050565b634e487b7160e01b600052602160045260246000fd5b60008282518085526020808601955060208260051b8401016020860160005b8481101561315e57601f1986840301895261314c838351612ee5565b98840198925090830190600101613130565b5090979650505050505050565b86815285602082015284604082015283606082015260c06080820152600061319660c0830185613111565b82810360a08401526131a88185613111565b9998505050505050505050565b85815260a0602082015260006131ce60a0830187612fce565b60ff8616604084015282810360608401526131e98186612ee5565b9150508260808301529695505050505050565b818103818111156101ce576101ce613052565b80820281158282048414176101ce576101ce613052565b7fffff000000000000000000000000000000000000000000000000000000000000841681528260208201526060604082015260006114316060830184612ee5565b6020815260006110226020830184613111565b8281526000602080830184516020860160005b828110156132a95781518452928401929084019060010161328d565b5091979650505050505050565b634e487b7160e01b600052601260045260246000fd5b6080815260006132df6080830187612fce565b82810360208401526132f18187612ee5565b9050846040840152828103606084015261330b8185612ee5565b979650505050505050565b86815260c06020820152600061332f60c0830188612fce565b82810360408401526133418188612ee5565b9050856060840152828103608084015261335b8186612ee5565b9150508260a0830152979650505050505050565b6060815260006133826060830186612fce565b65ffffffffffff8516602084015282810360408401526133a28185612ee5565b9695505050505050565b8481526080602082015260006133c56080830186612fce565b65ffffffffffff85166040840152828103606084015261330b8185612ee5565b6060815260006133f86060830186612ee5565b6020830194909452506040015291905056fea2646970667358221220cfc4dcc3fe58f86ef12e43146f703e5c1667f57b632a2ae4b7f6e8f2a49f46c764736f6c63430008170033608060405234801561001057600080fd5b50614875806100206000396000f3fe608060405234801561001057600080fd5b506004361061002b5760003560e01c8063472466c214610030575b600080fd5b61004361003e36600461210e565b610045565b005b61005661005182610155565b61018d565b610067610062826101d9565b61020b565b61007861007382610247565b610279565b8173ffffffffffffffffffffffffffffffffffffffff16633350b6a961009d836102bd565b6040516100a990612101565b604051809103906000f0801580156100c5573d6000803e3d6000fd5b506040517fffffffff0000000000000000000000000000000000000000000000000000000060e085901b168152600481019290925273ffffffffffffffffffffffffffffffffffffffff16602482015260016044820152606401600060405180830381600087803b15801561013957600080fd5b505af115801561014d573d6000803e3d6000fd5b505050505050565b6000610187613a3160f11b837f416c6c6f77616e63657300000000000000000000000000000000000000000000610306565b92915050565b6101d6817e200100200000000000000000000000000000000000000000000000000000006101b961038d565b6101c161044a565b6101c9610484565b6101d161055c565b6105d3565b50565b6000610187613a3160f11b837f42616c616e636573000000000000000000000000000000000000000000000000610306565b6101d6817e200100200000000000000000000000000000000000000000000000000000006102376106a7565b61023f61044a565b6101c96106e1565b6000610187613a3160f11b837f4d65746164617461000000000000000000000000000000000000000000000000610306565b6101d6817e010102010000000000000000000000000000000000000000000000000000006102a5610758565b6102ad610771565b6102b5610836565b6101d1610869565b60006101877f7379000000000000000000000000000000000000000000000000000000000000837f455243323053797374656d0000000000000000000000000000000000000000005b60006103146070601061219b565b7fffff00000000000000000000000000000000000000000000000000000000000085167dffffffffffffffffffffffffffff00000000000000000000000000000000601086901c16177fffffffffffffffffffffffffffffffff00000000000000000000000000000000841690911c1790509392505050565b604080516002808252606082018352600092839291906020830190803683370190505090506061816000815181106103c7576103c76121ae565b602002602001019060c58111156103e0576103e06121c4565b908160c58111156103f3576103f36121c4565b8152505060618160018151811061040c5761040c6121ae565b602002602001019060c5811115610425576104256121c4565b908160c5811115610438576104386121c4565b90525061044481610989565b91505090565b60408051600180825281830190925260009182919060208083019080368337019050509050601f8160008151811061040c5761040c6121ae565b6040805160028082526060828101909352816020015b606081526020019060019003908161049a5790505090506040518060400160405280600781526020017f6163636f756e7400000000000000000000000000000000000000000000000000815250816000815181106104fa576104fa6121ae565b60200260200101819052506040518060400160405280600781526020017f7370656e646572000000000000000000000000000000000000000000000000008152508160018151811061054e5761054e6121ae565b602002602001018190525090565b604080516001808252818301909252606091816020015b60608152602001906001900390816105735790505090506040518060400160405280600581526020017f76616c75650000000000000000000000000000000000000000000000000000008152508160008151811061054e5761054e6121ae565b60006105dd610b4d565b90503073ffffffffffffffffffffffffffffffffffffffff82160361060f5761060a878787878787610b99565b61069e565b6040517f0ba51f4900000000000000000000000000000000000000000000000000000000815273ffffffffffffffffffffffffffffffffffffffff821690630ba51f499061066b908a908a908a908a908a908a90600401612284565b600060405180830381600087803b15801561068557600080fd5b505af1158015610699573d6000803e3d6000fd5b505050505b50505050505050565b6040805160018082528183019092526000918291906020808301908036833701905050905060618160008151811061040c5761040c6121ae565b604080516001808252818301909252606091816020015b60608152602001906001900390816106f85790505090506040518060400160405280600781526020017f6163636f756e74000000000000000000000000000000000000000000000000008152508160008151811061054e5761054e6121ae565b6040805160008082526020820190925261044481610989565b60408051600380825260808201909252600091829190602082016060803683370190505090506000816000815181106107ac576107ac6121ae565b602002602001019060c58111156107c5576107c56121c4565b908160c58111156107d8576107d86121c4565b8152505060c5816001815181106107f1576107f16121ae565b602002602001019060c581111561080a5761080a6121c4565b908160c581111561081d5761081d6121c4565b8152505060c58160028151811061040c5761040c6121ae565b60408051600080825260208201909252606091610863565b606081526020019060019003908161084e5790505b50905090565b60408051600380825260808201909252606091816020015b60608152602001906001900390816108815790505090506040518060400160405280600881526020017f646563696d616c73000000000000000000000000000000000000000000000000815250816000815181106108e1576108e16121ae565b60200260200101819052506040518060400160405280600481526020017f6e616d650000000000000000000000000000000000000000000000000000000081525081600181518110610935576109356121ae565b60200260200101819052506040518060400160405280600681526020017f73796d626f6c00000000000000000000000000000000000000000000000000008152508160028151811061054e5761054e6121ae565b6000601c825111156109bc578151604051635318beb960e01b81526004016109b391815260200190565b60405180910390fd5b60008080805b8551811015610a97576000610a008783815181106109e2576109e26121ae565b602002602001015160c58111156109fb576109fb6121c4565b610e86565b905080600003610a1557600190920191610a4d565b8215610a4d576040517ff1e56be400000000000000000000000000000000000000000000000000000000815260040160405180910390fd5b80840193506008826004601f030302878381518110610a6e57610a6e6121ae565b602002602001015160c5811115610a8757610a876121c4565b901b9490941793506001016109c2565b506005811115610abd57604051635318beb960e01b8152600481018290526024016109b3565b84518190036008610ad0600260206122ce565b610ada91906122e1565b83901b939093179260086001610af2600260206122ce565b610afc91906122ce565b610b0691906122e1565b81901b93909317926008600180610b1f600260206122ce565b610b2991906122ce565b610b3391906122ce565b610b3d91906122e1565b9190911b92909217949350505050565b7f629a4c26e296b22a8e0856e9f6ecb2d1008d7e00081111962cd175fa7488e1755460009073ffffffffffffffffffffffffffffffffffffffff1680610b94573391505090565b919050565b613a3160f11b867fffff0000000000000000000000000000000000000000000000000000000000001614801590610c1257507f6f74000000000000000000000000000000000000000000000000000000000000867fffff0000000000000000000000000000000000000000000000000000000000001614155b15610c7357613a3160f11b8687604051602001610c3191815260200190565b60408051601f19818403018152908290527f31b466830000000000000000000000000000000000000000000000000000000082526109b39392916004016122f8565b610c7e856000610ee6565b610c89846001611068565b610c94836000611068565b60e084901c60e885901c0160ff16825114610cf45760e084901c60e885901c0160ff1682516040517f0f72cb98000000000000000000000000000000000000000000000000000000008152600481019290925260248201526044016109b3565b60e085901c60e886901c0160ff16815114610d545760e085901c60e886901c0160ff1681516040517f7dec4c00000000000000000000000000000000000000000000000000000000008152600481019290925260248201526044016109b3565b60e085901c60e886901c0160ff1660e084901c60e885901c0160ff1614610dcc5760e085901c60e886901c0160ff1660e084901c60e885901c0160ff166040517ff29d4d88000000000000000000000000000000000000000000000000000000008152600481019290925260248201526044016109b3565b610dd58661120f565b15610e2f578586604051602001610dee91815260200190565b60408051601f19818403018152908290527fdfaaf9cf0000000000000000000000000000000000000000000000000000000082526109b39291600401612339565b610e7b8686868686604051602001610e479190612352565b60405160208183030381529060405286604051602001610e679190612352565b6040516020818303038152906040526112f3565b61014d866001611413565b6000808260c5811115610e9b57610e9b6121c4565b60ff1690506061811015610eb557601f1660010192915050565b60618360c5811115610ec957610ec96121c4565b03610ed75750601492915050565b50600092915050565b50919050565b80158015610ef2575081155b15610f2c576040517f97e36a0a000000000000000000000000000000000000000000000000000000008152600060048201526024016109b3565b6000610f378361150a565b90506005811115610f77576040517f97e36a0a000000000000000000000000000000000000000000000000000000008152600481018290526024016109b3565b6000610f8284611547565b90506000610f90838361219b565b9050601c811115610fd0576040517f97e36a0a000000000000000000000000000000000000000000000000000000008152600481018290526024016109b3565b60005b8281101561014d5760ff601b82900360080287901c166000819003611024576040517fbf1ac38300000000000000000000000000000000000000000000000000000000815260040160405180910390fd5b602081111561105f576040517f2392baa400000000000000000000000000000000000000000000000000000000815260040160405180910390fd5b50600101610fd3565b80158015611074575081155b1561109557604051635318beb960e01b8152600060048201526024016109b3565b60006110a08361150a565b905060058111156110c757604051635318beb960e01b8152600481018290526024016109b3565b60006110d284611547565b905060006110e0838361219b565b9050601c81111561110757604051635318beb960e01b8152600481018290526024016109b3565b60008060005b838110156111c85760006111356111248a84611559565b60c58111156109fb576109fb6121c4565b111561117f57848110611174576040517ff1e56be400000000000000000000000000000000000000000000000000000000815260040160405180910390fd5b6001909201916111c0565b848110156111b9576040517ff1e56be400000000000000000000000000000000000000000000000000000000815260040160405180910390fd5b6001909101905b60010161110d565b508382146111ec57604051635318beb960e01b8152600481018390526024016109b3565b84811461069e57604051635318beb960e01b8152600481018290526024016109b3565b604080516001808252818301909252600091829190602080830190803683370190505090508281600081518110611248576112486121ae565b60209081029190910181019190915260408051613a3160f11b818401526473746f726560d81b60228201527f5265736f75726365496473000000000000000000000000000000000000000000603082015281518082039093018352810190526000906112df906112b790612365565b8360007e01010001000000000000000000000000000000000000000000000000000000611581565b90506112eb8160f81c90565b949350505050565b60408051602081018790528082018690526060808201869052825180830390910181526080909101909152600061132a84846115b7565b9050600061133885856115d4565b60408051600180825281830190925291925060009190602080830190803683370190505090508981600081518110611372576113726121ae565b60209081029190910181019190915260408051613a3160f11b818401526473746f726560d81b60228201527f5461626c6573000000000000000000000000000000000000000000000000000060308201528151808203909301835281019052611407906113de90612365565b828686867e60030220202000000000000000000000000000000000000000000000000000611600565b50505050505050505050565b604080516001808252818301909252600091602080830190803683370190505090508281600081518110611449576114496121ae565b60209081029190910181019190915260408051613a3160f11b818401526473746f726560d81b60228201527f5265736f7572636549647300000000000000000000000000000000000000000060308201528151808203909301835281019052611505906114b590612365565b826000856040516020016114d091151560f81b815260010190565b60408051601f198184030181529190527e010100010000000000000000000000000000000000000000000000000000006118db565b505050565b6000600860018061151d600260206122ce565b61152791906122ce565b61153191906122ce565b61153b91906122e1565b8260ff911c1692915050565b600060086001611527600260206122ce565b6000601b8290036008028360ff911c1660c581111561157a5761157a6121c4565b9392505050565b60006115ae61159086866118f7565b60ff858116601b0360080285901c166115a9858761194d565b611986565b95945050505050565b8151815160009181810160389190911b1760609190911b1761157a565b606082826040516020016115e9929190612389565b604051602081830303815290604052905092915050565b857f8dbb3a9672eebfd3773e72dd9c102393436816d832c7ba9e1e1ac8fcadcac7a98686868660405161163694939291906123f4565b60405180910390a2613a3160f11b867fffff000000000000000000000000000000000000000000000000000000000000160361014d576000611677876119d7565b905060005b8151811015611750576000828281518110611699576116996121ae565b602002602001015190506116c56001826affffffffffffffffffffff1916611a9f90919063ffffffff16565b15611747576040517f57066c9c000000000000000000000000000000000000000000000000000000008152606082901c906357066c9c90611714908c908c908c908c908c908c9060040161243e565b600060405180830381600087803b15801561172e57600080fd5b505af1158015611742573d6000803e3d6000fd5b505050505b5060010161167c565b50600061175d88886118f7565b90506000602087019050611775826000838a51611abd565b60006117808561150a565b11156118045760006117928a8a611b7b565b878155905060208601915060008060005b6117ac8861150a565b8160ff1610156117ff576117c18d8d83611bd1565b92506117dc8a8260ff166028026038011c64ffffffffff1690565b91506117eb8360008785611abd565b6117f5828661219b565b94506001016117a3565b505050505b60005b8351811015611407576000848281518110611824576118246121ae565b602002602001015190506118506002826affffffffffffffffffffff1916611a9f90919063ffffffff16565b156118d2576040517f5b28cdaf000000000000000000000000000000000000000000000000000000008152606082901c90635b28cdaf9061189f908e908e908e908e908e908e9060040161243e565b600060405180830381600087803b1580156118b957600080fd5b505af11580156118cd573d6000803e3d6000fd5b505050505b50600101611807565b6118f085856118ea848761194d565b85611c51565b5050505050565b6000828260405160200161190c929190612497565b60408051601f1981840301815291905280516020909101207f86425bff6b57326c7859e89024fe4f238ca327a1ae4a230180dd2f0e88aaa7d9189392505050565b600080805b8360ff1681101561197e5761197460ff601b83900360080287901c168361219b565b9150600101611952565b509392505050565b6000602082106119ac576020820484019350602082816119a8576119a86124d3565b0691505b508254600882021b60208290038084111561197e576001850154600882021c82179150509392505050565b60408051600180825281830190925260609160009190602080830190803683370190505090508281600081518110611a1157611a116121ae565b60209081029190910181019190915260408051613a3160f11b818401526473746f726560d81b60228201527f53746f7265486f6f6b730000000000000000000000000000000000000000000060308201528151808203909301835281019052600090611a8890611a8090612365565b836000611e96565b90506112eb611a9a8260008451611ed0565b611f60565b60008160ff1682611ab08560581c90565b1660ff1614905092915050565b8215611b375760208310611ae757602083048401935060208381611ae357611ae36124d3565b0692505b8215611b375760208390036000600019600884021c1990506008850281811c91508451811c9050811987541682821617875550818311611b28575050611b75565b50600194909401939182019190035b5b60208110611b595781518455600190930192602090910190601f1901611b38565b8015611b755783548251600019600884021c9182169119161784555b50505050565b60008282604051602001611b90929190612497565b60408051601f1981840301815291905280516020909101207f14e2fcc58e58e68ec7edc30c8d50dccc3ce2714a623ec81f46b6a63922d76569189392505050565b60008383604051602001611be6929190612497565b604051602081830303815290604052805190602001208260f81b7effffffffffffffffffffffffffffffffffffffffffffffffffffffffffffff19167f3b4102da22e32d82fc925482184f16c09fd4281692720b87d124aef6da48a0f1181860001c90509392505050565b6000611c5d85856118f7565b9050847f8c0b5119d4cec7b284c6b1b39252a03d1e2f2d7451a5895562524c113bb952be858585604051611c93939291906124e9565b60405180910390a2613a3160f11b857fffff0000000000000000000000000000000000000000000000000000000000001614611ccf5750611b75565b6000611cda866119d7565b905060005b8151811015611daf576000828281518110611cfc57611cfc6121ae565b60200260200101519050611d286004826affffffffffffffffffffff1916611a9f90919063ffffffff16565b15611da6576040517f964f667d000000000000000000000000000000000000000000000000000000008152606082901c9063964f667d90611d73908b908b908b908b90600401612526565b600060405180830381600087803b158015611d8d57600080fd5b505af1158015611da1573d6000803e3d6000fd5b505050505b50600101611cdf565b50611dc3828565ffffffffffff1685611f71565b60005b815181101561069e576000828281518110611de357611de36121ae565b60200260200101519050611e0f6008826affffffffffffffffffffff1916611a9f90919063ffffffff16565b15611e8d576040517fa8ba8721000000000000000000000000000000000000000000000000000000008152606082901c9063a8ba872190611e5a908b908b908b908b90600401612526565b600060405180830381600087803b158015611e7457600080fd5b505af1158015611e88573d6000803e3d6000fd5b505050505b50600101611dc6565b60606112eb611ea6858585611bd1565b611ec984611eb48888611f81565b9060ff166028026038011c64ffffffffff1690565b6000611f94565b6000818311158015611ee3575083518211155b611f1f578383836040517f23230fa30000000000000000000000000000000000000000000000000000000081526004016109b39392919061255f565b60208401611f2d848261219b565b90506000611f3b85856122ce565b6fffffffffffffffffffffffffffffffff1660809290921b9190911795945050505050565b6060600061157a8360156000611fb7565b6115058383602084018451611abd565b600061157a611f908484611b7b565b5490565b60405160208101601f19603f858401011660405283825261197e85858584612032565b60606000611fc58560801c90565b90506fffffffffffffffffffffffffffffffff85166000858281611feb57611feb6124d3565b04905060405193506020840160208202810160405281855260005b82811015612026578451871c825293870193602090910190600101612006565b50505050509392505050565b81156120bb576020821061205c57602082048401935060208281612058576120586124d3565b0691505b81156120bb5760208290036000818510156120805750600019600885021c1961208b565b50600019600882021c195b8554600885021b8119845116828216178452508185116120ac575050611b75565b50600194909401939283900392015b5b602083106120dd5783548152600190930192601f19909201916020016120bc565b8215611b75576000600019600885021c198251865482169119161782525050505050565b6122bb8061258583390190565b6000806040838503121561212157600080fd5b823573ffffffffffffffffffffffffffffffffffffffff8116811461214557600080fd5b915060208301357fffffffffffffffffffffffffffff0000000000000000000000000000000000008116811461217a57600080fd5b809150509250929050565b634e487b7160e01b600052601160045260246000fd5b8082018082111561018757610187612185565b634e487b7160e01b600052603260045260246000fd5b634e487b7160e01b600052602160045260246000fd5b60005b838110156121f55781810151838201526020016121dd565b50506000910152565b600081518084526122168160208601602086016121da565b601f01601f19169290920160200192915050565b60008282518085526020808601955060208260051b8401016020860160005b8481101561227757601f198684030189526122658383516121fe565b98840198925090830190600101612249565b5090979650505050505050565b86815285602082015284604082015283606082015260c0608082015260006122af60c083018561222a565b82810360a08401526122c1818561222a565b9998505050505050505050565b8181038181111561018757610187612185565b808202811582820484141761018757610187612185565b7fffff000000000000000000000000000000000000000000000000000000000000841681528260208201526060604082015260006115ae60608301846121fe565b8281526040602082015260006112eb60408301846121fe565b60208152600061157a602083018461222a565b80516020808301519190811015610ee05760001960209190910360031b1b16919050565b6000835161239b8184602088016121da565b8351908301906123af8183602088016121da565b01949350505050565b60008151808452602080850194506020840160005b838110156123e9578151875295820195908201906001016123cd565b509495945050505050565b60808152600061240760808301876123b8565b828103602084015261241981876121fe565b9050846040840152828103606084015261243381856121fe565b979650505050505050565b86815260c06020820152600061245760c08301886123b8565b828103604084015261246981886121fe565b9050856060840152828103608084015261248381866121fe565b9150508260a0830152979650505050505050565b8281526000602080830184516020860160005b828110156124c6578151845292840192908401906001016124aa565b5091979650505050505050565b634e487b7160e01b600052601260045260246000fd5b6060815260006124fc60608301866123b8565b65ffffffffffff85166020840152828103604084015261251c81856121fe565b9695505050505050565b84815260806020820152600061253f60808301866123b8565b65ffffffffffff85166040840152828103606084015261243381856121fe565b60608152600061257260608301866121fe565b6020830194909452506040015291905056fe608060405234801561001057600080fd5b5061229b806100206000396000f3fe608060405234801561001057600080fd5b50600436106100f55760003560e01c806340c10f19116100975780639dc29fac116100665780639dc29fac146101e8578063a9059cbb146101fb578063dd62ed3e1461020e578063e1af802c1461022157600080fd5b806340c10f19146101ad57806345ec9354146101c257806370a08231146101cd57806395d89b41146101e057600080fd5b8063119df25f116100d3578063119df25f1461014a57806318160ddd1461016a57806323b872dd14610180578063313ce5671461019357600080fd5b806301ffc9a7146100fa57806306fdde0314610122578063095ea7b314610137575b600080fd5b61010d610108366004611d8f565b610229565b60405190151581526020015b60405180910390f35b61012a6102c2565b6040516101199190611e21565b61010d610145366004611e4b565b6102e1565b610152610303565b6040516001600160a01b039091168152602001610119565b61017261030d565b604051908152602001610119565b61010d61018e366004611e75565b610327565b61019b610357565b60405160ff9091168152602001610119565b6101c06101bb366004611e4b565b61036c565b005b36601f190135610172565b6101726101db366004611eb1565b6103cc565b61012a6103e7565b6101c06101f6366004611e4b565b6103fc565b61010d610209366004611e4b565b610453565b61017261021c366004611ecc565b61046b565b610152610487565b60007fffffffff0000000000000000000000000000000000000000000000000000000082167fb42128800000000000000000000000000000000000000000000000000000000014806102bc57507fffffffff0000000000000000000000000000000000000000000000000000000082167f01ffc9a700000000000000000000000000000000000000000000000000000000145b92915050565b60606102dc6102d76102d2610491565b6104af565b6104e1565b905090565b6000806102ec610303565b90506102f9818585610507565b5060019392505050565b60006102dc610665565b60006102dc61032261031d610491565b610697565b6106c9565b600080610332610303565b905061033f8582856106ee565b61034a858585610776565b60019150505b9392505050565b60006102dc6103676102d2610491565b61080c565b610374610854565b6001600160a01b0382166103bc576040517fec442f05000000000000000000000000000000000000000000000000000000008152600060048201526024015b60405180910390fd5b6103c86000838361086f565b5050565b60006102bc6103e16103dc610491565b610a37565b83610a69565b60606102dc6103f76102d2610491565b610ad7565b610404610854565b6001600160a01b038216610447576040517f96c6fd1e000000000000000000000000000000000000000000000000000000008152600060048201526024016103b3565b6103c88260008361086f565b60008061045e610303565b90506102f9818585610776565b600061035061048061047b610491565b610af6565b8484610b28565b60006102dc610bc3565b60008061049d30610c02565b90506104a98160101b90565b91505090565b60006102bc613a3160f11b837f4d65746164617461000000000000000000000000000000000000000000000000610cde565b604080516000808252602082019092526060916104ff848383610d65565b949350505050565b6001600160a01b03831661054a576040517fe602df05000000000000000000000000000000000000000000000000000000008152600060048201526024016103b3565b6001600160a01b03821661058d576040517f94280d62000000000000000000000000000000000000000000000000000000008152600060048201526024016103b3565b6105a361059b61047b610491565b848484610e2c565b6105ab610ee3565b6001600160a01b031663c9a34acd7f8c5be1e5ebec7d5bd14f71427d1e84f3dd0314c0f7b2291e5b200ac8c7c3b9256105ea866001600160a01b031690565b6001600160a01b0386166040805160208101889052016040516020818303038152906040526040518563ffffffff1660e01b815260040161062e9493929190611f15565b600060405180830381600087803b15801561064857600080fd5b505af115801561065c573d6000803e3d6000fd5b50505050505050565b7fffffffffffffffffffffffffffffffffffffffffffffffffffffffffffffffcc36013560601c806106945750335b90565b60006102bc613a3160f11b837f546f74616c537570706c79000000000000000000000000000000000000000000610cde565b6040805160008082526020820190925260006104ff848383630100080160dd1b610fbe565b60006107056106fe61047b610491565b8585610b28565b905060001981146107705781811015610763576040517ffb8f41b20000000000000000000000000000000000000000000000000000000081526001600160a01b038416600482015260248101829052604481018390526064016103b3565b6107708484848403610507565b50505050565b6001600160a01b0383166107b9576040517f96c6fd1e000000000000000000000000000000000000000000000000000000008152600060048201526024016103b3565b6001600160a01b0382166107fc576040517fec442f05000000000000000000000000000000000000000000000000000000008152600060048201526024016103b3565b61080783838361086f565b505050565b6040805160008082526020820190925260006108498483837e01010201000000000000000000000000000000000000000000000000000000610fbe565b60f81c949350505050565b61086d61086030610c02565b610868610303565b61107b565b565b6000610879610491565b9050600061088682610697565b9050600061089383610a37565b90506001600160a01b0386166108c5576108c082856108b1856106c9565b6108bb9190611f50565b61111c565b610935565b60006108d18288610a69565b905084811015610926576040517fe450d38c0000000000000000000000000000000000000000000000000000000081526001600160a01b038816600482015260248101829052604481018690526064016103b3565b6109338288878403611143565b505b6001600160a01b03851661095c576109578285610951856106c9565b0361111c565b610972565b61097281868661096c858a610a69565b01611143565b61097a610ee3565b6001600160a01b031663c9a34acd7fddf252ad1be2c89b69c2b068fc378daa952ba7f163c4a11628f55a4df523b3ef6109b9896001600160a01b031690565b6001600160a01b03891660408051602081018b9052016040516020818303038152906040526040518563ffffffff1660e01b81526004016109fd9493929190611f15565b600060405180830381600087803b158015610a1757600080fd5b505af1158015610a2b573d6000803e3d6000fd5b50505050505050505050565b60006102bc613a3160f11b837f42616c616e636573000000000000000000000000000000000000000000000000610cde565b60408051600180825281830190925260009182919060208083019080368337019050509050826001600160a01b031660001b81600081518110610aae57610aae611f63565b60209081029190910101526000610ace858383630100080160dd1b610fbe565b95945050505050565b604080516000808252602082019092526060916104ff84836001610d65565b60006102bc613a3160f11b837f416c6c6f77616e63657300000000000000000000000000000000000000000000610cde565b60408051600280825260608201835260009283929190602083019080368337019050509050836001600160a01b031660001b81600081518110610b6d57610b6d611f63565b602002602001018181525050826001600160a01b031660001b81600181518110610b9957610b99611f63565b60209081029190910101526000610bb9868383630100080160dd1b610fbe565b9695505050505050565b7f629a4c26e296b22a8e0856e9f6ecb2d1008d7e00081111962cd175fa7488e175546000906001600160a01b031680610bfd573391505090565b919050565b60408051600180825281830190925260009182919060208083019080368337019050509050826001600160a01b031660001b81600081518110610c4757610c47611f63565b60209081029190910181019190915260408051613a3160f11b818401527f776f726c6400000000000000000000000000000000000000000000000000000060228201527f53797374656d5265676973747279000000000000000000000000000000000000603082015281518082039093018352810190526000906104ff90610cce90611f79565b836000630100080160dd1b610fbe565b6000610cec60706010611f50565b7fffff00000000000000000000000000000000000000000000000000000000000085167dffffffffffffffffffffffffffff00000000000000000000000000000000601086901c16177fffffffffffffffffffffffffffffffff00000000000000000000000000000000841690911c1790509392505050565b60606000610d71610bc3565b9050306001600160a01b03821603610d9657610d8e8585856111ab565b915050610350565b6040517f1e7889770000000000000000000000000000000000000000000000000000000081526001600160a01b03821690631e78897790610ddf90889088908890600401611fdc565b600060405180830381865afa158015610dfc573d6000803e3d6000fd5b505050506040513d6000823e601f3d908101601f19168201604052610d8e9190810190612008565b509392505050565b604080516002808252606082018352600092602083019080368337019050509050836001600160a01b031660001b81600081518110610e6d57610e6d611f63565b602002602001018181525050826001600160a01b031660001b81600181518110610e9957610e99611f63565b602002602001018181525050610edc8582600085604051602001610ebf91815260200190565b60408051601f19818403018152919052630100080160dd1b6111e5565b5050505050565b600080610eef30610c02565b60408051613a3160f11b60208201527f707570706574000000000000000000000000000000000000000000000000000060228201527f50757070657452656769737472790000000000000000000000000000000000006030820152919250600091610f739101604051602081830303815290604052610f6d90611f79565b83611268565b90506001600160a01b0381166102bc576040517f9434f7e1000000000000000000000000000000000000000000000000000000008152306004820152602481018390526044016103b3565b600080610fc9610bc3565b9050306001600160a01b03821603610fef57610fe7868686866112e5565b9150506104ff565b6040517f8c364d590000000000000000000000000000000000000000000000000000000081526001600160a01b03821690638c364d599061103a9089908990899089906004016120b5565b602060405180830381865afa158015611057573d6000803e3d6000fd5b505050506040513d601f19601f82011682018060405250810190610fe791906120e4565b6001600160a01b0381166110d07f6e730000000000000000000000000000000000000000000000000000000000007dffffffffffffffffffffffffffff00000000000000000000000000000000851617611312565b6001600160a01b0316146103c8576110e782611405565b816040517fd787b7370000000000000000000000000000000000000000000000000000000081526004016103b39291906120fd565b60408051600080825260208201835291810183905290610807908490839060608201610ebf565b60408051600180825281830190925260009160208083019080368337019050509050826001600160a01b031660001b8160008151811061118557611185611f63565b6020026020010181815250506107708482600085604051602001610ebf91815260200190565b60606104ff6111bb858585611581565b6111de846111c98888611601565b9060ff166028026038011c64ffffffffff1690565b6000611614565b60006111ef610bc3565b9050306001600160a01b038216036112135761120e8686868686611637565b611260565b6040517f390baae00000000000000000000000000000000000000000000000000000000081526001600160a01b0382169063390baae0906109fd9089908990899089908990600401612128565b505050505050565b6040805160018082528183019092526000918291906020808301908036833701905050905082816000815181106112a1576112a1611f63565b602090810291909101015260006112d98583837e14010014000000000000000000000000000000000000000000000000000000610fbe565b60601c95945050505050565b6000610ace6112f4868661164c565b60ff858116601b0360080285901c1661130d85876116a2565b6116d3565b60408051600180825281830190925260009182919060208083019080368337019050509050828160008151811061134b5761134b611f63565b60209081029190910181019190915260408051613a3160f11b818401527f776f726c6400000000000000000000000000000000000000000000000000000060228201527f4e616d6573706163654f776e6572000000000000000000000000000000000000603082015281518082039093018352810190526000906113fa906113d290611f79565b8360007e14010014000000000000000000000000000000000000000000000000000000610fbe565b60601c949350505050565b606081601081901b600061141883611724565b9050827fffffffffffffffffffffffffffff00000000000000000000000000000000000083161561146b577fffffffffffffffffffffffffffff000000000000000000000000000000000000831661148d565b7f524f4f545f4e414d4553504143450000000000000000000000000000000000005b7fffffffffffffffffffffffffffffffff000000000000000000000000000000008316156114bb57826114dd565b7f524f4f545f4e414d4500000000000000000000000000000000000000000000005b6040517fffff00000000000000000000000000000000000000000000000000000000000090931660208401527f3a00000000000000000000000000000000000000000000000000000000000000602284018190527fffffffffffffffffffffffffffffffff00000000000000000000000000000000928316602385015260338401521660348201526044016040516020818303038152906040529350505050919050565b6000838360405160200161159692919061216f565b604051602081830303815290604052805190602001208260f81b7effffffffffffffffffffffffffffffffffffffffffffffffffffffffffffff19167f3b4102da22e32d82fc925482184f16c09fd4281692720b87d124aef6da48a0f1181860001c90509392505050565b6000610350611610848461173b565b5490565b60405160208101601f19603f8584010116604052838252610e2485858584611791565b610edc858561164684876116a2565b85611860565b6000828260405160200161166192919061216f565b60408051601f1981840301815291905280516020909101207f86425bff6b57326c7859e89024fe4f238ca327a1ae4a230180dd2f0e88aaa7d9189392505050565b600080805b8360ff16811015610e24576116c960ff601b83900360080287901c1683611f50565b91506001016116a7565b6000602082106116f9576020820484019350602082816116f5576116f56121ab565b0691505b508254600882021b602082900380841115610e24576001850154600882021c82179150509392505050565b600061173260706010611f50565b9190911b919050565b6000828260405160200161175092919061216f565b60408051601f1981840301815291905280516020909101207f14e2fcc58e58e68ec7edc30c8d50dccc3ce2714a623ec81f46b6a63922d76569189392505050565b811561181a57602082106117bb576020820484019350602082816117b7576117b76121ab565b0691505b811561181a5760208290036000818510156117df5750600019600885021c196117ea565b50600019600882021c195b8554600885021b81198451168282161784525081851161180b575050610770565b50600194909401939283900392015b5b6020831061183c5783548152600190930192601f199092019160200161181b565b8215610770576000600019600885021c198251865482169119161782525050505050565b600061186c858561164c565b9050847f8c0b5119d4cec7b284c6b1b39252a03d1e2f2d7451a5895562524c113bb952be8585856040516118a2939291906121c1565b60405180910390a2613a3160f11b857fffff00000000000000000000000000000000000000000000000000000000000016146118de5750610770565b60006118e986611aa5565b905060005b81518110156119be57600082828151811061190b5761190b611f63565b602002602001015190506119376004826affffffffffffffffffffff1916611b8590919063ffffffff16565b156119b5576040517f964f667d000000000000000000000000000000000000000000000000000000008152606082901c9063964f667d90611982908b908b908b908b906004016121f4565b600060405180830381600087803b15801561199c57600080fd5b505af11580156119b0573d6000803e3d6000fd5b505050505b506001016118ee565b506119d2828565ffffffffffff1685611ba3565b60005b815181101561065c5760008282815181106119f2576119f2611f63565b60200260200101519050611a1e6008826affffffffffffffffffffff1916611b8590919063ffffffff16565b15611a9c576040517fa8ba8721000000000000000000000000000000000000000000000000000000008152606082901c9063a8ba872190611a69908b908b908b908b906004016121f4565b600060405180830381600087803b158015611a8357600080fd5b505af1158015611a97573d6000803e3d6000fd5b505050505b506001016119d5565b60408051600180825281830190925260609160009190602080830190803683370190505090508281600081518110611adf57611adf611f63565b60209081029190910181019190915260408051613a3160f11b818401527f73746f726500000000000000000000000000000000000000000000000000000060228201527f53746f7265486f6f6b730000000000000000000000000000000000000000000060308201528151808203909301835281019052600090611b6e90611b6690611f79565b8360006111ab565b90506104ff611b808260008451611bb3565b611c43565b60008160ff1682611b968560581c90565b1660ff1614905092915050565b6108078383602084018451611c54565b6000818311158015611bc6575083518211155b611c02578383836040517f23230fa30000000000000000000000000000000000000000000000000000000081526004016103b39392919061222d565b60208401611c108482611f50565b90506000611c1e8585612252565b6fffffffffffffffffffffffffffffffff1660809290921b9190911795945050505050565b606060006103508360156000611d14565b8215611cce5760208310611c7e57602083048401935060208381611c7a57611c7a6121ab565b0692505b8215611cce5760208390036000600019600884021c1990506008850281811c91508451811c9050811987541682821617875550818311611cbf575050610770565b50600194909401939182019190035b5b60208110611cf05781518455600190930192602090910190601f1901611ccf565b8015610770576000600019600883021c198554845182169119161785555050505050565b60606000611d228560801c90565b90506fffffffffffffffffffffffffffffffff85166000858281611d4857611d486121ab565b04905060405193506020840160208202810160405281855260005b82811015611d83578451871c825293870193602090910190600101611d63565b50505050509392505050565b600060208284031215611da157600080fd5b81357fffffffff000000000000000000000000000000000000000000000000000000008116811461035057600080fd5b60005b83811015611dec578181015183820152602001611dd4565b50506000910152565b60008151808452611e0d816020860160208601611dd1565b601f01601f19169290920160200192915050565b6020815260006103506020830184611df5565b80356001600160a01b0381168114610bfd57600080fd5b60008060408385031215611e5e57600080fd5b611e6783611e34565b946020939093013593505050565b600080600060608486031215611e8a57600080fd5b611e9384611e34565b9250611ea160208501611e34565b9150604084013590509250925092565b600060208284031215611ec357600080fd5b61035082611e34565b60008060408385031215611edf57600080fd5b611ee883611e34565b9150611ef660208401611e34565b90509250929050565b634e487b7160e01b600052604160045260246000fd5b848152836020820152826040820152608060608201526000610bb96080830184611df5565b634e487b7160e01b600052601160045260246000fd5b808201808211156102bc576102bc611f3a565b634e487b7160e01b600052603260045260246000fd5b80516020808301519190811015611f9a576000198160200360031b1b821691505b50919050565b60008151808452602080850194506020840160005b83811015611fd157815187529582019590820190600101611fb5565b509495945050505050565b838152606060208201526000611ff56060830185611fa0565b905060ff83166040830152949350505050565b60006020828403121561201a57600080fd5b815167ffffffffffffffff8082111561203257600080fd5b818401915084601f83011261204657600080fd5b81518181111561205857612058611eff565b604051601f8201601f19908116603f0116810190838211818310171561208057612080611eff565b8160405282815287602084870101111561209957600080fd5b6120aa836020830160208801611dd1565b979650505050505050565b8481526080602082015260006120ce6080830186611fa0565b60ff949094166040830152506060015292915050565b6000602082840312156120f657600080fd5b5051919050565b6040815260006121106040830185611df5565b90506001600160a01b03831660208301529392505050565b85815260a06020820152600061214160a0830187611fa0565b60ff86166040840152828103606084015261215c8186611df5565b9150508260808301529695505050505050565b8281526000602080830184516020860160005b8281101561219e57815184529284019290840190600101612182565b5091979650505050505050565b634e487b7160e01b600052601260045260246000fd5b6060815260006121d46060830186611fa0565b65ffffffffffff851660208401528281036040840152610bb98185611df5565b84815260806020820152600061220d6080830186611fa0565b65ffffffffffff8516604084015282810360608401526120aa8185611df5565b6060815260006122406060830186611df5565b60208301949094525060400152919050565b818103818111156102bc576102bc611f3a56fea26469706673582212200523bb731b1545794e3b356f0021bd994b792b70c600c7c08b18d9925f6fdaf464736f6c63430008170033a2646970667358221220134266de23dceba591c65c8820bebbc459cef44414c16697321902cdbced315064736f6c63430008170033","linkReferences":{}},"methodIdentifiers":{"_msgSender()":"119df25f","_msgValue()":"45ec9354","_world()":"e1af802c","getName()":"17d7de7c","install(bytes)":"13861fb5","installRoot(bytes)":"7c5b0335","supportsInterface(bytes4)":"01ffc9a7"},"id":183}