{"abi":[{"type":"function","name":"_msgSender","inputs":[],"outputs":[{"name":"sender","type":"address","internalType":"address"}],"stateMutability":"view"},{"type":"function","name":"_msgValue","inputs":[],"outputs":[{"name":"value","type":"uint256","internalType":"uint256"}],"stateMutability":"pure"},{"type":"function","name":"_world","inputs":[],"outputs":[{"name":"","type":"address","internalType":"address"}],"stateMutability":"view"},{"type":"function","name":"isAllowed","inputs":[{"name":"matchEntity","type":"bytes32","internalType":"bytes32"},{"name":"account","type":"address","internalType":"address"}],"outputs":[{"name":"","type":"bool","internalType":"bool"}],"stateMutability":"view"},{"type":"function","name":"setMembers","inputs":[{"name":"matchEntity","type":"bytes32","internalType":"bytes32"},{"name":"accounts","type":"address[]","internalType":"address[]"}],"outputs":[],"stateMutability":"nonpayable"},{"type":"function","name":"supportsInterface","inputs":[{"name":"interfaceId","type":"bytes4","internalType":"bytes4"}],"outputs":[{"name":"","type":"bool","internalType":"bool"}],"stateMutability":"pure"},{"type":"event","name":"Store_SpliceStaticData","inputs":[{"name":"tableId","type":"bytes32","indexed":true,"internalType":"ResourceId"},{"name":"keyTuple","type":"bytes32[]","indexed":false,"internalType":"bytes32[]"},{"name":"start","type":"uint48","indexed":false,"internalType":"uint48"},{"name":"data","type":"bytes","indexed":false,"internalType":"bytes"}],"anonymous":false},{"type":"error","name":"Slice_OutOfBounds","inputs":[{"name":"data","type":"bytes","internalType":"bytes"},{"name":"start","type":"uint256","internalType":"uint256"},{"name":"end","type":"uint256","internalType":"uint256"}]}],"bytecode":{"object":"0x608060405234801561001057600080fd5b5061149c806100206000396000f3fe608060405234801561001057600080fd5b50600436106100725760003560e01c806382027b6d1161005057806382027b6d146100df578063e1af802c146100f2578063f18a2ea0146100fa57600080fd5b806301ffc9a714610077578063119df25f1461009f57806345ec9354146100cc575b600080fd5b61008a61008536600461106b565b61010f565b60405190151581526020015b60405180910390f35b6100a76101a8565b60405173ffffffffffffffffffffffffffffffffffffffff9091168152602001610096565b604051601f193601358152602001610096565b61008a6100ed3660046110d1565b6101b7565b6100a76101ca565b61010d610108366004611113565b6101d4565b005b60007fffffffff0000000000000000000000000000000000000000000000000000000082167fb42128800000000000000000000000000000000000000000000000000000000014806101a257507fffffffff0000000000000000000000000000000000000000000000000000000082167f01ffc9a700000000000000000000000000000000000000000000000000000000145b92915050565b60006101b26102b7565b905090565b60006101c383836102e9565b9392505050565b60006101b2610405565b60006101fa6101e16101a8565b73ffffffffffffffffffffffffffffffffffffffff1690565b9050600061020784610451565b9050808214610277576040517f08c379a000000000000000000000000000000000000000000000000000000000815260206004820152601b60248201527f43616c6c6572206973206e6f74206d617463682063726561746f72000000000060448201526064015b60405180910390fd5b60005b83518110156102b0576102a885858381518110610299576102996111e4565b60200260200101516001610527565b60010161027a565b5050505050565b7fffffffffffffffffffffffffffffffffffffffffffffffffffffffffffffffcc36013560601c806102e65750335b90565b604080516002808252606082018352600092839291906020830190803683370190505090508381600081518110610322576103226111e4565b6020026020010181815250508273ffffffffffffffffffffffffffffffffffffffff1660001b8160018151811061035b5761035b6111e4565b60209081029190910181019190915260408051613a3160f11b928101929092526000602283018190527f4d61746368416c6c6f77656400000000000000000000000000000000000000006030840152916103f091016040516020818303038152906040526103c8906111fa565b8360007e01010001000000000000000000000000000000000000000000000000000000610650565b90506103fc8160f81c90565b95945050505050565b7f629a4c26e296b22a8e0856e9f6ecb2d1008d7e00081111962cd175fa7488e1755460009073ffffffffffffffffffffffffffffffffffffffff168061044c573391505090565b919050565b60408051600180825281830190925260009182919060208083019080368337019050509050828160008151811061048a5761048a6111e4565b60209081029190910181019190915260408051613a3160f11b928101929092526000602283018190527f4d61746368436f6e66696700000000000000000000000000000000000000000060308401529161051f91016040516020818303038152906040526104f7906111fa565b8360047eb4060020202020201400000000000000000000000000000000000000000000610650565b949350505050565b604080516002808252606082018352600092602083019080368337019050509050838160008151811061055c5761055c6111e4565b6020026020010181815250508273ffffffffffffffffffffffffffffffffffffffff1660001b81600181518110610595576105956111e4565b60209081029190910181019190915260408051613a3160f11b81840152600060228201527f4d61746368416c6c6f77656400000000000000000000000000000000000000006030820152815180820390930183528101905261064a906105fa906111fa565b8260008560405160200161061591151560f81b815260010190565b60408051601f198184030181529190527e01010001000000000000000000000000000000000000000000000000000000610727565b50505050565b60008061065b610405565b90503073ffffffffffffffffffffffffffffffffffffffff82160361068e57610686868686866107f7565b91505061051f565b6040517f8c364d5900000000000000000000000000000000000000000000000000000000815273ffffffffffffffffffffffffffffffffffffffff821690638c364d59906106e690899089908990899060040161125d565b602060405180830381865afa158015610703573d6000803e3d6000fd5b505050506040513d601f19601f82011682018060405250810190610686919061128c565b6000610731610405565b90503073ffffffffffffffffffffffffffffffffffffffff8216036107625761075d8686868686610824565b6107ef565b6040517f390baae000000000000000000000000000000000000000000000000000000000815273ffffffffffffffffffffffffffffffffffffffff82169063390baae0906107bc90899089908990899089906004016112eb565b600060405180830381600087803b1580156107d657600080fd5b505af11580156107ea573d6000803e3d6000fd5b505050505b505050505050565b60006103fc6108068686610839565b60ff858116601b0360080285901c1661081f858761088f565b6108c8565b6102b08585610833848761088f565b85610919565b6000828260405160200161084e929190611332565b60408051601f1981840301815291905280516020909101207f86425bff6b57326c7859e89024fe4f238ca327a1ae4a230180dd2f0e88aaa7d9189392505050565b600080805b8360ff168110156108c0576108b660ff601b83900360080287901c1683611384565b9150600101610894565b509392505050565b6000602082106108ee576020820484019350602082816108ea576108ea611397565b0691505b508254600882021b6020829003808411156108c0576001850154600882021c82179150509392505050565b60006109258585610839565b9050847f8c0b5119d4cec7b284c6b1b39252a03d1e2f2d7451a5895562524c113bb952be85858560405161095b939291906113ad565b60405180910390a2613a3160f11b857fffff0000000000000000000000000000000000000000000000000000000000001614610997575061064a565b60006109a286610b67565b905060005b8151811015610a775760008282815181106109c4576109c46111e4565b602002602001015190506109f06004826affffffffffffffffffffff1916610c4790919063ffffffff16565b15610a6e576040517f964f667d000000000000000000000000000000000000000000000000000000008152606082901c9063964f667d90610a3b908b908b908b908b906004016113ea565b600060405180830381600087803b158015610a5557600080fd5b505af1158015610a69573d6000803e3d6000fd5b505050505b506001016109a7565b50610a8b828565ffffffffffff1685610c65565b60005b8151811015610b5e576000828281518110610aab57610aab6111e4565b60200260200101519050610ad76008826affffffffffffffffffffff1916610c4790919063ffffffff16565b15610b55576040517fa8ba8721000000000000000000000000000000000000000000000000000000008152606082901c9063a8ba872190610b22908b908b908b908b906004016113ea565b600060405180830381600087803b158015610b3c57600080fd5b505af1158015610b50573d6000803e3d6000fd5b505050505b50600101610a8e565b50505050505050565b60408051600180825281830190925260609160009190602080830190803683370190505090508281600081518110610ba157610ba16111e4565b60209081029190910181019190915260408051613a3160f11b818401527f73746f726500000000000000000000000000000000000000000000000000000060228201527f53746f7265486f6f6b730000000000000000000000000000000000000000000060308201528151808203909301835281019052600090610c3090610c28906111fa565b836000610c7a565b905061051f610c428260008451610cb4565b610d44565b60008160ff1682610c588560581c90565b1660ff1614905092915050565b610c758383602084018451610d55565b505050565b606061051f610c8a858585610e15565b610cad84610c988888610e95565b9060ff166028026038011c64ffffffffff1690565b6000610ea8565b6000818311158015610cc7575083518211155b610d03578383836040517f23230fa300000000000000000000000000000000000000000000000000000000815260040161026e9392919061142e565b60208401610d118482611384565b90506000610d1f8585611453565b6fffffffffffffffffffffffffffffffff1660809290921b9190911795945050505050565b606060006101c38360156000610ecb565b8215610dcf5760208310610d7f57602083048401935060208381610d7b57610d7b611397565b0692505b8215610dcf5760208390036000600019600884021c1990506008850281811c91508451811c9050811987541682821617875550818311610dc057505061064a565b50600194909401939182019190035b5b60208110610df15781518455600190930192602090910190601f1901610dd0565b801561064a576000600019600883021c198554845182169119161785555050505050565b60008383604051602001610e2a929190611332565b604051602081830303815290604052805190602001208260f81b7effffffffffffffffffffffffffffffffffffffffffffffffffffffffffffff19167f3b4102da22e32d82fc925482184f16c09fd4281692720b87d124aef6da48a0f1181860001c90509392505050565b60006101c3610ea48484610f46565b5490565b60405160208101601f19603f85840101166040528382526108c085858584610f9c565b60606000610ed98560801c90565b90506fffffffffffffffffffffffffffffffff85166000858281610eff57610eff611397565b04905060405193506020840160208202810160405281855260005b82811015610f3a578451871c825293870193602090910190600101610f1a565b50505050509392505050565b60008282604051602001610f5b929190611332565b60408051601f1981840301815291905280516020909101207f14e2fcc58e58e68ec7edc30c8d50dccc3ce2714a623ec81f46b6a63922d76569189392505050565b81156110255760208210610fc657602082048401935060208281610fc257610fc2611397565b0691505b8115611025576020829003600081851015610fea5750600019600885021c19610ff5565b50600019600882021c195b8554600885021b81198451168282161784525081851161101657505061064a565b50600194909401939283900392015b5b602083106110475783548152600190930192601f1990920191602001611026565b821561064a576000600019600885021c198251865482169119161782525050505050565b60006020828403121561107d57600080fd5b81357fffffffff00000000000000000000000000000000000000000000000000000000811681146101c357600080fd5b803573ffffffffffffffffffffffffffffffffffffffff8116811461044c57600080fd5b600080604083850312156110e457600080fd5b823591506110f4602084016110ad565b90509250929050565b634e487b7160e01b600052604160045260246000fd5b6000806040838503121561112657600080fd5b8235915060208084013567ffffffffffffffff8082111561114657600080fd5b818601915086601f83011261115a57600080fd5b81358181111561116c5761116c6110fd565b8060051b604051601f19603f83011681018181108582111715611191576111916110fd565b6040529182528482019250838101850191898311156111af57600080fd5b938501935b828510156111d4576111c5856110ad565b845293850193928501926111b4565b8096505050505050509250929050565b634e487b7160e01b600052603260045260246000fd5b8051602080830151919081101561121b576000198160200360031b1b821691505b50919050565b60008151808452602080850194506020840160005b8381101561125257815187529582019590820190600101611236565b509495945050505050565b8481526080602082015260006112766080830186611221565b60ff949094166040830152506060015292915050565b60006020828403121561129e57600080fd5b5051919050565b6000815180845260005b818110156112cb576020818501810151868301820152016112af565b506000602082860101526020601f19601f83011685010191505092915050565b85815260a06020820152600061130460a0830187611221565b60ff86166040840152828103606084015261131f81866112a5565b9150508260808301529695505050505050565b8281526000602080830184516020860160005b8281101561136157815184529284019290840190600101611345565b5091979650505050505050565b634e487b7160e01b600052601160045260246000fd5b808201808211156101a2576101a261136e565b634e487b7160e01b600052601260045260246000fd5b6060815260006113c06060830186611221565b65ffffffffffff8516602084015282810360408401526113e081856112a5565b9695505050505050565b8481526080602082015260006114036080830186611221565b65ffffffffffff85166040840152828103606084015261142381856112a5565b979650505050505050565b60608152600061144160608301866112a5565b60208301949094525060400152919050565b818103818111156101a2576101a261136e56fea2646970667358221220347f7a5df9af641fbfbc3dd428824e6be31ec65d5bcd5cc058dafd37117613e864736f6c63430008170033","linkReferences":{}},"methodIdentifiers":{"_msgSender()":"119df25f","_msgValue()":"45ec9354","_world()":"e1af802c","isAllowed(bytes32,address)":"82027b6d","setMembers(bytes32,address[])":"f18a2ea0","supportsInterface(bytes4)":"01ffc9a7"},"id":443}