{"abi":[{"type":"function","name":"onAfterCallSystem","inputs":[{"name":"","type":"address","internalType":"address"},{"name":"","type":"bytes32","internalType":"ResourceId"},{"name":"","type":"bytes","internalType":"bytes"}],"outputs":[],"stateMutability":"nonpayable"},{"type":"function","name":"onBeforeCallSystem","inputs":[{"name":"","type":"address","internalType":"address"},{"name":"","type":"bytes32","internalType":"ResourceId"},{"name":"callData","type":"bytes","internalType":"bytes"}],"outputs":[],"stateMutability":"pure"},{"type":"function","name":"supportsInterface","inputs":[{"name":"interfaceId","type":"bytes4","internalType":"bytes4"}],"outputs":[{"name":"","type":"bool","internalType":"bool"}],"stateMutability":"view"}],"bytecode":{"object":"0x608060405234801561001057600080fd5b506103f2806100206000396000f3fe608060405234801561001057600080fd5b50600436106100415760003560e01c806301ffc9a714610046578063973d8f991461006d578063c332303114610082575b600080fd5b6100596100543660046101f0565b610095565b604051901515815260200160405180910390f35b61008061007b366004610268565b505050565b005b610080610090366004610268565b61012e565b60007fffffffff0000000000000000000000000000000000000000000000000000000082167f55f0760f00000000000000000000000000000000000000000000000000000000148061012857507fffffffff0000000000000000000000000000000000000000000000000000000082167f01ffc9a700000000000000000000000000000000000000000000000000000000145b92915050565b60006101398261036c565b90507fdc478d23000000000000000000000000000000000000000000000000000000007fffffffff000000000000000000000000000000000000000000000000000000008216016101ea576040517f08c379a000000000000000000000000000000000000000000000000000000000815260206004820152601f60248201527f7468697320746f6b656e206973206e6f6e2d7472616e736665727261626c6500604482015260640160405180910390fd5b50505050565b60006020828403121561020257600080fd5b81357fffffffff000000000000000000000000000000000000000000000000000000008116811461023257600080fd5b9392505050565b7f4e487b7100000000000000000000000000000000000000000000000000000000600052604160045260246000fd5b60008060006060848603121561027d57600080fd5b833573ffffffffffffffffffffffffffffffffffffffff811681146102a157600080fd5b925060208401359150604084013567ffffffffffffffff808211156102c557600080fd5b818601915086601f8301126102d957600080fd5b8135818111156102eb576102eb610239565b604051601f82017fffffffffffffffffffffffffffffffffffffffffffffffffffffffffffffffe0908116603f0116810190838211818310171561033157610331610239565b8160405282815289602084870101111561034a57600080fd5b8260208601602083013760006020848301015280955050505050509250925092565b6000815160208301517fffffffff00000000000000000000000000000000000000000000000000000000808216935060048310156103b45780818460040360031b1b83161693505b50505091905056fea264697066735822122092697003b7a03f7ba9e3f8c49975a05dc37d3d90cc2dfa477254e868d507415364736f6c63430008170033","linkReferences":{}},"methodIdentifiers":{"onAfterCallSystem(address,bytes32,bytes)":"973d8f99","onBeforeCallSystem(address,bytes32,bytes)":"c3323031","supportsInterface(bytes4)":"01ffc9a7"},"id":305}