{"abi":[{"type":"function","name":"_msgSender","inputs":[],"outputs":[{"name":"sender","type":"address","internalType":"address"}],"stateMutability":"view"},{"type":"function","name":"_msgValue","inputs":[],"outputs":[{"name":"value","type":"uint256","internalType":"uint256"}],"stateMutability":"pure"},{"type":"function","name":"_world","inputs":[],"outputs":[{"name":"","type":"address","internalType":"address"}],"stateMutability":"view"},{"type":"function","name":"finish","inputs":[{"name":"matchEntity","type":"bytes32","internalType":"bytes32"},{"name":"loser","type":"bytes32","internalType":"bytes32"}],"outputs":[],"stateMutability":"nonpayable"},{"type":"function","name":"prependRanking","inputs":[{"name":"matchEntity","type":"bytes32","internalType":"bytes32"},{"name":"entity","type":"bytes32","internalType":"bytes32"}],"outputs":[],"stateMutability":"nonpayable"},{"type":"function","name":"supportsInterface","inputs":[{"name":"interfaceId","type":"bytes4","internalType":"bytes4"}],"outputs":[{"name":"","type":"bool","internalType":"bool"}],"stateMutability":"pure"},{"type":"event","name":"Store_SpliceDynamicData","inputs":[{"name":"tableId","type":"bytes32","indexed":true,"internalType":"ResourceId"},{"name":"keyTuple","type":"bytes32[]","indexed":false,"internalType":"bytes32[]"},{"name":"start","type":"uint48","indexed":false,"internalType":"uint48"},{"name":"deleteCount","type":"uint40","indexed":false,"internalType":"uint40"},{"name":"encodedLengths","type":"bytes32","indexed":false,"internalType":"PackedCounter"},{"name":"data","type":"bytes","indexed":false,"internalType":"bytes"}],"anonymous":false},{"type":"event","name":"Store_SpliceStaticData","inputs":[{"name":"tableId","type":"bytes32","indexed":true,"internalType":"ResourceId"},{"name":"keyTuple","type":"bytes32[]","indexed":false,"internalType":"bytes32[]"},{"name":"start","type":"uint48","indexed":false,"internalType":"uint48"},{"name":"data","type":"bytes","indexed":false,"internalType":"bytes"}],"anonymous":false},{"type":"error","name":"PackedCounter_InvalidLength","inputs":[{"name":"length","type":"uint256","internalType":"uint256"}]},{"type":"error","name":"Slice_OutOfBounds","inputs":[{"name":"data","type":"bytes","internalType":"bytes"},{"name":"start","type":"uint256","internalType":"uint256"},{"name":"end","type":"uint256","internalType":"uint256"}]},{"type":"error","name":"Store_IndexOutOfBounds","inputs":[{"name":"length","type":"uint256","internalType":"uint256"},{"name":"accessedIndex","type":"uint256","internalType":"uint256"}]},{"type":"error","name":"Store_InvalidResourceType","inputs":[{"name":"expected","type":"bytes2","internalType":"bytes2"},{"name":"resourceId","type":"bytes32","internalType":"ResourceId"},{"name":"resourceIdString","type":"string","internalType":"string"}]},{"type":"error","name":"Store_InvalidSplice","inputs":[{"name":"startWithinField","type":"uint40","internalType":"uint40"},{"name":"deleteCount","type":"uint40","internalType":"uint40"},{"name":"fieldLength","type":"uint40","internalType":"uint40"}]}],"bytecode":{"object":"0x608060405234801561001057600080fd5b50612e0f806100206000396000f3fe608060405234801561001057600080fd5b50600436106100725760003560e01c8063559e734511610050578063559e7345146100d2578063756bae5c146100e7578063e1af802c146100fa57600080fd5b806301ffc9a714610077578063119df25f1461009f57806345ec9354146100bf575b600080fd5b61008a61008536600461270b565b610102565b60405190151581526020015b60405180910390f35b6100a761019b565b6040516001600160a01b039091168152602001610096565b604051601f193601358152602001610096565b6100e56100e036600461274d565b6101aa565b005b6100e56100f536600461274d565b610280565b6100a7610308565b60007fffffffff0000000000000000000000000000000000000000000000000000000082167fb421288000000000000000000000000000000000000000000000000000000000148061019557507fffffffff0000000000000000000000000000000000000000000000000000000082167f01ffc9a700000000000000000000000000000000000000000000000000000000145b92915050565b60006101a5610312565b905090565b60006101b583610344565b6101c0906001612785565b67ffffffffffffffff8111156101d8576101d8612798565b604051908082528060200260200182016040528015610201578160200160208202803683370190505b5090508181600081518110610218576102186127ae565b60200260200101818152505060005b61023084610344565b8110156102705761024184826103fe565b8261024d836001612785565b8151811061025d5761025d6127ae565b6020908102919091010152600101610227565b5061027b83826104cb565b505050565b600061028b83610577565b905060005b81518110156103025760006102be858484815181106102b1576102b16127ae565b6020026020010151610646565b905080158015906102cf5750838114155b156102f9576102de85826101aa565b6102e98560016106a9565b6102f285610794565b5050505050565b50600101610290565b50505050565b60006101a56108ef565b7fffffffffffffffffffffffffffffffffffffffffffffffffffffffffffffffcc36013560601c806103415750335b90565b60408051600180825281830190925260009182919060208083019080368337019050509050828160008151811061037d5761037d6127ae565b60209081029190910181019190915260408051613a3160f11b928101929092526000602283018190527f4d6174636852616e6b696e6700000000000000000000000000000000000000006030840152916103f291016040516020818303038152906040526103ea906127c4565b83600061092e565b60209004949350505050565b604080516001808252818301909252600091829190602080830190803683370190505090508381600081518110610437576104376127ae565b60209081029190910181019190915260408051613a3160f11b928101929092526000602283018190527f4d6174636852616e6b696e6700000000000000000000000000000000000000006030840152916104b791016040516020818303038152906040526104a4906127c4565b83600087602002886001016020026109f1565b90506104c2816127c4565b95945050505050565b604080516001808252818301909252600091602080830190803683370190505090508281600081518110610501576105016127ae565b60209081029190910181019190915260408051613a3160f11b81840152600060228201527f4d6174636852616e6b696e6700000000000000000000000000000000000000006030820152815180820390930183528101905261027b90610566906127c4565b82600061057286610ab6565b610ac6565b604080516001808252818301909252606091600091906020808301908036833701905050905082816000815181106105b1576105b16127ae565b60209081029190910181019190915260408051613a3160f11b928101929092526000602283018190527f4d61746368537061776e506f696e74730000000000000000000000000000000060308401529161062791015b60405160208183030381529060405261061f906127c4565b836000610b77565b905061063e6106398260008451610c2e565b610cc7565b949350505050565b60006106528383610cd8565b63ffffffff1615610664575080610195565b61066e8383610dd2565b156106a05761067d8383610dd2565b91506106898383610cd8565b63ffffffff161561069b575080610195565b610664565b50600092915050565b6040805160018082528183019092526000916020808301908036833701905050905082816000815181106106df576106df6127ae565b60209081029190910181019190915260408051613a3160f11b81840152600060228201527f4d6174636846696e6973686564000000000000000000000000000000000000006030820152815180820390930183528101905261027b90610744906127c4565b8260008560405160200161075f91151560f81b815260010190565b60408051601f198184030181529190527e01010001000000000000000000000000000000000000000000000000000000610ec1565b600061079f82610f77565b905060006107ac8361100b565b905060005b82518110156107fe5760006107df858584815181106107d2576107d26127ae565b6020026020010151610dd2565b90506107f583826107f088866110e4565b61119a565b506001016107b1565b5060008061080b85611336565b909250905081156102f25760008451836108259190612801565b905060005b855181101561089f57600061084b888884815181106107d2576107d26127ae565b9050841561089657600060648486858151811061086a5761086a6127ae565b602002602001015161087c9190612801565b6108869190612818565b905061089487835b8361119a565b505b5060010161082a565b506000606482848851815181106108b8576108b86127ae565b60200260200101516108ca9190612801565b6108d49190612818565b90506108e68561088e6103418a611426565b50505050505050565b7f629a4c26e296b22a8e0856e9f6ecb2d1008d7e00081111962cd175fa7488e175546000906001600160a01b031680610929573391505090565b919050565b6000806109396108ef565b9050306001600160a01b0382160361095e576109568585856114f4565b9150506109ea565b6040517fdbbf0e210000000000000000000000000000000000000000000000000000000081526001600160a01b0382169063dbbf0e21906109a790889088908890600401612876565b602060405180830381865afa1580156109c4573d6000803e3d6000fd5b505050506040513d601f19601f8201168201806040525081019061095691906128a2565b505b9392505050565b606060006109fd6108ef565b9050306001600160a01b03821603610a2457610a1c8787878787611519565b9150506104c2565b6040517f4dc77d970000000000000000000000000000000000000000000000000000000081526001600160a01b03821690634dc77d9790610a71908a908a908a908a908a906004016128bb565b600060405180830381865afa158015610a8e573d6000803e3d6000fd5b505050506040513d6000823e601f3d908101601f19168201604052610a1c91908101906129a0565b6060816109ea81602060006115df565b6000610ad06108ef565b9050306001600160a01b03821603610af357610aee8585858561163f565b6102f2565b6040517fef6ea8620000000000000000000000000000000000000000000000000000000081526001600160a01b0382169063ef6ea86290610b3e908890889088908890600401612a01565b600060405180830381600087803b158015610b5857600080fd5b505af1158015610b6c573d6000803e3d6000fd5b505050505050505050565b60606000610b836108ef565b9050306001600160a01b03821603610ba05761095685858561167a565b6040517f1e7889770000000000000000000000000000000000000000000000000000000081526001600160a01b03821690631e78897790610be990889088908890600401612876565b600060405180830381865afa158015610c06573d6000803e3d6000fd5b505050506040513d6000823e601f3d908101601f1916820160405261095691908101906129a0565b6000818311158015610c41575083518211155b610c86578383836040517f23230fa3000000000000000000000000000000000000000000000000000000008152600401610c7d93929190612a40565b60405180910390fd5b60208401610c948482612785565b90506000610ca28585612a65565b6fffffffffffffffffffffffffffffffff1660809290921b9190911795945050505050565b606060006109ea836020600061169f565b604080516002808252606082018352600092839291906020830190803683370190505090508381600081518110610d1157610d116127ae565b6020026020010181815250508281600181518110610d3157610d316127ae565b60209081029190910181019190915260408051613a3160f11b928101929092526000602283018190527f506c617965720000000000000000000000000000000000000000000000000000603084015291610dc69101604051602081830303815290604052610d9e906127c4565b8360007e0401000400000000000000000000000000000000000000000000000000000061170e565b60e01c95945050505050565b604080516002808252606082018352600092839291906020830190803683370190505090508381600081518110610e0b57610e0b6127ae565b6020026020010181815250508281600181518110610e2b57610e2b6127ae565b60209081029190910181019190915260408051613a3160f11b928101929092526000602283018190527f4f776e65644279000000000000000000000000000000000000000000000000006030840152916104c291015b604051602081830303815290604052610e99906127c4565b8360007e2001002000000000000000000000000000000000000000000000000000000061170e565b6000610ecb6108ef565b9050306001600160a01b03821603610eef57610eea86868686866117cb565b610f6f565b6040517f390baae00000000000000000000000000000000000000000000000000000000081526001600160a01b0382169063390baae090610f3c9089908990899089908990600401612a78565b600060405180830381600087803b158015610f5657600080fd5b505af1158015610f6a573d6000803e3d6000fd5b505050505b505050505050565b60408051600180825281830190925260609160009190602080830190803683370190505090508281600081518110610fb157610fb16127ae565b60209081029190910181019190915260408051613a3160f11b928101929092526000602283018190527f4d6174636852616e6b696e6700000000000000000000000000000000000000006030840152916106279101610607565b604080516001808252818301909252600091829190602080830190803683370190505090508281600081518110611044576110446127ae565b60209081029190910181019190915260408051613a3160f11b928101929092526000602283018190527f4d61746368436f6e6669670000000000000000000000000000000000000000006030840152916110d991016040516020818303038152906040526110b1906127c4565b8360057eb406002020202020140000000000000000000000000000000000000000000061170e565b60601c949350505050565b60408051600280825260608201835260009283929190602083019080368337019050509050838160008151811061111d5761111d6127ae565b6020026020010181815250508260001b81600181518110611140576111406127ae565b60209081029190910181019190915260408051613a3160f11b928101929092526000602283018190527f4d617463685265776172640000000000000000000000000000000000000000006030840152916104c29101610e81565b60006111a46117e0565b604080516001600160a01b038681166024830152604480830187905283518084039091018152606490920183526020820180517bffffffffffffffffffffffffffffffffffffffffffffffffffffffff167fa9059cbb0000000000000000000000000000000000000000000000000000000017905291517f6e2d44ae0000000000000000000000000000000000000000000000000000000081529293508692600092841691636e2d44ae9161125f9187918690600401612abf565b6000604051808303816000875af115801561127e573d6000803e3d6000fd5b505050506040513d6000823e601f3d908101601f191682016040526112a69190810190612af1565b50905080610f6f576040517f08c379a000000000000000000000000000000000000000000000000000000000815260206004820152602160248201527f746f6b656e207472616e736665722066726f6d20657363726f77206661696c6560448201527f64000000000000000000000000000000000000000000000000000000000000006064820152608401610c7d565b6040805160018082528183019092526000916060918391602080830190803683370190505090508381600081518110611371576113716127ae565b60209081029190910181019190915260408051613a3160f11b928101929092526000602283018190527f4d6174636853776565707374616b6500000000000000000000000000000000006030840152918291829161140891016040516020818303038152906040526113e2906127c4565b857e20010120000000000000000000000000000000000000000000000000000000611878565b925092509250611419838383611948565b9550955050505050915091565b60408051600180825281830190925260009182919060208083019080368337019050509050828160008151811061145f5761145f6127ae565b60209081029190910181019190915260408051613a3160f11b928101929092526000602283018190527f4d61746368436f6e66696700000000000000000000000000000000000000000060308401529161063e91016040516020818303038152906040526114cc906127c4565b8360047eb406002020202020140000000000000000000000000000000000000000000061170e565b600061063e82611504868661196b565b9060ff166028026038011c64ffffffffff1690565b60606000611527878761196b565b90506000611544828760ff166028026038011c64ffffffffff1690565b9050808510158061155457508084115b156115af5780818610156115725761156d600186612a65565b611574565b855b6040517f7e8578d300000000000000000000000000000000000000000000000000000000815260048101929092526024820152604401610c7d565b60006115bc89898961197e565b90506115d2816115cc8888612a65565b886119fe565b9998505050505050505050565b825160609060006115f08583612801565b9050604051925060208301601f19603f83860101166040528184526000602088015b84821015611633578051871b83529187019160019190910190602001611612565b50505050509392505050565b600061164b858561196b565b90506000611668828560ff166028026038011c64ffffffffff1690565b9050610f6f8686866000858888611a21565b606061063e61168a85858561197e565b61169884611504888861196b565b60006119fe565b606060006116ad8560801c90565b90506fffffffffffffffffffffffffffffffff851660008582816116d3576116d36127eb565b04905060405193506020840160208202810160405281855260005b82811015611633578451871c8252938701936020909101906001016116ee565b6000806117196108ef565b9050306001600160a01b0382160361173f5761173786868686611e23565b91505061063e565b6040517f8c364d590000000000000000000000000000000000000000000000000000000081526001600160a01b03821690638c364d599061178a908990899089908990600401612b47565b602060405180830381865afa1580156117a7573d6000803e3d6000fd5b505050506040513d601f19601f8201168201806040525081019061173791906128a2565b6102f285856117da8487611e50565b85611e81565b604080516000808252602082018352613a3160f11b82840152604282018190527f536b79506f6f6c436f6e6669670000000000000000000000000000000000000060508301528251808303840181526060830190935291829061186e90611846906127c4565b8360027e7c05002020141414000000000000000000000000000000000000000000000061170e565b60601c9392505050565b60606000606060006118886108ef565b9050306001600160a01b038216036118b1576118a58787876120c6565b9350935093505061193f565b6040517f419b58fd0000000000000000000000000000000000000000000000000000000081526001600160a01b0382169063419b58fd906118fa908a908a908a90600401612b76565b600060405180830381865afa158015611917573d6000803e3d6000fd5b505050506040513d6000823e601f3d908101601f191682016040526118a59190810190612b8f565b93509350939050565b60006060611955856121ce565b915061196184846121db565b9050935093915050565b60006109ea61197a84846121f9565b5490565b60008383604051602001611993929190612bfc565b604051602081830303815290604052805190602001208260f81b7effffffffffffffffffffffffffffffffffffffffffffffffffffffffffffff19167f3b4102da22e32d82fc925482184f16c09fd4281692720b87d124aef6da48a0f1181860001c90509392505050565b60405160208101601f19603f85840101166040528382526109e88585858461224f565b613a3160f11b877fffff0000000000000000000000000000000000000000000000000000000000001614611aab57613a3160f11b8788604051602001611a6991815260200190565b60408051601f19818403018152908290527f31b46683000000000000000000000000000000000000000000000000000000008252610c7d939291600401612c38565b6000611ac6828760ff166028026038011c64ffffffffff1690565b9050600083518564ffffffffff1683611adf9190612a65565b611ae99190612785565b9050808214158015611b0b575081611b018688612c79565b64ffffffffff1614155b15611b5b576040517fa65010b400000000000000000000000000000000000000000000000000000000815264ffffffffff8088166004830152808716602483015283166044820152606401610c7d565b818664ffffffffff161115611bac576040517f7e8578d30000000000000000000000000000000000000000000000000000000081526004810183905264ffffffffff87166024820152604401610c7d565b6000611bb984898461231e565b905064ffffffffff871660005b8960ff168160ff161015611bf957611bed868260ff166028026038011c64ffffffffff1690565b90910190600101611bc6565b508a7faa63765a776145e5e6492f471ae097dfed11cd57a61bc2679dd43180422385b48b838a868b604051611c32959493929190612c9e565b60405180910390a2506000611c468b6123ec565b905060005b8151811015611d11576000828281518110611c6857611c686127ae565b60200260200101519050611c946010826affffffffffffffffffffff19166124cc90919063ffffffff16565b15611d0857606081901c6001600160a01b03166355eb5a288e8e8e8e8e8a8f6040518863ffffffff1660e01b8152600401611cd59796959493929190612cf0565b600060405180830381600087803b158015611cef57600080fd5b505af1158015611d03573d6000803e3d6000fd5b505050505b50600101611c4b565b50828414611d2a576000611d258c8c6121f9565b839055505b6000611d378c8c8c61197e565b9050611d4b818a64ffffffffff16896124ea565b5060005b8151811015611e15576000828281518110611d6c57611d6c6127ae565b60200260200101519050611d986020826affffffffffffffffffffff19166124cc90919063ffffffff16565b15611e0c57606081901c6001600160a01b031663635845338e8e8e8e8e8a8f6040518863ffffffff1660e01b8152600401611dd99796959493929190612cf0565b600060405180830381600087803b158015611df357600080fd5b505af1158015611e07573d6000803e3d6000fd5b505050505b50600101611d4f565b505050505050505050505050565b60006104c2611e3286866124fa565b60ff858116601b0360080285901c16611e4b8587611e50565b612550565b600080805b8360ff168110156109e857611e7760ff601b83900360080287901c1683612785565b9150600101611e55565b6000611e8d85856124fa565b9050847f8c0b5119d4cec7b284c6b1b39252a03d1e2f2d7451a5895562524c113bb952be858585604051611ec393929190612d4e565b60405180910390a2613a3160f11b857fffff0000000000000000000000000000000000000000000000000000000000001614611eff5750610302565b6000611f0a866123ec565b905060005b8151811015611fdf576000828281518110611f2c57611f2c6127ae565b60200260200101519050611f586004826affffffffffffffffffffff19166124cc90919063ffffffff16565b15611fd6576040517f964f667d000000000000000000000000000000000000000000000000000000008152606082901c9063964f667d90611fa3908b908b908b908b90600401612d81565b600060405180830381600087803b158015611fbd57600080fd5b505af1158015611fd1573d6000803e3d6000fd5b505050505b50600101611f0f565b50611ff3828565ffffffffffff16856124ea565b60005b81518110156108e6576000828281518110612013576120136127ae565b6020026020010151905061203f6008826affffffffffffffffffffff19166124cc90919063ffffffff16565b156120bd576040517fa8ba8721000000000000000000000000000000000000000000000000000000008152606082901c9063a8ba87219061208a908b908b908b908b90600401612d81565b600060405180830381600087803b1580156120a457600080fd5b505af11580156120b8573d6000803e3d6000fd5b505050505b50600101611ff6565b60606000606060006120d7856125a1565b90506120e48787836125c4565b935060006120f1866125fd565b905080156121c357612103888861196b565b935066ffffffffffffff841667ffffffffffffffff81111561212757612127612798565b6040519080825280601f01601f191660200182016040528015612151576020820181803683370190505b5092506020830160005b828160ff1610156121c05760006121738b8b8461197e565b90506000612190888460ff166028026038011c64ffffffffff1690565b905061219f828260008761224f565b6121a98185612785565b9350505080806121b890612dba565b91505061215b565b50505b505093509350939050565b6020810151600090610195565b60606000603884901c64ffffffffff166104c2610639858484610c2e565b6000828260405160200161220e929190612bfc565b60408051601f1981840301815291905280516020909101207f14e2fcc58e58e68ec7edc30c8d50dccc3ce2714a623ec81f46b6a63922d76569189392505050565b81156122d8576020821061227957602082048401935060208281612275576122756127eb565b0691505b81156122d857602082900360008185101561229d5750600019600885021c196122a8565b50600019600882021c195b8554600885021b8119845116828216178452508185116122c9575050610302565b50600194909401939283900392015b5b602083106122fa5783548152600190930192601f19909201916020016122d9565b8215610302576000600019600885021c198251865482169119161782525050505050565b600064ffffffffff821115612362576040517f4767058800000000000000000000000000000000000000000000000000000000815260048101839052602401610c7d565b8366ffffffffffffff811660ff851660280260380182901c64ffffffffff16808510612394578085038201915061239c565b848103820391505b5064ffffffffff6038602860ff8816020181811b197fffffffffffffffffffffffffffffffffffffffffffffffffff000000000000009490941690921792909216918416901b1790509392505050565b60408051600180825281830190925260609160009190602080830190803683370190505090508281600081518110612426576124266127ae565b60209081029190910181019190915260408051613a3160f11b818401527f73746f726500000000000000000000000000000000000000000000000000000060228201527f53746f7265486f6f6b7300000000000000000000000000000000000000000000603082015281518082039093018352810190526000906124b5906124ad906127c4565b83600061167a565b905061063e6124c78260008451610c2e565b61263a565b60008160ff16826124dd8560581c90565b1660ff1614905092915050565b61027b838360208401845161264b565b6000828260405160200161250f929190612bfc565b60408051601f1981840301815291905280516020909101207f86425bff6b57326c7859e89024fe4f238ca327a1ae4a230180dd2f0e88aaa7d9189392505050565b60006020821061257657602082048401935060208281612572576125726127eb565b0691505b508254600882021b6020829003808411156109e8576001850154600882021c82179150509392505050565b600060086125b160026020612a65565b6125bb9190612801565b9190911c919050565b6060816000036125e357506040805160208101909152600081526109ea565b60006125ef85856124fa565b90506104c2818460006119fe565b6000600860018061261060026020612a65565b61261a9190612a65565b6126249190612a65565b61262e9190612801565b8260ff911c1692915050565b606060006109ea836015600061169f565b82156126c5576020831061267557602083048401935060208381612671576126716127eb565b0692505b82156126c55760208390036000600019600884021c1990506008850281811c91508451811c90508119875416828216178755508183116126b6575050610302565b50600194909401939182019190035b5b602081106126e75781518455600190930192602090910190601f19016126c6565b8015610302576000600019600883021c198554845182169119161785555050505050565b60006020828403121561271d57600080fd5b81357fffffffff00000000000000000000000000000000000000000000000000000000811681146109ea57600080fd5b6000806040838503121561276057600080fd5b50508035926020909101359150565b634e487b7160e01b600052601160045260246000fd5b808201808211156101955761019561276f565b634e487b7160e01b600052604160045260246000fd5b634e487b7160e01b600052603260045260246000fd5b805160208083015191908110156127e5576000198160200360031b1b821691505b50919050565b634e487b7160e01b600052601260045260246000fd5b80820281158282048414176101955761019561276f565b60008261283557634e487b7160e01b600052601260045260246000fd5b500490565b60008151808452602080850194506020840160005b8381101561286b5781518752958201959082019060010161284f565b509495945050505050565b83815260606020820152600061288f606083018561283a565b905060ff83166040830152949350505050565b6000602082840312156128b457600080fd5b5051919050565b85815260a0602082015260006128d460a083018761283a565b60ff95909516604083015250606081019290925260809091015292915050565b60005b8381101561290f5781810151838201526020016128f7565b50506000910152565b600082601f83011261292957600080fd5b815167ffffffffffffffff8082111561294457612944612798565b604051601f8301601f19908116603f0116810190828211818310171561296c5761296c612798565b8160405283815286602085880101111561298557600080fd5b6129968460208301602089016128f4565b9695505050505050565b6000602082840312156129b257600080fd5b815167ffffffffffffffff8111156129c957600080fd5b61063e84828501612918565b600081518084526129ed8160208601602086016128f4565b601f01601f19169290920160200192915050565b848152608060208201526000612a1a608083018661283a565b60ff851660408401528281036060840152612a3581856129d5565b979650505050505050565b606081526000612a5360608301866129d5565b60208301949094525060400152919050565b818103818111156101955761019561276f565b85815260a060208201526000612a9160a083018761283a565b60ff861660408401528281036060840152612aac81866129d5565b9150508260808301529695505050505050565b6001600160a01b0384168152606060208201526000612ae160608301856129d5565b9050826040830152949350505050565b60008060408385031215612b0457600080fd5b82518015158114612b1457600080fd5b602084015190925067ffffffffffffffff811115612b3157600080fd5b612b3d85828601612918565b9150509250929050565b848152608060208201526000612b60608083018661283a565b60ff949094166040830152506060015292915050565b838152606060208201526000612ae1606083018561283a565b600080600060608486031215612ba457600080fd5b835167ffffffffffffffff80821115612bbc57600080fd5b612bc887838801612918565b9450602086015193506040860151915080821115612be557600080fd5b50612bf286828701612918565b9150509250925092565b8281526000602080830184516020860160005b82811015612c2b57815184529284019290840190600101612c0f565b5091979650505050505050565b7fffff000000000000000000000000000000000000000000000000000000000000841681528260208201526060604082015260006104c260608301846129d5565b64ffffffffff818116838216019080821115612c9757612c9761276f565b5092915050565b60a081526000612cb160a083018861283a565b65ffffffffffff8716602084015264ffffffffff861660408401528460608401528281036080840152612ce481856129d5565b98975050505050505050565b87815260e060208201526000612d0960e083018961283a565b60ff8816604084015264ffffffffff87811660608501528616608084015260a0830185905282810360c0840152612d4081856129d5565b9a9950505050505050505050565b606081526000612d61606083018661283a565b65ffffffffffff85166020840152828103604084015261299681856129d5565b848152608060208201526000612d9a608083018661283a565b65ffffffffffff851660408401528281036060840152612a3581856129d5565b600060ff821660ff8103612dd057612dd061276f565b6001019291505056fea26469706673582212202fc4d14789f3c09adfd37a0945c71a7570d6cbf0d8a9050139d47646e78cd04564736f6c63430008170033","linkReferences":{}},"methodIdentifiers":{"_msgSender()":"119df25f","_msgValue()":"45ec9354","_world()":"e1af802c","finish(bytes32,bytes32)":"756bae5c","prependRanking(bytes32,bytes32)":"559e7345","supportsInterface(bytes4)":"01ffc9a7"},"id":450}