{"abi":[{"type":"function","name":"_msgSender","inputs":[],"outputs":[{"name":"sender","type":"address","internalType":"address"}],"stateMutability":"view"},{"type":"function","name":"_msgValue","inputs":[],"outputs":[{"name":"value","type":"uint256","internalType":"uint256"}],"stateMutability":"pure"},{"type":"function","name":"_world","inputs":[],"outputs":[{"name":"","type":"address","internalType":"address"}],"stateMutability":"view"},{"type":"function","name":"supportsInterface","inputs":[{"name":"interfaceId","type":"bytes4","internalType":"bytes4"}],"outputs":[{"name":"","type":"bool","internalType":"bool"}],"stateMutability":"pure"},{"type":"function","name":"unregisterDelegation","inputs":[{"name":"delegatee","type":"address","internalType":"address"}],"outputs":[],"stateMutability":"nonpayable"},{"type":"event","name":"Store_DeleteRecord","inputs":[{"name":"tableId","type":"bytes32","indexed":true,"internalType":"ResourceId"},{"name":"keyTuple","type":"bytes32[]","indexed":false,"internalType":"bytes32[]"}],"anonymous":false},{"type":"error","name":"Slice_OutOfBounds","inputs":[{"name":"data","type":"bytes","internalType":"bytes"},{"name":"start","type":"uint256","internalType":"uint256"},{"name":"end","type":"uint256","internalType":"uint256"}]}],"bytecode":{"object":"0x608060405234801561001057600080fd5b50611129806100206000396000f3fe608060405234801561001057600080fd5b50600436106100675760003560e01c806345ec93541161005057806345ec9354146100c1578063cdc938c5146100d4578063e1af802c146100e957600080fd5b806301ffc9a71461006c578063119df25f14610094575b600080fd5b61007f61007a366004610e74565b6100f1565b60405190151581526020015b60405180910390f35b61009c61018a565b60405173ffffffffffffffffffffffffffffffffffffffff909116815260200161008b565b604051601f19360135815260200161008b565b6100e76100e2366004610eb6565b610199565b005b61009c6101ad565b60007fffffffff0000000000000000000000000000000000000000000000000000000082167fb421288000000000000000000000000000000000000000000000000000000000148061018457507fffffffff0000000000000000000000000000000000000000000000000000000082167f01ffc9a700000000000000000000000000000000000000000000000000000000145b92915050565b60006101946101b7565b905090565b6101aa6101a461018a565b826101e9565b50565b60006101946102ff565b7fffffffffffffffffffffffffffffffffffffffffffffffffffffffffffffffcc36013560601c806101e65750335b90565b6040805160028082526060820183526000926020830190803683370190505090508273ffffffffffffffffffffffffffffffffffffffff1660001b8160008151811061023757610237610f02565b6020026020010181815250508173ffffffffffffffffffffffffffffffffffffffff1660001b8160018151811061027057610270610f02565b60209081029190910181019190915260408051613a3160f11b818401527f776f726c6400000000000000000000000000000000000000000000000000000060228201527f5573657244656c65676174696f6e436f00000000000000000000000000000000603082015281518082039093018352810190526102fa906102f490610f18565b8261034b565b505050565b7f629a4c26e296b22a8e0856e9f6ecb2d1008d7e00081111962cd175fa7488e1755460009073ffffffffffffffffffffffffffffffffffffffff1680610346573391505090565b919050565b60006103556102ff565b90503073ffffffffffffffffffffffffffffffffffffffff82160361037e576102fa8383610409565b6040517f505a181d00000000000000000000000000000000000000000000000000000000815273ffffffffffffffffffffffffffffffffffffffff82169063505a181d906103d29086908690600401610f7b565b600060405180830381600087803b1580156103ec57600080fd5b505af1158015610400573d6000803e3d6000fd5b50505050505050565b61041c828261041785610420565b61054e565b5050565b60408051613a3160f11b60208201527f73746f726500000000000000000000000000000000000000000000000000000060228201527f5461626c6573000000000000000000000000000000000000000000000000000060308201526000910160405160208183030381529060405261049790610f18565b82036104c357507e60030220202000000000000000000000000000000000000000000000000000919050565b60408051613a3160f11b60208201527f73746f726500000000000000000000000000000000000000000000000000000060228201527f5461626c65730000000000000000000000000000000000000000000000000000603082015261018491610545910160405160208183030381529060405261053f90610f18565b84610802565b6020600061085b565b827f0e1f72f429eb97e64878619984a91e687ae91610348b9ff4216782cc96e49d078360405161057e9190610f94565b60405180910390a2613a3160f11b837fffff00000000000000000000000000000000000000000000000000000000000016146105b957505050565b60006105c4846108ad565b905060005b81518110156106975760008282815181106105e6576105e6610f02565b602002602001015190506106126040826affffffffffffffffffffff191661099590919063ffffffff16565b1561068e576040517f9faeaf45000000000000000000000000000000000000000000000000000000008152606082901c90639faeaf459061065b90899089908990600401610fa7565b600060405180830381600087803b15801561067557600080fd5b505af1158015610689573d6000803e3d6000fd5b505050505b506001016105c9565b5060006106a485856109b3565b90506106fd8160006106b5866109c8565b67ffffffffffffffff8111156106cd576106cd610eec565b6040519080825280601f01601f1916602001820160405280156106f7576020820181803683370190505b506109eb565b6000610708846109fb565b111561072957600061071a8686610a38565b9050610727816020610a8e565b505b60005b82518110156107fa57600083828151811061074957610749610f02565b602002602001015190506107756080826affffffffffffffffffffff191661099590919063ffffffff16565b156107f1576040517f83b5c95b000000000000000000000000000000000000000000000000000000008152606082901c906383b5c95b906107be908a908a908a90600401610fa7565b600060405180830381600087803b1580156107d857600080fd5b505af11580156107ec573d6000803e3d6000fd5b505050505b5060010161072c565b505050505050565b60408051602081018490529081018290526000906060015b60408051601f1981840301815291905280516020909101207f86425bff6b57326c7859e89024fe4f238ca327a1ae4a230180dd2f0e88aaa7d9189392505050565b6000602082106108815760208204840193506020828161087d5761087d610fd0565b0691505b508254600882021b6020829003808411156108a5576001850154600882021c821791505b509392505050565b604080516001808252818301909252606091600091906020808301908036833701905050905082816000815181106108e7576108e7610f02565b60209081029190910181019190915260408051613a3160f11b818401527f73746f726500000000000000000000000000000000000000000000000000000060228201527f53746f7265486f6f6b7300000000000000000000000000000000000000000000603082015281518082039093018352810190526000906109769061096e90610f18565b836000610acb565b905061098d6109888260008451610b05565b610b9e565b949350505050565b60008160ff16826109a68560581c90565b1660ff1614905092915050565b6000828260405160200161081a929190610fe6565b600060086109d860026020611038565b6109e2919061104b565b9190911c919050565b6102fa8383602084018451610bb6565b60006008600180610a0e60026020611038565b610a189190611038565b610a229190611038565b610a2c919061104b565b8260ff911c1692915050565b60008282604051602001610a4d929190610fe6565b60408051601f1981840301815291905280516020909101207f14e2fcc58e58e68ec7edc30c8d50dccc3ce2714a623ec81f46b6a63922d76569189392505050565b60006020610a9d83601f611062565b610aa79190611075565b610ab19084611062565b90505b808310156102fa5760008355600183019250610ab4565b606061098d610adb858585610c74565b610afe84610ae98888610cf4565b9060ff166028026038011c64ffffffffff1690565b6000610d07565b6000818311158015610b18575083518211155b610b5d578383836040517f23230fa3000000000000000000000000000000000000000000000000000000008152600401610b5493929190611097565b60405180910390fd5b60208401610b6b8482611062565b90506000610b798585611038565b6fffffffffffffffffffffffffffffffff1660809290921b9190911795945050505050565b60606000610baf8360156000610d2a565b9392505050565b8215610c305760208310610be057602083048401935060208381610bdc57610bdc610fd0565b0692505b8215610c305760208390036000600019600884021c1990506008850281811c91508451811c9050811987541682821617875550818311610c21575050610c6e565b50600194909401939182019190035b5b60208110610c525781518455600190930192602090910190601f1901610c31565b8015610c6e5783548251600019600884021c9182169119161784555b50505050565b60008383604051602001610c89929190610fe6565b604051602081830303815290604052805190602001208260f81b7effffffffffffffffffffffffffffffffffffffffffffffffffffffffffffff19167f3b4102da22e32d82fc925482184f16c09fd4281692720b87d124aef6da48a0f1181860001c90509392505050565b6000610baf610d038484610a38565b5490565b60405160208101601f19603f85840101166040528382526108a585858584610da5565b60606000610d388560801c90565b90506fffffffffffffffffffffffffffffffff85166000858281610d5e57610d5e610fd0565b04905060405193506020840160208202810160405281855260005b82811015610d99578451871c825293870193602090910190600101610d79565b50505050509392505050565b8115610e2e5760208210610dcf57602082048401935060208281610dcb57610dcb610fd0565b0691505b8115610e2e576020829003600081851015610df35750600019600885021c19610dfe565b50600019600882021c195b8554600885021b811984511682821617845250818511610e1f575050610c6e565b50600194909401939283900392015b5b60208310610e505783548152600190930192601f1990920191602001610e2f565b8215610c6e576000600019600885021c198251865482169119161782525050505050565b600060208284031215610e8657600080fd5b81357fffffffff0000000000000000000000000000000000000000000000000000000081168114610baf57600080fd5b600060208284031215610ec857600080fd5b813573ffffffffffffffffffffffffffffffffffffffff81168114610baf57600080fd5b634e487b7160e01b600052604160045260246000fd5b634e487b7160e01b600052603260045260246000fd5b80516020808301519190811015610f39576000198160200360031b1b821691505b50919050565b60008151808452602080850194506020840160005b83811015610f7057815187529582019590820190600101610f54565b509495945050505050565b82815260406020820152600061098d6040830184610f3f565b602081526000610baf6020830184610f3f565b838152606060208201526000610fc06060830185610f3f565b9050826040830152949350505050565b634e487b7160e01b600052601260045260246000fd5b8281526000602080830184516020860160005b8281101561101557815184529284019290840190600101610ff9565b5091979650505050505050565b634e487b7160e01b600052601160045260246000fd5b8181038181111561018457610184611022565b808202811582820484141761018457610184611022565b8082018082111561018457610184611022565b60008261109257634e487b7160e01b600052601260045260246000fd5b500490565b606081526000845180606084015260005b818110156110c557602081880181015160808684010152016110a8565b506000608082850101526080601f19601f83011684010191505083602083015282604083015294935050505056fea2646970667358221220c1ef3130d59ec22f1ff69962fbb9a0fcb281ddf2e7f51ef35b7867253afc412464736f6c63430008170033","linkReferences":{}},"methodIdentifiers":{"_msgSender()":"119df25f","_msgValue()":"45ec9354","_world()":"e1af802c","supportsInterface(bytes4)":"01ffc9a7","unregisterDelegation(address)":"cdc938c5"},"id":449}