{"abi":[{"type":"function","name":"_msgSender","inputs":[],"outputs":[{"name":"sender","type":"address","internalType":"address"}],"stateMutability":"view"},{"type":"function","name":"_msgValue","inputs":[],"outputs":[{"name":"value","type":"uint256","internalType":"uint256"}],"stateMutability":"pure"},{"type":"function","name":"_world","inputs":[],"outputs":[{"name":"","type":"address","internalType":"address"}],"stateMutability":"view"},{"type":"function","name":"attack","inputs":[{"name":"matchEntity","type":"bytes32","internalType":"bytes32"},{"name":"attacker","type":"bytes32","internalType":"bytes32"},{"name":"defender","type":"bytes32","internalType":"bytes32"}],"outputs":[],"stateMutability":"nonpayable"},{"type":"function","name":"supportsInterface","inputs":[{"name":"interfaceId","type":"bytes4","internalType":"bytes4"}],"outputs":[{"name":"","type":"bool","internalType":"bool"}],"stateMutability":"pure"},{"type":"event","name":"Store_DeleteRecord","inputs":[{"name":"tableId","type":"bytes32","indexed":true,"internalType":"ResourceId"},{"name":"keyTuple","type":"bytes32[]","indexed":false,"internalType":"bytes32[]"}],"anonymous":false},{"type":"event","name":"Store_SpliceDynamicData","inputs":[{"name":"tableId","type":"bytes32","indexed":true,"internalType":"ResourceId"},{"name":"keyTuple","type":"bytes32[]","indexed":false,"internalType":"bytes32[]"},{"name":"start","type":"uint48","indexed":false,"internalType":"uint48"},{"name":"deleteCount","type":"uint40","indexed":false,"internalType":"uint40"},{"name":"encodedLengths","type":"bytes32","indexed":false,"internalType":"PackedCounter"},{"name":"data","type":"bytes","indexed":false,"internalType":"bytes"}],"anonymous":false},{"type":"event","name":"Store_SpliceStaticData","inputs":[{"name":"tableId","type":"bytes32","indexed":true,"internalType":"ResourceId"},{"name":"keyTuple","type":"bytes32[]","indexed":false,"internalType":"bytes32[]"},{"name":"start","type":"uint48","indexed":false,"internalType":"uint48"},{"name":"data","type":"bytes","indexed":false,"internalType":"bytes"}],"anonymous":false},{"type":"error","name":"PackedCounter_InvalidLength","inputs":[{"name":"length","type":"uint256","internalType":"uint256"}]},{"type":"error","name":"Slice_OutOfBounds","inputs":[{"name":"data","type":"bytes","internalType":"bytes"},{"name":"start","type":"uint256","internalType":"uint256"},{"name":"end","type":"uint256","internalType":"uint256"}]},{"type":"error","name":"Store_IndexOutOfBounds","inputs":[{"name":"length","type":"uint256","internalType":"uint256"},{"name":"accessedIndex","type":"uint256","internalType":"uint256"}]},{"type":"error","name":"Store_InvalidResourceType","inputs":[{"name":"expected","type":"bytes2","internalType":"bytes2"},{"name":"resourceId","type":"bytes32","internalType":"ResourceId"},{"name":"resourceIdString","type":"string","internalType":"string"}]},{"type":"error","name":"Store_InvalidSplice","inputs":[{"name":"startWithinField","type":"uint40","internalType":"uint40"},{"name":"deleteCount","type":"uint40","internalType":"uint40"},{"name":"fieldLength","type":"uint40","internalType":"uint40"}]},{"type":"error","name":"World_FunctionSelectorNotFound","inputs":[{"name":"functionSelector","type":"bytes4","internalType":"bytes4"}]},{"type":"error","name":"World_ResourceNotFound","inputs":[{"name":"resourceId","type":"bytes32","internalType":"ResourceId"},{"name":"resourceIdString","type":"string","internalType":"string"}]}],"bytecode":{"object":"0x608060405234801561001057600080fd5b50615d3680620000216000396000f3fe608060405234801561001057600080fd5b50600436106100675760003560e01c806345ec93541161005057806345ec9354146100b457806348d76bba146100c7578063e1af802c146100dc57600080fd5b806301ffc9a71461006c578063119df25f14610094575b600080fd5b61007f61007a366004615408565b6100e4565b60405190151581526020015b60405180910390f35b61009c61017d565b6040516001600160a01b03909116815260200161008b565b604051601f19360135815260200161008b565b6100da6100d536600461544a565b61018c565b005b61009c610301565b60007fffffffff0000000000000000000000000000000000000000000000000000000082167fb421288000000000000000000000000000000000000000000000000000000000148061017757507fffffffff0000000000000000000000000000000000000000000000000000000082167f01ffc9a700000000000000000000000000000000000000000000000000000000145b92915050565b600061018761030b565b905090565b600061019984848461033d565b905060006101a8858585610372565b90506000806101b9878787876103b6565b915091506000806101ca8989610433565b60030b600114159050801580156101e857506101e68988610516565b155b156101fd576101f989888a886103b6565b5091505b831561020d5761020d8988610536565b811561021d5761021d8989610536565b6102f5896040518061018001604052808b81526020018a81526020018860030b81526020018960030b81526020018960030b81526020018860030b8152602001841515815260200185151581526020018715158152602001861515815260200143815260200142815250604051602401610298929190615476565b60408051601f198184030181529190526020810180517bffffffffffffffffffffffffffffffffffffffffffffffffffffffff167f3e1f6ffc00000000000000000000000000000000000000000000000000000000179052610562565b50505050505050505050565b600061018761061d565b7fffffffffffffffffffffffffffffffffffffffffffffffffffffffffffffffcc36013560601c8061033a5750335b90565b600061036861034c858461065c565b6103578686866106a5565b610361919061556b565b60006106df565b90505b9392505050565b60006103686064610383868661065c565b61038e8786886106a5565b610398919061556b565b6103a287866106fb565b6103ac9190615592565b61036191906155cf565b60008060006103c587876107bf565b90506000846103d48988610822565b6103de919061556b565b90506103eb8887836108e6565b60008160030b136104285761040088876109c6565b1561041957610410888388610aca565b60019250610428565b60019350610428888388610b27565b505094509492505050565b60408051600280825260608201835260009283929190602083019080368337019050509050838160008151811061046c5761046c615620565b602002602001018181525050828160018151811061048c5761048c615620565b60209081029190910181019190915260408051613a3160f11b928101929092526000602283018190527f52616e676500000000000000000000000000000000000000000000000000000060308401529161050a91016040516020818303038152906040526104f990615636565b83600164020080010160d21b610ca6565b60e01c95945050505050565b600061052283836106fb565b60030b158061036b575061036b8383610d63565b6105408282610d9c565b61054a8282610db0565b6105548282610e5f565b61055e8282610f0b565b5050565b60606000806105786105738561565d565b610fb7565b91509150816000801b036105e3576040517ffdde54e20000000000000000000000000000000000000000000000000000000081527fffffffff000000000000000000000000000000000000000000000000000000006000351660048201526024015b60405180910390fd5b6020840180517bffffffffffffffffffffffffffffffffffffffffffffffffffffffff168217905261061582856110df565b949350505050565b7f629a4c26e296b22a8e0856e9f6ecb2d1008d7e00081111962cd175fa7488e175546000906001600160a01b031680610657573391505090565b919050565b60008061066884611219565b9050600061067685856112e7565b905060006106848383611415565b90508061069187876114e8565b61069b91906156ad565b9695505050505050565b60006106b184846115ac565b905060006106bf8584611670565b60108111156106d0576106d06156d4565b1461036b57610368848461173b565b60008160030b8360030b136106f4578161036b565b5090919050565b60408051600280825260608201835260009283929190602083019080368337019050509050838160008151811061073457610734615620565b602002602001018181525050828160018151811061075457610754615620565b60209081029190910181019190915260408051613a3160f11b928101929092526000602283018190526510dbdb58985d60d21b60308401529161050a91016040516020818303038152906040526107aa90615636565b8360056806018001010101010160b21b610ca6565b60006107cb83836117ff565b63ffffffff16156107dd575080610177565b6107e783836118ee565b15610819576107f683836118ee565b915061080283836117ff565b63ffffffff1615610814575080610177565b6107dd565b50600092915050565b60408051600280825260608201835260009283929190602083019080368337019050509050838160008151811061085b5761085b615620565b602002602001018181525050828160018151811061087b5761087b615620565b60209081029190910181019190915260408051613a3160f11b928101929092526000602283018190526510dbdb58985d60d21b60308401529161050a91016040516020818303038152906040526108d190615636565b8360006806018001010101010160b21b610ca6565b604080516002808252606082018352600092602083019080368337019050509050838160008151811061091b5761091b615620565b602002602001018181525050828160018151811061093b5761093b615620565b60209081029190910181019190915260408051613a3160f11b81840152600060228201526510dbdb58985d60d21b603082015281518082039093018352810190526109c09061098990615636565b60405160e085901b6020820152839060009060240160408051601f198184030181529190526806018001010101010160b21b6119dd565b50505050565b6040805160028082526060820183526000928392919060208301908036833701905050905083816000815181106109ff576109ff615620565b6020026020010181815250508281600181518110610a1f57610a1f615620565b60209081029190910181019190915260408051613a3160f11b928101929092526000602283018190527f43617074757261626c6500000000000000000000000000000000000000000000603084015291610ab591015b604051602081830303815290604052610a8d90615636565b8360007e01010001000000000000000000000000000000000000000000000000000000610ca6565b9050610ac18160f81c90565b95945050505050565b6000610ad684836107bf565b90508015610ae857610ae88482611a8e565b610af3848385611ab2565b610b078483610b028786611bbd565b6108e6565b6000610b138584611c81565b60030b13156109c0576109c0848385611d34565b8115610b4157610b418383610b3c8685611d9d565b611e50565b610b4b8382611e6f565b15610ca1576000610b5b84611219565b9050610bdb84610b6b86856107bf565b6040516024810192909252604482015260640160408051601f198184030181529190526020810180517bffffffffffffffffffffffffffffffffffffffffffffffffffffffff167f559e734500000000000000000000000000000000000000000000000000000000179052610562565b506001610c08827f537061776e536574746c656d656e740000000000000000000000000000000000611f22565b610c1291906156ea565b610c1b85611ffe565b036109c057610c9e84610c2e86856107bf565b6040516024810192909252604482015260640160408051601f198184030181529190526020810180517bffffffffffffffffffffffffffffffffffffffffffffffffffffffff167f756bae5c00000000000000000000000000000000000000000000000000000000179052610562565b50505b505050565b600080610cb161061d565b9050306001600160a01b03821603610cd757610ccf8686868661209d565b915050610615565b6040517f8c364d590000000000000000000000000000000000000000000000000000000081526001600160a01b03821690638c364d5990610d22908990899089908990600401615739565b602060405180830381865afa158015610d3f573d6000803e3d6000fd5b505050506040513d601f19601f82011682018060405250810190610ccf9190615768565b600080610d708484611670565b6010811115610d8157610d816156d4565b1415801561036b5750610d9483836118ee565b159392505050565b610da682826120ca565b61055e8282612127565b6040805160028082526060820183526000926020830190803683370190505090508281600081518110610de557610de5615620565b6020026020010181815250508181600181518110610e0557610e05615620565b60209081029190910181019190915260408051613a3160f11b92810192909252600060228301526510dbdb58985d60d21b6030830152610ca191015b604051602081830303815290604052610e5990615636565b826121d3565b6040805160028082526060820183526000926020830190803683370190505090508281600081518110610e9457610e94615620565b6020026020010181815250508181600181518110610eb457610eb4615620565b60209081029190910181019190915260408051613a3160f11b92810192909252600060228301527f5374616d696e61000000000000000000000000000000000000000000000000006030830152610ca19101610e41565b6040805160028082526060820183526000926020830190803683370190505090508281600081518110610f4057610f40615620565b6020026020010181815250508181600181518110610f6057610f60615620565b60209081029190910181019190915260408051613a3160f11b92810192909252600060228301527f4f776e65644279000000000000000000000000000000000000000000000000006030830152610ca19101610e41565b6040805160018082528183019092526000918291829160208083019080368337019050509050837bffffffffffffffffffffffffffffffffffffffffffffffffffffffff19168160008151811061101057611010615620565b60209081029190910181019190915260408051613a3160f11b818401527f776f726c6400000000000000000000000000000000000000000000000000000060228201527f46756e6374696f6e53656c6563746f720000000000000000000000000000000060308201528151808203909301835281019052600090819081906110c19061109b90615636565b857e24020020040000000000000000000000000000000000000000000000000000612277565b9250925092506110d2838383612347565b9550955050505050915091565b606060006110eb610301565b90506001600160a01b038116300361118b5760006111088561235f565b5090506001600160a01b03811661115757846111238661245b565b6040517ffbf10ce60000000000000000000000000000000000000000000000000000000081526004016105da9291906157d1565b600061117161116461030b565b36601f19013584886125d7565b9450905080611183576111838461264b565b505050610177565b6040517f3ae7af080000000000000000000000000000000000000000000000000000000081526001600160a01b03821690633ae7af08906111d290879087906004016157d1565b6000604051808303816000875af11580156111f1573d6000803e3d6000fd5b505050506040513d6000823e601f3d908101601f191682016040526106159190810190615868565b60408051600180825281830190925260009182919060208083019080368337019050509050828160008151811061125257611252615620565b60209081029190910181019190915260408051613a3160f11b928101929092526000602283018190527f4d61746368436f6e66696700000000000000000000000000000000000000000060308401529161061591016040516020818303038152906040526112bf90615636565b8360037eb4060020202020201400000000000000000000000000000000000000000000610ca6565b60408051808201825260008082526020820181905282516002808252606082019094529192909190816020016020820280368337019050509050838160008151811061133557611335615620565b602002602001018181525050828160018151811061135557611355615620565b60209081029190910181019190915260408051613a3160f11b928101929092526000602283018190527f506f736974696f6e000000000000000000000000000000000000000000000000603084015291829182916113d691015b6040516020818303038152906040526113c790615636565b8564020080010160d21b612277565b6040805180820190915260008082526020808301918252850151602486015160e090811d909252901d815292955090935091505b979650505050505050565b6000806114228484612653565b905060005b81518110156114e05760006114558684848151811061144857611448615620565b6020026020010151612668565b60408051613a3160f11b60208201526000602282018190527f41726d6f724d6f6469666965720000000000000000000000000000000000000060308301529293506114ba918491016040516020818303038152906040526114b590615636565b61272c565b90506114ca816020015160e01c90565b6114d490866156ad565b94505050600101611427565b505092915050565b60408051600280825260608201835260009283929190602083019080368337019050509050838160008151811061152157611521615620565b602002602001018181525050828160018151811061154157611541615620565b60209081029190910181019190915260408051613a3160f11b928101929092526000602283018190526510dbdb58985d60d21b60308401529161050a910160405160208183030381529060405261159790615636565b8360026806018001010101010160b21b610ca6565b6040805160028082526060820183526000928392919060208301908036833701905050905083816000815181106115e5576115e5615620565b602002602001018181525050828160018151811061160557611605615620565b60209081029190910181019190915260408051613a3160f11b928101929092526000602283018190526510dbdb58985d60d21b60308401529161050a910160405160208183030381529060405261165b90615636565b8360036806018001010101010160b21b610ca6565b6040805160028082526060820183526000928392919060208301908036833701905050905083816000815181106116a9576116a9615620565b60200260200101818152505082816001815181106116c9576116c9615620565b60209081029190910181019190915260408051613a3160f11b928101929092526000602283018190527f53747275637475726554797065000000000000000000000000000000000000006030840152916117239101610a75565b905060f881901c6010811115610ac157610ac16156d4565b60408051600280825260608201835260009283929190602083019080368337019050509050838160008151811061177457611774615620565b602002602001018181525050828160018151811061179457611794615620565b60209081029190910181019190915260408051613a3160f11b928101929092526000602283018190526510dbdb58985d60d21b60308401529161050a91016040516020818303038152906040526117ea90615636565b8360046806018001010101010160b21b610ca6565b60408051600280825260608201835260009283929190602083019080368337019050509050838160008151811061183857611838615620565b602002602001018181525050828160018151811061185857611858615620565b60209081029190910181019190915260408051613a3160f11b928101929092526000602283018190527f506c61796572000000000000000000000000000000000000000000000000000060308401529161050a91015b6040516020818303038152906040526118c690615636565b8360007e04010004000000000000000000000000000000000000000000000000000000610ca6565b60408051600280825260608201835260009283929190602083019080368337019050509050838160008151811061192757611927615620565b602002602001018181525050828160018151811061194757611947615620565b60209081029190910181019190915260408051613a3160f11b928101929092526000602283018190527f4f776e6564427900000000000000000000000000000000000000000000000000603084015291610ac191015b6040516020818303038152906040526119b590615636565b8360007e20010020000000000000000000000000000000000000000000000000000000610ca6565b60006119e761061d565b9050306001600160a01b03821603611a0b57611a0686868686866127fb565b611a86565b6040517f390baae00000000000000000000000000000000000000000000000000000000081526001600160a01b0382169063390baae090611a58908990899089908990899060040161589d565b600060405180830381600087803b158015611a7257600080fd5b505af11580156102f5573d6000803e3d6000fd5b505050505050565b6000611a9a8383612810565b9050611aa7838383612834565b610ca1838342612938565b6040805160028082526060820183526000926020830190803683370190505090508381600081518110611ae757611ae7615620565b6020026020010181815250508281600181518110611b0757611b07615620565b60209081029190910181019190915260408051613a3160f11b92810192909252600060228301527f4f776e656442790000000000000000000000000000000000000000000000000060308301526109c091015b604051602081830303815290604052611b7290615636565b82600085604051602001611b8891815260200190565b60408051601f198184030181529190527e200100200000000000000000000000000000000000000000000000000000006119dd565b604080516002808252606082018352600092839291906020830190803683370190505090508381600081518110611bf657611bf6615620565b6020026020010181815250508281600181518110611c1657611c16615620565b60209081029190910181019190915260408051613a3160f11b928101929092526000602283018190526510dbdb58985d60d21b60308401529161050a9101604051602081830303815290604052611c6c90615636565b8360016806018001010101010160b21b610ca6565b604080516002808252606082018352600092839291906020830190803683370190505090508381600081518110611cba57611cba615620565b6020026020010181815250508281600181518110611cda57611cda615620565b60209081029190910181019190915260408051613a3160f11b928101929092526000602283018190527f436861726765720000000000000000000000000000000000000000000000000060308401529161050a91016118ae565b6000611d4084846129e4565b90506000611d5884611d528785612a97565b90612b61565b805190915015611d7257611d6d858383612c2f565b611d7c565b611d7c8583612d00565b611d87858486612dac565b611d92858585612e90565b610c9e858542612f3c565b604080516002808252606082018352600092839291906020830190803683370190505090508381600081518110611dd657611dd6615620565b6020026020010181815250508281600181518110611df657611df6615620565b60209081029190910181019190915260408051613a3160f11b928101929092526000602283018190527f5374616d696e614f6e4b696c6c0000000000000000000000000000000000000060308401529161050a91016118ae565b611aa7838383611e608787612810565b611e6a91906156ad565b612834565b604080516002808252606082018352600092839291906020830190803683370190505090508381600081518110611ea857611ea8615620565b6020026020010181815250508281600181518110611ec857611ec8615620565b60209081029190910181019190915260408051613a3160f11b928101929092526000602283018190527f537061776e506f696e7400000000000000000000000000000000000000000000603084015291610ab59101610a75565b604080516002808252606082018352600092839291906020830190803683370190505090508381600081518110611f5b57611f5b615620565b6020026020010181815250508281600181518110611f7b57611f7b615620565b60209081029190910181019190915260408051613a3160f11b928101929092526000602283018190527f4c6576656c54656d706c61746573496e00000000000000000000000000000000603084015291611ff191015b604051602081830303815290604052611fe990615636565b836000612fe8565b6020900495945050505050565b60408051600180825281830190925260009182919060208083019080368337019050509050828160008151811061203757612037615620565b60209081029190910181019190915260408051613a3160f11b928101929092526000602283018190527f4d6174636852616e6b696e6700000000000000000000000000000000000000006030840152916120919101611fd1565b60209004949350505050565b6000610ac16120ac86866130aa565b60ff858116601b0360080285901c166120c58587613100565b613131565b60006120d683836112e7565b905060006120f183611d528685600001518660200151613182565b8051909150156121145761210f848360000151846020015184613274565b6109c0565b6109c0848360000151846020015161334e565b604080516002808252606082018352600092602083019080368337019050509050828160008151811061215c5761215c615620565b602002602001018181525050818160018151811061217c5761217c615620565b60209081029190910181019190915260408051613a3160f11b92810192909252600060228301527f506f736974696f6e0000000000000000000000000000000000000000000000006030830152610ca19101610e41565b60006121dd61061d565b9050306001600160a01b038216036121f957610ca18383613428565b6040517f505a181d0000000000000000000000000000000000000000000000000000000081526001600160a01b0382169063505a181d9061224090869086906004016158e4565b600060405180830381600087803b15801561225a57600080fd5b505af115801561226e573d6000803e3d6000fd5b50505050505050565b606060006060600061228761061d565b9050306001600160a01b038216036122b0576122a487878761343b565b9350935093505061233e565b6040517f419b58fd0000000000000000000000000000000000000000000000000000000081526001600160a01b0382169063419b58fd906122f9908a908a908a906004016158fd565b600060405180830381865afa158015612316573d6000803e3d6000fd5b505050506040513d6000823e601f3d908101601f191682016040526122a49190810190615926565b93509350939050565b60008061235385613543565b90969095509350505050565b6040805160018082528183019092526000918291829160208083019080368337019050509050838160008151811061239957612399615620565b60209081029190910181019190915260408051613a3160f11b818401527f776f726c6400000000000000000000000000000000000000000000000000000060228201527f53797374656d7300000000000000000000000000000000000000000000000000603082015281518082039093018352810190526000908190819061244a9061242490615636565b857e15020014010000000000000000000000000000000000000000000000000000612277565b9250925092506110d2838383613558565b606081601081901b600061246e83613564565b9050827fffffffffffffffffffffffffffff0000000000000000000000000000000000008316156124c1577fffffffffffffffffffffffffffff00000000000000000000000000000000000083166124e3565b7f524f4f545f4e414d4553504143450000000000000000000000000000000000005b7fffffffffffffffffffffffffffffffff000000000000000000000000000000008316156125115782612533565b7f524f4f545f4e414d4500000000000000000000000000000000000000000000005b6040517fffff00000000000000000000000000000000000000000000000000000000000090931660208401527f3a00000000000000000000000000000000000000000000000000000000000000602284018190527fffffffffffffffffffffffffffffffff00000000000000000000000000000000928316602385015260338401521660348201526044016040516020818303038152906040529350505050919050565b60006060836001600160a01b03166125f084888861357b565b6040516125fd9190615993565b600060405180830381855af49150503d8060008114612638576040519150601f19603f3d011682016040523d82523d6000602084013e61263d565b606091505b509097909650945050505050565b805160208201fd5b606061036b83836000015184602001516135aa565b6040805160018082528183019092526000918291906020808301908036833701905050905083816000815181106126a1576126a1615620565b60209081029190910181019190915260408051613a3160f11b928101929092526000602283018190527f4c6576656c54656d706c61746573000000000000000000000000000000000000603084015291612721910160405160208183030381529060405261270e90615636565b836000876020028860010160200261368a565b9050610ac181615636565b60408051600280825260608083018452926000929190602083019080368337019050509050838160008151811061276557612765615620565b602002602001018181525050828160018151811061278557612785615620565b60209081029190910181019190915260408051613a3160f11b928101929092526000602283018190527f54656d706c617465436f6e74656e740000000000000000000000000000000000603084015291610ac191015b6040516020818303038152906040526127f390615636565b83600061374f565b610c9e858561280a8487613100565b85613806565b60008061281d8484613a4b565b90508061282a8585613b4a565b61061591906156ad565b604080516002808252606082018352600092602083019080368337019050509050838160008151811061286957612869615620565b602002602001018181525050828160018151811061288957612889615620565b60209081029190910181019190915260408051613a3160f11b81840152600060228201527f5374616d696e6100000000000000000000000000000000000000000000000000603082015281518082039093018352810190526109c0906128ee90615636565b60405160e085901b6020820152839060009060240160408051601f198184030181529190527e040100040000000000000000000000000000000000000000000000000000006119dd565b604080516002808252606082018352600092602083019080368337019050509050838160008151811061296d5761296d615620565b602002602001018181525050828160018151811061298d5761298d615620565b60209081029190910181019190915260408051613a3160f11b92810192909252600060228301527f4c617374416374696f6e0000000000000000000000000000000000000000000060308301526109c09101611b5a565b604080516002808252606082018352600092839291906020830190803683370190505090508381600081518110612a1d57612a1d615620565b6020026020010181815250508281600181518110612a3d57612a3d615620565b60209081029190910181019190915260408051613a3160f11b928101929092526000602283018190527f4368617267656500000000000000000000000000000000000000000000000000603084015291610ac1910161199d565b604080516002808252606080830184529260009291906020830190803683370190505090508381600081518110612ad057612ad0615620565b6020026020010181815250508281600181518110612af057612af0615620565b60209081029190910181019190915260408051613a3160f11b928101929092526000602283018190527f4368617267657273000000000000000000000000000000000000000000000000603084015291612b4a91016127db565b9050610ac1612b5c8260008451613bfd565b613c8d565b60606000835167ffffffffffffffff811115612b7f57612b7f61560a565b604051908082528060200260200182016040528015612ba8578160200160208202803683370190505b5090506000805b8551811015612c255784868281518110612bcb57612bcb615620565b602002602001015114612c1d57858181518110612bea57612bea615620565b6020026020010151838381518110612c0457612c04615620565b602090810291909101015281612c19816159af565b9250505b600101612baf565b5081529392505050565b6040805160028082526060820183526000926020830190803683370190505090508381600081518110612c6457612c64615620565b6020026020010181815250508281600181518110612c8457612c84615620565b60209081029190910181019190915260408051613a3160f11b92810192909252600060228301527f436861726765727300000000000000000000000000000000000000000000000060308301526109c091015b604051602081830303815290604052612cef90615636565b826000612cfb86613c9e565b613cae565b6040805160028082526060820183526000926020830190803683370190505090508281600081518110612d3557612d35615620565b6020026020010181815250508181600181518110612d5557612d55615620565b60209081029190910181019190915260408051613a3160f11b92810192909252600060228301527f43686172676572730000000000000000000000000000000000000000000000006030830152610ca19101610e41565b6040805160028082526060820183526000926020830190803683370190505090508381600081518110612de157612de1615620565b6020026020010181815250508281600181518110612e0157612e01615620565b60209081029190910181019190915260408051613a3160f11b81840152600060228201527f4368617267657273000000000000000000000000000000000000000000000000603082015281518082039093018352810190526109c090612e6690615636565b82600085604051602001612e7c91815260200190565b604051602081830303815290604052613d5f565b6040805160028082526060820183526000926020830190803683370190505090508381600081518110612ec557612ec5615620565b6020026020010181815250508281600181518110612ee557612ee5615620565b60209081029190910181019190915260408051613a3160f11b92810192909252600060228301527f436861726765650000000000000000000000000000000000000000000000000060308301526109c09101611b5a565b6040805160028082526060820183526000926020830190803683370190505090508381600081518110612f7157612f71615620565b6020026020010181815250508281600181518110612f9157612f91615620565b60209081029190910181019190915260408051613a3160f11b92810192909252600060228301527f436861726765644279537461727400000000000000000000000000000000000060308301526109c09101611b5a565b600080612ff361061d565b9050306001600160a01b0382160361301857613010858585613dd2565b91505061036b565b6040517fdbbf0e210000000000000000000000000000000000000000000000000000000081526001600160a01b0382169063dbbf0e2190613061908890889088906004016159c9565b602060405180830381865afa15801561307e573d6000803e3d6000fd5b505050506040513d601f19601f820116820180604052508101906130109190615768565b509392505050565b600082826040516020016130bf9291906159f5565b60408051601f1981840301815291905280516020909101207f86425bff6b57326c7859e89024fe4f238ca327a1ae4a230180dd2f0e88aaa7d9189392505050565b600080805b8360ff168110156130a25761312760ff601b83900360080287901c1683615a31565b9150600101613105565b60006020821061315757602082048401935060208281613153576131536155b9565b0691505b508254600882021b6020829003808411156130a2576001850154600882021c82179150509392505050565b604080516003808252608082019092526060916000919060208201848036833701905050905084816000815181106131bc576131bc615620565b6020026020010181815250508360030b60001b816001815181106131e2576131e2615620565b6020026020010181815250508260030b60001b8160028151811061320857613208615620565b60209081029190910181019190915260408051613a3160f11b928101929092526000602283018190527f456e7469746965734174506f736974690000000000000000000000000000000060308401529161326291016127db565b905061069b612b5c8260008451613bfd565b604080516003808252608082019092526000916020820160608036833701905050905084816000815181106132ab576132ab615620565b6020026020010181815250508360030b60001b816001815181106132d1576132d1615620565b6020026020010181815250508260030b60001b816002815181106132f7576132f7615620565b60209081029190910181019190915260408051613a3160f11b92810192909252600060228301527f456e7469746965734174506f73697469000000000000000000000000000000006030830152610c9e9101612cd7565b6040805160038082526080820190925260009160208201606080368337019050509050838160008151811061338557613385615620565b6020026020010181815250508260030b60001b816001815181106133ab576133ab615620565b6020026020010181815250508160030b60001b816002815181106133d1576133d1615620565b60209081029190910181019190915260408051613a3160f11b92810192909252600060228301527f456e7469746965734174506f736974690000000000000000000000000000000060308301526109c09101610e41565b61055e828261343685613df7565b613f25565b606060006060600061344c856141d1565b90506134598787836141f4565b935060006134668661422d565b9050801561353857613478888861426a565b935066ffffffffffffff841667ffffffffffffffff81111561349c5761349c61560a565b6040519080825280601f01601f1916602001820160405280156134c6576020820181803683370190505b5092506020830160005b828160ff1610156135355760006134e88b8b8461427d565b90506000613505888460ff166028026038011c64ffffffffff1690565b905061351482826000876142fd565b61351e8185615a31565b93505050808061352d90615a44565b9150506134d0565b50505b505093509350939050565b602081015160408201516000905b9050915091565b600080612353856143cc565b600061357260706010615a31565b9190911b919050565b606083838360405160200161359293929190615a63565b60405160208183030381529060405290509392505050565b604080516003808252608082019092526060916000919060208201848036833701905050905084816000815181106135e4576135e4615620565b6020026020010181815250508360030b60001b8160018151811061360a5761360a615620565b6020026020010181815250508260030b60001b8160028151811061363057613630615620565b60209081029190910181019190915260408051613a3160f11b928101929092526000602283018190527f4c6576656c506f736974696f6e496e640000000000000000000000000000000060308401529161326291016127db565b6060600061369661061d565b9050306001600160a01b038216036136bd576136b587878787876143e8565b915050610ac1565b6040517f4dc77d970000000000000000000000000000000000000000000000000000000081526001600160a01b03821690634dc77d979061370a908a908a908a908a908a90600401615ab5565b600060405180830381865afa158015613727573d6000803e3d6000fd5b505050506040513d6000823e601f3d908101601f191682016040526136b59190810190615868565b6060600061375b61061d565b9050306001600160a01b03821603613778576130108585856144ae565b6040517f1e7889770000000000000000000000000000000000000000000000000000000081526001600160a01b03821690631e788977906137c1908890889088906004016159c9565b600060405180830381865afa1580156137de573d6000803e3d6000fd5b505050506040513d6000823e601f3d908101601f191682016040526130109190810190615868565b600061381285856130aa565b9050847f8c0b5119d4cec7b284c6b1b39252a03d1e2f2d7451a5895562524c113bb952be85858560405161384893929190615aee565b60405180910390a2613a3160f11b857fffff000000000000000000000000000000000000000000000000000000000000161461388457506109c0565b600061388f866144d3565b905060005b81518110156139645760008282815181106138b1576138b1615620565b602002602001015190506138dd6004826affffffffffffffffffffff19166145b390919063ffffffff16565b1561395b576040517f964f667d000000000000000000000000000000000000000000000000000000008152606082901c9063964f667d90613928908b908b908b908b90600401615b21565b600060405180830381600087803b15801561394257600080fd5b505af1158015613956573d6000803e3d6000fd5b505050505b50600101613894565b50613978828565ffffffffffff16856145d1565b60005b815181101561226e57600082828151811061399857613998615620565b602002602001015190506139c46008826affffffffffffffffffffff19166145b390919063ffffffff16565b15613a42576040517fa8ba8721000000000000000000000000000000000000000000000000000000008152606082901c9063a8ba872190613a0f908b908b908b908b90600401615b21565b600060405180830381600087803b158015613a2957600080fd5b505af1158015613a3d573d6000803e3d6000fd5b505050505b5060010161397b565b600080613a588484612a97565b90506000613a65856145e1565b90506000613a7c86613a7788886145ed565b6146a0565b613a86908361556b565b905060005b8351811015613b40576000848281518110613aa857613aa8615620565b60200260200101519050600080613abf8a846146e8565b90506000613acd8b8b6145ed565b8211613ad95785613aed565b613ae38b836146a0565b613aed908861556b565b9050613af98b85611c81565b613b039082615592565b925050506000613b138a8461479b565b60030b1315613b2a57613b27898383614872565b90505b613b3481886156ad565b96505050600101613a8b565b5050505092915050565b604080516002808252606082018352600092839291906020830190803683370190505090508381600081518110613b8357613b83615620565b6020026020010181815250508281600181518110613ba357613ba3615620565b60209081029190910181019190915260408051613a3160f11b928101929092526000602283018190527f5374616d696e610000000000000000000000000000000000000000000000000060308401529161050a91016118ae565b6000818311158015613c10575083518211155b613c4c578383836040517f23230fa30000000000000000000000000000000000000000000000000000000081526004016105da93929190615b5a565b60208401613c5a8482615a31565b90506000613c6885856156ea565b6fffffffffffffffffffffffffffffffff1660809290921b9190911795945050505050565b6060600061036b83602060006148d7565b60608161036b8160206000614952565b6000613cb861061d565b9050306001600160a01b03821603613cdb57613cd6858585856149a6565b610c9e565b6040517fef6ea8620000000000000000000000000000000000000000000000000000000081526001600160a01b0382169063ef6ea86290613d26908890889088908890600401615b7f565b600060405180830381600087803b158015613d4057600080fd5b505af1158015613d54573d6000803e3d6000fd5b505050505050505050565b6000613d6961061d565b9050306001600160a01b03821603613d8757613cd6858585856149e1565b6040517f150f32620000000000000000000000000000000000000000000000000000000081526001600160a01b0382169063150f326290613d26908890889088908890600401615b7f565b600061036882613de2868661426a565b9060ff166028026038011c64ffffffffff1690565b60408051613a3160f11b60208201527f73746f726500000000000000000000000000000000000000000000000000000060228201527f5461626c65730000000000000000000000000000000000000000000000000000603082015260009101604051602081830303815290604052613e6e90615636565b8203613e9a57507e60030220202000000000000000000000000000000000000000000000000000919050565b60408051613a3160f11b60208201527f73746f726500000000000000000000000000000000000000000000000000000060228201527f5461626c65730000000000000000000000000000000000000000000000000000603082015261017791613f1c9101604051602081830303815290604052613f1690615636565b84614a1c565b60206000613131565b827f0e1f72f429eb97e64878619984a91e687ae91610348b9ff4216782cc96e49d0783604051613f559190615bb3565b60405180910390a2613a3160f11b837fffff0000000000000000000000000000000000000000000000000000000000001614613f9057505050565b6000613f9b846144d3565b905060005b815181101561406e576000828281518110613fbd57613fbd615620565b60200260200101519050613fe96040826affffffffffffffffffffff19166145b390919063ffffffff16565b15614065576040517f9faeaf45000000000000000000000000000000000000000000000000000000008152606082901c90639faeaf4590614032908990899089906004016158fd565b600060405180830381600087803b15801561404c57600080fd5b505af1158015614060573d6000803e3d6000fd5b505050505b50600101613fa0565b50600061407b85856130aa565b90506140d481600061408c866141d1565b67ffffffffffffffff8111156140a4576140a461560a565b6040519080825280601f01601f1916602001820160405280156140ce576020820181803683370190505b506145d1565b60006140df8461422d565b11156141005760006140f18686614a38565b90506140fe816020614a8e565b505b60005b8251811015611a8657600083828151811061412057614120615620565b6020026020010151905061414c6080826affffffffffffffffffffff19166145b390919063ffffffff16565b156141c8576040517f83b5c95b000000000000000000000000000000000000000000000000000000008152606082901c906383b5c95b90614195908a908a908a906004016158fd565b600060405180830381600087803b1580156141af57600080fd5b505af11580156141c3573d6000803e3d6000fd5b505050505b50600101614103565b600060086141e1600260206156ea565b6141eb9190615bc6565b9190911c919050565b606081600003614213575060408051602081019091526000815261036b565b600061421f85856130aa565b9050610ac181846000614acb565b60006008600180614240600260206156ea565b61424a91906156ea565b61425491906156ea565b61425e9190615bc6565b8260ff911c1692915050565b600061036b6142798484614a38565b5490565b600083836040516020016142929291906159f5565b604051602081830303815290604052805190602001208260f81b7effffffffffffffffffffffffffffffffffffffffffffffffffffffffffffff19167f3b4102da22e32d82fc925482184f16c09fd4281692720b87d124aef6da48a0f1181860001c90509392505050565b8115614386576020821061432757602082048401935060208281614323576143236155b9565b0691505b811561438657602082900360008185101561434b5750600019600885021c19614356565b50600019600882021c195b8554600885021b8119845116828216178452508185116143775750506109c0565b50600194909401939283900392015b5b602083106143a85783548152600190930192601f1990920191602001614387565b82156109c0576000600019600885021c198251865482169119161782525050505050565b6020810151603482015160609190911c9060009060f81c613551565b606060006143f6878761426a565b90506000614413828760ff166028026038011c64ffffffffff1690565b9050808510158061442357508084115b1561447e5780818610156144415761443c6001866156ea565b614443565b855b6040517f7e8578d3000000000000000000000000000000000000000000000000000000008152600481019290925260248201526044016105da565b600061448b89898961427d565b90506144a18161449b88886156ea565b88614acb565b9998505050505050505050565b60606103686144be85858561427d565b6144cc84613de2888861426a565b6000614acb565b6040805160018082528183019092526060916000919060208083019080368337019050509050828160008151811061450d5761450d615620565b60209081029190910181019190915260408051613a3160f11b818401527f73746f726500000000000000000000000000000000000000000000000000000060228201527f53746f7265486f6f6b73000000000000000000000000000000000000000000006030820152815180820390930183528101905260009061459c9061459490615636565b8360006144ae565b90506106156145ae8260008451613bfd565b614aee565b60008160ff16826145c48560581c90565b1660ff1614905092915050565b610ca18383602084018451614aff565b600061017782426146a0565b60408051600280825260608201835260009283929190602083019080368337019050509050838160008151811061462657614626615620565b602002602001018181525050828160018151811061464657614646615620565b60209081029190910181019190915260408051613a3160f11b928101929092526000602283018190527f4c617374416374696f6e00000000000000000000000000000000000000000000603084015291610ac1910161199d565b6000806146ac84614bbf565b905080602001518310156146c4576000915050610177565b60008160200151846146d691906156ea565b9050816040015181610ac19190615bdd565b60408051600280825260608201835260009283929190602083019080368337019050509050838160008151811061472157614721615620565b602002602001018181525050828160018151811061474157614741615620565b60209081029190910181019190915260408051613a3160f11b928101929092526000602283018190527f4368617267656442795374617274000000000000000000000000000000000000603084015291610ac1910161199d565b6040805160028082526060820183526000928392919060208301908036833701905050905083816000815181106147d4576147d4615620565b60200260200101818152505082816001815181106147f4576147f4615620565b60209081029190910181019190915260408051613a3160f11b928101929092526000602283018190527f436861726765436170000000000000000000000000000000000000000000000060308401529161050a910160405160208183030381529060405261486190615636565b83600064020080010160d21b610ca6565b60008061487f8585614cd0565b8051602082015191925060030b9061489790856156ad565b60030b13156148b457602081015181516148b1919061556b565b92505b6148ce85858584602001516148c991906156ad565b614d9c565b50909392505050565b606060006148e58560801c90565b90506fffffffffffffffffffffffffffffffff8516600085828161490b5761490b6155b9565b04905060405193506020840160208202810160405281855260005b82811015614946578451871c825293870193602090910190600101614926565b50505050509392505050565b825160609060006149638583615bc6565b9050604051925060208301601f19603f83860101166040528184526000602088015b84821015614946578051871b83529187019160019190910190602001614985565b60006149b2858561426a565b905060006149cf828560ff166028026038011c64ffffffffff1690565b9050611a868686866000858888614e89565b60006149ed858561426a565b90506000614a0a828560ff166028026038011c64ffffffffff1690565b9050611a868686868460008888614e89565b60408051602081018490529081018290526000906060016130bf565b60008282604051602001614a4d9291906159f5565b60408051601f1981840301815291905280516020909101207f14e2fcc58e58e68ec7edc30c8d50dccc3ce2714a623ec81f46b6a63922d76569189392505050565b60006020614a9d83601f615a31565b614aa79190615bdd565b614ab19084615a31565b90505b80831015610ca15760008355600183019250614ab4565b60405160208101601f19603f85840101166040528382526130a2858585846142fd565b6060600061036b83601560006148d7565b8215614b795760208310614b2957602083048401935060208381614b2557614b256155b9565b0692505b8215614b795760208390036000600019600884021c1990506008850281811c91508451811c9050811987541682821617875550818311614b6a5750506109c0565b50600194909401939182019190035b5b60208110614b9b5781518455600190930192602090910190601f1901614b7a565b80156109c0576000600019600883021c198554845182169119161785555050505050565b6040805160c081018252600080825260208201819052818301819052606082018190526080820181905260a082018190528251600180825281850190945291929091908160200160208202803683370190505090508281600081518110614c2857614c28615620565b60209081029190910181019190915260408051613a3160f11b928101929092526000602283018190527f4d61746368436f6e66696700000000000000000000000000000000000000000060308401529182918291614cbf9101604051602081830303815290604052614c9990615636565b857eb4060020202020201400000000000000000000000000000000000000000000612277565b92509250925061069b83838361528b565b604080518082018252600080825260208201819052825160028082526060820190945291929091908160200160208202803683370190505090508381600081518110614d1e57614d1e615620565b6020026020010181815250508281600181518110614d3e57614d3e615620565b60209081029190910181019190915260408051613a3160f11b928101929092526000602283018190527f4368617267654361700000000000000000000000000000000000000000000000603084015291829182916113d691016113af565b6040805160028082526060820183526000926020830190803683370190505090508381600081518110614dd157614dd1615620565b6020026020010181815250508281600181518110614df157614df1615620565b60209081029190910181019190915260408051613a3160f11b81840152600060228201527f4368617267654361700000000000000000000000000000000000000000000000603082015281518082039093018352810190526109c090614e5690615636565b60405160e085901b6020820152839060019060240160408051601f1981840301815291905264020080010160d21b6119dd565b613a3160f11b877fffff0000000000000000000000000000000000000000000000000000000000001614614f1357613a3160f11b8788604051602001614ed191815260200190565b60408051601f19818403018152908290527f31b466830000000000000000000000000000000000000000000000000000000082526105da939291600401615bf1565b6000614f2e828760ff166028026038011c64ffffffffff1690565b9050600083518564ffffffffff1683614f4791906156ea565b614f519190615a31565b9050808214158015614f73575081614f698688615c32565b64ffffffffff1614155b15614fc3576040517fa65010b400000000000000000000000000000000000000000000000000000000815264ffffffffff80881660048301528087166024830152831660448201526064016105da565b818664ffffffffff161115615014576040517f7e8578d30000000000000000000000000000000000000000000000000000000081526004810183905264ffffffffff871660248201526044016105da565b60006150218489846152f1565b905064ffffffffff871660005b8960ff168160ff16101561506157615055868260ff166028026038011c64ffffffffff1690565b9091019060010161502e565b508a7faa63765a776145e5e6492f471ae097dfed11cd57a61bc2679dd43180422385b48b838a868b60405161509a959493929190615c50565b60405180910390a25060006150ae8b6144d3565b905060005b81518110156151795760008282815181106150d0576150d0615620565b602002602001015190506150fc6010826affffffffffffffffffffff19166145b390919063ffffffff16565b1561517057606081901c6001600160a01b03166355eb5a288e8e8e8e8e8a8f6040518863ffffffff1660e01b815260040161513d9796959493929190615ca2565b600060405180830381600087803b15801561515757600080fd5b505af115801561516b573d6000803e3d6000fd5b505050505b506001016150b3565b5082841461519257600061518d8c8c614a38565b839055505b600061519f8c8c8c61427d565b90506151b3818a64ffffffffff16896145d1565b5060005b815181101561527d5760008282815181106151d4576151d4615620565b602002602001015190506152006020826affffffffffffffffffffff19166145b390919063ffffffff16565b1561527457606081901c6001600160a01b031663635845338e8e8e8e8e8a8f6040518863ffffffff1660e01b81526004016152419796959493929190615ca2565b600060405180830381600087803b15801561525b57600080fd5b505af115801561526f573d6000803e3d6000fd5b505050505b506001016151b7565b505050505050505050505050565b6040805160c081018252600080825260208201819052918101829052606081018290526080810182905260a08101919091526152c6846153bf565b6001600160a01b031660a0870152608086015260608501526040840152602083015281529392505050565b600064ffffffffff821115615335576040517f47670588000000000000000000000000000000000000000000000000000000008152600481018390526024016105da565b8366ffffffffffffff811660ff851660280260380182901c64ffffffffff16808510615367578085038201915061536f565b848103820391505b5064ffffffffff6038602860ff8816020181811b197fffffffffffffffffffffffffffffffffffffffffffffffffff000000000000009490941690921792909216918416901b1790509392505050565b6000806000806000806153d787600060209101015190565b60408801516060808a015160808b015160a08c015160c0909c0151949c939b919a50985096509190911c9350915050565b60006020828403121561541a57600080fd5b81357fffffffff000000000000000000000000000000000000000000000000000000008116811461036b57600080fd5b60008060006060848603121561545f57600080fd5b505081359360208301359350604090920135919050565b60006101a082019050838252825160208301526020830151604083015260408301516154a7606084018260030b9052565b5060608301516154bc608084018260030b9052565b5060808301516154d160a084018260030b9052565b5060a08301516154e660c084018260030b9052565b5060c083015180151560e08401525060e083015161010061550a8185018315159052565b840151905061012061551f8482018315159052565b84015190506101406155348482018315159052565b84015161016084810191909152909301516101809092019190915292915050565b634e487b7160e01b600052601160045260246000fd5b600382810b9082900b03637fffffff198112637fffffff8213171561017757610177615555565b60008260030b8260030b028060030b91508082146155b2576155b2615555565b5092915050565b634e487b7160e01b600052601260045260246000fd5b60008160030b8360030b806155e6576155e66155b9565b6000198114637fffffff198314161561560157615601615555565b90059392505050565b634e487b7160e01b600052604160045260246000fd5b634e487b7160e01b600052603260045260246000fd5b80516020808301519190811015615657576000198160200360031b1b821691505b50919050565b6000815160208301517fffffffff00000000000000000000000000000000000000000000000000000000808216935060048310156156a55780818460040360031b1b83161693505b505050919050565b600381810b9083900b01637fffffff8113637fffffff198212171561017757610177615555565b634e487b7160e01b600052602160045260246000fd5b8181038181111561017757610177615555565b60008151808452602080850194506020840160005b8381101561572e57815187529582019590820190600101615712565b509495945050505050565b84815260806020820152600061575260808301866156fd565b60ff949094166040830152506060015292915050565b60006020828403121561577a57600080fd5b5051919050565b60005b8381101561579c578181015183820152602001615784565b50506000910152565b600081518084526157bd816020860160208601615781565b601f01601f19169290920160200192915050565b82815260406020820152600061036860408301846157a5565b600082601f8301126157fb57600080fd5b815167ffffffffffffffff808211156158165761581661560a565b604051601f8301601f19908116603f0116810190828211818310171561583e5761583e61560a565b8160405283815286602085880101111561585757600080fd5b61069b846020830160208901615781565b60006020828403121561587a57600080fd5b815167ffffffffffffffff81111561589157600080fd5b610615848285016157ea565b85815260a0602082015260006158b660a08301876156fd565b60ff8616604084015282810360608401526158d181866157a5565b9150508260808301529695505050505050565b82815260406020820152600061036860408301846156fd565b83815260606020820152600061591660608301856156fd565b9050826040830152949350505050565b60008060006060848603121561593b57600080fd5b835167ffffffffffffffff8082111561595357600080fd5b61595f878388016157ea565b945060208601519350604086015191508082111561597c57600080fd5b50615989868287016157ea565b9150509250925092565b600082516159a5818460208701615781565b9190910192915050565b600060001982036159c2576159c2615555565b5060010190565b8381526060602082015260006159e260608301856156fd565b905060ff83166040830152949350505050565b8281526000602080830184516020860160005b82811015615a2457815184529284019290840190600101615a08565b5091979650505050505050565b8082018082111561017757610177615555565b600060ff821660ff8103615a5a57615a5a615555565b60010192915050565b60008451615a75818460208901615781565b60609490941b7fffffffffffffffffffffffffffffffffffffffff0000000000000000000000001691909301908152601481019190915260340192915050565b85815260a060208201526000615ace60a08301876156fd565b60ff95909516604083015250606081019290925260809091015292915050565b606081526000615b0160608301866156fd565b65ffffffffffff85166020840152828103604084015261069b81856157a5565b848152608060208201526000615b3a60808301866156fd565b65ffffffffffff85166040840152828103606084015261140a81856157a5565b606081526000615b6d60608301866157a5565b60208301949094525060400152919050565b848152608060208201526000615b9860808301866156fd565b60ff85166040840152828103606084015261140a81856157a5565b60208152600061036b60208301846156fd565b808202811582820484141761017757610177615555565b600082615bec57615bec6155b9565b500490565b7fffff00000000000000000000000000000000000000000000000000000000000084168152826020820152606060408201526000610ac160608301846157a5565b64ffffffffff8181168382160190808211156155b2576155b2615555565b60a081526000615c6360a08301886156fd565b65ffffffffffff8716602084015264ffffffffff861660408401528460608401528281036080840152615c9681856157a5565b98975050505050505050565b87815260e060208201526000615cbb60e08301896156fd565b60ff8816604084015264ffffffffff87811660608501528616608084015260a0830185905282810360c0840152615cf281856157a5565b9a995050505050505050505056fea2646970667358221220575ca1022da580118cb32f3f253612996a01b90bc78c4f76774344a03c7c086564736f6c63430008170033","linkReferences":{}},"methodIdentifiers":{"_msgSender()":"119df25f","_msgValue()":"45ec9354","_world()":"e1af802c","attack(bytes32,bytes32,bytes32)":"48d76bba","supportsInterface(bytes4)":"01ffc9a7"},"id":444}