{"abi":[{"type":"function","name":"_msgSender","inputs":[],"outputs":[{"name":"sender","type":"address","internalType":"address"}],"stateMutability":"view"},{"type":"function","name":"_msgValue","inputs":[],"outputs":[{"name":"value","type":"uint256","internalType":"uint256"}],"stateMutability":"pure"},{"type":"function","name":"_world","inputs":[],"outputs":[{"name":"","type":"address","internalType":"address"}],"stateMutability":"view"},{"type":"function","name":"createPuppet","inputs":[{"name":"systemId","type":"bytes32","internalType":"ResourceId"}],"outputs":[{"name":"puppet","type":"address","internalType":"address"}],"stateMutability":"nonpayable"},{"type":"function","name":"supportsInterface","inputs":[{"name":"interfaceId","type":"bytes4","internalType":"bytes4"}],"outputs":[{"name":"","type":"bool","internalType":"bool"}],"stateMutability":"pure"},{"type":"event","name":"Store_SpliceStaticData","inputs":[{"name":"tableId","type":"bytes32","indexed":true,"internalType":"ResourceId"},{"name":"keyTuple","type":"bytes32[]","indexed":false,"internalType":"bytes32[]"},{"name":"start","type":"uint48","indexed":false,"internalType":"uint48"},{"name":"data","type":"bytes","indexed":false,"internalType":"bytes"}],"anonymous":false},{"type":"error","name":"Slice_OutOfBounds","inputs":[{"name":"data","type":"bytes","internalType":"bytes"},{"name":"start","type":"uint256","internalType":"uint256"},{"name":"end","type":"uint256","internalType":"uint256"}]},{"type":"error","name":"World_AccessDenied","inputs":[{"name":"resource","type":"string","internalType":"string"},{"name":"caller","type":"address","internalType":"address"}]}],"bytecode":{"object":"0x608060405234801561001057600080fd5b50612558806100206000396000f3fe608060405234801561001057600080fd5b50600436106100675760003560e01c806345ec93541161005057806345ec9354146100c1578063b9eb8bfb146100d4578063e1af802c146100e757600080fd5b806301ffc9a71461006c578063119df25f14610094575b600080fd5b61007f61007a36600461115d565b6100ef565b60405190151581526020015b60405180910390f35b61009c610188565b60405173ffffffffffffffffffffffffffffffffffffffff909116815260200161008b565b604051601f19360135815260200161008b565b61009c6100e236600461119f565b610197565b61009c610285565b60007fffffffff0000000000000000000000000000000000000000000000000000000082167fb421288000000000000000000000000000000000000000000000000000000000148061018257507fffffffff0000000000000000000000000000000000000000000000000000000082167f01ffc9a700000000000000000000000000000000000000000000000000000000145b92915050565b600061019261028f565b905090565b60006101aa826101a5610188565b6102c1565b6101b2610285565b826040516101bf90611150565b73ffffffffffffffffffffffffffffffffffffffff90921682526020820152604001604051809103906000f0801580156101fd573d6000803e3d6000fd5b5060408051613a3160f11b60208201527f707570706574000000000000000000000000000000000000000000000000000060228201527f507570706574526567697374727900000000000000000000000000000000000060308201529192506102809101604051602081830303815290604052610279906111b8565b8383610389565b919050565b6000610192610449565b7fffffffffffffffffffffffffffffffffffffffffffffffffffffffffffffffcc36013560601c806102be5750335b90565b73ffffffffffffffffffffffffffffffffffffffff81166103237f6e730000000000000000000000000000000000000000000000000000000000007dffffffffffffffffffffffffffff00000000000000000000000000000000851617610490565b73ffffffffffffffffffffffffffffffffffffffff16146103855761034782610583565b816040517fd787b73700000000000000000000000000000000000000000000000000000000815260040161037c929190611225565b60405180910390fd5b5050565b6040805160018082528183019092526000916020808301908036833701905050905082816000815181106103bf576103bf61125d565b602002602001018181525050610443848260008560405160200161040e919060609190911b7fffffffffffffffffffffffffffffffffffffffff00000000000000000000000016815260140190565b60408051601f198184030181529190527e140100140000000000000000000000000000000000000000000000000000006106ff565b50505050565b7f629a4c26e296b22a8e0856e9f6ecb2d1008d7e00081111962cd175fa7488e1755460009073ffffffffffffffffffffffffffffffffffffffff1680610280573391505090565b6040805160018082528183019092526000918291906020808301908036833701905050905082816000815181106104c9576104c961125d565b60209081029190910181019190915260408051613a3160f11b818401527f776f726c6400000000000000000000000000000000000000000000000000000060228201527f4e616d6573706163654f776e65720000000000000000000000000000000000006030820152815180820390930183528101905260009061057890610550906111b8565b8360007e140100140000000000000000000000000000000000000000000000000000006107cf565b60601c949350505050565b606081601081901b6000610596836108ae565b9050827fffffffffffffffffffffffffffff0000000000000000000000000000000000008316156105e9577fffffffffffffffffffffffffffff000000000000000000000000000000000000831661060b565b7f524f4f545f4e414d4553504143450000000000000000000000000000000000005b7fffffffffffffffffffffffffffffffff00000000000000000000000000000000831615610639578261065b565b7f524f4f545f4e414d4500000000000000000000000000000000000000000000005b6040517fffff00000000000000000000000000000000000000000000000000000000000090931660208401527f3a00000000000000000000000000000000000000000000000000000000000000602284018190527fffffffffffffffffffffffffffffffff00000000000000000000000000000000928316602385015260338401521660348201526044016040516020818303038152906040529350505050919050565b6000610709610449565b90503073ffffffffffffffffffffffffffffffffffffffff82160361073a5761073586868686866108c5565b6107c7565b6040517f390baae000000000000000000000000000000000000000000000000000000000815273ffffffffffffffffffffffffffffffffffffffff82169063390baae09061079490899089908990899089906004016112c8565b600060405180830381600087803b1580156107ae57600080fd5b505af11580156107c2573d6000803e3d6000fd5b505050505b505050505050565b6000806107da610449565b90503073ffffffffffffffffffffffffffffffffffffffff82160361080d57610805868686866108e1565b9150506108a6565b6040517f8c364d5900000000000000000000000000000000000000000000000000000000815273ffffffffffffffffffffffffffffffffffffffff821690638c364d599061086590899089908990899060040161130f565b602060405180830381865afa158015610882573d6000803e3d6000fd5b505050506040513d601f19601f82011682018060405250810190610805919061133e565b949350505050565b60006108bc60706010611386565b9190911b919050565b6108da85856108d48487610917565b85610950565b5050505050565b600061090e6108f08686610b9e565b60ff858116601b0360080285901c166109098587610917565b610bf4565b95945050505050565b600080805b8360ff168110156109485761093e60ff601b83900360080287901c1683611386565b915060010161091c565b509392505050565b600061095c8585610b9e565b9050847f8c0b5119d4cec7b284c6b1b39252a03d1e2f2d7451a5895562524c113bb952be85858560405161099293929190611399565b60405180910390a2613a3160f11b857fffff00000000000000000000000000000000000000000000000000000000000016146109ce5750610443565b60006109d986610c45565b905060005b8151811015610aae5760008282815181106109fb576109fb61125d565b60200260200101519050610a276004826affffffffffffffffffffff1916610d2590919063ffffffff16565b15610aa5576040517f964f667d000000000000000000000000000000000000000000000000000000008152606082901c9063964f667d90610a72908b908b908b908b906004016113d6565b600060405180830381600087803b158015610a8c57600080fd5b505af1158015610aa0573d6000803e3d6000fd5b505050505b506001016109de565b50610ac2828565ffffffffffff1685610d43565b60005b8151811015610b95576000828281518110610ae257610ae261125d565b60200260200101519050610b0e6008826affffffffffffffffffffff1916610d2590919063ffffffff16565b15610b8c576040517fa8ba8721000000000000000000000000000000000000000000000000000000008152606082901c9063a8ba872190610b59908b908b908b908b906004016113d6565b600060405180830381600087803b158015610b7357600080fd5b505af1158015610b87573d6000803e3d6000fd5b505050505b50600101610ac5565b50505050505050565b60008282604051602001610bb392919061141a565b60408051601f1981840301815291905280516020909101207f86425bff6b57326c7859e89024fe4f238ca327a1ae4a230180dd2f0e88aaa7d9189392505050565b600060208210610c1a57602082048401935060208281610c1657610c16611456565b0691505b508254600882021b602082900380841115610948576001850154600882021c82179150509392505050565b60408051600180825281830190925260609160009190602080830190803683370190505090508281600081518110610c7f57610c7f61125d565b60209081029190910181019190915260408051613a3160f11b818401527f73746f726500000000000000000000000000000000000000000000000000000060228201527f53746f7265486f6f6b730000000000000000000000000000000000000000000060308201528151808203909301835281019052600090610d0e90610d06906111b8565b836000610d58565b90506108a6610d208260008451610d92565b610e22565b60008160ff1682610d368560581c90565b1660ff1614905092915050565b610d538383602084018451610e3a565b505050565b60606108a6610d68858585610efa565b610d8b84610d768888610f7a565b9060ff166028026038011c64ffffffffff1690565b6000610f8d565b6000818311158015610da5575083518211155b610de1578383836040517f23230fa300000000000000000000000000000000000000000000000000000000815260040161037c93929190611485565b60208401610def8482611386565b90506000610dfd85856114aa565b6fffffffffffffffffffffffffffffffff1660809290921b9190911795945050505050565b60606000610e338360156000610fb0565b9392505050565b8215610eb45760208310610e6457602083048401935060208381610e6057610e60611456565b0692505b8215610eb45760208390036000600019600884021c1990506008850281811c91508451811c9050811987541682821617875550818311610ea5575050610443565b50600194909401939182019190035b5b60208110610ed65781518455600190930192602090910190601f1901610eb5565b8015610443576000600019600883021c198554845182169119161785555050505050565b60008383604051602001610f0f92919061141a565b604051602081830303815290604052805190602001208260f81b7effffffffffffffffffffffffffffffffffffffffffffffffffffffffffffff19167f3b4102da22e32d82fc925482184f16c09fd4281692720b87d124aef6da48a0f1181860001c90509392505050565b6000610e33610f89848461102b565b5490565b60405160208101601f19603f858401011660405283825261094885858584611081565b60606000610fbe8560801c90565b90506fffffffffffffffffffffffffffffffff85166000858281610fe457610fe4611456565b04905060405193506020840160208202810160405281855260005b8281101561101f578451871c825293870193602090910190600101610fff565b50505050509392505050565b6000828260405160200161104092919061141a565b60408051601f1981840301815291905280516020909101207f14e2fcc58e58e68ec7edc30c8d50dccc3ce2714a623ec81f46b6a63922d76569189392505050565b811561110a57602082106110ab576020820484019350602082816110a7576110a7611456565b0691505b811561110a5760208290036000818510156110cf5750600019600885021c196110da565b50600019600882021c195b8554600885021b8119845116828216178452508185116110fb575050610443565b50600194909401939283900392015b5b6020831061112c5783548152600190930192601f199092019160200161110b565b8215610443576000600019600885021c198251865482169119161782525050505050565b611065806114be83390190565b60006020828403121561116f57600080fd5b81357fffffffff0000000000000000000000000000000000000000000000000000000081168114610e3357600080fd5b6000602082840312156111b157600080fd5b5035919050565b805160208083015191908110156111d9576000198160200360031b1b821691505b50919050565b6000815180845260005b81811015611205576020818501810151868301820152016111e9565b506000602082860101526020601f19601f83011685010191505092915050565b60408152600061123860408301856111df565b905073ffffffffffffffffffffffffffffffffffffffff831660208301529392505050565b7f4e487b7100000000000000000000000000000000000000000000000000000000600052603260045260246000fd5b60008151808452602080850194506020840160005b838110156112bd578151875295820195908201906001016112a1565b509495945050505050565b85815260a0602082015260006112e160a083018761128c565b60ff8616604084015282810360608401526112fc81866111df565b9150508260808301529695505050505050565b848152608060208201526000611328608083018661128c565b60ff949094166040830152506060015292915050565b60006020828403121561135057600080fd5b5051919050565b7f4e487b7100000000000000000000000000000000000000000000000000000000600052601160045260246000fd5b8082018082111561018257610182611357565b6060815260006113ac606083018661128c565b65ffffffffffff8516602084015282810360408401526113cc81856111df565b9695505050505050565b8481526080602082015260006113ef608083018661128c565b65ffffffffffff85166040840152828103606084015261140f81856111df565b979650505050505050565b8281526000602080830184516020860160005b828110156114495781518452928401929084019060010161142d565b5091979650505050505050565b7f4e487b7100000000000000000000000000000000000000000000000000000000600052601260045260246000fd5b60608152600061149860608301866111df565b60208301949094525060400152919050565b818103818111156101825761018261135756fe60c060405234801561001057600080fd5b5060405161106538038061106583398101604081905261002f9161007c565b6001600160a01b038216608081905260a08290527f629a4c26e296b22a8e0856e9f6ecb2d1008d7e00081111962cd175fa7488e17580546001600160a01b031916909117905550506100b6565b6000806040838503121561008f57600080fd5b82516001600160a01b03811681146100a657600080fd5b6020939093015192949293505050565b60805160a051610f626101036000396000818160e1015281816101b401528181610239015281816102b70152818161032e01526103a101526000818160b201526101630152610f626000f3fe608060405234801561001057600080fd5b50600436106100725760003560e01c8063c9a34acd11610050578063c9a34acd146101f9578063d72a26651461020c578063e2ed58bd1461021f57610072565b806330b67baa1461015e57806339f898bc146101af57806366c93bdb146101e4575b6040517f894ecc5800000000000000000000000000000000000000000000000000000000815260009073ffffffffffffffffffffffffffffffffffffffff7f0000000000000000000000000000000000000000000000000000000000000000169063894ecc589061010d9033907f00000000000000000000000000000000000000000000000000000000000000009086903690600401610a5c565b6000604051808303816000875af115801561012c573d6000803e3d6000fd5b505050506040513d6000823e601f3d908101601f191682016040526101549190810190610b8c565b9050805160208201f35b6101857f000000000000000000000000000000000000000000000000000000000000000081565b60405173ffffffffffffffffffffffffffffffffffffffff90911681526020015b60405180910390f35b6101d67f000000000000000000000000000000000000000000000000000000000000000081565b6040519081526020016101a6565b6101f76101f2366004610c1a565b610232565b005b6101f7610207366004610c7e565b6102b0565b6101f761021a366004610cd8565b610327565b6101f761022d366004610d1f565b61039a565b600061025d7f000000000000000000000000000000000000000000000000000000000000000061040f565b5090503373ffffffffffffffffffffffffffffffffffffffff82161461029d576040516398d49b0360e01b81523360048201526024015b60405180910390fd5b82848688855160208701a4505050505050565b60006102db7f000000000000000000000000000000000000000000000000000000000000000061040f565b5090503373ffffffffffffffffffffffffffffffffffffffff821614610316576040516398d49b0360e01b8152336004820152602401610294565b828486845160208601a35050505050565b60006103527f000000000000000000000000000000000000000000000000000000000000000061040f565b5090503373ffffffffffffffffffffffffffffffffffffffff82161461038d576040516398d49b0360e01b8152336004820152602401610294565b82825160208401a1505050565b60006103c57f000000000000000000000000000000000000000000000000000000000000000061040f565b5090503373ffffffffffffffffffffffffffffffffffffffff821614610400576040516398d49b0360e01b8152336004820152602401610294565b8284835160208501a250505050565b6040805160018082528183019092526000918291829160208083019080368337019050509050838160008151811061044957610449610d6f565b602090810291909101810191909152604080517f7462000000000000000000000000000000000000000000000000000000000000818401527f776f726c6400000000000000000000000000000000000000000000000000000060228201527f53797374656d73000000000000000000000000000000000000000000000000006030820152815180820390930183528101905260009081908190610515906104ef90610d85565b857e1502001401000000000000000000000000000000000000000000000000000061053a565b5050602081015160349091015160609190911c9860f89190911c975095505050505050565b606060006060600061054a610624565b90503073ffffffffffffffffffffffffffffffffffffffff82160361058057610574878787610670565b9350935093505061061b565b6040517f419b58fd00000000000000000000000000000000000000000000000000000000815273ffffffffffffffffffffffffffffffffffffffff82169063419b58fd906105d6908a908a908a90600401610dac565b600060405180830381865afa1580156105f3573d6000803e3d6000fd5b505050506040513d6000823e601f3d908101601f191682016040526105749190810190610e05565b93509350939050565b7f629a4c26e296b22a8e0856e9f6ecb2d1008d7e00081111962cd175fa7488e1755460009073ffffffffffffffffffffffffffffffffffffffff168061066b573391505090565b919050565b606060006060600061068185610778565b905061068e87878361079b565b9350600061069b866107df565b9050801561076d576106ad888861081c565b935066ffffffffffffff841667ffffffffffffffff8111156106d1576106d1610aaf565b6040519080825280601f01601f1916602001820160405280156106fb576020820181803683370190505b5092506020830160005b828160ff16101561076a57600061071d8b8b84610838565b9050600061073a888460ff166028026038011c64ffffffffff1690565b905061074982826000876108b8565b6107538185610e7e565b93505050808061076290610e91565b915050610705565b50505b505093509350939050565b6000600861078860026020610eb0565b6107929190610ec3565b9190911c919050565b6060816000036107ba57506040805160208101909152600081526107d8565b60006107c68585610985565b90506107d4818460006109db565b9150505b9392505050565b600060086001806107f260026020610eb0565b6107fc9190610eb0565b6108069190610eb0565b6108109190610ec3565b8260ff911c1692915050565b600061082f61082b8484610a06565b5490565b90505b92915050565b6000838360405160200161084d929190610eda565b604051602081830303815290604052805190602001208260f81b7effffffffffffffffffffffffffffffffffffffffffffffffffffffffffffff19167f3b4102da22e32d82fc925482184f16c09fd4281692720b87d124aef6da48a0f1181860001c90509392505050565b811561094157602082106108e2576020820484019350602082816108de576108de610f16565b0691505b81156109415760208290036000818510156109065750600019600885021c19610911565b50600019600882021c195b8554600885021b81198451168282161784525081851161093257505061097f565b50600194909401939283900392015b5b602083106109635783548152600190930192601f1990920191602001610942565b821561097f5780518454600019600886021c9182169119161781525b50505050565b6000828260405160200161099a929190610eda565b60408051601f1981840301815291905280516020909101207f86425bff6b57326c7859e89024fe4f238ca327a1ae4a230180dd2f0e88aaa7d9189392505050565b60405160208101601f19603f85840101166040528382526109fe858585846108b8565b509392505050565b60008282604051602001610a1b929190610eda565b60408051601f1981840301815291905280516020909101207f14e2fcc58e58e68ec7edc30c8d50dccc3ce2714a623ec81f46b6a63922d76569189392505050565b73ffffffffffffffffffffffffffffffffffffffff8516815283602082015260606040820152816060820152818360808301376000818301608090810191909152601f909201601f191601019392505050565b634e487b7160e01b600052604160045260246000fd5b604051601f8201601f1916810167ffffffffffffffff81118282101715610aee57610aee610aaf565b604052919050565b600067ffffffffffffffff821115610b1057610b10610aaf565b50601f01601f191660200190565b600082601f830112610b2f57600080fd5b8151610b42610b3d82610af6565b610ac5565b8181526020856020848701011115610b5957600080fd5b60005b83811015610b77578581018201518382018301528101610b5c565b50506000918101602001919091529392505050565b600060208284031215610b9e57600080fd5b815167ffffffffffffffff811115610bb557600080fd5b610bc184828501610b1e565b949350505050565b600082601f830112610bda57600080fd5b8135610be8610b3d82610af6565b818152846020838601011115610bfd57600080fd5b816020850160208301376000918101602001919091529392505050565b600080600080600060a08688031215610c3257600080fd5b85359450602086013593506040860135925060608601359150608086013567ffffffffffffffff811115610c6557600080fd5b610c7188828901610bc9565b9150509295509295909350565b60008060008060808587031215610c9457600080fd5b843593506020850135925060408501359150606085013567ffffffffffffffff811115610cc057600080fd5b610ccc87828801610bc9565b91505092959194509250565b60008060408385031215610ceb57600080fd5b82359150602083013567ffffffffffffffff811115610d0957600080fd5b610d1585828601610bc9565b9150509250929050565b600080600060608486031215610d3457600080fd5b8335925060208401359150604084013567ffffffffffffffff811115610d5957600080fd5b610d6586828701610bc9565b9150509250925092565b634e487b7160e01b600052603260045260246000fd5b80516020808301519190811015610da6576000198160200360031b1b821691505b50919050565b60006060820185835260206060602085015281865180845260808601915060208801935060005b81811015610def57845183529383019391830191600101610dd3565b5050809350505050826040830152949350505050565b600080600060608486031215610e1a57600080fd5b835167ffffffffffffffff80821115610e3257600080fd5b610e3e87838801610b1e565b9450602086015193506040860151915080821115610e5b57600080fd5b50610d6586828701610b1e565b634e487b7160e01b600052601160045260246000fd5b8082018082111561083257610832610e68565b600060ff821660ff8103610ea757610ea7610e68565b60010192915050565b8181038181111561083257610832610e68565b808202811582820484141761083257610832610e68565b8281526000602080830184516020860160005b82811015610f0957815184529284019290840190600101610eed565b5091979650505050505050565b634e487b7160e01b600052601260045260246000fdfea26469706673582212206e11abc3508f4d97c774fff3d21bb4af9cec8757a838006421db40913706f97c64736f6c63430008170033a2646970667358221220c49055ab9d5894a0b5ab0ac3418a51a67fa8e48784e897e6e1faa0d53df592ca64736f6c63430008170033","linkReferences":{}},"methodIdentifiers":{"_msgSender()":"119df25f","_msgValue()":"45ec9354","_world()":"e1af802c","createPuppet(bytes32)":"b9eb8bfb","supportsInterface(bytes4)":"01ffc9a7"},"id":218}