{"abi":[{"type":"function","name":"_msgSender","inputs":[],"outputs":[{"name":"sender","type":"address","internalType":"address"}],"stateMutability":"view"},{"type":"function","name":"_msgValue","inputs":[],"outputs":[{"name":"value","type":"uint256","internalType":"uint256"}],"stateMutability":"pure"},{"type":"function","name":"_world","inputs":[],"outputs":[{"name":"","type":"address","internalType":"address"}],"stateMutability":"view"},{"type":"function","name":"buySeasonPass","inputs":[{"name":"account","type":"address","internalType":"address"}],"outputs":[],"stateMutability":"payable"},{"type":"function","name":"supportsInterface","inputs":[{"name":"interfaceId","type":"bytes4","internalType":"bytes4"}],"outputs":[{"name":"","type":"bool","internalType":"bool"}],"stateMutability":"pure"},{"type":"event","name":"Store_SpliceStaticData","inputs":[{"name":"tableId","type":"bytes32","indexed":true,"internalType":"ResourceId"},{"name":"keyTuple","type":"bytes32[]","indexed":false,"internalType":"bytes32[]"},{"name":"start","type":"uint48","indexed":false,"internalType":"uint48"},{"name":"data","type":"bytes","indexed":false,"internalType":"bytes"}],"anonymous":false},{"type":"error","name":"Slice_OutOfBounds","inputs":[{"name":"data","type":"bytes","internalType":"bytes"},{"name":"start","type":"uint256","internalType":"uint256"},{"name":"end","type":"uint256","internalType":"uint256"}]}],"bytecode":{"object":"0x608060405234801561001057600080fd5b50611b7f806100206000396000f3fe60806040526004361061005a5760003560e01c806345ec93541161004357806345ec9354146100ce5780638b00b52e146100ee578063e1af802c1461010357600080fd5b806301ffc9a71461005f578063119df25f14610094575b600080fd5b34801561006b57600080fd5b5061007f61007a366004611816565b610118565b60405190151581526020015b60405180910390f35b3480156100a057600080fd5b506100a96101b1565b60405173ffffffffffffffffffffffffffffffffffffffff909116815260200161008b565b3480156100da57600080fd5b50604051601f19360135815260200161008b565b6101016100fc366004611858565b6101c0565b005b34801561010f57600080fd5b506100a961053d565b60007fffffffff0000000000000000000000000000000000000000000000000000000082167fb42128800000000000000000000000000000000000000000000000000000000014806101ab57507fffffffff0000000000000000000000000000000000000000000000000000000082167f01ffc9a700000000000000000000000000000000000000000000000000000000145b92915050565b60006101bb610547565b905090565b6101c981610579565b156102415760405162461bcd60e51b815260206004820152602660248201527f74686973206163636f756e7420616c726561647920686173206120736561736f60448201527f6e2070617373000000000000000000000000000000000000000000000000000060648201526084015b60405180910390fd5b61024961058c565b42106102975760405162461bcd60e51b815260206004820152601d60248201527f736561736f6e2070617373206d696e74696e672068617320656e6465640000006044820152606401610238565b60006102a161060d565b90508036601f19013510156102f85760405162461bcd60e51b815260206004820152601360248201527f796f75206d7573742070617920656e6f756768000000000000000000000000006044820152606401610238565b60006103026106a7565b905062989680811061037c5760405162461bcd60e51b815260206004820152602260248201527f616c6c20736561736f6e207061737365732068617665206265656e206d696e7460448201527f65640000000000000000000000000000000000000000000000000000000000006064820152608401610238565b6000610386610739565b6040517f40c10f1900000000000000000000000000000000000000000000000000000000815273ffffffffffffffffffffffffffffffffffffffff868116600483015260248201859052919250908216906340c10f1990604401600060405180830381600087803b1580156103fa57600080fd5b505af115801561040e573d6000803e3d6000fd5b5050505061042782600161042291906118a4565b6107d1565b6104304261088a565b600061043a6108e0565b90506000606461044a83876118b7565b61045491906118e4565b905061045f8161095a565b600061047086601f19360135611906565b90508015610534576000806104836101b1565b73ffffffffffffffffffffffffffffffffffffffff168360405160006040518083038185875af1925050503d80600081146104da576040519150601f19603f3d011682016040523d82523d6000602084013e6104df565b606091505b5091509150816105315760405162461bcd60e51b815260206004820152601560248201527f6661696c656420746f2073656e6420726566756e6400000000000000000000006044820152606401610238565b50505b50505050505050565b60006101bb6109f3565b7fffffffffffffffffffffffffffffffffffffffffffffffffffffffffffffffcc36013560601c806105765750335b90565b60006101ab610586610739565b83610a3f565b604080516000808252602082018352613a3160f11b82840152604282018190527f536561736f6e50617373436f6e66696700000000000000000000000000000000605083015282518083038401815260608301909352918290610606906105f290611919565b83600467050028010101010160bd1b610adf565b9392505050565b600080610618610bbe565b90506000610624610c38565b90506000610630610cb2565b9050600061063c610d2c565b9050600061064a8242611906565b90506000816402540be40061065f86896118b7565b61066991906118e4565b61067391906118b7565b90508086111561069a576106878187611906565b965084871015610695578496505b61069e565b8496505b50505050505090565b604080516000808252602082018352613a3160f11b92820192909252604281018290527f536561736f6e50617373496e6465780000000000000000000000000000000000605082015281610606606083015b60405160208183030381529060405261071190611919565b8360007e20010020000000000000000000000000000000000000000000000000000000610adf565b604080516000808252602082018352613a3160f11b82840152604282018190527f536b79506f6f6c436f6e666967000000000000000000000000000000000000006050830152825180830384018152606083019093529182906107c79061079f90611919565b8360037e7c050020201414140000000000000000000000000000000000000000000000610adf565b60601c9392505050565b604080516000808252602082018352613a3160f11b9282019290925260428101919091527f536561736f6e50617373496e64657800000000000000000000000000000000006050820152610886606082015b60405160208183030381529060405261083b90611919565b8260008560405160200161085191815260200190565b60408051601f198184030181529190527e20010020000000000000000000000000000000000000000000000000000000610d82565b5050565b604080516000808252602082018352613a3160f11b9282019290925260428101919091527f536561736f6e506173734c617374536100000000000000000000000000000000605082015261088660608201610823565b604080516000808252602082018352613a3160f11b82840152604282018190527f536561736f6e50617373436f6e666967000000000000000000000000000000006050830152825180830384018152606083019093529182906106069061094690611919565b83600367050028010101010160bd1b610adf565b604080516000808252602082018352613a3160f11b8284015260428201527f536561736f6e50617373436f6e6669670000000000000000000000000000000060508201528151808203830181526060820190925290610886906109bc90611919565b826001856040516020016109d291815260200190565b60408051601f1981840301815291905267050028010101010160bd1b610d82565b7f629a4c26e296b22a8e0856e9f6ecb2d1008d7e00081111962cd175fa7488e1755460009073ffffffffffffffffffffffffffffffffffffffff1680610a3a573391505090565b919050565b6000808373ffffffffffffffffffffffffffffffffffffffff166339f898bc6040518163ffffffff1660e01b8152600401602060405180830381865afa158015610a8d573d6000803e3d6000fd5b505050506040513d601f19601f82011682018060405250810190610ab19190611940565b90506000610ac7610ac28360101b90565b610e52565b90506000610ad58286610e84565b1195945050505050565b600080610aea6109f3565b90503073ffffffffffffffffffffffffffffffffffffffff821603610b1d57610b1586868686610f17565b915050610bb6565b6040517f8c364d5900000000000000000000000000000000000000000000000000000000815273ffffffffffffffffffffffffffffffffffffffff821690638c364d5990610b75908990899089908990600401611995565b602060405180830381865afa158015610b92573d6000803e3d6000fd5b505050506040513d601f19601f82011682018060405250810190610b159190611940565b949350505050565b604080516000808252602082018352613a3160f11b82840152604282018190527f536561736f6e50617373436f6e6669670000000000000000000000000000000060508301528251808303840181526060830190935291829061060690610c2490611919565b83600167050028010101010160bd1b610adf565b604080516000808252602082018352613a3160f11b82840152604282018190527f536561736f6e50617373436f6e6669670000000000000000000000000000000060508301528251808303840181526060830190935291829061060690610c9e90611919565b83600067050028010101010160bd1b610adf565b604080516000808252602082018352613a3160f11b82840152604282018190527f536561736f6e50617373436f6e6669670000000000000000000000000000000060508301528251808303840181526060830190935291829061060690610d1890611919565b83600267050028010101010160bd1b610adf565b604080516000808252602082018352613a3160f11b92820192909252604281018290527f536561736f6e506173734c617374536100000000000000000000000000000000605082015281610606606083016106f9565b6000610d8c6109f3565b90503073ffffffffffffffffffffffffffffffffffffffff821603610dbd57610db88686868686610f44565b610e4a565b6040517f390baae000000000000000000000000000000000000000000000000000000000815273ffffffffffffffffffffffffffffffffffffffff82169063390baae090610e179089908990899089908990600401611a0a565b600060405180830381600087803b158015610e3157600080fd5b505af1158015610e45573d6000803e3d6000fd5b505050505b505050505050565b60006101ab613a3160f11b837f42616c616e636573000000000000000000000000000000000000000000000000610f60565b604080516001808252818301909252600091829190602080830190803683370190505090508273ffffffffffffffffffffffffffffffffffffffff1660001b81600081518110610ed657610ed6611a51565b60209081029190910101526000610f0e8583837e20010020000000000000000000000000000000000000000000000000000000610adf565b95945050505050565b6000610f0e610f268686610fe7565b60ff858116601b0360080285901c16610f3f858761103d565b611076565b610f598585610f53848761103d565b856110c7565b5050505050565b6000610f6e607060106118a4565b7fffff00000000000000000000000000000000000000000000000000000000000085167dffffffffffffffffffffffffffff00000000000000000000000000000000601086901c16177fffffffffffffffffffffffffffffffff00000000000000000000000000000000841690911c1790509392505050565b60008282604051602001610ffc929190611a67565b60408051601f1981840301815291905280516020909101207f86425bff6b57326c7859e89024fe4f238ca327a1ae4a230180dd2f0e88aaa7d9189392505050565b600080805b8360ff1681101561106e5761106460ff601b83900360080287901c16836118a4565b9150600101611042565b509392505050565b60006020821061109c57602082048401935060208281611098576110986118ce565b0691505b508254600882021b60208290038084111561106e576001850154600882021c82179150509392505050565b60006110d38585610fe7565b9050847f8c0b5119d4cec7b284c6b1b39252a03d1e2f2d7451a5895562524c113bb952be85858560405161110993929190611aa3565b60405180910390a2613a3160f11b857fffff0000000000000000000000000000000000000000000000000000000000001614611145575061130c565b600061115086611312565b905060005b815181101561122557600082828151811061117257611172611a51565b6020026020010151905061119e6004826affffffffffffffffffffff19166113f290919063ffffffff16565b1561121c576040517f964f667d000000000000000000000000000000000000000000000000000000008152606082901c9063964f667d906111e9908b908b908b908b90600401611ae0565b600060405180830381600087803b15801561120357600080fd5b505af1158015611217573d6000803e3d6000fd5b505050505b50600101611155565b50611239828565ffffffffffff1685611410565b60005b815181101561053457600082828151811061125957611259611a51565b602002602001015190506112856008826affffffffffffffffffffff19166113f290919063ffffffff16565b15611303576040517fa8ba8721000000000000000000000000000000000000000000000000000000008152606082901c9063a8ba8721906112d0908b908b908b908b90600401611ae0565b600060405180830381600087803b1580156112ea57600080fd5b505af11580156112fe573d6000803e3d6000fd5b505050505b5060010161123c565b50505050565b6040805160018082528183019092526060916000919060208083019080368337019050509050828160008151811061134c5761134c611a51565b60209081029190910181019190915260408051613a3160f11b818401527f73746f726500000000000000000000000000000000000000000000000000000060228201527f53746f7265486f6f6b7300000000000000000000000000000000000000000000603082015281518082039093018352810190526000906113db906113d390611919565b836000611425565b9050610bb66113ed826000845161145f565b6114ef565b60008160ff16826114038560581c90565b1660ff1614905092915050565b6114208383602084018451611500565b505050565b6060610bb66114358585856115c0565b611458846114438888611640565b9060ff166028026038011c64ffffffffff1690565b6000611653565b6000818311158015611472575083518211155b6114ae578383836040517f23230fa300000000000000000000000000000000000000000000000000000000815260040161023893929190611b24565b602084016114bc84826118a4565b905060006114ca8585611906565b6fffffffffffffffffffffffffffffffff1660809290921b9190911795945050505050565b606060006106068360156000611676565b821561157a576020831061152a57602083048401935060208381611526576115266118ce565b0692505b821561157a5760208390036000600019600884021c1990506008850281811c91508451811c905081198754168282161787555081831161156b57505061130c565b50600194909401939182019190035b5b6020811061159c5781518455600190930192602090910190601f190161157b565b801561130c576000600019600883021c198554845182169119161785555050505050565b600083836040516020016115d5929190611a67565b604051602081830303815290604052805190602001208260f81b7effffffffffffffffffffffffffffffffffffffffffffffffffffffffffffff19167f3b4102da22e32d82fc925482184f16c09fd4281692720b87d124aef6da48a0f1181860001c90509392505050565b600061060661164f84846116f1565b5490565b60405160208101601f19603f858401011660405283825261106e85858584611747565b606060006116848560801c90565b90506fffffffffffffffffffffffffffffffff851660008582816116aa576116aa6118ce565b04905060405193506020840160208202810160405281855260005b828110156116e5578451871c8252938701936020909101906001016116c5565b50505050509392505050565b60008282604051602001611706929190611a67565b60408051601f1981840301815291905280516020909101207f14e2fcc58e58e68ec7edc30c8d50dccc3ce2714a623ec81f46b6a63922d76569189392505050565b81156117d057602082106117715760208204840193506020828161176d5761176d6118ce565b0691505b81156117d05760208290036000818510156117955750600019600885021c196117a0565b50600019600882021c195b8554600885021b8119845116828216178452508185116117c157505061130c565b50600194909401939283900392015b5b602083106117f25783548152600190930192601f19909201916020016117d1565b821561130c576000600019600885021c198251865482169119161782525050505050565b60006020828403121561182857600080fd5b81357fffffffff000000000000000000000000000000000000000000000000000000008116811461060657600080fd5b60006020828403121561186a57600080fd5b813573ffffffffffffffffffffffffffffffffffffffff8116811461060657600080fd5b634e487b7160e01b600052601160045260246000fd5b808201808211156101ab576101ab61188e565b80820281158282048414176101ab576101ab61188e565b634e487b7160e01b600052601260045260246000fd5b60008261190157634e487b7160e01b600052601260045260246000fd5b500490565b818103818111156101ab576101ab61188e565b8051602080830151919081101561193a576000198160200360031b1b821691505b50919050565b60006020828403121561195257600080fd5b5051919050565b60008151808452602080850194506020840160005b8381101561198a5781518752958201959082019060010161196e565b509495945050505050565b8481526080602082015260006119ae6080830186611959565b60ff949094166040830152506060015292915050565b6000815180845260005b818110156119ea576020818501810151868301820152016119ce565b506000602082860101526020601f19601f83011685010191505092915050565b85815260a060208201526000611a2360a0830187611959565b60ff861660408401528281036060840152611a3e81866119c4565b9150508260808301529695505050505050565b634e487b7160e01b600052603260045260246000fd5b8281526000602080830184516020860160005b82811015611a9657815184529284019290840190600101611a7a565b5091979650505050505050565b606081526000611ab66060830186611959565b65ffffffffffff851660208401528281036040840152611ad681856119c4565b9695505050505050565b848152608060208201526000611af96080830186611959565b65ffffffffffff851660408401528281036060840152611b1981856119c4565b979650505050505050565b606081526000611b3760608301866119c4565b6020830194909452506040015291905056fea2646970667358221220ea6f4afc510a03e6e2ab930827457f26438d0ebef2d75c62272f9549eab5912464736f6c63430008170033","linkReferences":{}},"methodIdentifiers":{"_msgSender()":"119df25f","_msgValue()":"45ec9354","_world()":"e1af802c","buySeasonPass(address)":"8b00b52e","supportsInterface(bytes4)":"01ffc9a7"},"id":462}