{"abi":[{"type":"function","name":"_msgSender","inputs":[],"outputs":[{"name":"sender","type":"address","internalType":"address"}],"stateMutability":"view"},{"type":"function","name":"_msgValue","inputs":[],"outputs":[{"name":"value","type":"uint256","internalType":"uint256"}],"stateMutability":"pure"},{"type":"function","name":"_world","inputs":[],"outputs":[{"name":"","type":"address","internalType":"address"}],"stateMutability":"view"},{"type":"function","name":"getName","inputs":[],"outputs":[{"name":"","type":"bytes16","internalType":"bytes16"}],"stateMutability":"pure"},{"type":"function","name":"install","inputs":[{"name":"args","type":"bytes","internalType":"bytes"}],"outputs":[],"stateMutability":"nonpayable"},{"type":"function","name":"installRoot","inputs":[{"name":"","type":"bytes","internalType":"bytes"}],"outputs":[],"stateMutability":"pure"},{"type":"function","name":"supportsInterface","inputs":[{"name":"interfaceId","type":"bytes4","internalType":"bytes4"}],"outputs":[{"name":"","type":"bool","internalType":"bool"}],"stateMutability":"pure"},{"type":"event","name":"Store_SetRecord","inputs":[{"name":"tableId","type":"bytes32","indexed":true,"internalType":"ResourceId"},{"name":"keyTuple","type":"bytes32[]","indexed":false,"internalType":"bytes32[]"},{"name":"staticData","type":"bytes","indexed":false,"internalType":"bytes"},{"name":"encodedLengths","type":"bytes32","indexed":false,"internalType":"PackedCounter"},{"name":"dynamicData","type":"bytes","indexed":false,"internalType":"bytes"}],"anonymous":false},{"type":"event","name":"Store_SpliceStaticData","inputs":[{"name":"tableId","type":"bytes32","indexed":true,"internalType":"ResourceId"},{"name":"keyTuple","type":"bytes32[]","indexed":false,"internalType":"bytes32[]"},{"name":"start","type":"uint48","indexed":false,"internalType":"uint48"},{"name":"data","type":"bytes","indexed":false,"internalType":"bytes"}],"anonymous":false},{"type":"error","name":"ERC721Module_InvalidNamespace","inputs":[{"name":"namespace","type":"bytes14","internalType":"bytes14"}]},{"type":"error","name":"FieldLayoutLib_InvalidLength","inputs":[{"name":"length","type":"uint256","internalType":"uint256"}]},{"type":"error","name":"FieldLayoutLib_StaticLengthDoesNotFitInAWord","inputs":[]},{"type":"error","name":"FieldLayoutLib_StaticLengthIsZero","inputs":[]},{"type":"error","name":"Module_AlreadyInstalled","inputs":[]},{"type":"error","name":"Module_MissingDependency","inputs":[{"name":"dependency","type":"string","internalType":"string"}]},{"type":"error","name":"Module_NonRootInstallNotSupported","inputs":[]},{"type":"error","name":"Module_RootInstallNotSupported","inputs":[]},{"type":"error","name":"SchemaLib_InvalidLength","inputs":[{"name":"length","type":"uint256","internalType":"uint256"}]},{"type":"error","name":"SchemaLib_StaticTypeAfterDynamicType","inputs":[]},{"type":"error","name":"Slice_OutOfBounds","inputs":[{"name":"data","type":"bytes","internalType":"bytes"},{"name":"start","type":"uint256","internalType":"uint256"},{"name":"end","type":"uint256","internalType":"uint256"}]},{"type":"error","name":"Store_InvalidFieldNamesLength","inputs":[{"name":"expected","type":"uint256","internalType":"uint256"},{"name":"received","type":"uint256","internalType":"uint256"}]},{"type":"error","name":"Store_InvalidKeyNamesLength","inputs":[{"name":"expected","type":"uint256","internalType":"uint256"},{"name":"received","type":"uint256","internalType":"uint256"}]},{"type":"error","name":"Store_InvalidResourceType","inputs":[{"name":"expected","type":"bytes2","internalType":"bytes2"},{"name":"resourceId","type":"bytes32","internalType":"ResourceId"},{"name":"resourceIdString","type":"string","internalType":"string"}]},{"type":"error","name":"Store_InvalidValueSchemaLength","inputs":[{"name":"expected","type":"uint256","internalType":"uint256"},{"name":"received","type":"uint256","internalType":"uint256"}]},{"type":"error","name":"Store_TableAlreadyExists","inputs":[{"name":"tableId","type":"bytes32","internalType":"ResourceId"},{"name":"tableIdString","type":"string","internalType":"string"}]}],"bytecode":{"object":"0x60a0604052604051620000129062000050565b604051809103906000f0801580156200002f573d6000803e3d6000fd5b506001600160a01b03166080523480156200004957600080fd5b506200005e565b615697806200352183390190565b6080516134a76200007a600039600061034a01526134a76000f3fe608060405234801561001057600080fd5b506004361061007d5760003560e01c806317d7de7c1161005b57806317d7de7c146100df57806345ec93541461010d5780637c5b033514610120578063e1af802c1461013357600080fd5b806301ffc9a714610082578063119df25f146100aa57806313861fb5146100ca575b600080fd5b610095610090366004612c02565b61013b565b60405190151581526020015b60405180910390f35b6100b26101d4565b6040516001600160a01b0390911681526020016100a1565b6100dd6100d8366004612cdc565b6101e3565b005b6040517f6572633732312d7075707065740000000000000000000000000000000000000081526020016100a1565b604051601f1936013581526020016100a1565b6100dd61012e366004612cdc565b6106a0565b6100b26106d2565b60007fffffffff0000000000000000000000000000000000000000000000000000000082167f79f50b5b0000000000000000000000000000000000000000000000000000000014806101ce57507fffffffff0000000000000000000000000000000000000000000000000000000082167f01ffc9a700000000000000000000000000000000000000000000000000000000145b92915050565b60006101de6106dc565b905090565b60006001600160a01b031661021f7f6572633732312d70757070657400000000000000000000000000000000000000838051906020012061070e565b6001600160a01b03161461025f576040517f1401206800000000000000000000000000000000000000000000000000000000815260040160405180910390fd5b600080828060200190518101906102769190612dd0565b90925090507f9a8d9cc8cdced28f8a8f8f9a8c0000000000000000000000000000000000000071ffffffffffffffffffffffffffffffffffff19831601610305576040517f2ca07d8400000000000000000000000000000000000000000000000000000000815271ffffffffffffffffffffffffffffffffffff19831660048201526024015b60405180910390fd5b61030d610835565b60006103176106d2565b6040516001600160a01b03828116602483015271ffffffffffffffffffffffffffffffffffff19861660448301529192507f00000000000000000000000000000000000000000000000000000000000000009091169060640160408051601f198184030181529181526020820180517bffffffffffffffffffffffffffffffffffffffffffffffffffffffff167f472466c200000000000000000000000000000000000000000000000000000000179052516103d39190612eb3565b600060405180830381855af49150503d806000811461040e576040519150601f19603f3d011682016040523d82523d6000602084013e610413565b606091505b505050610428610422846108c5565b836108f7565b600061043384610954565b9050600061044183836109a1565b90507f6e730000000000000000000000000000000000000000000000000000000000007dffffffffffffffffffffffffffff00000000000000000000000000000000601087901c16176001600160a01b03841663ef5d6bbb826104a26101d4565b6040517fffffffff0000000000000000000000000000000000000000000000000000000060e085901b16815260048101929092526001600160a01b03166024820152604401600060405180830381600087803b15801561050157600080fd5b505af1158015610515573d6000803e3d6000fd5b505060408051613a3160f11b60208201527f6572633732312d7075707065740000000000000000000000000000000000000060228201527f45524337323152656769737472790000000000000000000000000000000000006030820152610597935001905060405160208183030381529060405261059290612ecf565b610c71565b6106185760408051613a3160f11b60208201527f6572633732312d7075707065740000000000000000000000000000000000000060228201527f45524337323152656769737472790000000000000000000000000000000000006030820152610618910160405160208183030381529060405261061390612ecf565b610d55565b60408051613a3160f11b60208201527f6572633732312d7075707065740000000000000000000000000000000000000060228201527f45524337323152656769737472790000000000000000000000000000000000006030820152610697910160405160208183030381529060405261069090612ecf565b8284610da1565b50505050505050565b6040517fb6622fc000000000000000000000000000000000000000000000000000000000815260040160405180910390fd5b60006101de610e61565b7fffffffffffffffffffffffffffffffffffffffffffffffffffffffffffffffcc36013560601c8061070b5750335b90565b60408051600280825260608201835260009283929190602083019080368337019050509050836fffffffffffffffffffffffffffffffff19168160008151811061075a5761075a612ef3565b602002602001018181525050828160018151811061077a5761077a612ef3565b60209081029190910181019190915260408051613a3160f11b818401527f776f726c6400000000000000000000000000000000000000000000000000000060228201527f496e7374616c6c65644d6f64756c657300000000000000000000000000000000603082015281518082039093018352810190526000906108299061080190612ecf565b8360007e14010014000000000000000000000000000000000000000000000000000000610ea0565b60601c95945050505050565b6040805160008082526020820190925261086090651c1d5c1c195d60d21b908051906020012061070e565b6001600160a01b0316036108c357604051651c1d5c1c195d60d21b602082015260300160408051601f19818403018152908290527f217ef9250000000000000000000000000000000000000000000000000000000082526102fc91600401612f35565b565b60006101ce613a3160f11b837f4d65746164617461000000000000000000000000000000000000000000000000610f5d565b60606000610912836000015184602001518560400151610fe4565b9050600061092d84600001518560200151866040015161100d565b60408051600081526020810190915290915061094c868286868661103c565b505050505050565b60006101ce7f7379000000000000000000000000000000000000000000000000000000000000837f45524337323153797374656d0000000000000000000000000000000000000000610f5d565b604080517f73790000000000000000000000000000000000000000000000000000000000006020820152651c1d5c1c195d60d21b60228201527f466163746f72790000000000000000000000000000000000000000000000000060308201526000916001600160a01b03851691633ae7af089101604051602081830303815290604052610a2d90612ecf565b6040516024810186905260440160408051601f198184030181529181526020820180517bffffffffffffffffffffffffffffffffffffffffffffffffffffffff167fb9eb8bfb00000000000000000000000000000000000000000000000000000000179052517fffffffff0000000000000000000000000000000000000000000000000000000060e085901b168152610aca929190600401612f48565b6000604051808303816000875af1158015610ae9573d6000803e3d6000fd5b505050506040513d6000823e601f3d908101601f19168201604052610b119190810190612f61565b806020019051810190610b249190612faa565b90506001600160a01b03831663bfdfaff77f6e730000000000000000000000000000000000000000000000000000000000007dffffffffffffffffffffffffffff00000000000000000000000000000000851617604080517f73790000000000000000000000000000000000000000000000000000000000006020820152651c1d5c1c195d60d21b60228201527f44656c65676174696f6e00000000000000000000000000000000000000000000603082015201604051602081830303815290604052610bf090612ecf565b604080516000815260208101918290527fffffffff0000000000000000000000000000000000000000000000000000000060e086901b16909152610c3992919060248101612fd3565b600060405180830381600087803b158015610c5357600080fd5b505af1158015610c67573d6000803e3d6000fd5b5050505092915050565b604080516001808252818301909252600091829190602080830190803683370190505090508281600081518110610caa57610caa612ef3565b60209081029190910181019190915260408051613a3160f11b818401526473746f726560d81b60228201527f5265736f7572636549647300000000000000000000000000000000000000000060308201528151808203909301835281019052600090610d4190610d1990612ecf565b8360007e01010001000000000000000000000000000000000000000000000000000000610ea0565b9050610d4d8160f81c90565b949350505050565b610d9e817e14010014000000000000000000000000000000000000000000000000000000610d816110f1565b610d89611169565b610d916111a3565b610d99611228565b61129f565b50565b604080516001808252818301909252600091602080830190803683370190505090508281600081518110610dd757610dd7612ef3565b602002602001018181525050610e5b8482600085604051602001610e26919060609190911b7fffffffffffffffffffffffffffffffffffffffff00000000000000000000000016815260140190565b60408051601f198184030181529190527e14010014000000000000000000000000000000000000000000000000000000611358565b50505050565b7f629a4c26e296b22a8e0856e9f6ecb2d1008d7e00081111962cd175fa7488e175546000906001600160a01b031680610e9b573391505090565b919050565b600080610eab610e61565b9050306001600160a01b03821603610ed157610ec9868686866113ce565b915050610d4d565b6040517f8c364d590000000000000000000000000000000000000000000000000000000081526001600160a01b03821690638c364d5990610f1c90899089908990899060040161302e565b602060405180830381865afa158015610f39573d6000803e3d6000fd5b505050506040513d601f19601f82011682018060405250810190610ec9919061305d565b6000610f6b6070601061308c565b7fffffffffffffffffffffffffffffffff000000000000000000000000000000008316901c601084901c7dffffffffffffffffffffffffffff00000000000000000000000000000000167fffff0000000000000000000000000000000000000000000000000000000000008616171790505b9392505050565b6000610d4d845184518451608881901b606083901b603885901b85850184011717179392505050565b60608383836040516020016110249392919061309f565b60405160208183030381529060405290509392505050565b6000611046610e61565b9050306001600160a01b0382160361106a576110658686868686611404565b61094c565b6040517f298314fb0000000000000000000000000000000000000000000000000000000081526001600160a01b0382169063298314fb906110b790899089908990899089906004016130e2565b600060405180830381600087803b1580156110d157600080fd5b505af11580156110e5573d6000803e3d6000fd5b50505050505050505050565b60408051600180825281830190925260009182919060208083019080368337019050509050605f8160008151811061112b5761112b612ef3565b602002602001019060c581111561114457611144613133565b908160c581111561115757611157613133565b90525061116381611421565b91505090565b6040805160018082528183019092526000918291906020808301908036833701905050905060618160008151811061112b5761112b612ef3565b604080516001808252818301909252606091816020015b60608152602001906001900390816111ba5790505090506040518060400160405280600b81526020017f6e616d65737061636549640000000000000000000000000000000000000000008152508160008151811061121a5761121a612ef3565b602002602001018190525090565b604080516001808252818301909252606091816020015b606081526020019060019003908161123f5790505090506040518060400160405280600c81526020017f746f6b656e4164647265737300000000000000000000000000000000000000008152508160008151811061121a5761121a612ef3565b60006112a9610e61565b9050306001600160a01b038216036112ce576112c98787878787876115dc565b610697565b6040517f0ba51f490000000000000000000000000000000000000000000000000000000081526001600160a01b03821690630ba51f499061131d908a908a908a908a908a908a906004016131a3565b600060405180830381600087803b15801561133757600080fd5b505af115801561134b573d6000803e3d6000fd5b5050505050505050505050565b6000611362610e61565b9050306001600160a01b038216036113815761106586868686866118c9565b6040517f390baae00000000000000000000000000000000000000000000000000000000081526001600160a01b0382169063390baae0906110b790899089908990899089906004016131ed565b60006113fb6113dd86866118de565b60ff858116601b0360080285901c166113f68587611934565b61196d565b95945050505050565b61141a85858585856114158b6119be565b611abc565b5050505050565b6000601c8251111561144b578151604051635318beb960e01b81526004016102fc91815260200190565b60008080805b855181101561152657600061148f87838151811061147157611471612ef3565b602002602001015160c581111561148a5761148a613133565b611d97565b9050806000036114a4576001909201916114dc565b82156114dc576040517ff1e56be400000000000000000000000000000000000000000000000000000000815260040160405180910390fd5b80840193506008826004601f0303028783815181106114fd576114fd612ef3565b602002602001015160c581111561151657611516613133565b901b949094179350600101611451565b50600581111561154c57604051635318beb960e01b8152600481018290526024016102fc565b8451819003600861155f60026020613234565b6115699190613247565b83901b93909317926008600161158160026020613234565b61158b9190613234565b6115959190613247565b81901b939093179260086001806115ae60026020613234565b6115b89190613234565b6115c29190613234565b6115cc9190613247565b9190911b92909217949350505050565b613a3160f11b867fffff000000000000000000000000000000000000000000000000000000000000161480159061165557507f6f74000000000000000000000000000000000000000000000000000000000000867fffff0000000000000000000000000000000000000000000000000000000000001614155b156116b657613a3160f11b868760405160200161167491815260200190565b60408051601f19818403018152908290527f31b466830000000000000000000000000000000000000000000000000000000082526102fc93929160040161325e565b6116c1856000611df7565b6116cc846001611f79565b6116d7836000611f79565b60e084901c60e885901c0160ff168251146117375760e084901c60e885901c0160ff1682516040517f0f72cb98000000000000000000000000000000000000000000000000000000008152600481019290925260248201526044016102fc565b60e085901c60e886901c0160ff168151146117975760e085901c60e886901c0160ff1681516040517f7dec4c00000000000000000000000000000000000000000000000000000000008152600481019290925260248201526044016102fc565b60e085901c60e886901c0160ff1660e084901c60e885901c0160ff161461180f5760e085901c60e886901c0160ff1660e084901c60e885901c0160ff166040517ff29d4d88000000000000000000000000000000000000000000000000000000008152600481019290925260248201526044016102fc565b61181886612120565b1561187257858660405160200161183191815260200190565b60408051601f19818403018152908290527fdfaaf9cf0000000000000000000000000000000000000000000000000000000082526102fc9291600401612f48565b6118be868686868660405160200161188a919061329f565b604051602081830303815290604052866040516020016118aa919061329f565b6040516020818303038152906040526121f0565b61094c8660016122e8565b61141a85856118d88487611934565b856123df565b600082826040516020016118f39291906132b2565b60408051601f1981840301815291905280516020909101207f86425bff6b57326c7859e89024fe4f238ca327a1ae4a230180dd2f0e88aaa7d9189392505050565b600080805b8360ff168110156119655761195b60ff601b83900360080287901c168361308c565b9150600101611939565b509392505050565b6000602082106119935760208204840193506020828161198f5761198f6132ee565b0691505b508254600882021b602082900380841115611965576001850154600882021c82179150509392505050565b60408051613a3160f11b60208201526473746f726560d81b60228201527f5461626c65730000000000000000000000000000000000000000000000000000603082015260009101604051602081830303815290604052611a1d90612ecf565b8203611a4957507e60030220202000000000000000000000000000000000000000000000000000919050565b60408051613a3160f11b60208201526473746f726560d81b60228201527f5461626c6573000000000000000000000000000000000000000000000000000060308201526101ce91611ab39101604051602081830303815290604052611aad90612ecf565b84612624565b6020600061196d565b857f8dbb3a9672eebfd3773e72dd9c102393436816d832c7ba9e1e1ac8fcadcac7a986868686604051611af29493929190613304565b60405180910390a2613a3160f11b867fffff000000000000000000000000000000000000000000000000000000000000160361094c576000611b3387612640565b905060005b8151811015611c0c576000828281518110611b5557611b55612ef3565b60200260200101519050611b816001826affffffffffffffffffffff191661270890919063ffffffff16565b15611c03576040517f57066c9c000000000000000000000000000000000000000000000000000000008152606082901c906357066c9c90611bd0908c908c908c908c908c908c9060040161334e565b600060405180830381600087803b158015611bea57600080fd5b505af1158015611bfe573d6000803e3d6000fd5b505050505b50600101611b38565b506000611c1988886118de565b90506000602087019050611c31826000838a51612726565b6000611c3c856127e6565b1115611cc0576000611c4e8a8a612823565b878155905060208601915060008060005b611c68886127e6565b8160ff161015611cbb57611c7d8d8d83612879565b9250611c988a8260ff166028026038011c64ffffffffff1690565b9150611ca78360008785612726565b611cb1828661308c565b9450600101611c5f565b505050505b60005b83518110156110e5576000848281518110611ce057611ce0612ef3565b60200260200101519050611d0c6002826affffffffffffffffffffff191661270890919063ffffffff16565b15611d8e576040517f5b28cdaf000000000000000000000000000000000000000000000000000000008152606082901c90635b28cdaf90611d5b908e908e908e908e908e908e9060040161334e565b600060405180830381600087803b158015611d7557600080fd5b505af1158015611d89573d6000803e3d6000fd5b505050505b50600101611cc3565b6000808260c5811115611dac57611dac613133565b60ff1690506061811015611dc657601f1660010192915050565b60618360c5811115611dda57611dda613133565b03611de85750601492915050565b50600092915050565b50919050565b80158015611e03575081155b15611e3d576040517f97e36a0a000000000000000000000000000000000000000000000000000000008152600060048201526024016102fc565b6000611e48836127e6565b90506005811115611e88576040517f97e36a0a000000000000000000000000000000000000000000000000000000008152600481018290526024016102fc565b6000611e93846128f9565b90506000611ea1838361308c565b9050601c811115611ee1576040517f97e36a0a000000000000000000000000000000000000000000000000000000008152600481018290526024016102fc565b60005b8281101561094c5760ff601b82900360080287901c166000819003611f35576040517fbf1ac38300000000000000000000000000000000000000000000000000000000815260040160405180910390fd5b6020811115611f70576040517f2392baa400000000000000000000000000000000000000000000000000000000815260040160405180910390fd5b50600101611ee4565b80158015611f85575081155b15611fa657604051635318beb960e01b8152600060048201526024016102fc565b6000611fb1836127e6565b90506005811115611fd857604051635318beb960e01b8152600481018290526024016102fc565b6000611fe3846128f9565b90506000611ff1838361308c565b9050601c81111561201857604051635318beb960e01b8152600481018290526024016102fc565b60008060005b838110156120d95760006120466120358a8461290b565b60c581111561148a5761148a613133565b111561209057848110612085576040517ff1e56be400000000000000000000000000000000000000000000000000000000815260040160405180910390fd5b6001909201916120d1565b848110156120ca576040517ff1e56be400000000000000000000000000000000000000000000000000000000815260040160405180910390fd5b6001909101905b60010161201e565b508382146120fd57604051635318beb960e01b8152600481018390526024016102fc565b84811461069757604051635318beb960e01b8152600481018290526024016102fc565b60408051600180825281830190925260009182919060208083019080368337019050509050828160008151811061215957612159612ef3565b60209081029190910181019190915260408051613a3160f11b818401526473746f726560d81b60228201527f5265736f7572636549647300000000000000000000000000000000000000000060308201528151808203909301835281019052600090610d41906121c890612ecf565b8360007e010100010000000000000000000000000000000000000000000000000000006113ce565b60006121fd86868661292c565b9050600061220b848461294e565b90506000612219858561296b565b6040805160018082528183019092529192506000919060208083019080368337019050509050898160008151811061225357612253612ef3565b60209081029190910181019190915260408051613a3160f11b818401526473746f726560d81b60228201527f5461626c65730000000000000000000000000000000000000000000000000000603082015281518082039093018352810190526110e5906122bf90612ecf565b828686867e60030220202000000000000000000000000000000000000000000000000000611abc565b60408051600180825281830190925260009160208083019080368337019050509050828160008151811061231e5761231e612ef3565b60209081029190910181019190915260408051613a3160f11b818401526473746f726560d81b60228201527f5265736f75726365496473000000000000000000000000000000000000000000603082015281518082039093018352810190526123da9061238a90612ecf565b826000856040516020016123a591151560f81b815260010190565b60408051601f198184030181529190527e010100010000000000000000000000000000000000000000000000000000006118c9565b505050565b60006123eb85856118de565b9050847f8c0b5119d4cec7b284c6b1b39252a03d1e2f2d7451a5895562524c113bb952be858585604051612421939291906133a7565b60405180910390a2613a3160f11b857fffff000000000000000000000000000000000000000000000000000000000000161461245d5750610e5b565b600061246886612640565b905060005b815181101561253d57600082828151811061248a5761248a612ef3565b602002602001015190506124b66004826affffffffffffffffffffff191661270890919063ffffffff16565b15612534576040517f964f667d000000000000000000000000000000000000000000000000000000008152606082901c9063964f667d90612501908b908b908b908b906004016133e4565b600060405180830381600087803b15801561251b57600080fd5b505af115801561252f573d6000803e3d6000fd5b505050505b5060010161246d565b50612551828565ffffffffffff1685612997565b60005b815181101561069757600082828151811061257157612571612ef3565b6020026020010151905061259d6008826affffffffffffffffffffff191661270890919063ffffffff16565b1561261b576040517fa8ba8721000000000000000000000000000000000000000000000000000000008152606082901c9063a8ba8721906125e8908b908b908b908b906004016133e4565b600060405180830381600087803b15801561260257600080fd5b505af1158015612616573d6000803e3d6000fd5b505050505b50600101612554565b60408051602081018490529081018290526000906060016118f3565b6040805160018082528183019092526060916000919060208083019080368337019050509050828160008151811061267a5761267a612ef3565b60209081029190910181019190915260408051613a3160f11b818401526473746f726560d81b60228201527f53746f7265486f6f6b7300000000000000000000000000000000000000000000603082015281518082039093018352810190526000906126f1906126e990612ecf565b8360006129a7565b9050610d4d61270382600084516129e1565b612a71565b60008160ff16826127198560581c90565b1660ff1614905092915050565b82156127a057602083106127505760208304840193506020838161274c5761274c6132ee565b0692505b82156127a05760208390036000600019600884021c1990506008850281811c91508451811c9050811987541682821617875550818311612791575050610e5b565b50600194909401939182019190035b5b602081106127c25781518455600190930192602090910190601f19016127a1565b8015610e5b576000600019600883021c198554845182169119161785555050505050565b600060086001806127f960026020613234565b6128039190613234565b61280d9190613234565b6128179190613247565b8260ff911c1692915050565b600082826040516020016128389291906132b2565b60408051601f1981840301815291905280516020909101207f14e2fcc58e58e68ec7edc30c8d50dccc3ce2714a623ec81f46b6a63922d76569189392505050565b6000838360405160200161288e9291906132b2565b604051602081830303815290604052805190602001208260f81b7effffffffffffffffffffffffffffffffffffffffffffffffffffffffffffff19167f3b4102da22e32d82fc925482184f16c09fd4281692720b87d124aef6da48a0f1181860001c90509392505050565b60006008600161280360026020613234565b6000601b8290036008028360ff911c1660c5811115610fdd57610fdd613133565b6040805160208101859052908101839052606081810183905290608001611024565b8151815160009181810160389190911b1760609190911b17610fdd565b6060828260405160200161298092919061341d565b604051602081830303815290604052905092915050565b6123da8383602084018451612726565b6060610d4d6129b7858585612879565b6129da846129c58888612a82565b9060ff166028026038011c64ffffffffff1690565b6000612a95565b60008183111580156129f4575083518211155b612a30578383836040517f23230fa30000000000000000000000000000000000000000000000000000000081526004016102fc9392919061344c565b60208401612a3e848261308c565b90506000612a4c8585613234565b6fffffffffffffffffffffffffffffffff1660809290921b9190911795945050505050565b60606000610fdd8360156000612ab8565b6000610fdd612a918484612823565b5490565b60405160208101601f19603f858401011660405283825261196585858584612b33565b60606000612ac68560801c90565b90506fffffffffffffffffffffffffffffffff85166000858281612aec57612aec6132ee565b04905060405193506020840160208202810160405281855260005b82811015612b27578451871c825293870193602090910190600101612b07565b50505050509392505050565b8115612bbc5760208210612b5d57602082048401935060208281612b5957612b596132ee565b0691505b8115612bbc576020829003600081851015612b815750600019600885021c19612b8c565b50600019600882021c195b8554600885021b811984511682821617845250818511612bad575050610e5b565b50600194909401939283900392015b5b60208310612bde5783548152600190930192601f1990920191602001612bbd565b8215610e5b576000600019600885021c198251865482169119161782525050505050565b600060208284031215612c1457600080fd5b81357fffffffff0000000000000000000000000000000000000000000000000000000081168114610fdd57600080fd5b634e487b7160e01b600052604160045260246000fd5b6040516060810167ffffffffffffffff81118282101715612c7d57612c7d612c44565b60405290565b604051601f8201601f1916810167ffffffffffffffff81118282101715612cac57612cac612c44565b604052919050565b600067ffffffffffffffff821115612cce57612cce612c44565b50601f01601f191660200190565b600060208284031215612cee57600080fd5b813567ffffffffffffffff811115612d0557600080fd5b8201601f81018413612d1657600080fd5b8035612d29612d2482612cb4565b612c83565b818152856020838501011115612d3e57600080fd5b81602084016020830137600091810160200191909152949350505050565b60005b83811015612d77578181015183820152602001612d5f565b50506000910152565b6000612d8e612d2484612cb4565b9050828152838383011115612da257600080fd5b610fdd836020830184612d5c565b600082601f830112612dc157600080fd5b610fdd83835160208501612d80565b60008060408385031215612de357600080fd5b825171ffffffffffffffffffffffffffffffffffff1981168114612e0657600080fd5b602084015190925067ffffffffffffffff80821115612e2457600080fd5b9084019060608287031215612e3857600080fd5b612e40612c5a565b825182811115612e4f57600080fd5b612e5b88828601612db0565b825250602083015182811115612e7057600080fd5b612e7c88828601612db0565b602083015250604083015182811115612e9457600080fd5b612ea088828601612db0565b6040830152508093505050509250929050565b60008251612ec5818460208701612d5c565b9190910192915050565b80516020808301519190811015611df15760001960209190910360031b1b16919050565b634e487b7160e01b600052603260045260246000fd5b60008151808452612f21816020860160208601612d5c565b601f01601f19169290920160200192915050565b602081526000610fdd6020830184612f09565b828152604060208201526000610d4d6040830184612f09565b600060208284031215612f7357600080fd5b815167ffffffffffffffff811115612f8a57600080fd5b8201601f81018413612f9b57600080fd5b610d4d84825160208401612d80565b600060208284031215612fbc57600080fd5b81516001600160a01b0381168114610fdd57600080fd5b8381528260208201526060604082015260006113fb6060830184612f09565b60008151808452602080850194506020840160005b8381101561302357815187529582019590820190600101613007565b509495945050505050565b8481526080602082015260006130476080830186612ff2565b60ff949094166040830152506060015292915050565b60006020828403121561306f57600080fd5b5051919050565b634e487b7160e01b600052601160045260246000fd5b808201808211156101ce576101ce613076565b600084516130b1818460208901612d5c565b8451908301906130c5818360208901612d5c565b84519101906130d8818360208801612d5c565b0195945050505050565b85815260a0602082015260006130fb60a0830187612ff2565b828103604084015261310d8187612f09565b905084606084015282810360808401526131278185612f09565b98975050505050505050565b634e487b7160e01b600052602160045260246000fd5b60008282518085526020808601955060208260051b8401016020860160005b8481101561319657601f19868403018952613184838351612f09565b98840198925090830190600101613168565b5090979650505050505050565b86815285602082015284604082015283606082015260c0608082015260006131ce60c0830185613149565b82810360a08401526131e08185613149565b9998505050505050505050565b85815260a06020820152600061320660a0830187612ff2565b60ff8616604084015282810360608401526132218186612f09565b9150508260808301529695505050505050565b818103818111156101ce576101ce613076565b80820281158282048414176101ce576101ce613076565b7fffff000000000000000000000000000000000000000000000000000000000000841681528260208201526060604082015260006113fb6060830184612f09565b602081526000610fdd6020830184613149565b8281526000602080830184516020860160005b828110156132e1578151845292840192908401906001016132c5565b5091979650505050505050565b634e487b7160e01b600052601260045260246000fd5b6080815260006133176080830187612ff2565b82810360208401526133298187612f09565b905084604084015282810360608401526133438185612f09565b979650505050505050565b86815260c06020820152600061336760c0830188612ff2565b82810360408401526133798188612f09565b905085606084015282810360808401526133938186612f09565b9150508260a0830152979650505050505050565b6060815260006133ba6060830186612ff2565b65ffffffffffff8516602084015282810360408401526133da8185612f09565b9695505050505050565b8481526080602082015260006133fd6080830186612ff2565b65ffffffffffff8516604084015282810360608401526133438185612f09565b6000835161342f818460208801612d5c565b835190830190613443818360208801612d5c565b01949350505050565b60608152600061345f6060830186612f09565b6020830194909452506040015291905056fea26469706673582212207ac1c42e946b5fe623be163d18b8033e47fed3f0054d2ed44fc096610138d23c64736f6c63430008170033608060405234801561001057600080fd5b50615677806100206000396000f3fe608060405234801561001057600080fd5b506004361061002b5760003560e01c8063472466c214610030575b600080fd5b61004361003e3660046124f7565b610045565b005b61005661005182610188565b6101c0565b6100676100628261020c565b61023e565b61007861007382610282565b6102b4565b610089610084826102f8565b61032a565b61009a6100958261036c565b61039e565b6100ab6100a6826103e2565b610414565b8173ffffffffffffffffffffffffffffffffffffffff16633350b6a96100d083610456565b6040516100dc906124ea565b604051809103906000f0801580156100f8573d6000803e3d6000fd5b506040517fffffffff0000000000000000000000000000000000000000000000000000000060e085901b168152600481019290925273ffffffffffffffffffffffffffffffffffffffff16602482015260016044820152606401600060405180830381600087803b15801561016c57600080fd5b505af1158015610180573d6000803e3d6000fd5b505050505050565b60006101ba613a3160f11b837f4f70657261746f72417070726f76616c0000000000000000000000000000000061049f565b92915050565b610209817e010100010000000000000000000000000000000000000000000000000000006101ec610526565b6101f46105e3565b6101fc61061d565b6102046106f5565b61076c565b50565b60006101ba613a3160f11b837f4f776e657273000000000000000000000000000000000000000000000000000061049f565b610209817e1401001400000000000000000000000000000000000000000000000000000061026a610840565b61027261087a565b61027a6108b4565b61020461092b565b60006101ba613a3160f11b837f546f6b656e417070726f76616c0000000000000000000000000000000000000061049f565b610209817e140100140000000000000000000000000000000000000000000000000000006102e0610840565b6102e861087a565b6102f06108b4565b6102046109a2565b60006101ba613a3160f11b837f546f6b656e55524900000000000000000000000000000000000000000000000061049f565b610209817c0100000000000000000000000000000000000000000000000000000000610354610840565b61035c610a19565b6103646108b4565b610204610a53565b60006101ba613a3160f11b837f42616c616e63657300000000000000000000000000000000000000000000000061049f565b610209817e200100200000000000000000000000000000000000000000000000000000006103ca61087a565b6103d2610840565b6103da6109a2565b610204610aca565b60006101ba613a3160f11b837f4d6574616461746100000000000000000000000000000000000000000000000061049f565b610209817c030000000000000000000000000000000000000000000000000000000061043e610b41565b610446610b5a565b61044e610c1f565b610204610c52565b60006101ba7f7379000000000000000000000000000000000000000000000000000000000000837f45524337323153797374656d00000000000000000000000000000000000000005b60006104ad60706010612584565b7fffff00000000000000000000000000000000000000000000000000000000000085167dffffffffffffffffffffffffffff00000000000000000000000000000000601086901c16177fffffffffffffffffffffffffffffffff00000000000000000000000000000000841690911c1790509392505050565b6040805160028082526060820183526000928392919060208301908036833701905050905060618160008151811061056057610560612597565b602002602001019060c5811115610579576105796125ad565b908160c581111561058c5761058c6125ad565b815250506061816001815181106105a5576105a5612597565b602002602001019060c58111156105be576105be6125ad565b908160c58111156105d1576105d16125ad565b9052506105dd81610d72565b91505090565b604080516001808252818301909252600091829190602080830190803683370190505090506060816000815181106105a5576105a5612597565b6040805160028082526060828101909352816020015b60608152602001906001900390816106335790505090506040518060400160405280600581526020017f6f776e65720000000000000000000000000000000000000000000000000000008152508160008151811061069357610693612597565b60200260200101819052506040518060400160405280600881526020017f6f70657261746f72000000000000000000000000000000000000000000000000815250816001815181106106e7576106e7612597565b602002602001018190525090565b604080516001808252818301909252606091816020015b606081526020019060019003908161070c5790505090506040518060400160405280600881526020017f617070726f766564000000000000000000000000000000000000000000000000815250816000815181106106e7576106e7612597565b6000610776610f36565b90503073ffffffffffffffffffffffffffffffffffffffff8216036107a8576107a3878787878787610f82565b610837565b6040517f0ba51f4900000000000000000000000000000000000000000000000000000000815273ffffffffffffffffffffffffffffffffffffffff821690630ba51f4990610804908a908a908a908a908a908a9060040161266d565b600060405180830381600087803b15801561081e57600080fd5b505af1158015610832573d6000803e3d6000fd5b505050505b50505050505050565b60408051600180825281830190925260009182919060208083019080368337019050509050601f816000815181106105a5576105a5612597565b604080516001808252818301909252600091829190602080830190803683370190505090506061816000815181106105a5576105a5612597565b604080516001808252818301909252606091816020015b60608152602001906001900390816108cb5790505090506040518060400160405280600781526020017f746f6b656e496400000000000000000000000000000000000000000000000000815250816000815181106106e7576106e7612597565b604080516001808252818301909252606091816020015b60608152602001906001900390816109425790505090506040518060400160405280600581526020017f6f776e6572000000000000000000000000000000000000000000000000000000815250816000815181106106e7576106e7612597565b604080516001808252818301909252606091816020015b60608152602001906001900390816109b95790505090506040518060400160405280600781526020017f6163636f756e7400000000000000000000000000000000000000000000000000815250816000815181106106e7576106e7612597565b6040805160018082528183019092526000918291906020808301908036833701905050905060c5816000815181106105a5576105a5612597565b604080516001808252818301909252606091816020015b6060815260200190600190039081610a6a5790505090506040518060400160405280600881526020017f746f6b656e555249000000000000000000000000000000000000000000000000815250816000815181106106e7576106e7612597565b604080516001808252818301909252606091816020015b6060815260200190600190039081610ae15790505090506040518060400160405280600581526020017f76616c7565000000000000000000000000000000000000000000000000000000815250816000815181106106e7576106e7612597565b604080516000808252602082019092526105dd81610d72565b604080516003808252608082019092526000918291906020820160608036833701905050905060c581600081518110610b9557610b95612597565b602002602001019060c5811115610bae57610bae6125ad565b908160c5811115610bc157610bc16125ad565b8152505060c581600181518110610bda57610bda612597565b602002602001019060c5811115610bf357610bf36125ad565b908160c5811115610c0657610c066125ad565b8152505060c5816002815181106105a5576105a5612597565b60408051600080825260208201909252606091610c4c565b6060815260200190600190039081610c375790505b50905090565b60408051600380825260808201909252606091816020015b6060815260200190600190039081610c6a5790505090506040518060400160405280600481526020017f6e616d650000000000000000000000000000000000000000000000000000000081525081600081518110610cca57610cca612597565b60200260200101819052506040518060400160405280600681526020017f73796d626f6c000000000000000000000000000000000000000000000000000081525081600181518110610d1e57610d1e612597565b60200260200101819052506040518060400160405280600781526020017f6261736555524900000000000000000000000000000000000000000000000000815250816002815181106106e7576106e7612597565b6000601c82511115610da5578151604051635318beb960e01b8152600401610d9c91815260200190565b60405180910390fd5b60008080805b8551811015610e80576000610de9878381518110610dcb57610dcb612597565b602002602001015160c5811115610de457610de46125ad565b61126f565b905080600003610dfe57600190920191610e36565b8215610e36576040517ff1e56be400000000000000000000000000000000000000000000000000000000815260040160405180910390fd5b80840193506008826004601f030302878381518110610e5757610e57612597565b602002602001015160c5811115610e7057610e706125ad565b901b949094179350600101610dab565b506005811115610ea657604051635318beb960e01b815260048101829052602401610d9c565b84518190036008610eb9600260206126b7565b610ec391906126ca565b83901b939093179260086001610edb600260206126b7565b610ee591906126b7565b610eef91906126ca565b81901b93909317926008600180610f08600260206126b7565b610f1291906126b7565b610f1c91906126b7565b610f2691906126ca565b9190911b92909217949350505050565b7f629a4c26e296b22a8e0856e9f6ecb2d1008d7e00081111962cd175fa7488e1755460009073ffffffffffffffffffffffffffffffffffffffff1680610f7d573391505090565b919050565b613a3160f11b867fffff0000000000000000000000000000000000000000000000000000000000001614801590610ffb57507f6f74000000000000000000000000000000000000000000000000000000000000867fffff0000000000000000000000000000000000000000000000000000000000001614155b1561105c57613a3160f11b868760405160200161101a91815260200190565b60408051601f19818403018152908290527f31b46683000000000000000000000000000000000000000000000000000000008252610d9c9392916004016126e1565b6110678560006112cf565b611072846001611451565b61107d836000611451565b60e084901c60e885901c0160ff168251146110dd5760e084901c60e885901c0160ff1682516040517f0f72cb9800000000000000000000000000000000000000000000000000000000815260048101929092526024820152604401610d9c565b60e085901c60e886901c0160ff1681511461113d5760e085901c60e886901c0160ff1681516040517f7dec4c0000000000000000000000000000000000000000000000000000000000815260048101929092526024820152604401610d9c565b60e085901c60e886901c0160ff1660e084901c60e885901c0160ff16146111b55760e085901c60e886901c0160ff1660e084901c60e885901c0160ff166040517ff29d4d8800000000000000000000000000000000000000000000000000000000815260048101929092526024820152604401610d9c565b6111be866115f8565b156112185785866040516020016111d791815260200190565b60408051601f19818403018152908290527fdfaaf9cf000000000000000000000000000000000000000000000000000000008252610d9c9291600401612722565b6112648686868686604051602001611230919061273b565b60405160208183030381529060405286604051602001611250919061273b565b6040516020818303038152906040526116dc565b6101808660016117fc565b6000808260c5811115611284576112846125ad565b60ff169050606181101561129e57601f1660010192915050565b60618360c58111156112b2576112b26125ad565b036112c05750601492915050565b50600092915050565b50919050565b801580156112db575081155b15611315576040517f97e36a0a00000000000000000000000000000000000000000000000000000000815260006004820152602401610d9c565b6000611320836118f3565b90506005811115611360576040517f97e36a0a00000000000000000000000000000000000000000000000000000000815260048101829052602401610d9c565b600061136b84611930565b905060006113798383612584565b9050601c8111156113b9576040517f97e36a0a00000000000000000000000000000000000000000000000000000000815260048101829052602401610d9c565b60005b828110156101805760ff601b82900360080287901c16600081900361140d576040517fbf1ac38300000000000000000000000000000000000000000000000000000000815260040160405180910390fd5b6020811115611448576040517f2392baa400000000000000000000000000000000000000000000000000000000815260040160405180910390fd5b506001016113bc565b8015801561145d575081155b1561147e57604051635318beb960e01b815260006004820152602401610d9c565b6000611489836118f3565b905060058111156114b057604051635318beb960e01b815260048101829052602401610d9c565b60006114bb84611930565b905060006114c98383612584565b9050601c8111156114f057604051635318beb960e01b815260048101829052602401610d9c565b60008060005b838110156115b157600061151e61150d8a84611942565b60c5811115610de457610de46125ad565b11156115685784811061155d576040517ff1e56be400000000000000000000000000000000000000000000000000000000815260040160405180910390fd5b6001909201916115a9565b848110156115a2576040517ff1e56be400000000000000000000000000000000000000000000000000000000815260040160405180910390fd5b6001909101905b6001016114f6565b508382146115d557604051635318beb960e01b815260048101839052602401610d9c565b84811461083757604051635318beb960e01b815260048101829052602401610d9c565b60408051600180825281830190925260009182919060208083019080368337019050509050828160008151811061163157611631612597565b60209081029190910181019190915260408051613a3160f11b818401526473746f726560d81b60228201527f5265736f75726365496473000000000000000000000000000000000000000000603082015281518082039093018352810190526000906116c8906116a09061274e565b8360007e0101000100000000000000000000000000000000000000000000000000000061196a565b90506116d48160f81c90565b949350505050565b60408051602081018790528082018690526060808201869052825180830390910181526080909101909152600061171384846119a0565b9050600061172185856119bd565b6040805160018082528183019092529192506000919060208083019080368337019050509050898160008151811061175b5761175b612597565b60209081029190910181019190915260408051613a3160f11b818401526473746f726560d81b60228201527f5461626c65730000000000000000000000000000000000000000000000000000603082015281518082039093018352810190526117f0906117c79061274e565b828686867e600302202020000000000000000000000000000000000000000000000000006119e9565b50505050505050505050565b60408051600180825281830190925260009160208083019080368337019050509050828160008151811061183257611832612597565b60209081029190910181019190915260408051613a3160f11b818401526473746f726560d81b60228201527f5265736f75726365496473000000000000000000000000000000000000000000603082015281518082039093018352810190526118ee9061189e9061274e565b826000856040516020016118b991151560f81b815260010190565b60408051601f198184030181529190527e01010001000000000000000000000000000000000000000000000000000000611cc4565b505050565b60006008600180611906600260206126b7565b61191091906126b7565b61191a91906126b7565b61192491906126ca565b8260ff911c1692915050565b600060086001611910600260206126b7565b6000601b8290036008028360ff911c1660c5811115611963576119636125ad565b9392505050565b60006119976119798686611ce0565b60ff858116601b0360080285901c166119928587611d36565b611d6f565b95945050505050565b8151815160009181810160389190911b1760609190911b17611963565b606082826040516020016119d2929190612772565b604051602081830303815290604052905092915050565b857f8dbb3a9672eebfd3773e72dd9c102393436816d832c7ba9e1e1ac8fcadcac7a986868686604051611a1f94939291906127dd565b60405180910390a2613a3160f11b867fffff0000000000000000000000000000000000000000000000000000000000001603610180576000611a6087611dc0565b905060005b8151811015611b39576000828281518110611a8257611a82612597565b60200260200101519050611aae6001826affffffffffffffffffffff1916611e8890919063ffffffff16565b15611b30576040517f57066c9c000000000000000000000000000000000000000000000000000000008152606082901c906357066c9c90611afd908c908c908c908c908c908c90600401612827565b600060405180830381600087803b158015611b1757600080fd5b505af1158015611b2b573d6000803e3d6000fd5b505050505b50600101611a65565b506000611b468888611ce0565b90506000602087019050611b5e826000838a51611ea6565b6000611b69856118f3565b1115611bed576000611b7b8a8a611f64565b878155905060208601915060008060005b611b95886118f3565b8160ff161015611be857611baa8d8d83611fba565b9250611bc58a8260ff166028026038011c64ffffffffff1690565b9150611bd48360008785611ea6565b611bde8286612584565b9450600101611b8c565b505050505b60005b83518110156117f0576000848281518110611c0d57611c0d612597565b60200260200101519050611c396002826affffffffffffffffffffff1916611e8890919063ffffffff16565b15611cbb576040517f5b28cdaf000000000000000000000000000000000000000000000000000000008152606082901c90635b28cdaf90611c88908e908e908e908e908e908e90600401612827565b600060405180830381600087803b158015611ca257600080fd5b505af1158015611cb6573d6000803e3d6000fd5b505050505b50600101611bf0565b611cd98585611cd38487611d36565b8561203a565b5050505050565b60008282604051602001611cf5929190612880565b60408051601f1981840301815291905280516020909101207f86425bff6b57326c7859e89024fe4f238ca327a1ae4a230180dd2f0e88aaa7d9189392505050565b600080805b8360ff16811015611d6757611d5d60ff601b83900360080287901c1683612584565b9150600101611d3b565b509392505050565b600060208210611d9557602082048401935060208281611d9157611d916128bc565b0691505b508254600882021b602082900380841115611d67576001850154600882021c82179150509392505050565b60408051600180825281830190925260609160009190602080830190803683370190505090508281600081518110611dfa57611dfa612597565b60209081029190910181019190915260408051613a3160f11b818401526473746f726560d81b60228201527f53746f7265486f6f6b730000000000000000000000000000000000000000000060308201528151808203909301835281019052600090611e7190611e699061274e565b83600061227f565b90506116d4611e8382600084516122b9565b612349565b60008160ff1682611e998560581c90565b1660ff1614905092915050565b8215611f205760208310611ed057602083048401935060208381611ecc57611ecc6128bc565b0692505b8215611f205760208390036000600019600884021c1990506008850281811c91508451811c9050811987541682821617875550818311611f11575050611f5e565b50600194909401939182019190035b5b60208110611f425781518455600190930192602090910190601f1901611f21565b8015611f5e5783548251600019600884021c9182169119161784555b50505050565b60008282604051602001611f79929190612880565b60408051601f1981840301815291905280516020909101207f14e2fcc58e58e68ec7edc30c8d50dccc3ce2714a623ec81f46b6a63922d76569189392505050565b60008383604051602001611fcf929190612880565b604051602081830303815290604052805190602001208260f81b7effffffffffffffffffffffffffffffffffffffffffffffffffffffffffffff19167f3b4102da22e32d82fc925482184f16c09fd4281692720b87d124aef6da48a0f1181860001c90509392505050565b60006120468585611ce0565b9050847f8c0b5119d4cec7b284c6b1b39252a03d1e2f2d7451a5895562524c113bb952be85858560405161207c939291906128d2565b60405180910390a2613a3160f11b857fffff00000000000000000000000000000000000000000000000000000000000016146120b85750611f5e565b60006120c386611dc0565b905060005b81518110156121985760008282815181106120e5576120e5612597565b602002602001015190506121116004826affffffffffffffffffffff1916611e8890919063ffffffff16565b1561218f576040517f964f667d000000000000000000000000000000000000000000000000000000008152606082901c9063964f667d9061215c908b908b908b908b9060040161290f565b600060405180830381600087803b15801561217657600080fd5b505af115801561218a573d6000803e3d6000fd5b505050505b506001016120c8565b506121ac828565ffffffffffff168561235a565b60005b81518110156108375760008282815181106121cc576121cc612597565b602002602001015190506121f86008826affffffffffffffffffffff1916611e8890919063ffffffff16565b15612276576040517fa8ba8721000000000000000000000000000000000000000000000000000000008152606082901c9063a8ba872190612243908b908b908b908b9060040161290f565b600060405180830381600087803b15801561225d57600080fd5b505af1158015612271573d6000803e3d6000fd5b505050505b506001016121af565b60606116d461228f858585611fba565b6122b28461229d888861236a565b9060ff166028026038011c64ffffffffff1690565b600061237d565b60008183111580156122cc575083518211155b612308578383836040517f23230fa3000000000000000000000000000000000000000000000000000000008152600401610d9c93929190612948565b602084016123168482612584565b9050600061232485856126b7565b6fffffffffffffffffffffffffffffffff1660809290921b9190911795945050505050565b6060600061196383601560006123a0565b6118ee8383602084018451611ea6565b60006119636123798484611f64565b5490565b60405160208101601f19603f8584010116604052838252611d678585858461241b565b606060006123ae8560801c90565b90506fffffffffffffffffffffffffffffffff851660008582816123d4576123d46128bc565b04905060405193506020840160208202810160405281855260005b8281101561240f578451871c8252938701936020909101906001016123ef565b50505050509392505050565b81156124a4576020821061244557602082048401935060208281612441576124416128bc565b0691505b81156124a45760208290036000818510156124695750600019600885021c19612474565b50600019600882021c195b8554600885021b811984511682821617845250818511612495575050611f5e565b50600194909401939283900392015b5b602083106124c65783548152600190930192601f19909201916020016124a5565b8215611f5e576000600019600885021c198251865482169119161782525050505050565b612cd48061296e83390190565b6000806040838503121561250a57600080fd5b823573ffffffffffffffffffffffffffffffffffffffff8116811461252e57600080fd5b915060208301357fffffffffffffffffffffffffffff0000000000000000000000000000000000008116811461256357600080fd5b809150509250929050565b634e487b7160e01b600052601160045260246000fd5b808201808211156101ba576101ba61256e565b634e487b7160e01b600052603260045260246000fd5b634e487b7160e01b600052602160045260246000fd5b60005b838110156125de5781810151838201526020016125c6565b50506000910152565b600081518084526125ff8160208601602086016125c3565b601f01601f19169290920160200192915050565b60008282518085526020808601955060208260051b8401016020860160005b8481101561266057601f1986840301895261264e8383516125e7565b98840198925090830190600101612632565b5090979650505050505050565b86815285602082015284604082015283606082015260c06080820152600061269860c0830185612613565b82810360a08401526126aa8185612613565b9998505050505050505050565b818103818111156101ba576101ba61256e565b80820281158282048414176101ba576101ba61256e565b7fffff0000000000000000000000000000000000000000000000000000000000008416815282602082015260606040820152600061199760608301846125e7565b8281526040602082015260006116d460408301846125e7565b6020815260006119636020830184612613565b805160208083015191908110156112c95760001960209190910360031b1b16919050565b600083516127848184602088016125c3565b8351908301906127988183602088016125c3565b01949350505050565b60008151808452602080850194506020840160005b838110156127d2578151875295820195908201906001016127b6565b509495945050505050565b6080815260006127f060808301876127a1565b828103602084015261280281876125e7565b9050846040840152828103606084015261281c81856125e7565b979650505050505050565b86815260c06020820152600061284060c08301886127a1565b828103604084015261285281886125e7565b9050856060840152828103608084015261286c81866125e7565b9150508260a0830152979650505050505050565b8281526000602080830184516020860160005b828110156128af57815184529284019290840190600101612893565b5091979650505050505050565b634e487b7160e01b600052601260045260246000fd5b6060815260006128e560608301866127a1565b65ffffffffffff85166020840152828103604084015261290581856125e7565b9695505050505050565b84815260806020820152600061292860808301866127a1565b65ffffffffffff85166040840152828103606084015261281c81856125e7565b60608152600061295b60608301866125e7565b6020830194909452506040015291905056fe608060405234801561001057600080fd5b50612cb4806100206000396000f3fe608060405234801561001057600080fd5b506004361061016c5760003560e01c80636352211e116100cd578063a22cb46511610081578063c87b56dd11610066578063c87b56dd146102d1578063e1af802c146102e4578063e985e9c5146102ec57600080fd5b8063a22cb465146102ab578063b88d4fde146102be57600080fd5b80638832e6e3116100b25780638832e6e31461027d57806395d89b4114610290578063a14481941461029857600080fd5b80636352211e1461025757806370a082311461026a57600080fd5b806323b872dd1161012457806342842e0e1161010957806342842e0e1461021c57806342966c681461022f57806345ec93541461024257600080fd5b806323b872dd146101f657806340c10f191461020957600080fd5b8063081812fc11610155578063081812fc146101ae578063095ea7b3146101d9578063119df25f146101ee57600080fd5b806301ffc9a71461017157806306fdde0314610199575b600080fd5b61018461017f366004612595565b6102ff565b60405190151581526020015b60405180910390f35b6101a1610398565b6040516101909190612602565b6101c16101bc366004612615565b6103b7565b6040516001600160a01b039091168152602001610190565b6101ec6101e7366004612645565b6103cc565b005b6101c16103e2565b6101ec61020436600461266f565b6103ec565b6101ec610217366004612645565b61049c565b6101ec61022a36600461266f565b6104ae565b6101ec61023d366004612615565b6104ce565b36601f1901355b604051908152602001610190565b6101c1610265366004612615565b6104e2565b6102496102783660046126ab565b6104ed565b6101ec61028b36600461278b565b61054b565b6101a161055e565b6101ec6102a6366004612645565b610573565b6101ec6102b93660046127e2565b610595565b6101ec6102cc36600461281e565b6105a7565b6101a16102df366004612615565b6105be565b6101c161065a565b6101846102fa366004612886565b610664565b60007fffffffff0000000000000000000000000000000000000000000000000000000082167fb421288000000000000000000000000000000000000000000000000000000000148061039257507fffffffff0000000000000000000000000000000000000000000000000000000082167f01ffc9a700000000000000000000000000000000000000000000000000000000145b92915050565b60606103b26103ad6103a8610687565b6106a5565b6106d7565b905090565b60006103c2826106f5565b5061039282610746565b6103de82826103d96103e2565b610761565b5050565b60006103b261076e565b6001600160a01b03821661041b57604051633250574960e11b8152600060048201526024015b60405180910390fd5b600061042f838361042a6103e2565b6107a0565b9050836001600160a01b0316816001600160a01b031614610496576040517f64283d7b0000000000000000000000000000000000000000000000000000000081526001600160a01b0380861660048301526024820184905282166044820152606401610412565b50505050565b6104a4610924565b6103de828261093f565b6104c9838383604051806020016040528060008152506105a7565b505050565b6104d6610924565b6104df816109bd565b50565b6000610392826106f5565b60006001600160a01b038216610532576040517f89c62b6400000000000000000000000000000000000000000000000000000000815260006004820152602401610412565b610392610545610540610687565b610a11565b83610a43565b610553610924565b6104c9838383610ac9565b60606103b261056e6103a8610687565b610ae0565b61057b610924565b6103de828260405180602001604052806000815250610ac9565b6103de6105a06103e2565b8383610aff565b6105b28484846103ec565b61049684848484610c23565b60606105c9826106f5565b5060006105d4610d84565b905060006105f16105eb6105e6610687565b610d99565b85610dcb565b9050600081511161061c5760408051602081018690520160405160208183030381529060405261061e565b805b9050600082511161062f5780610652565b81816040516020016106429291906128b9565b6040516020818303038152906040525b949350505050565b60006103b2610e22565b6000610680610679610674610687565b610e61565b8484610e93565b9392505050565b60008061069330610f52565b905061069f8160101b90565b91505090565b6000610392613a3160f11b837f4d65746164617461000000000000000000000000000000000000000000000000611046565b604080516000808252602082019092526060916106528483836110cd565b60008061070183611194565b90506001600160a01b038116610392576040517f7e27328900000000000000000000000000000000000000000000000000000000815260048101849052602401610412565b600061039261075b610756610687565b6111a4565b836111d6565b6104c98383836001611256565b7fffffffffffffffffffffffffffffffffffffffffffffffffffffffffffffffcc36013560601c8061079d5750335b90565b6000806107ae610540610687565b905060006107bb85611194565b90506001600160a01b038416156107d7576107d78185876113e8565b6001600160a01b0381161561080b576107f4600086600080611256565b61080b828260016108058686610a43565b0361147e565b6001600160a01b03861615610831576108318287610829858a610a43565b60010161147e565b61084b61084461083f610687565b61151b565b868861154d565b61085361160a565b6001600160a01b03166366c93bdb7fddf252ad1be2c89b69c2b068fc378daa952ba7f163c4a11628f55a4df523b3ef610892846001600160a01b031690565b604080516000815260208101918290527fffffffff0000000000000000000000000000000000000000000000000000000060e086901b169091526108e89291906001600160a01b038c16908b90602481016128e8565b600060405180830381600087803b15801561090257600080fd5b505af1158015610916573d6000803e3d6000fd5b509298975050505050505050565b61093d61093030610f52565b6109386103e2565b6116e5565b565b6001600160a01b03821661096957604051633250574960e11b815260006004820152602401610412565b6000610977838360006107a0565b90506001600160a01b038116156104c9576040517f73c6ac6e00000000000000000000000000000000000000000000000000000000815260006004820152602401610412565b60006109cc60008360006107a0565b90506001600160a01b0381166103de576040517f7e27328900000000000000000000000000000000000000000000000000000000815260048101839052602401610412565b6000610392613a3160f11b837f42616c616e636573000000000000000000000000000000000000000000000000611046565b60408051600180825281830190925260009182919060208083019080368337019050509050826001600160a01b031660001b81600081518110610a8857610a8861291e565b60209081029190910101526000610ac08583837e20010020000000000000000000000000000000000000000000000000000000611786565b95945050505050565b610ad3838361093f565b6104c96000848484610c23565b60408051600080825260208201909252606091610652848360016110cd565b6001600160a01b038216610b4a576040517f5b08ba180000000000000000000000000000000000000000000000000000000081526001600160a01b0383166004820152602401610412565b610b60610b58610674610687565b848484611843565b610b6861160a565b6001600160a01b031663c9a34acd7f17307eab39ab6107e8899845ad3d59bd9653f200f220920489ca2b5937696c31610ba7866001600160a01b031690565b6001600160a01b038616604080518715156020820152016040516020818303038152906040526040518563ffffffff1660e01b8152600401610bec9493929190612934565b600060405180830381600087803b158015610c0657600080fd5b505af1158015610c1a573d6000803e3d6000fd5b50505050505050565b6001600160a01b0383163b1561049657826001600160a01b031663150b7a02610c4a6103e2565b8685856040518563ffffffff1660e01b8152600401610c6c9493929190612959565b6020604051808303816000875af1925050508015610ca7575060408051601f3d908101601f19168201909252610ca49181019061298b565b60015b610d10573d808015610cd5576040519150601f19603f3d011682016040523d82523d6000602084013e610cda565b606091505b508051600003610d0857604051633250574960e11b81526001600160a01b0385166004820152602401610412565b805181602001fd5b7fffffffff0000000000000000000000000000000000000000000000000000000081167f150b7a020000000000000000000000000000000000000000000000000000000014610d7d57604051633250574960e11b81526001600160a01b0385166004820152602401610412565b5050505050565b60606103b2610d946103a8610687565b611910565b6000610392613a3160f11b837f546f6b656e555249000000000000000000000000000000000000000000000000611046565b60408051600180825281830190925260609160009190602080830190803683370190505090508260001b81600081518110610e0857610e0861291e565b6020026020010181815250506000610ac0858360006110cd565b7f629a4c26e296b22a8e0856e9f6ecb2d1008d7e00081111962cd175fa7488e175546000906001600160a01b031680610e5c573391505090565b919050565b6000610392613a3160f11b837f4f70657261746f72417070726f76616c00000000000000000000000000000000611046565b60408051600280825260608201835260009283929190602083019080368337019050509050836001600160a01b031660001b81600081518110610ed857610ed861291e565b602002602001018181525050826001600160a01b031660001b81600181518110610f0457610f0461291e565b60209081029190910101526000610f3c8683837e01010001000000000000000000000000000000000000000000000000000000611786565b9050610f488160f81c90565b9695505050505050565b60408051600180825281830190925260009182919060208083019080368337019050509050826001600160a01b031660001b81600081518110610f9757610f9761291e565b60209081029190910181019190915260408051613a3160f11b818401527f776f726c6400000000000000000000000000000000000000000000000000000060228201527f53797374656d5265676973747279000000000000000000000000000000000000603082015281518082039093018352810190526000906106529061101e906129a8565b8360007e20010020000000000000000000000000000000000000000000000000000000611786565b6000611054607060106129e5565b7fffff00000000000000000000000000000000000000000000000000000000000085167dffffffffffffffffffffffffffff00000000000000000000000000000000601086901c16177fffffffffffffffffffffffffffffffff00000000000000000000000000000000841690911c1790509392505050565b606060006110d9610e22565b9050306001600160a01b038216036110fe576110f685858561192f565b915050610680565b6040517f1e7889770000000000000000000000000000000000000000000000000000000081526001600160a01b03821690631e7889779061114790889088908890600401612a34565b600060405180830381865afa158015611164573d6000803e3d6000fd5b505050506040513d6000823e601f3d908101601f191682016040526110f69190810190612a60565b509392505050565b600061039261075b61083f610687565b6000610392613a3160f11b837f546f6b656e417070726f76616c00000000000000000000000000000000000000611046565b604080516001808252818301909252600091829190602080830190803683370190505090508260001b816000815181106112125761121261291e565b6020908102919091010152600061124a8583837e14010014000000000000000000000000000000000000000000000000000000611786565b60601c95945050505050565b808061126a57506001600160a01b03821615155b156113d357600061127a846106f5565b90506001600160a01b038316158015906112a65750826001600160a01b0316816001600160a01b031614155b80156112b957506112b78184610664565b155b156112fb576040517fa9fbf51f0000000000000000000000000000000000000000000000000000000081526001600160a01b0384166004820152602401610412565b81156113d15761130961160a565b6001600160a01b03166366c93bdb7f8c5be1e5ebec7d5bd14f71427d1e84f3dd0314c0f7b2291e5b200ac8c7c3b925611348846001600160a01b031690565b604080516000815260208101918290527fffffffff0000000000000000000000000000000000000000000000000000000060e086901b1690915261139e9291906001600160a01b038b16908a90602481016128e8565b600060405180830381600087803b1580156113b857600080fd5b505af11580156113cc573d6000803e3d6000fd5b505050505b505b6104966113e1610756610687565b848661154d565b6113f3838383611969565b6104c9576001600160a01b03831661143a576040517f7e27328900000000000000000000000000000000000000000000000000000000815260048101829052602401610412565b6040517f177e802f0000000000000000000000000000000000000000000000000000000081526001600160a01b038316600482015260248101829052604401610412565b60408051600180825281830190925260009160208083019080368337019050509050826001600160a01b031660001b816000815181106114c0576114c061291e565b60200260200101818152505061049684826000856040516020016114e691815260200190565b60408051601f198184030181529190527e200100200000000000000000000000000000000000000000000000000000006119ce565b6000610392613a3160f11b837f4f776e6572730000000000000000000000000000000000000000000000000000611046565b604080516001808252818301909252600091602080830190803683370190505090508260001b816000815181106115865761158661291e565b60200260200101818152505061049684826000856040516020016115d5919060609190911b7fffffffffffffffffffffffffffffffffffffffff00000000000000000000000016815260140190565b60408051601f198184030181529190527e140100140000000000000000000000000000000000000000000000000000006119ce565b60008061161630610f52565b60408051613a3160f11b60208201527f707570706574000000000000000000000000000000000000000000000000000060228201527f5075707065745265676973747279000000000000000000000000000000000000603082015291925060009161169a9101604051602081830303815290604052611694906129a8565b83611a84565b90506001600160a01b038116610392576040517f9434f7e100000000000000000000000000000000000000000000000000000000815230600482015260248101839052604401610412565b6001600160a01b03811661173a7f6e730000000000000000000000000000000000000000000000000000000000007dffffffffffffffffffffffffffff00000000000000000000000000000000851617611abd565b6001600160a01b0316146103de5761175182611bb0565b816040517fd787b737000000000000000000000000000000000000000000000000000000008152600401610412929190612ace565b600080611791610e22565b9050306001600160a01b038216036117b7576117af86868686611d2c565b915050610652565b6040517f8c364d590000000000000000000000000000000000000000000000000000000081526001600160a01b03821690638c364d5990611802908990899089908990600401612af9565b602060405180830381865afa15801561181f573d6000803e3d6000fd5b505050506040513d601f19601f820116820180604052508101906117af9190612b28565b604080516002808252606082018352600092602083019080368337019050509050836001600160a01b031660001b816000815181106118845761188461291e565b602002602001018181525050826001600160a01b031660001b816001815181106118b0576118b061291e565b602002602001018181525050610d7d85826000856040516020016118db91151560f81b815260010190565b60408051601f198184030181529190527e010100010000000000000000000000000000000000000000000000000000006119ce565b60408051600080825260208201909252606091610652848360026110cd565b606061065261193f858585611d59565b6119628461194d8888611dd9565b9060ff166028026038011c64ffffffffff1690565b6000611dec565b60006001600160a01b038316158015906106525750826001600160a01b0316846001600160a01b031614806119a357506119a38484610664565b806106525750826001600160a01b03166119bc83610746565b6001600160a01b031614949350505050565b60006119d8610e22565b9050306001600160a01b038216036119fc576119f78686868686611e0f565b611a7c565b6040517f390baae00000000000000000000000000000000000000000000000000000000081526001600160a01b0382169063390baae090611a499089908990899089908990600401612b41565b600060405180830381600087803b158015611a6357600080fd5b505af1158015611a77573d6000803e3d6000fd5b505050505b505050505050565b6040805160018082528183019092526000918291906020808301908036833701905050905082816000815181106112125761121261291e565b604080516001808252818301909252600091829190602080830190803683370190505090508281600081518110611af657611af661291e565b60209081029190910181019190915260408051613a3160f11b818401527f776f726c6400000000000000000000000000000000000000000000000000000060228201527f4e616d6573706163654f776e657200000000000000000000000000000000000060308201528151808203909301835281019052600090611ba590611b7d906129a8565b8360007e14010014000000000000000000000000000000000000000000000000000000611786565b60601c949350505050565b606081601081901b6000611bc383611e24565b9050827fffffffffffffffffffffffffffff000000000000000000000000000000000000831615611c16577fffffffffffffffffffffffffffff0000000000000000000000000000000000008316611c38565b7f524f4f545f4e414d4553504143450000000000000000000000000000000000005b7fffffffffffffffffffffffffffffffff00000000000000000000000000000000831615611c665782611c88565b7f524f4f545f4e414d4500000000000000000000000000000000000000000000005b6040517fffff00000000000000000000000000000000000000000000000000000000000090931660208401527f3a00000000000000000000000000000000000000000000000000000000000000602284018190527fffffffffffffffffffffffffffffffff00000000000000000000000000000000928316602385015260338401521660348201526044016040516020818303038152906040529350505050919050565b6000610ac0611d3b8686611e3b565b60ff858116601b0360080285901c16611d548587611e91565b611ec2565b60008383604051602001611d6e929190612b88565b604051602081830303815290604052805190602001208260f81b7effffffffffffffffffffffffffffffffffffffffffffffffffffffffffffff19167f3b4102da22e32d82fc925482184f16c09fd4281692720b87d124aef6da48a0f1181860001c90509392505050565b6000610680611de88484611f13565b5490565b60405160208101601f19603f858401011660405283825261118c85858584611f69565b610d7d8585611e1e8487611e91565b85612038565b6000611e32607060106129e5565b9190911b919050565b60008282604051602001611e50929190612b88565b60408051601f1981840301815291905280516020909101207f86425bff6b57326c7859e89024fe4f238ca327a1ae4a230180dd2f0e88aaa7d9189392505050565b600080805b8360ff1681101561118c57611eb860ff601b83900360080287901c16836129e5565b9150600101611e96565b600060208210611ee857602082048401935060208281611ee457611ee4612bc4565b0691505b508254600882021b60208290038084111561118c576001850154600882021c82179150509392505050565b60008282604051602001611f28929190612b88565b60408051601f1981840301815291905280516020909101207f14e2fcc58e58e68ec7edc30c8d50dccc3ce2714a623ec81f46b6a63922d76569189392505050565b8115611ff25760208210611f9357602082048401935060208281611f8f57611f8f612bc4565b0691505b8115611ff2576020829003600081851015611fb75750600019600885021c19611fc2565b50600019600882021c195b8554600885021b811984511682821617845250818511611fe3575050610496565b50600194909401939283900392015b5b602083106120145783548152600190930192601f1990920191602001611ff3565b8215610496576000600019600885021c198251865482169119161782525050505050565b60006120448585611e3b565b9050847f8c0b5119d4cec7b284c6b1b39252a03d1e2f2d7451a5895562524c113bb952be85858560405161207a93929190612bda565b60405180910390a2613a3160f11b857fffff00000000000000000000000000000000000000000000000000000000000016146120b65750610496565b60006120c18661227d565b905060005b81518110156121965760008282815181106120e3576120e361291e565b6020026020010151905061210f6004826affffffffffffffffffffff191661235d90919063ffffffff16565b1561218d576040517f964f667d000000000000000000000000000000000000000000000000000000008152606082901c9063964f667d9061215a908b908b908b908b90600401612c0d565b600060405180830381600087803b15801561217457600080fd5b505af1158015612188573d6000803e3d6000fd5b505050505b506001016120c6565b506121aa828565ffffffffffff168561237b565b60005b8151811015610c1a5760008282815181106121ca576121ca61291e565b602002602001015190506121f66008826affffffffffffffffffffff191661235d90919063ffffffff16565b15612274576040517fa8ba8721000000000000000000000000000000000000000000000000000000008152606082901c9063a8ba872190612241908b908b908b908b90600401612c0d565b600060405180830381600087803b15801561225b57600080fd5b505af115801561226f573d6000803e3d6000fd5b505050505b506001016121ad565b604080516001808252818301909252606091600091906020808301908036833701905050905082816000815181106122b7576122b761291e565b60209081029190910181019190915260408051613a3160f11b818401527f73746f726500000000000000000000000000000000000000000000000000000060228201527f53746f7265486f6f6b7300000000000000000000000000000000000000000000603082015281518082039093018352810190526000906123469061233e906129a8565b83600061192f565b9050610652612358826000845161238b565b61241b565b60008160ff168261236e8560581c90565b1660ff1614905092915050565b6104c9838360208401845161242c565b600081831115801561239e575083518211155b6123da578383836040517f23230fa300000000000000000000000000000000000000000000000000000000815260040161041293929190612c46565b602084016123e884826129e5565b905060006123f68585612c6b565b6fffffffffffffffffffffffffffffffff1660809290921b9190911795945050505050565b6060600061068083601560006124ec565b82156124a657602083106124565760208304840193506020838161245257612452612bc4565b0692505b82156124a65760208390036000600019600884021c1990506008850281811c91508451811c9050811987541682821617875550818311612497575050610496565b50600194909401939182019190035b5b602081106124c85781518455600190930192602090910190601f19016124a7565b8015610496576000600019600883021c198554845182169119161785555050505050565b606060006124fa8560801c90565b90506fffffffffffffffffffffffffffffffff8516600085828161252057612520612bc4565b04905060405193506020840160208202810160405281855260005b8281101561255b578451871c82529387019360209091019060010161253b565b50505050509392505050565b7fffffffff00000000000000000000000000000000000000000000000000000000811681146104df57600080fd5b6000602082840312156125a757600080fd5b813561068081612567565b60005b838110156125cd5781810151838201526020016125b5565b50506000910152565b600081518084526125ee8160208601602086016125b2565b601f01601f19169290920160200192915050565b60208152600061068060208301846125d6565b60006020828403121561262757600080fd5b5035919050565b80356001600160a01b0381168114610e5c57600080fd5b6000806040838503121561265857600080fd5b6126618361262e565b946020939093013593505050565b60008060006060848603121561268457600080fd5b61268d8461262e565b925061269b6020850161262e565b9150604084013590509250925092565b6000602082840312156126bd57600080fd5b6106808261262e565b634e487b7160e01b600052604160045260246000fd5b604051601f8201601f1916810167ffffffffffffffff81118282101715612705576127056126c6565b604052919050565b600067ffffffffffffffff821115612727576127276126c6565b50601f01601f191660200190565b600082601f83011261274657600080fd5b81356127596127548261270d565b6126dc565b81815284602083860101111561276e57600080fd5b816020850160208301376000918101602001919091529392505050565b6000806000606084860312156127a057600080fd5b6127a98461262e565b925060208401359150604084013567ffffffffffffffff8111156127cc57600080fd5b6127d886828701612735565b9150509250925092565b600080604083850312156127f557600080fd5b6127fe8361262e565b91506020830135801515811461281357600080fd5b809150509250929050565b6000806000806080858703121561283457600080fd5b61283d8561262e565b935061284b6020860161262e565b925060408501359150606085013567ffffffffffffffff81111561286e57600080fd5b61287a87828801612735565b91505092959194509250565b6000806040838503121561289957600080fd5b6128a28361262e565b91506128b06020840161262e565b90509250929050565b600083516128cb8184602088016125b2565b8351908301906128df8183602088016125b2565b01949350505050565b85815284602082015283604082015282606082015260a06080820152600061291360a08301846125d6565b979650505050505050565b634e487b7160e01b600052603260045260246000fd5b848152836020820152826040820152608060608201526000610f4860808301846125d6565b60006001600160a01b03808716835280861660208401525083604083015260806060830152610f4860808301846125d6565b60006020828403121561299d57600080fd5b815161068081612567565b805160208083015191908110156129c9576000198160200360031b1b821691505b50919050565b634e487b7160e01b600052601160045260246000fd5b80820180821115610392576103926129cf565b60008151808452602080850194506020840160005b83811015612a2957815187529582019590820190600101612a0d565b509495945050505050565b838152606060208201526000612a4d60608301856129f8565b905060ff83166040830152949350505050565b600060208284031215612a7257600080fd5b815167ffffffffffffffff811115612a8957600080fd5b8201601f81018413612a9a57600080fd5b8051612aa86127548261270d565b818152856020838501011115612abd57600080fd5b610ac08260208301602086016125b2565b604081526000612ae160408301856125d6565b90506001600160a01b03831660208301529392505050565b848152608060208201526000612b1260808301866129f8565b60ff949094166040830152506060015292915050565b600060208284031215612b3a57600080fd5b5051919050565b85815260a060208201526000612b5a60a08301876129f8565b60ff861660408401528281036060840152612b7581866125d6565b9150508260808301529695505050505050565b8281526000602080830184516020860160005b82811015612bb757815184529284019290840190600101612b9b565b5091979650505050505050565b634e487b7160e01b600052601260045260246000fd5b606081526000612bed60608301866129f8565b65ffffffffffff851660208401528281036040840152610f4881856125d6565b848152608060208201526000612c2660808301866129f8565b65ffffffffffff85166040840152828103606084015261291381856125d6565b606081526000612c5960608301866125d6565b60208301949094525060400152919050565b81810381811115610392576103926129cf56fea2646970667358221220bf1f8158b7921e68cb0af6ece5ec4803d77e2f27d6bd3f8edc08275cf0dbc73764736f6c63430008170033a26469706673582212208b7eeed131040f115ee2ae4451b315f048e6a7d11bb07de138857d2a4766cc3a64736f6c63430008170033","linkReferences":{}},"methodIdentifiers":{"_msgSender()":"119df25f","_msgValue()":"45ec9354","_world()":"e1af802c","getName()":"17d7de7c","install(bytes)":"13861fb5","installRoot(bytes)":"7c5b0335","supportsInterface(bytes4)":"01ffc9a7"},"id":196}