{"abi":[{"type":"constructor","inputs":[{"name":"_world","type":"address","internalType":"contract IBaseWorld"},{"name":"_systemId","type":"bytes32","internalType":"ResourceId"}],"stateMutability":"nonpayable"},{"type":"fallback","stateMutability":"nonpayable"},{"type":"function","name":"log","inputs":[{"name":"eventSignature","type":"bytes32","internalType":"bytes32"},{"name":"topic1","type":"bytes32","internalType":"bytes32"},{"name":"topic2","type":"bytes32","internalType":"bytes32"},{"name":"topic3","type":"bytes32","internalType":"bytes32"},{"name":"eventData","type":"bytes","internalType":"bytes"}],"outputs":[],"stateMutability":"nonpayable"},{"type":"function","name":"log","inputs":[{"name":"eventSignature","type":"bytes32","internalType":"bytes32"},{"name":"topic1","type":"bytes32","internalType":"bytes32"},{"name":"topic2","type":"bytes32","internalType":"bytes32"},{"name":"eventData","type":"bytes","internalType":"bytes"}],"outputs":[],"stateMutability":"nonpayable"},{"type":"function","name":"log","inputs":[{"name":"eventSignature","type":"bytes32","internalType":"bytes32"},{"name":"eventData","type":"bytes","internalType":"bytes"}],"outputs":[],"stateMutability":"nonpayable"},{"type":"function","name":"log","inputs":[{"name":"eventSignature","type":"bytes32","internalType":"bytes32"},{"name":"topic1","type":"bytes32","internalType":"bytes32"},{"name":"eventData","type":"bytes","internalType":"bytes"}],"outputs":[],"stateMutability":"nonpayable"},{"type":"function","name":"systemId","inputs":[],"outputs":[{"name":"","type":"bytes32","internalType":"ResourceId"}],"stateMutability":"view"},{"type":"function","name":"world","inputs":[],"outputs":[{"name":"","type":"address","internalType":"contract IBaseWorld"}],"stateMutability":"view"},{"type":"error","name":"Puppet_AccessDenied","inputs":[{"name":"caller","type":"address","internalType":"address"}]}],"bytecode":{"object":"0x60c060405234801561001057600080fd5b5060405161106538038061106583398101604081905261002f9161007c565b6001600160a01b038216608081905260a08290527f629a4c26e296b22a8e0856e9f6ecb2d1008d7e00081111962cd175fa7488e17580546001600160a01b031916909117905550506100b6565b6000806040838503121561008f57600080fd5b82516001600160a01b03811681146100a657600080fd5b6020939093015192949293505050565b60805160a051610f626101036000396000818160e1015281816101b401528181610239015281816102b70152818161032e01526103a101526000818160b201526101630152610f626000f3fe608060405234801561001057600080fd5b50600436106100725760003560e01c8063c9a34acd11610050578063c9a34acd146101f9578063d72a26651461020c578063e2ed58bd1461021f57610072565b806330b67baa1461015e57806339f898bc146101af57806366c93bdb146101e4575b6040517f894ecc5800000000000000000000000000000000000000000000000000000000815260009073ffffffffffffffffffffffffffffffffffffffff7f0000000000000000000000000000000000000000000000000000000000000000169063894ecc589061010d9033907f00000000000000000000000000000000000000000000000000000000000000009086903690600401610a5c565b6000604051808303816000875af115801561012c573d6000803e3d6000fd5b505050506040513d6000823e601f3d908101601f191682016040526101549190810190610b8c565b9050805160208201f35b6101857f000000000000000000000000000000000000000000000000000000000000000081565b60405173ffffffffffffffffffffffffffffffffffffffff90911681526020015b60405180910390f35b6101d67f000000000000000000000000000000000000000000000000000000000000000081565b6040519081526020016101a6565b6101f76101f2366004610c1a565b610232565b005b6101f7610207366004610c7e565b6102b0565b6101f761021a366004610cd8565b610327565b6101f761022d366004610d1f565b61039a565b600061025d7f000000000000000000000000000000000000000000000000000000000000000061040f565b5090503373ffffffffffffffffffffffffffffffffffffffff82161461029d576040516398d49b0360e01b81523360048201526024015b60405180910390fd5b82848688855160208701a4505050505050565b60006102db7f000000000000000000000000000000000000000000000000000000000000000061040f565b5090503373ffffffffffffffffffffffffffffffffffffffff821614610316576040516398d49b0360e01b8152336004820152602401610294565b828486845160208601a35050505050565b60006103527f000000000000000000000000000000000000000000000000000000000000000061040f565b5090503373ffffffffffffffffffffffffffffffffffffffff82161461038d576040516398d49b0360e01b8152336004820152602401610294565b82825160208401a1505050565b60006103c57f000000000000000000000000000000000000000000000000000000000000000061040f565b5090503373ffffffffffffffffffffffffffffffffffffffff821614610400576040516398d49b0360e01b8152336004820152602401610294565b8284835160208501a250505050565b6040805160018082528183019092526000918291829160208083019080368337019050509050838160008151811061044957610449610d6f565b602090810291909101810191909152604080517f7462000000000000000000000000000000000000000000000000000000000000818401527f776f726c6400000000000000000000000000000000000000000000000000000060228201527f53797374656d73000000000000000000000000000000000000000000000000006030820152815180820390930183528101905260009081908190610515906104ef90610d85565b857e1502001401000000000000000000000000000000000000000000000000000061053a565b5050602081015160349091015160609190911c9860f89190911c975095505050505050565b606060006060600061054a610624565b90503073ffffffffffffffffffffffffffffffffffffffff82160361058057610574878787610670565b9350935093505061061b565b6040517f419b58fd00000000000000000000000000000000000000000000000000000000815273ffffffffffffffffffffffffffffffffffffffff82169063419b58fd906105d6908a908a908a90600401610dac565b600060405180830381865afa1580156105f3573d6000803e3d6000fd5b505050506040513d6000823e601f3d908101601f191682016040526105749190810190610e05565b93509350939050565b7f629a4c26e296b22a8e0856e9f6ecb2d1008d7e00081111962cd175fa7488e1755460009073ffffffffffffffffffffffffffffffffffffffff168061066b573391505090565b919050565b606060006060600061068185610778565b905061068e87878361079b565b9350600061069b866107df565b9050801561076d576106ad888861081c565b935066ffffffffffffff841667ffffffffffffffff8111156106d1576106d1610aaf565b6040519080825280601f01601f1916602001820160405280156106fb576020820181803683370190505b5092506020830160005b828160ff16101561076a57600061071d8b8b84610838565b9050600061073a888460ff166028026038011c64ffffffffff1690565b905061074982826000876108b8565b6107538185610e7e565b93505050808061076290610e91565b915050610705565b50505b505093509350939050565b6000600861078860026020610eb0565b6107929190610ec3565b9190911c919050565b6060816000036107ba57506040805160208101909152600081526107d8565b60006107c68585610985565b90506107d4818460006109db565b9150505b9392505050565b600060086001806107f260026020610eb0565b6107fc9190610eb0565b6108069190610eb0565b6108109190610ec3565b8260ff911c1692915050565b600061082f61082b8484610a06565b5490565b90505b92915050565b6000838360405160200161084d929190610eda565b604051602081830303815290604052805190602001208260f81b7effffffffffffffffffffffffffffffffffffffffffffffffffffffffffffff19167f3b4102da22e32d82fc925482184f16c09fd4281692720b87d124aef6da48a0f1181860001c90509392505050565b811561094157602082106108e2576020820484019350602082816108de576108de610f16565b0691505b81156109415760208290036000818510156109065750600019600885021c19610911565b50600019600882021c195b8554600885021b81198451168282161784525081851161093257505061097f565b50600194909401939283900392015b5b602083106109635783548152600190930192601f1990920191602001610942565b821561097f5780518454600019600886021c9182169119161781525b50505050565b6000828260405160200161099a929190610eda565b60408051601f1981840301815291905280516020909101207f86425bff6b57326c7859e89024fe4f238ca327a1ae4a230180dd2f0e88aaa7d9189392505050565b60405160208101601f19603f85840101166040528382526109fe858585846108b8565b509392505050565b60008282604051602001610a1b929190610eda565b60408051601f1981840301815291905280516020909101207f14e2fcc58e58e68ec7edc30c8d50dccc3ce2714a623ec81f46b6a63922d76569189392505050565b73ffffffffffffffffffffffffffffffffffffffff8516815283602082015260606040820152816060820152818360808301376000818301608090810191909152601f909201601f191601019392505050565b634e487b7160e01b600052604160045260246000fd5b604051601f8201601f1916810167ffffffffffffffff81118282101715610aee57610aee610aaf565b604052919050565b600067ffffffffffffffff821115610b1057610b10610aaf565b50601f01601f191660200190565b600082601f830112610b2f57600080fd5b8151610b42610b3d82610af6565b610ac5565b8181526020856020848701011115610b5957600080fd5b60005b83811015610b77578581018201518382018301528101610b5c565b50506000918101602001919091529392505050565b600060208284031215610b9e57600080fd5b815167ffffffffffffffff811115610bb557600080fd5b610bc184828501610b1e565b949350505050565b600082601f830112610bda57600080fd5b8135610be8610b3d82610af6565b818152846020838601011115610bfd57600080fd5b816020850160208301376000918101602001919091529392505050565b600080600080600060a08688031215610c3257600080fd5b85359450602086013593506040860135925060608601359150608086013567ffffffffffffffff811115610c6557600080fd5b610c7188828901610bc9565b9150509295509295909350565b60008060008060808587031215610c9457600080fd5b843593506020850135925060408501359150606085013567ffffffffffffffff811115610cc057600080fd5b610ccc87828801610bc9565b91505092959194509250565b60008060408385031215610ceb57600080fd5b82359150602083013567ffffffffffffffff811115610d0957600080fd5b610d1585828601610bc9565b9150509250929050565b600080600060608486031215610d3457600080fd5b8335925060208401359150604084013567ffffffffffffffff811115610d5957600080fd5b610d6586828701610bc9565b9150509250925092565b634e487b7160e01b600052603260045260246000fd5b80516020808301519190811015610da6576000198160200360031b1b821691505b50919050565b60006060820185835260206060602085015281865180845260808601915060208801935060005b81811015610def57845183529383019391830191600101610dd3565b5050809350505050826040830152949350505050565b600080600060608486031215610e1a57600080fd5b835167ffffffffffffffff80821115610e3257600080fd5b610e3e87838801610b1e565b9450602086015193506040860151915080821115610e5b57600080fd5b50610d6586828701610b1e565b634e487b7160e01b600052601160045260246000fd5b8082018082111561083257610832610e68565b600060ff821660ff8103610ea757610ea7610e68565b60010192915050565b8181038181111561083257610832610e68565b808202811582820484141761083257610832610e68565b8281526000602080830184516020860160005b82811015610f0957815184529284019290840190600101610eed565b5091979650505050505050565b634e487b7160e01b600052601260045260246000fdfea264697066735822122093a725daee57f057d9c8dd65921b5f080af65e3f547faeb9dfa20bea9e336a2964736f6c63430008170033","linkReferences":{}},"methodIdentifiers":{"log(bytes32,bytes)":"d72a2665","log(bytes32,bytes32,bytes)":"e2ed58bd","log(bytes32,bytes32,bytes32,bytes)":"c9a34acd","log(bytes32,bytes32,bytes32,bytes32,bytes)":"66c93bdb","systemId()":"39f898bc","world()":"30b67baa"},"id":74}