{"abi":[{"type":"function","name":"_msgSender","inputs":[],"outputs":[{"name":"sender","type":"address","internalType":"address"}],"stateMutability":"view"},{"type":"function","name":"_msgValue","inputs":[],"outputs":[{"name":"value","type":"uint256","internalType":"uint256"}],"stateMutability":"pure"},{"type":"function","name":"_world","inputs":[],"outputs":[{"name":"","type":"address","internalType":"address"}],"stateMutability":"view"},{"type":"function","name":"spawnTemplate","inputs":[{"name":"matchEntity","type":"bytes32","internalType":"bytes32"},{"name":"prototypeId","type":"bytes32","internalType":"bytes32"},{"name":"ownerId","type":"bytes32","internalType":"bytes32"},{"name":"position","type":"tuple","internalType":"struct PositionData","components":[{"name":"x","type":"int32","internalType":"int32"},{"name":"y","type":"int32","internalType":"int32"}]}],"outputs":[],"stateMutability":"nonpayable"},{"type":"function","name":"supportsInterface","inputs":[{"name":"interfaceId","type":"bytes4","internalType":"bytes4"}],"outputs":[{"name":"","type":"bool","internalType":"bool"}],"stateMutability":"pure"},{"type":"event","name":"Store_DeleteRecord","inputs":[{"name":"tableId","type":"bytes32","indexed":true,"internalType":"ResourceId"},{"name":"keyTuple","type":"bytes32[]","indexed":false,"internalType":"bytes32[]"}],"anonymous":false},{"type":"event","name":"Store_SetRecord","inputs":[{"name":"tableId","type":"bytes32","indexed":true,"internalType":"ResourceId"},{"name":"keyTuple","type":"bytes32[]","indexed":false,"internalType":"bytes32[]"},{"name":"staticData","type":"bytes","indexed":false,"internalType":"bytes"},{"name":"encodedLengths","type":"bytes32","indexed":false,"internalType":"PackedCounter"},{"name":"dynamicData","type":"bytes","indexed":false,"internalType":"bytes"}],"anonymous":false},{"type":"event","name":"Store_SpliceDynamicData","inputs":[{"name":"tableId","type":"bytes32","indexed":true,"internalType":"ResourceId"},{"name":"keyTuple","type":"bytes32[]","indexed":false,"internalType":"bytes32[]"},{"name":"start","type":"uint48","indexed":false,"internalType":"uint48"},{"name":"deleteCount","type":"uint40","indexed":false,"internalType":"uint40"},{"name":"encodedLengths","type":"bytes32","indexed":false,"internalType":"PackedCounter"},{"name":"data","type":"bytes","indexed":false,"internalType":"bytes"}],"anonymous":false},{"type":"event","name":"Store_SpliceStaticData","inputs":[{"name":"tableId","type":"bytes32","indexed":true,"internalType":"ResourceId"},{"name":"keyTuple","type":"bytes32[]","indexed":false,"internalType":"bytes32[]"},{"name":"start","type":"uint48","indexed":false,"internalType":"uint48"},{"name":"data","type":"bytes","indexed":false,"internalType":"bytes"}],"anonymous":false},{"type":"error","name":"PackedCounter_InvalidLength","inputs":[{"name":"length","type":"uint256","internalType":"uint256"}]},{"type":"error","name":"Slice_OutOfBounds","inputs":[{"name":"data","type":"bytes","internalType":"bytes"},{"name":"start","type":"uint256","internalType":"uint256"},{"name":"end","type":"uint256","internalType":"uint256"}]},{"type":"error","name":"Store_IndexOutOfBounds","inputs":[{"name":"length","type":"uint256","internalType":"uint256"},{"name":"accessedIndex","type":"uint256","internalType":"uint256"}]},{"type":"error","name":"Store_InvalidResourceType","inputs":[{"name":"expected","type":"bytes2","internalType":"bytes2"},{"name":"resourceId","type":"bytes32","internalType":"ResourceId"},{"name":"resourceIdString","type":"string","internalType":"string"}]},{"type":"error","name":"Store_InvalidSplice","inputs":[{"name":"startWithinField","type":"uint40","internalType":"uint40"},{"name":"deleteCount","type":"uint40","internalType":"uint40"},{"name":"fieldLength","type":"uint40","internalType":"uint40"}]}],"bytecode":{"object":"0x608060405234801561001057600080fd5b506138af806100206000396000f3fe608060405234801561001057600080fd5b50600436106100675760003560e01c806345ec93541161005057806345ec9354146100b4578063e1af802c146100c7578063f2b01880146100cf57600080fd5b806301ffc9a71461006c578063119df25f14610094575b600080fd5b61007f61007a36600461309a565b6100e4565b60405190151581526020015b60405180910390f35b61009c61017d565b6040516001600160a01b03909116815260200161008b565b604051601f19360135815260200161008b565b61009c61018c565b6100e26100dd366004613104565b610196565b005b60007fffffffff0000000000000000000000000000000000000000000000000000000082167fb421288000000000000000000000000000000000000000000000000000000000148061017757507fffffffff0000000000000000000000000000000000000000000000000000000082167f01ffc9a700000000000000000000000000000000000000000000000000000000145b92915050565b6000610187610233565b905090565b6000610187610265565b6101b56101b06101a461017d565b6001600160a01b031690565b6102a4565b610220576040517f08c379a000000000000000000000000000000000000000000000000000000000815260206004820152601160248201527f61646d696e206f6e6c792073797374656d00000000000000000000000000000060448201526064015b60405180910390fd5b61022c848484846102af565b5050505050565b7fffffffffffffffffffffffffffffffffffffffffffffffffffffffffffffffcc36013560601c806102625750335b90565b7f629a4c26e296b22a8e0856e9f6ecb2d1008d7e00081111962cd175fa7488e175546000906001600160a01b03168061029f573391505090565b919050565b6000610177826102f8565b60006102ba856103d2565b90506102cf846102ca878461040f565b610475565b6102da8582846104e4565b6102e5858242610512565b6102f085828561061d565b949350505050565b604080516001808252818301909252600091829190602080830190803683370190505090508281600081518110610331576103316131ae565b60209081029190910181019190915260408051613a3160f11b928101929092526000602283018190527f41646d696e0000000000000000000000000000000000000000000000000000006030840152916103c6910160405160208183030381529060405261039e906131c4565b8360007e010100010000000000000000000000000000000000000000000000000000006106c9565b90506102f08160f81c90565b6000806103de83610786565b6103e99060016131fe565b90506103f5838261085f565b63ffffffff81169150610409838381610966565b50919050565b60408051600280825260608083018452926020830190803683370190505090508281600081518110610443576104436131ae565b6020026020010181815250508181600181518110610463576104636131ae565b60200260200101818152505092915050565b600061048083610a67565b905060005b81518110156104de5760008282815181106104a2576104a26131ae565b6020026020010151905060008060006104bb8885610b2e565b9250925092506104ce8488848685610c43565b5050600190920191506104859050565b50505050565b6104ee8383610cf9565b6104f9838383610d5c565b61050d838260000151836020015185610e4c565b505050565b6040805160028082526060820183526000926020830190803683370190505090508381600081518110610547576105476131ae565b6020026020010181815250508281600181518110610567576105676131ae565b60209081029190910181019190915260408051613a3160f11b92810192909252600060228301527f4c617374416374696f6e0000000000000000000000000000000000000000000060308301526104de91015b6040516020818303038152906040526105d2906131c4565b826000856040516020016105e891815260200190565b60408051601f198184030181529190527e20010020000000000000000000000000000000000000000000000000000000610f5e565b6040805160028082526060820183526000926020830190803683370190505090508381600081518110610652576106526131ae565b6020026020010181815250508281600181518110610672576106726131ae565b60209081029190910181019190915260408051613a3160f11b92810192909252600060228301527f4f776e656442790000000000000000000000000000000000000000000000000060308301526104de91016105ba565b6000806106d4610265565b9050306001600160a01b038216036106fa576106f286868686610fd4565b9150506102f0565b6040517f8c364d590000000000000000000000000000000000000000000000000000000081526001600160a01b03821690638c364d599061074590899089908990899060040161325e565b602060405180830381865afa158015610762573d6000803e3d6000fd5b505050506040513d601f19601f820116820180604052508101906106f2919061328d565b6040805160018082528183019092526000918291906020808301908036833701905050905082816000815181106107bf576107bf6131ae565b60209081029190910181019190915260408051613a3160f11b928101929092526000602283018190527f4d61746368456e74697479436f756e7400000000000000000000000000000000603084015291610854910160405160208183030381529060405261082c906131c4565b8360007e040100040000000000000000000000000000000000000000000000000000006106c9565b60e01c949350505050565b604080516001808252818301909252600091602080830190803683370190505090508281600081518110610895576108956131ae565b60209081029190910181019190915260408051613a3160f11b81840152600060228201527f4d61746368456e74697479436f756e74000000000000000000000000000000006030820152815180820390930183528101905261050d906108fa906131c4565b6040517fffffffff0000000000000000000000000000000000000000000000000000000060e086901b166020820152839060009060240160408051601f198184030181529190527e04010004000000000000000000000000000000000000000000000000000000610f5e565b60006109718261100a565b60408051600280825260608083018452939450600093928492919060208301908036833701905050905086816000815181106109af576109af6131ae565b60200260200101818152505085816001815181106109cf576109cf6131ae565b602090810291909101810191909152604080517f6f7400000000000000000000000000000000000000000000000000000000000092810192909252600060228301527f4d617463680000000000000000000000000000000000000000000000000000006030830152610a5e91015b604051602081830303815290604052610a55906131c4565b82868686610c43565b50505050505050565b60408051600180825281830190925260609160009190602080830190803683370190505090508281600081518110610aa157610aa16131ae565b60209081029190910181019190915260408051613a3160f11b928101929092526000602283018190527f54656d706c6174655461626c6573000000000000000000000000000000000000603084015291610b1791015b604051602081830303815290604052610b0f906131c4565b836000611035565b90506102f0610b2982600084516110fd565b61118d565b604080516002808252606080830184526000939092839285926020830190803683370190505090508581600081518110610b6a57610b6a6131ae565b6020026020010181815250508481600181518110610b8a57610b8a6131ae565b60209081029190910181019190915260408051613a3160f11b928101929092526000602283018190527f54656d706c617465436f6e74656e74000000000000000000000000000000000060308401529182918291610c219101604051602081830303815290604052610bfb906131c4565b857e2001022000000000000000000000000000000000000000000000000000000061119e565b925092509250610c3283838361126e565b965096509650505050509250925092565b6000610c4d610265565b9050306001600160a01b03821603610c7157610c6c8686868686611297565b610cf1565b6040517f298314fb0000000000000000000000000000000000000000000000000000000081526001600160a01b0382169063298314fb90610cbe90899089908990899089906004016132f6565b600060405180830381600087803b158015610cd857600080fd5b505af1158015610cec573d6000803e3d6000fd5b505050505b505050505050565b6000610d0583836112ad565b90506000610d2683610d2086856000015186602001516113f1565b906114ed565b805190915015610d4957610d448483600001518460200151846115bb565b6104de565b6104de84836000015184602001516116b4565b6000610d97826000015183602001516040805160e093841b60208201529190921b602482015281516008818303018152602890910190915290565b6040805160028082526060808301845293945060009392849291906020830190803683370190505090508681600081518110610dd557610dd56131ae565b6020026020010181815250508581600181518110610df557610df56131ae565b60209081029190910181019190915260408051613a3160f11b92810192909252600060228301527f506f736974696f6e0000000000000000000000000000000000000000000000006030830152610a5e9101610a3d565b60408051600380825260808201909252600091602082016060803683370190505090508481600081518110610e8357610e836131ae565b6020026020010181815250508360030b60001b81600181518110610ea957610ea96131ae565b6020026020010181815250508260030b60001b81600281518110610ecf57610ecf6131ae565b60209081029190910181019190915260408051613a3160f11b81840152600060228201527f456e7469746965734174506f73697469000000000000000000000000000000006030820152815180820390930183528101905261022c90610f34906131c4565b82600085604051602001610f4a91815260200190565b6040516020818303038152906040526117a2565b6000610f68610265565b9050306001600160a01b03821603610f8757610c6c8686868686611853565b6040517f390baae00000000000000000000000000000000000000000000000000000000081526001600160a01b0382169063390baae090610cbe9089908990899089908990600401613347565b6000611001610fe38686611868565b60ff858116601b0360080285901c16610ffc85876118be565b6118ef565b95945050505050565b60608160405160200161101f91815260200190565b6040516020818303038152906040529050919050565b60606000611041610265565b9050306001600160a01b038216036110665761105e858585611940565b9150506110f6565b6040517f1e7889770000000000000000000000000000000000000000000000000000000081526001600160a01b03821690631e788977906110af9088908890889060040161338e565b600060405180830381865afa1580156110cc573d6000803e3d6000fd5b505050506040513d6000823e601f3d908101601f1916820160405261105e9190810190613438565b505b9392505050565b6000818311158015611110575083518211155b61114c578383836040517f23230fa30000000000000000000000000000000000000000000000000000000081526004016102179392919061346d565b6020840161115a8482613492565b9050600061116885856134a5565b6fffffffffffffffffffffffffffffffff1660809290921b9190911795945050505050565b606060006110f6836020600061197a565b60606000606060006111ae610265565b9050306001600160a01b038216036111d7576111cb8787876119f5565b93509350935050611265565b6040517f419b58fd0000000000000000000000000000000000000000000000000000000081526001600160a01b0382169063419b58fd90611220908a908a908a906004016134b8565b600060405180830381865afa15801561123d573d6000803e3d6000fd5b505050506040513d6000823e601f3d908101601f191682016040526111cb91908101906134e1565b93509350939050565b600060608061127c86611afd565b92506112888585611b0a565b93979096509294509192505050565b61022c85858585856112a88b611b59565b611c87565b6040805180820182526000808252602082018190528251600280825260608201909452919290919081602001602082028036833701905050905083816000815181106112fb576112fb6131ae565b602002602001018181525050828160018151811061131b5761131b6131ae565b60209081029190910181019190915260408051613a3160f11b928101929092526000602283018190527f506f736974696f6e000000000000000000000000000000000000000000000000603084015291829182916113b2910160405160208183030381529060405261138c906131c4565b857e0802000404000000000000000000000000000000000000000000000000000061119e565b6040805180820190915260008082526020808301918252850151602486015160e090811d909252901d815292955090935091505b979650505050505050565b6040805160038082526080820190925260609160009190602082018480368337019050509050848160008151811061142b5761142b6131ae565b6020026020010181815250508360030b60001b81600181518110611451576114516131ae565b6020026020010181815250508260030b60001b81600281518110611477576114776131ae565b60209081029190910181019190915260408051613a3160f11b928101929092526000602283018190527f456e7469746965734174506f73697469000000000000000000000000000000006030840152916114d19101610af7565b90506114e3610b2982600084516110fd565b9695505050505050565b60606000835167ffffffffffffffff81111561150b5761150b6130dc565b604051908082528060200260200182016040528015611534578160200160208202803683370190505b5090506000805b85518110156115b15784868281518110611557576115576131ae565b6020026020010151146115a957858181518110611576576115766131ae565b6020026020010151838381518110611590576115906131ae565b6020908102919091010152816115a58161354e565b9250505b60010161153b565b5081529392505050565b604080516003808252608082019092526000916020820160608036833701905050905084816000815181106115f2576115f26131ae565b6020026020010181815250508360030b60001b81600181518110611618576116186131ae565b6020026020010181815250508260030b60001b8160028151811061163e5761163e6131ae565b60209081029190910181019190915260408051613a3160f11b81840152600060228201527f456e7469746965734174506f73697469000000000000000000000000000000006030820152815180820390930183528101905261022c906116a3906131c4565b8260006116af86611f62565b611f72565b604080516003808252608082019092526000916020820160608036833701905050905083816000815181106116eb576116eb6131ae565b6020026020010181815250508260030b60001b81600181518110611711576117116131ae565b6020026020010181815250508160030b60001b81600281518110611737576117376131ae565b60209081029190910181019190915260408051613a3160f11b81840152600060228201527f456e7469746965734174506f7369746900000000000000000000000000000000603082015281518082039093018352810190526104de9061179c906131c4565b82611fe5565b60006117ac610265565b9050306001600160a01b038216036117cf576117ca85858585612080565b61022c565b6040517f150f32620000000000000000000000000000000000000000000000000000000081526001600160a01b0382169063150f32629061181a908890889088908890600401613568565b600060405180830381600087803b15801561183457600080fd5b505af1158015611848573d6000803e3d6000fd5b505050505050505050565b61022c858561186284876118be565b856120bb565b6000828260405160200161187d92919061359c565b60408051601f1981840301815291905280516020909101207f86425bff6b57326c7859e89024fe4f238ca327a1ae4a230180dd2f0e88aaa7d9189392505050565b600080805b8360ff168110156110f4576118e560ff601b83900360080287901c1683613492565b91506001016118c3565b60006020821061191557602082048401935060208281611911576119116135d8565b0691505b508254600882021b6020829003808411156110f4576001850154600882021c82179150509392505050565b60606102f0611950858585612300565b6119738461195e8888612380565b9060ff166028026038011c64ffffffffff1690565b6000612393565b606060006119888560801c90565b90506fffffffffffffffffffffffffffffffff851660008582816119ae576119ae6135d8565b04905060405193506020840160208202810160405281855260005b828110156119e9578451871c8252938701936020909101906001016119c9565b50505050509392505050565b6060600060606000611a06856123b6565b9050611a138787836123d9565b93506000611a2086612412565b90508015611af257611a328888612380565b935066ffffffffffffff841667ffffffffffffffff811115611a5657611a566130dc565b6040519080825280601f01601f191660200182016040528015611a80576020820181803683370190505b5092506020830160005b828160ff161015611aef576000611aa28b8b84612300565b90506000611abf888460ff166028026038011c64ffffffffff1690565b9050611ace828260008761244f565b611ad88185613492565b935050508080611ae7906135ee565b915050611a8a565b50505b505093509350939050565b6020810151600090610177565b6060806000603885901c64ffffffffff16611b2e611b298684846110fd565b61251e565b935090508064ffffffffff606087901c1601611b4e611b298684846110fd565b925050509250929050565b60408051613a3160f11b60208201527f73746f726500000000000000000000000000000000000000000000000000000060228201527f5461626c65730000000000000000000000000000000000000000000000000000603082015260009101604051602081830303815290604052611bd0906131c4565b8203611bfc57507e60030220202000000000000000000000000000000000000000000000000000919050565b60408051613a3160f11b60208201527f73746f726500000000000000000000000000000000000000000000000000000060228201527f5461626c65730000000000000000000000000000000000000000000000000000603082015261017791611c7e9101604051602081830303815290604052611c78906131c4565b8461259e565b602060006118ef565b857f8dbb3a9672eebfd3773e72dd9c102393436816d832c7ba9e1e1ac8fcadcac7a986868686604051611cbd949392919061360d565b60405180910390a2613a3160f11b867fffff0000000000000000000000000000000000000000000000000000000000001603610cf1576000611cfe876125ba565b905060005b8151811015611dd7576000828281518110611d2057611d206131ae565b60200260200101519050611d4c6001826affffffffffffffffffffff191661269a90919063ffffffff16565b15611dce576040517f57066c9c000000000000000000000000000000000000000000000000000000008152606082901c906357066c9c90611d9b908c908c908c908c908c908c9060040161364c565b600060405180830381600087803b158015611db557600080fd5b505af1158015611dc9573d6000803e3d6000fd5b505050505b50600101611d03565b506000611de48888611868565b90506000602087019050611dfc826000838a516126b8565b6000611e0785612412565b1115611e8b576000611e198a8a612778565b878155905060208601915060008060005b611e3388612412565b8160ff161015611e8657611e488d8d83612300565b9250611e638a8260ff166028026038011c64ffffffffff1690565b9150611e7283600087856126b8565b611e7c8286613492565b9450600101611e2a565b505050505b60005b8351811015610cec576000848281518110611eab57611eab6131ae565b60200260200101519050611ed76002826affffffffffffffffffffff191661269a90919063ffffffff16565b15611f59576040517f5b28cdaf000000000000000000000000000000000000000000000000000000008152606082901c90635b28cdaf90611f26908e908e908e908e908e908e9060040161364c565b600060405180830381600087803b158015611f4057600080fd5b505af1158015611f54573d6000803e3d6000fd5b505050505b50600101611e8e565b6060816110f681602060006127ce565b6000611f7c610265565b9050306001600160a01b03821603611f9a576117ca85858585612822565b6040517fef6ea8620000000000000000000000000000000000000000000000000000000081526001600160a01b0382169063ef6ea8629061181a908890889088908890600401613568565b6000611fef610265565b9050306001600160a01b0382160361200b5761050d838361285d565b6040517f505a181d0000000000000000000000000000000000000000000000000000000081526001600160a01b0382169063505a181d9061205290869086906004016136a5565b600060405180830381600087803b15801561206c57600080fd5b505af1158015610a5e573d6000803e3d6000fd5b600061208c8585612380565b905060006120a9828560ff166028026038011c64ffffffffff1690565b9050610cf18686868460008888612874565b60006120c78585611868565b9050847f8c0b5119d4cec7b284c6b1b39252a03d1e2f2d7451a5895562524c113bb952be8585856040516120fd939291906136be565b60405180910390a2613a3160f11b857fffff000000000000000000000000000000000000000000000000000000000000161461213957506104de565b6000612144866125ba565b905060005b8151811015612219576000828281518110612166576121666131ae565b602002602001015190506121926004826affffffffffffffffffffff191661269a90919063ffffffff16565b15612210576040517f964f667d000000000000000000000000000000000000000000000000000000008152606082901c9063964f667d906121dd908b908b908b908b906004016136f1565b600060405180830381600087803b1580156121f757600080fd5b505af115801561220b573d6000803e3d6000fd5b505050505b50600101612149565b5061222d828565ffffffffffff1685612c76565b60005b8151811015610a5e57600082828151811061224d5761224d6131ae565b602002602001015190506122796008826affffffffffffffffffffff191661269a90919063ffffffff16565b156122f7576040517fa8ba8721000000000000000000000000000000000000000000000000000000008152606082901c9063a8ba8721906122c4908b908b908b908b906004016136f1565b600060405180830381600087803b1580156122de57600080fd5b505af11580156122f2573d6000803e3d6000fd5b505050505b50600101612230565b6000838360405160200161231592919061359c565b604051602081830303815290604052805190602001208260f81b7effffffffffffffffffffffffffffffffffffffffffffffffffffffffffffff19167f3b4102da22e32d82fc925482184f16c09fd4281692720b87d124aef6da48a0f1181860001c90509392505050565b60006110f661238f8484612778565b5490565b60405160208101601f19603f85840101166040528382526110f48585858461244f565b600060086123c6600260206134a5565b6123d0919061372a565b9190911c919050565b6060816000036123f857506040805160208101909152600081526110f6565b60006124048585611868565b905061100181846000612393565b60006008600180612425600260206134a5565b61242f91906134a5565b61243991906134a5565b612443919061372a565b8260ff911c1692915050565b81156124d8576020821061247957602082048401935060208281612475576124756135d8565b0691505b81156124d857602082900360008185101561249d5750600019600885021c196124a8565b50600019600882021c195b8554600885021b8119845116828216178452508185116124c95750506104de565b50600194909401939283900392015b5b602083106124fa5783548152600190930192601f19909201916020016124d9565b82156104de576000600019600885021c198251865482169119161782525050505050565b6060600061252c8360801c90565b90506fffffffffffffffffffffffffffffffff83168067ffffffffffffffff81111561255a5761255a6130dc565b6040519080825280601f01601f191660200182016040528015612584576020820181803683370190505b50925060208301612596838284612c86565b505050919050565b604080516020810184905290810182905260009060600161187d565b604080516001808252818301909252606091600091906020808301908036833701905050905082816000815181106125f4576125f46131ae565b60209081029190910181019190915260408051613a3160f11b818401527f73746f726500000000000000000000000000000000000000000000000000000060228201527f53746f7265486f6f6b7300000000000000000000000000000000000000000000603082015281518082039093018352810190526000906126839061267b906131c4565b836000611940565b90506102f061269582600084516110fd565b612cd2565b60008160ff16826126ab8560581c90565b1660ff1614905092915050565b821561273257602083106126e2576020830484019350602083816126de576126de6135d8565b0692505b82156127325760208390036000600019600884021c1990506008850281811c91508451811c90508119875416828216178755508183116127235750506104de565b50600194909401939182019190035b5b602081106127545781518455600190930192602090910190601f1901612733565b80156104de576000600019600883021c198554845182169119161785555050505050565b6000828260405160200161278d92919061359c565b60408051601f1981840301815291905280516020909101207f14e2fcc58e58e68ec7edc30c8d50dccc3ce2714a623ec81f46b6a63922d76569189392505050565b825160609060006127df858361372a565b9050604051925060208301601f19603f83860101166040528184526000602088015b848210156119e9578051871b83529187019160019190910190602001612801565b600061282e8585612380565b9050600061284b828560ff166028026038011c64ffffffffff1690565b9050610cf18686866000858888612874565b612870828261286b85611b59565b612ce3565b5050565b613a3160f11b877fffff00000000000000000000000000000000000000000000000000000000000016146128fe57613a3160f11b87886040516020016128bc91815260200190565b60408051601f19818403018152908290527f31b46683000000000000000000000000000000000000000000000000000000008252610217939291600401613741565b6000612919828760ff166028026038011c64ffffffffff1690565b9050600083518564ffffffffff168361293291906134a5565b61293c9190613492565b905080821415801561295e5750816129548688613782565b64ffffffffff1614155b156129ae576040517fa65010b400000000000000000000000000000000000000000000000000000000815264ffffffffff8088166004830152808716602483015283166044820152606401610217565b818664ffffffffff1611156129ff576040517f7e8578d30000000000000000000000000000000000000000000000000000000081526004810183905264ffffffffff87166024820152604401610217565b6000612a0c848984612f8f565b905064ffffffffff871660005b8960ff168160ff161015612a4c57612a40868260ff166028026038011c64ffffffffff1690565b90910190600101612a19565b508a7faa63765a776145e5e6492f471ae097dfed11cd57a61bc2679dd43180422385b48b838a868b604051612a859594939291906137a0565b60405180910390a2506000612a998b6125ba565b905060005b8151811015612b64576000828281518110612abb57612abb6131ae565b60200260200101519050612ae76010826affffffffffffffffffffff191661269a90919063ffffffff16565b15612b5b57606081901c6001600160a01b03166355eb5a288e8e8e8e8e8a8f6040518863ffffffff1660e01b8152600401612b2897969594939291906137e6565b600060405180830381600087803b158015612b4257600080fd5b505af1158015612b56573d6000803e3d6000fd5b505050505b50600101612a9e565b50828414612b7d576000612b788c8c612778565b839055505b6000612b8a8c8c8c612300565b9050612b9e818a64ffffffffff1689612c76565b5060005b8151811015612c68576000828281518110612bbf57612bbf6131ae565b60200260200101519050612beb6020826affffffffffffffffffffff191661269a90919063ffffffff16565b15612c5f57606081901c6001600160a01b031663635845338e8e8e8e8e8a8f6040518863ffffffff1660e01b8152600401612c2c97969594939291906137e6565b600060405180830381600087803b158015612c4657600080fd5b505af1158015612c5a573d6000803e3d6000fd5b505050505b50600101612ba2565b505050505050505050505050565b61050d83836020840184516126b8565b5b60208110612ca6578251825260209283019290910190601f1901612c87565b80600003612cb357505050565b6000600019600883021c19905080198351168185511617835250505050565b606060006110f6836015600061197a565b827f0e1f72f429eb97e64878619984a91e687ae91610348b9ff4216782cc96e49d0783604051612d139190613844565b60405180910390a2613a3160f11b837fffff0000000000000000000000000000000000000000000000000000000000001614612d4e57505050565b6000612d59846125ba565b905060005b8151811015612e2c576000828281518110612d7b57612d7b6131ae565b60200260200101519050612da76040826affffffffffffffffffffff191661269a90919063ffffffff16565b15612e23576040517f9faeaf45000000000000000000000000000000000000000000000000000000008152606082901c90639faeaf4590612df0908990899089906004016134b8565b600060405180830381600087803b158015612e0a57600080fd5b505af1158015612e1e573d6000803e3d6000fd5b505050505b50600101612d5e565b506000612e398585611868565b9050612e92816000612e4a866123b6565b67ffffffffffffffff811115612e6257612e626130dc565b6040519080825280601f01601f191660200182016040528015612e8c576020820181803683370190505b50612c76565b6000612e9d84612412565b1115612ebe576000612eaf8686612778565b9050612ebc81602061305d565b505b60005b8251811015610cf1576000838281518110612ede57612ede6131ae565b60200260200101519050612f0a6080826affffffffffffffffffffff191661269a90919063ffffffff16565b15612f86576040517f83b5c95b000000000000000000000000000000000000000000000000000000008152606082901c906383b5c95b90612f53908a908a908a906004016134b8565b600060405180830381600087803b158015612f6d57600080fd5b505af1158015612f81573d6000803e3d6000fd5b505050505b50600101612ec1565b600064ffffffffff821115612fd3576040517f4767058800000000000000000000000000000000000000000000000000000000815260048101839052602401610217565b8366ffffffffffffff811660ff851660280260380182901c64ffffffffff16808510613005578085038201915061300d565b848103820391505b5064ffffffffff6038602860ff8816020181811b197fffffffffffffffffffffffffffffffffffffffffffffffffff000000000000009490941690921792909216918416901b1790509392505050565b6000602061306c83601f613492565b6130769190613857565b6130809084613492565b90505b8083101561050d5760008355600183019250613083565b6000602082840312156130ac57600080fd5b81357fffffffff00000000000000000000000000000000000000000000000000000000811681146110f657600080fd5b634e487b7160e01b600052604160045260246000fd5b8035600381900b811461029f57600080fd5b60008060008084860360a081121561311b57600080fd5b85359450602086013593506040860135925060407fffffffffffffffffffffffffffffffffffffffffffffffffffffffffffffffa08201121561315d57600080fd5b506040516040810181811067ffffffffffffffff82111715613181576131816130dc565b604052613190606087016130f2565b815261319e608087016130f2565b6020820152939692955090935050565b634e487b7160e01b600052603260045260246000fd5b805160208083015191908110156104095760001960209190910360031b1b16919050565b634e487b7160e01b600052601160045260246000fd5b63ffffffff81811683821601908082111561321b5761321b6131e8565b5092915050565b60008151808452602080850194506020840160005b8381101561325357815187529582019590820190600101613237565b509495945050505050565b8481526080602082015260006132776080830186613222565b60ff949094166040830152506060015292915050565b60006020828403121561329f57600080fd5b5051919050565b60005b838110156132c15781810151838201526020016132a9565b50506000910152565b600081518084526132e28160208601602086016132a6565b601f01601f19169290920160200192915050565b85815260a06020820152600061330f60a0830187613222565b828103604084015261332181876132ca565b9050846060840152828103608084015261333b81856132ca565b98975050505050505050565b85815260a06020820152600061336060a0830187613222565b60ff86166040840152828103606084015261337b81866132ca565b9150508260808301529695505050505050565b8381526060602082015260006133a76060830185613222565b905060ff83166040830152949350505050565b600082601f8301126133cb57600080fd5b815167ffffffffffffffff808211156133e6576133e66130dc565b604051601f8301601f19908116603f0116810190828211818310171561340e5761340e6130dc565b8160405283815286602085880101111561342757600080fd5b6114e38460208301602089016132a6565b60006020828403121561344a57600080fd5b815167ffffffffffffffff81111561346157600080fd5b6102f0848285016133ba565b60608152600061348060608301866132ca565b60208301949094525060400152919050565b80820180821115610177576101776131e8565b81810381811115610177576101776131e8565b8381526060602082015260006134d16060830185613222565b9050826040830152949350505050565b6000806000606084860312156134f657600080fd5b835167ffffffffffffffff8082111561350e57600080fd5b61351a878388016133ba565b945060208601519350604086015191508082111561353757600080fd5b50613544868287016133ba565b9150509250925092565b60006000198203613561576135616131e8565b5060010190565b8481526080602082015260006135816080830186613222565b60ff8516604084015282810360608401526113e681856132ca565b8281526000602080830184516020860160005b828110156135cb578151845292840192908401906001016135af565b5091979650505050505050565b634e487b7160e01b600052601260045260246000fd5b600060ff821660ff8103613604576136046131e8565b60010192915050565b6080815260006136206080830187613222565b828103602084015261363281876132ca565b905084604084015282810360608401526113e681856132ca565b86815260c06020820152600061366560c0830188613222565b828103604084015261367781886132ca565b9050856060840152828103608084015261369181866132ca565b9150508260a0830152979650505050505050565b8281526040602082015260006102f06040830184613222565b6060815260006136d16060830186613222565b65ffffffffffff8516602084015282810360408401526114e381856132ca565b84815260806020820152600061370a6080830186613222565b65ffffffffffff8516604084015282810360608401526113e681856132ca565b8082028115828204841417610177576101776131e8565b7fffff0000000000000000000000000000000000000000000000000000000000008416815282602082015260606040820152600061100160608301846132ca565b64ffffffffff81811683821601908082111561321b5761321b6131e8565b60a0815260006137b360a0830188613222565b65ffffffffffff8716602084015264ffffffffff86166040840152846060840152828103608084015261333b81856132ca565b87815260e0602082015260006137ff60e0830189613222565b60ff8816604084015264ffffffffff87811660608501528616608084015260a0830185905282810360c084015261383681856132ca565b9a9950505050505050505050565b6020815260006110f66020830184613222565b60008261387457634e487b7160e01b600052601260045260246000fd5b50049056fea264697066735822122079f5eb40b72ece8c7778f69d98e23dc31b80d7c63e51754a1490089abd016edf64736f6c63430008170033","linkReferences":{}},"methodIdentifiers":{"_msgSender()":"119df25f","_msgValue()":"45ec9354","_world()":"e1af802c","spawnTemplate(bytes32,bytes32,bytes32,(int32,int32))":"f2b01880","supportsInterface(bytes4)":"01ffc9a7"},"id":463}