{"abi":[{"type":"function","name":"_msgSender","inputs":[],"outputs":[{"name":"sender","type":"address","internalType":"address"}],"stateMutability":"view"},{"type":"function","name":"_msgValue","inputs":[],"outputs":[{"name":"value","type":"uint256","internalType":"uint256"}],"stateMutability":"pure"},{"type":"function","name":"_world","inputs":[],"outputs":[{"name":"","type":"address","internalType":"address"}],"stateMutability":"view"},{"type":"function","name":"approve","inputs":[{"name":"to","type":"address","internalType":"address"},{"name":"tokenId","type":"uint256","internalType":"uint256"}],"outputs":[],"stateMutability":"nonpayable"},{"type":"function","name":"balanceOf","inputs":[{"name":"owner","type":"address","internalType":"address"}],"outputs":[{"name":"","type":"uint256","internalType":"uint256"}],"stateMutability":"view"},{"type":"function","name":"burn","inputs":[{"name":"tokenId","type":"uint256","internalType":"uint256"}],"outputs":[],"stateMutability":"nonpayable"},{"type":"function","name":"getApproved","inputs":[{"name":"tokenId","type":"uint256","internalType":"uint256"}],"outputs":[{"name":"","type":"address","internalType":"address"}],"stateMutability":"view"},{"type":"function","name":"isApprovedForAll","inputs":[{"name":"owner","type":"address","internalType":"address"},{"name":"operator","type":"address","internalType":"address"}],"outputs":[{"name":"","type":"bool","internalType":"bool"}],"stateMutability":"view"},{"type":"function","name":"mint","inputs":[{"name":"to","type":"address","internalType":"address"},{"name":"tokenId","type":"uint256","internalType":"uint256"}],"outputs":[],"stateMutability":"nonpayable"},{"type":"function","name":"name","inputs":[],"outputs":[{"name":"","type":"string","internalType":"string"}],"stateMutability":"view"},{"type":"function","name":"ownerOf","inputs":[{"name":"tokenId","type":"uint256","internalType":"uint256"}],"outputs":[{"name":"","type":"address","internalType":"address"}],"stateMutability":"view"},{"type":"function","name":"safeMint","inputs":[{"name":"to","type":"address","internalType":"address"},{"name":"tokenId","type":"uint256","internalType":"uint256"},{"name":"data","type":"bytes","internalType":"bytes"}],"outputs":[],"stateMutability":"nonpayable"},{"type":"function","name":"safeMint","inputs":[{"name":"to","type":"address","internalType":"address"},{"name":"tokenId","type":"uint256","internalType":"uint256"}],"outputs":[],"stateMutability":"nonpayable"},{"type":"function","name":"safeTransferFrom","inputs":[{"name":"from","type":"address","internalType":"address"},{"name":"to","type":"address","internalType":"address"},{"name":"tokenId","type":"uint256","internalType":"uint256"}],"outputs":[],"stateMutability":"nonpayable"},{"type":"function","name":"safeTransferFrom","inputs":[{"name":"from","type":"address","internalType":"address"},{"name":"to","type":"address","internalType":"address"},{"name":"tokenId","type":"uint256","internalType":"uint256"},{"name":"data","type":"bytes","internalType":"bytes"}],"outputs":[],"stateMutability":"nonpayable"},{"type":"function","name":"setApprovalForAll","inputs":[{"name":"operator","type":"address","internalType":"address"},{"name":"approved","type":"bool","internalType":"bool"}],"outputs":[],"stateMutability":"nonpayable"},{"type":"function","name":"supportsInterface","inputs":[{"name":"interfaceId","type":"bytes4","internalType":"bytes4"}],"outputs":[{"name":"","type":"bool","internalType":"bool"}],"stateMutability":"pure"},{"type":"function","name":"symbol","inputs":[],"outputs":[{"name":"","type":"string","internalType":"string"}],"stateMutability":"view"},{"type":"function","name":"tokenURI","inputs":[{"name":"tokenId","type":"uint256","internalType":"uint256"}],"outputs":[{"name":"","type":"string","internalType":"string"}],"stateMutability":"view"},{"type":"function","name":"transferFrom","inputs":[{"name":"from","type":"address","internalType":"address"},{"name":"to","type":"address","internalType":"address"},{"name":"tokenId","type":"uint256","internalType":"uint256"}],"outputs":[],"stateMutability":"nonpayable"},{"type":"event","name":"Approval","inputs":[{"name":"owner","type":"address","indexed":true,"internalType":"address"},{"name":"approved","type":"address","indexed":true,"internalType":"address"},{"name":"tokenId","type":"uint256","indexed":true,"internalType":"uint256"}],"anonymous":false},{"type":"event","name":"ApprovalForAll","inputs":[{"name":"owner","type":"address","indexed":true,"internalType":"address"},{"name":"operator","type":"address","indexed":true,"internalType":"address"},{"name":"approved","type":"bool","indexed":false,"internalType":"bool"}],"anonymous":false},{"type":"event","name":"Store_SpliceStaticData","inputs":[{"name":"tableId","type":"bytes32","indexed":true,"internalType":"ResourceId"},{"name":"keyTuple","type":"bytes32[]","indexed":false,"internalType":"bytes32[]"},{"name":"start","type":"uint48","indexed":false,"internalType":"uint48"},{"name":"data","type":"bytes","indexed":false,"internalType":"bytes"}],"anonymous":false},{"type":"event","name":"Transfer","inputs":[{"name":"from","type":"address","indexed":true,"internalType":"address"},{"name":"to","type":"address","indexed":true,"internalType":"address"},{"name":"tokenId","type":"uint256","indexed":true,"internalType":"uint256"}],"anonymous":false},{"type":"error","name":"ERC721IncorrectOwner","inputs":[{"name":"sender","type":"address","internalType":"address"},{"name":"tokenId","type":"uint256","internalType":"uint256"},{"name":"owner","type":"address","internalType":"address"}]},{"type":"error","name":"ERC721InsufficientApproval","inputs":[{"name":"operator","type":"address","internalType":"address"},{"name":"tokenId","type":"uint256","internalType":"uint256"}]},{"type":"error","name":"ERC721InvalidApprover","inputs":[{"name":"approver","type":"address","internalType":"address"}]},{"type":"error","name":"ERC721InvalidOperator","inputs":[{"name":"operator","type":"address","internalType":"address"}]},{"type":"error","name":"ERC721InvalidOwner","inputs":[{"name":"owner","type":"address","internalType":"address"}]},{"type":"error","name":"ERC721InvalidReceiver","inputs":[{"name":"receiver","type":"address","internalType":"address"}]},{"type":"error","name":"ERC721InvalidSender","inputs":[{"name":"sender","type":"address","internalType":"address"}]},{"type":"error","name":"ERC721NonexistentToken","inputs":[{"name":"tokenId","type":"uint256","internalType":"uint256"}]},{"type":"error","name":"PuppetMaster_NoPuppet","inputs":[{"name":"systemAddress","type":"address","internalType":"address"},{"name":"systemId","type":"bytes32","internalType":"ResourceId"}]},{"type":"error","name":"Slice_OutOfBounds","inputs":[{"name":"data","type":"bytes","internalType":"bytes"},{"name":"start","type":"uint256","internalType":"uint256"},{"name":"end","type":"uint256","internalType":"uint256"}]},{"type":"error","name":"World_AccessDenied","inputs":[{"name":"resource","type":"string","internalType":"string"},{"name":"caller","type":"address","internalType":"address"}]}],"bytecode":{"object":"0x608060405234801561001057600080fd5b50612cb4806100206000396000f3fe608060405234801561001057600080fd5b506004361061016c5760003560e01c80636352211e116100cd578063a22cb46511610081578063c87b56dd11610066578063c87b56dd146102d1578063e1af802c146102e4578063e985e9c5146102ec57600080fd5b8063a22cb465146102ab578063b88d4fde146102be57600080fd5b80638832e6e3116100b25780638832e6e31461027d57806395d89b4114610290578063a14481941461029857600080fd5b80636352211e1461025757806370a082311461026a57600080fd5b806323b872dd1161012457806342842e0e1161010957806342842e0e1461021c57806342966c681461022f57806345ec93541461024257600080fd5b806323b872dd146101f657806340c10f191461020957600080fd5b8063081812fc11610155578063081812fc146101ae578063095ea7b3146101d9578063119df25f146101ee57600080fd5b806301ffc9a71461017157806306fdde0314610199575b600080fd5b61018461017f366004612595565b6102ff565b60405190151581526020015b60405180910390f35b6101a1610398565b6040516101909190612602565b6101c16101bc366004612615565b6103b7565b6040516001600160a01b039091168152602001610190565b6101ec6101e7366004612645565b6103cc565b005b6101c16103e2565b6101ec61020436600461266f565b6103ec565b6101ec610217366004612645565b61049c565b6101ec61022a36600461266f565b6104ae565b6101ec61023d366004612615565b6104ce565b36601f1901355b604051908152602001610190565b6101c1610265366004612615565b6104e2565b6102496102783660046126ab565b6104ed565b6101ec61028b36600461278b565b61054b565b6101a161055e565b6101ec6102a6366004612645565b610573565b6101ec6102b93660046127e2565b610595565b6101ec6102cc36600461281e565b6105a7565b6101a16102df366004612615565b6105be565b6101c161065a565b6101846102fa366004612886565b610664565b60007fffffffff0000000000000000000000000000000000000000000000000000000082167fb421288000000000000000000000000000000000000000000000000000000000148061039257507fffffffff0000000000000000000000000000000000000000000000000000000082167f01ffc9a700000000000000000000000000000000000000000000000000000000145b92915050565b60606103b26103ad6103a8610687565b6106a5565b6106d7565b905090565b60006103c2826106f5565b5061039282610746565b6103de82826103d96103e2565b610761565b5050565b60006103b261076e565b6001600160a01b03821661041b57604051633250574960e11b8152600060048201526024015b60405180910390fd5b600061042f838361042a6103e2565b6107a0565b9050836001600160a01b0316816001600160a01b031614610496576040517f64283d7b0000000000000000000000000000000000000000000000000000000081526001600160a01b0380861660048301526024820184905282166044820152606401610412565b50505050565b6104a4610924565b6103de828261093f565b6104c9838383604051806020016040528060008152506105a7565b505050565b6104d6610924565b6104df816109bd565b50565b6000610392826106f5565b60006001600160a01b038216610532576040517f89c62b6400000000000000000000000000000000000000000000000000000000815260006004820152602401610412565b610392610545610540610687565b610a11565b83610a43565b610553610924565b6104c9838383610ac9565b60606103b261056e6103a8610687565b610ae0565b61057b610924565b6103de828260405180602001604052806000815250610ac9565b6103de6105a06103e2565b8383610aff565b6105b28484846103ec565b61049684848484610c23565b60606105c9826106f5565b5060006105d4610d84565b905060006105f16105eb6105e6610687565b610d99565b85610dcb565b9050600081511161061c5760408051602081018690520160405160208183030381529060405261061e565b805b9050600082511161062f5780610652565b81816040516020016106429291906128b9565b6040516020818303038152906040525b949350505050565b60006103b2610e22565b6000610680610679610674610687565b610e61565b8484610e93565b9392505050565b60008061069330610f52565b905061069f8160101b90565b91505090565b6000610392613a3160f11b837f4d65746164617461000000000000000000000000000000000000000000000000611046565b604080516000808252602082019092526060916106528483836110cd565b60008061070183611194565b90506001600160a01b038116610392576040517f7e27328900000000000000000000000000000000000000000000000000000000815260048101849052602401610412565b600061039261075b610756610687565b6111a4565b836111d6565b6104c98383836001611256565b7fffffffffffffffffffffffffffffffffffffffffffffffffffffffffffffffcc36013560601c8061079d5750335b90565b6000806107ae610540610687565b905060006107bb85611194565b90506001600160a01b038416156107d7576107d78185876113e8565b6001600160a01b0381161561080b576107f4600086600080611256565b61080b828260016108058686610a43565b0361147e565b6001600160a01b03861615610831576108318287610829858a610a43565b60010161147e565b61084b61084461083f610687565b61151b565b868861154d565b61085361160a565b6001600160a01b03166366c93bdb7fddf252ad1be2c89b69c2b068fc378daa952ba7f163c4a11628f55a4df523b3ef610892846001600160a01b031690565b604080516000815260208101918290527fffffffff0000000000000000000000000000000000000000000000000000000060e086901b169091526108e89291906001600160a01b038c16908b90602481016128e8565b600060405180830381600087803b15801561090257600080fd5b505af1158015610916573d6000803e3d6000fd5b509298975050505050505050565b61093d61093030610f52565b6109386103e2565b6116e5565b565b6001600160a01b03821661096957604051633250574960e11b815260006004820152602401610412565b6000610977838360006107a0565b90506001600160a01b038116156104c9576040517f73c6ac6e00000000000000000000000000000000000000000000000000000000815260006004820152602401610412565b60006109cc60008360006107a0565b90506001600160a01b0381166103de576040517f7e27328900000000000000000000000000000000000000000000000000000000815260048101839052602401610412565b6000610392613a3160f11b837f42616c616e636573000000000000000000000000000000000000000000000000611046565b60408051600180825281830190925260009182919060208083019080368337019050509050826001600160a01b031660001b81600081518110610a8857610a8861291e565b60209081029190910101526000610ac08583837e20010020000000000000000000000000000000000000000000000000000000611786565b95945050505050565b610ad3838361093f565b6104c96000848484610c23565b60408051600080825260208201909252606091610652848360016110cd565b6001600160a01b038216610b4a576040517f5b08ba180000000000000000000000000000000000000000000000000000000081526001600160a01b0383166004820152602401610412565b610b60610b58610674610687565b848484611843565b610b6861160a565b6001600160a01b031663c9a34acd7f17307eab39ab6107e8899845ad3d59bd9653f200f220920489ca2b5937696c31610ba7866001600160a01b031690565b6001600160a01b038616604080518715156020820152016040516020818303038152906040526040518563ffffffff1660e01b8152600401610bec9493929190612934565b600060405180830381600087803b158015610c0657600080fd5b505af1158015610c1a573d6000803e3d6000fd5b50505050505050565b6001600160a01b0383163b1561049657826001600160a01b031663150b7a02610c4a6103e2565b8685856040518563ffffffff1660e01b8152600401610c6c9493929190612959565b6020604051808303816000875af1925050508015610ca7575060408051601f3d908101601f19168201909252610ca49181019061298b565b60015b610d10573d808015610cd5576040519150601f19603f3d011682016040523d82523d6000602084013e610cda565b606091505b508051600003610d0857604051633250574960e11b81526001600160a01b0385166004820152602401610412565b805181602001fd5b7fffffffff0000000000000000000000000000000000000000000000000000000081167f150b7a020000000000000000000000000000000000000000000000000000000014610d7d57604051633250574960e11b81526001600160a01b0385166004820152602401610412565b5050505050565b60606103b2610d946103a8610687565b611910565b6000610392613a3160f11b837f546f6b656e555249000000000000000000000000000000000000000000000000611046565b60408051600180825281830190925260609160009190602080830190803683370190505090508260001b81600081518110610e0857610e0861291e565b6020026020010181815250506000610ac0858360006110cd565b7f629a4c26e296b22a8e0856e9f6ecb2d1008d7e00081111962cd175fa7488e175546000906001600160a01b031680610e5c573391505090565b919050565b6000610392613a3160f11b837f4f70657261746f72417070726f76616c00000000000000000000000000000000611046565b60408051600280825260608201835260009283929190602083019080368337019050509050836001600160a01b031660001b81600081518110610ed857610ed861291e565b602002602001018181525050826001600160a01b031660001b81600181518110610f0457610f0461291e565b60209081029190910101526000610f3c8683837e01010001000000000000000000000000000000000000000000000000000000611786565b9050610f488160f81c90565b9695505050505050565b60408051600180825281830190925260009182919060208083019080368337019050509050826001600160a01b031660001b81600081518110610f9757610f9761291e565b60209081029190910181019190915260408051613a3160f11b818401527f776f726c6400000000000000000000000000000000000000000000000000000060228201527f53797374656d5265676973747279000000000000000000000000000000000000603082015281518082039093018352810190526000906106529061101e906129a8565b8360007e20010020000000000000000000000000000000000000000000000000000000611786565b6000611054607060106129e5565b7fffff00000000000000000000000000000000000000000000000000000000000085167dffffffffffffffffffffffffffff00000000000000000000000000000000601086901c16177fffffffffffffffffffffffffffffffff00000000000000000000000000000000841690911c1790509392505050565b606060006110d9610e22565b9050306001600160a01b038216036110fe576110f685858561192f565b915050610680565b6040517f1e7889770000000000000000000000000000000000000000000000000000000081526001600160a01b03821690631e7889779061114790889088908890600401612a34565b600060405180830381865afa158015611164573d6000803e3d6000fd5b505050506040513d6000823e601f3d908101601f191682016040526110f69190810190612a60565b509392505050565b600061039261075b61083f610687565b6000610392613a3160f11b837f546f6b656e417070726f76616c00000000000000000000000000000000000000611046565b604080516001808252818301909252600091829190602080830190803683370190505090508260001b816000815181106112125761121261291e565b6020908102919091010152600061124a8583837e14010014000000000000000000000000000000000000000000000000000000611786565b60601c95945050505050565b808061126a57506001600160a01b03821615155b156113d357600061127a846106f5565b90506001600160a01b038316158015906112a65750826001600160a01b0316816001600160a01b031614155b80156112b957506112b78184610664565b155b156112fb576040517fa9fbf51f0000000000000000000000000000000000000000000000000000000081526001600160a01b0384166004820152602401610412565b81156113d15761130961160a565b6001600160a01b03166366c93bdb7f8c5be1e5ebec7d5bd14f71427d1e84f3dd0314c0f7b2291e5b200ac8c7c3b925611348846001600160a01b031690565b604080516000815260208101918290527fffffffff0000000000000000000000000000000000000000000000000000000060e086901b1690915261139e9291906001600160a01b038b16908a90602481016128e8565b600060405180830381600087803b1580156113b857600080fd5b505af11580156113cc573d6000803e3d6000fd5b505050505b505b6104966113e1610756610687565b848661154d565b6113f3838383611969565b6104c9576001600160a01b03831661143a576040517f7e27328900000000000000000000000000000000000000000000000000000000815260048101829052602401610412565b6040517f177e802f0000000000000000000000000000000000000000000000000000000081526001600160a01b038316600482015260248101829052604401610412565b60408051600180825281830190925260009160208083019080368337019050509050826001600160a01b031660001b816000815181106114c0576114c061291e565b60200260200101818152505061049684826000856040516020016114e691815260200190565b60408051601f198184030181529190527e200100200000000000000000000000000000000000000000000000000000006119ce565b6000610392613a3160f11b837f4f776e6572730000000000000000000000000000000000000000000000000000611046565b604080516001808252818301909252600091602080830190803683370190505090508260001b816000815181106115865761158661291e565b60200260200101818152505061049684826000856040516020016115d5919060609190911b7fffffffffffffffffffffffffffffffffffffffff00000000000000000000000016815260140190565b60408051601f198184030181529190527e140100140000000000000000000000000000000000000000000000000000006119ce565b60008061161630610f52565b60408051613a3160f11b60208201527f707570706574000000000000000000000000000000000000000000000000000060228201527f5075707065745265676973747279000000000000000000000000000000000000603082015291925060009161169a9101604051602081830303815290604052611694906129a8565b83611a84565b90506001600160a01b038116610392576040517f9434f7e100000000000000000000000000000000000000000000000000000000815230600482015260248101839052604401610412565b6001600160a01b03811661173a7f6e730000000000000000000000000000000000000000000000000000000000007dffffffffffffffffffffffffffff00000000000000000000000000000000851617611abd565b6001600160a01b0316146103de5761175182611bb0565b816040517fd787b737000000000000000000000000000000000000000000000000000000008152600401610412929190612ace565b600080611791610e22565b9050306001600160a01b038216036117b7576117af86868686611d2c565b915050610652565b6040517f8c364d590000000000000000000000000000000000000000000000000000000081526001600160a01b03821690638c364d5990611802908990899089908990600401612af9565b602060405180830381865afa15801561181f573d6000803e3d6000fd5b505050506040513d601f19601f820116820180604052508101906117af9190612b28565b604080516002808252606082018352600092602083019080368337019050509050836001600160a01b031660001b816000815181106118845761188461291e565b602002602001018181525050826001600160a01b031660001b816001815181106118b0576118b061291e565b602002602001018181525050610d7d85826000856040516020016118db91151560f81b815260010190565b60408051601f198184030181529190527e010100010000000000000000000000000000000000000000000000000000006119ce565b60408051600080825260208201909252606091610652848360026110cd565b606061065261193f858585611d59565b6119628461194d8888611dd9565b9060ff166028026038011c64ffffffffff1690565b6000611dec565b60006001600160a01b038316158015906106525750826001600160a01b0316846001600160a01b031614806119a357506119a38484610664565b806106525750826001600160a01b03166119bc83610746565b6001600160a01b031614949350505050565b60006119d8610e22565b9050306001600160a01b038216036119fc576119f78686868686611e0f565b611a7c565b6040517f390baae00000000000000000000000000000000000000000000000000000000081526001600160a01b0382169063390baae090611a499089908990899089908990600401612b41565b600060405180830381600087803b158015611a6357600080fd5b505af1158015611a77573d6000803e3d6000fd5b505050505b505050505050565b6040805160018082528183019092526000918291906020808301908036833701905050905082816000815181106112125761121261291e565b604080516001808252818301909252600091829190602080830190803683370190505090508281600081518110611af657611af661291e565b60209081029190910181019190915260408051613a3160f11b818401527f776f726c6400000000000000000000000000000000000000000000000000000060228201527f4e616d6573706163654f776e657200000000000000000000000000000000000060308201528151808203909301835281019052600090611ba590611b7d906129a8565b8360007e14010014000000000000000000000000000000000000000000000000000000611786565b60601c949350505050565b606081601081901b6000611bc383611e24565b9050827fffffffffffffffffffffffffffff000000000000000000000000000000000000831615611c16577fffffffffffffffffffffffffffff0000000000000000000000000000000000008316611c38565b7f524f4f545f4e414d4553504143450000000000000000000000000000000000005b7fffffffffffffffffffffffffffffffff00000000000000000000000000000000831615611c665782611c88565b7f524f4f545f4e414d4500000000000000000000000000000000000000000000005b6040517fffff00000000000000000000000000000000000000000000000000000000000090931660208401527f3a00000000000000000000000000000000000000000000000000000000000000602284018190527fffffffffffffffffffffffffffffffff00000000000000000000000000000000928316602385015260338401521660348201526044016040516020818303038152906040529350505050919050565b6000610ac0611d3b8686611e3b565b60ff858116601b0360080285901c16611d548587611e91565b611ec2565b60008383604051602001611d6e929190612b88565b604051602081830303815290604052805190602001208260f81b7effffffffffffffffffffffffffffffffffffffffffffffffffffffffffffff19167f3b4102da22e32d82fc925482184f16c09fd4281692720b87d124aef6da48a0f1181860001c90509392505050565b6000610680611de88484611f13565b5490565b60405160208101601f19603f858401011660405283825261118c85858584611f69565b610d7d8585611e1e8487611e91565b85612038565b6000611e32607060106129e5565b9190911b919050565b60008282604051602001611e50929190612b88565b60408051601f1981840301815291905280516020909101207f86425bff6b57326c7859e89024fe4f238ca327a1ae4a230180dd2f0e88aaa7d9189392505050565b600080805b8360ff1681101561118c57611eb860ff601b83900360080287901c16836129e5565b9150600101611e96565b600060208210611ee857602082048401935060208281611ee457611ee4612bc4565b0691505b508254600882021b60208290038084111561118c576001850154600882021c82179150509392505050565b60008282604051602001611f28929190612b88565b60408051601f1981840301815291905280516020909101207f14e2fcc58e58e68ec7edc30c8d50dccc3ce2714a623ec81f46b6a63922d76569189392505050565b8115611ff25760208210611f9357602082048401935060208281611f8f57611f8f612bc4565b0691505b8115611ff2576020829003600081851015611fb75750600019600885021c19611fc2565b50600019600882021c195b8554600885021b811984511682821617845250818511611fe3575050610496565b50600194909401939283900392015b5b602083106120145783548152600190930192601f1990920191602001611ff3565b8215610496576000600019600885021c198251865482169119161782525050505050565b60006120448585611e3b565b9050847f8c0b5119d4cec7b284c6b1b39252a03d1e2f2d7451a5895562524c113bb952be85858560405161207a93929190612bda565b60405180910390a2613a3160f11b857fffff00000000000000000000000000000000000000000000000000000000000016146120b65750610496565b60006120c18661227d565b905060005b81518110156121965760008282815181106120e3576120e361291e565b6020026020010151905061210f6004826affffffffffffffffffffff191661235d90919063ffffffff16565b1561218d576040517f964f667d000000000000000000000000000000000000000000000000000000008152606082901c9063964f667d9061215a908b908b908b908b90600401612c0d565b600060405180830381600087803b15801561217457600080fd5b505af1158015612188573d6000803e3d6000fd5b505050505b506001016120c6565b506121aa828565ffffffffffff168561237b565b60005b8151811015610c1a5760008282815181106121ca576121ca61291e565b602002602001015190506121f66008826affffffffffffffffffffff191661235d90919063ffffffff16565b15612274576040517fa8ba8721000000000000000000000000000000000000000000000000000000008152606082901c9063a8ba872190612241908b908b908b908b90600401612c0d565b600060405180830381600087803b15801561225b57600080fd5b505af115801561226f573d6000803e3d6000fd5b505050505b506001016121ad565b604080516001808252818301909252606091600091906020808301908036833701905050905082816000815181106122b7576122b761291e565b60209081029190910181019190915260408051613a3160f11b818401527f73746f726500000000000000000000000000000000000000000000000000000060228201527f53746f7265486f6f6b7300000000000000000000000000000000000000000000603082015281518082039093018352810190526000906123469061233e906129a8565b83600061192f565b9050610652612358826000845161238b565b61241b565b60008160ff168261236e8560581c90565b1660ff1614905092915050565b6104c9838360208401845161242c565b600081831115801561239e575083518211155b6123da578383836040517f23230fa300000000000000000000000000000000000000000000000000000000815260040161041293929190612c46565b602084016123e884826129e5565b905060006123f68585612c6b565b6fffffffffffffffffffffffffffffffff1660809290921b9190911795945050505050565b6060600061068083601560006124ec565b82156124a657602083106124565760208304840193506020838161245257612452612bc4565b0692505b82156124a65760208390036000600019600884021c1990506008850281811c91508451811c9050811987541682821617875550818311612497575050610496565b50600194909401939182019190035b5b602081106124c85781518455600190930192602090910190601f19016124a7565b8015610496576000600019600883021c198554845182169119161785555050505050565b606060006124fa8560801c90565b90506fffffffffffffffffffffffffffffffff8516600085828161252057612520612bc4565b04905060405193506020840160208202810160405281855260005b8281101561255b578451871c82529387019360209091019060010161253b565b50505050509392505050565b7fffffffff00000000000000000000000000000000000000000000000000000000811681146104df57600080fd5b6000602082840312156125a757600080fd5b813561068081612567565b60005b838110156125cd5781810151838201526020016125b5565b50506000910152565b600081518084526125ee8160208601602086016125b2565b601f01601f19169290920160200192915050565b60208152600061068060208301846125d6565b60006020828403121561262757600080fd5b5035919050565b80356001600160a01b0381168114610e5c57600080fd5b6000806040838503121561265857600080fd5b6126618361262e565b946020939093013593505050565b60008060006060848603121561268457600080fd5b61268d8461262e565b925061269b6020850161262e565b9150604084013590509250925092565b6000602082840312156126bd57600080fd5b6106808261262e565b634e487b7160e01b600052604160045260246000fd5b604051601f8201601f1916810167ffffffffffffffff81118282101715612705576127056126c6565b604052919050565b600067ffffffffffffffff821115612727576127276126c6565b50601f01601f191660200190565b600082601f83011261274657600080fd5b81356127596127548261270d565b6126dc565b81815284602083860101111561276e57600080fd5b816020850160208301376000918101602001919091529392505050565b6000806000606084860312156127a057600080fd5b6127a98461262e565b925060208401359150604084013567ffffffffffffffff8111156127cc57600080fd5b6127d886828701612735565b9150509250925092565b600080604083850312156127f557600080fd5b6127fe8361262e565b91506020830135801515811461281357600080fd5b809150509250929050565b6000806000806080858703121561283457600080fd5b61283d8561262e565b935061284b6020860161262e565b925060408501359150606085013567ffffffffffffffff81111561286e57600080fd5b61287a87828801612735565b91505092959194509250565b6000806040838503121561289957600080fd5b6128a28361262e565b91506128b06020840161262e565b90509250929050565b600083516128cb8184602088016125b2565b8351908301906128df8183602088016125b2565b01949350505050565b85815284602082015283604082015282606082015260a06080820152600061291360a08301846125d6565b979650505050505050565b634e487b7160e01b600052603260045260246000fd5b848152836020820152826040820152608060608201526000610f4860808301846125d6565b60006001600160a01b03808716835280861660208401525083604083015260806060830152610f4860808301846125d6565b60006020828403121561299d57600080fd5b815161068081612567565b805160208083015191908110156129c9576000198160200360031b1b821691505b50919050565b634e487b7160e01b600052601160045260246000fd5b80820180821115610392576103926129cf565b60008151808452602080850194506020840160005b83811015612a2957815187529582019590820190600101612a0d565b509495945050505050565b838152606060208201526000612a4d60608301856129f8565b905060ff83166040830152949350505050565b600060208284031215612a7257600080fd5b815167ffffffffffffffff811115612a8957600080fd5b8201601f81018413612a9a57600080fd5b8051612aa86127548261270d565b818152856020838501011115612abd57600080fd5b610ac08260208301602086016125b2565b604081526000612ae160408301856125d6565b90506001600160a01b03831660208301529392505050565b848152608060208201526000612b1260808301866129f8565b60ff949094166040830152506060015292915050565b600060208284031215612b3a57600080fd5b5051919050565b85815260a060208201526000612b5a60a08301876129f8565b60ff861660408401528281036060840152612b7581866125d6565b9150508260808301529695505050505050565b8281526000602080830184516020860160005b82811015612bb757815184529284019290840190600101612b9b565b5091979650505050505050565b634e487b7160e01b600052601260045260246000fd5b606081526000612bed60608301866129f8565b65ffffffffffff851660208401528281036040840152610f4881856125d6565b848152608060208201526000612c2660808301866129f8565b65ffffffffffff85166040840152828103606084015261291381856125d6565b606081526000612c5960608301866125d6565b60208301949094525060400152919050565b81810381811115610392576103926129cf56fea264697066735822122056f6e4037fea62697adfd4599af83ba03a3567f9dfda70ae2a54a214da84b21064736f6c63430008170033","linkReferences":{}},"methodIdentifiers":{"_msgSender()":"119df25f","_msgValue()":"45ec9354","_world()":"e1af802c","approve(address,uint256)":"095ea7b3","balanceOf(address)":"70a08231","burn(uint256)":"42966c68","getApproved(uint256)":"081812fc","isApprovedForAll(address,address)":"e985e9c5","mint(address,uint256)":"40c10f19","name()":"06fdde03","ownerOf(uint256)":"6352211e","safeMint(address,uint256)":"a1448194","safeMint(address,uint256,bytes)":"8832e6e3","safeTransferFrom(address,address,uint256)":"42842e0e","safeTransferFrom(address,address,uint256,bytes)":"b88d4fde","setApprovalForAll(address,bool)":"a22cb465","supportsInterface(bytes4)":"01ffc9a7","symbol()":"95d89b41","tokenURI(uint256)":"c87b56dd","transferFrom(address,address,uint256)":"23b872dd"},"id":57}